:100000000C94B4010C94EC010C94EC010C94EC01F4
:100010000C94EC010C94EC010C94EC010C94EC01AC
:100020000C94EC010C94EC010C94761C0C944A1D7D
:100030000C9490170C94EC010C94EC010C94EC01D2
:100040000C94EC010C94EC010C94EC010C94EC017C
:100050000C94EC010C9417180C94EC010C94EC012A
:100060000C94EC010C94EC010C94EC010C94EC015C
:100070000C94EC010C94EC010C94EC010C94EC014C
:100080000C94EC010C94EC010C94EC010C94EC013C
:100090000C94EC010C94EC010C94EC010C94EC012C
:1000A0000C94EC010C94EC010C94EC012B0014006A
:1000B0001A000800150017001C0018000C001200A0
:1000C00013002A00290004001600070009000A0096
:1000D0000B000D000E000F0033003400E1001D0086
:1000E0001B00060019000500110010003600370043
:1000F0003800E5000000E000E300E20021522C009F
:1001000028002252E600E700E400000001001E0083
:100110001F002000210022002300240025002600CB
:1001200027002A000100000000000000000000007D
:100130005000510052004F0000000000010000007C
:1001400000000000000000000000000000000000AF
:100150000000000001000100010001002152010027
:1001600001002352010001000100010001001E02F4
:100170001F0220022102220223022402250226025B
:1001800027022A000100000000000000000000001B
:100190002D002E002F023002310235000100000038
:1001A00000000000000000002D022E022F00300091
:1001B000310035020100010001000100235201005D
:1001C00001002252010001000100010001000000B5
:1001D000000000000000000000000000000000001F
:1001E000000000000100000000000000000000000E
:1001F00000000000000000000000000001000000FE
:1002000000000000000000000000000000000000EE
:100210000000000001000100010001002352010064
:1002200001002352010001000100010014034300FA
:100230006F0072006E0065006C006900750073004D
:1002400000001403590075007300680061006B0022
:100250006F0062006F0000000403090409023B0004
:10026000020100A0FA0904000001030101000921B4
:10027000110100012244000705810308000109045F
:1002800001000103000000092111010001227B008F
:10029000070582032000011201000200000008652A
:1002A00032050001000102000105010902A10185DA
:1002B000020901A100050919012908150025019568
:1002C00008750181020501093009311581257F95E5
:1002D000027508810609381581257F950175088109
:1002E00006050C0A38021581257F950175088106DF
:1002F000C0C005010980A101850319012AB70015B5
:100300000126B700950175108100C0050C0901A1F7
:1003100001850419012AA002150126A00295017584
:10032000108100C005010906A101050719E029E7B0
:100330001500250195087501810295017508810157
:100340000507190029FF150026FF0095067508818D
:10035000000508190129051500250195057501916C
:1003600002950175039101C011241FBECFEFDAE0A1
:10037000DEBFCDBF04B603FE18C080916D02909120
:100380006E02A0916F02B09170028730904BA7402F
:10039000B04B59F410926D0210926E0210926F02DF
:1003A00010927002E0E0F8E3099511E0A0E0B1E0FE
:1003B000EEEFFFE302C005900D92AA39B107D9F71D
:1003C00022E0AAE9B1E001C01D92AD36B207E1F723
:1003D0000E9481110C94BE1F0C9400008430B8F46C
:1003E0006430A8F44C3098F450E09CE0699F400DD4
:1003F000511D1124FA0190E3899FE00DF11D112494
:10040000EE0FFF1FE455FF4F85919491089581E011
:1004100090E008950E94EE01089581E008950E9401
:100420000D02089581E008950E940D0208950E9432
:100430001402089508950E941A020895A6E0B0E0FB
:10044000E4E2F2E00C941A1F49835A839E833091B0
:10045000A10189819A8131111AC03E81332399F01B
:10046000222389F00E943B08182F682F89819A81E6
:100470000E94170869817A81812F0E941E0F26969B
:10048000E3E00C94361F0E942908182FF3CF0E9436
:100490003B0869817A81F1CFFC01262F408151818F
:1004A00062817381848195810E941E020895CF9399
:1004B000DF93EC0161E00E944C02BE010E940F023A
:1004C000DF91CF910895CF93DF93EC0160E00E941C
:1004D0004C02BE010E941B02DF91CF91089521E0E2
:1004E00030E0A90102C0440F551F8A95E2F7CA0106
:1004F0000E9439070895CF93C82F81E090E00C2E19
:1005000002C0880F991F0A94E2F70E94770C8C2F83
:100510000E946F02CF91089581E008950E948C029D
:100520000895CF93C82F0E94EC068C2F0E948E0254
:100530002FEF84E39CE0215080409040E1F700C021
:100540000000CF91089581E00E9491020E943B1823
:10055000089580E00E9491020E945F1808950F9311
:100560001F93CF93DF938C0161E00E944C02EC015A
:10057000B8010E941702811106C080E0DF91CF917F
:100580001F910F910895B801CE010E94AA158823EA
:10059000A1F3B801CE010E94E611882371F3B801DE
:1005A000CE010E94BC11882341F3B801CE010E9404
:1005B0002210882311F3F8018581882361F0C3306C
:1005C000FCE7DF07E9F058F4C115ECE7DE07A9F016
:1005D000C130DC47B9F0C8010E941202CFCFCB3541
:1005E0008CE7D807A9F0CC35ECE7DE0771F0CA3507
:1005F000DC4789F70E94520CEECF0E94A302BDCFC8
:100600000E945A0C0E94A902B8CF0E94480CE3CF66
:100610000E94560CE0CF0E946C170E942B03089595
:100620000E942F030E947117089581E00895089594
:10063000CF93DF93D82F0E941503C82F882319F07A
:100640008D2F0E9417038C2FDF91CF91089508956D
:100650000E941803089580E00E94280308950E94D4
:10066000F3150E9428030895CF930E94F315C82F15
:1006700080919C018C1779F0C0939C010E94FC171B
:1006800060939D0170939E0180939F019093A001C0
:100690008C2F0E942803CF910895ADE0B0E0E3E5F0
:1006A000F3E00C941B1F488759876A877B878C87E8
:1006B0009D8791110E94880B1F8286E0FE0138966B
:1006C000DE01119601900D928A95E1F78D818111DD
:1006D0000DC029813A814B815C816D817E818F8142
:1006E0000E94D20A2D96E2E00C94371FCE010196AB
:1006F0000E9457028111EDCFF5CFFC0124812130FA
:1007000021F4808191810E946D080895662329F06B
:100710000E9447130E941A1408950E94A113FACF51
:10072000CF93C82F8823C9F08238C9F40E940016DD
:1007300081FD13C089E30E94B6160E94F70B2FEFCC
:1007400087EE93E0215080409040E1F700C0000028
:1007500089E30E94BE160E94F70BCF91089583385B
:10076000A1F40E94001680FDF8CF83E50E94B61622
:100770000E94F70B2FEF81EE94E0215080409040D3
:10078000E1F700C0000083E5E4CF8438A1F40E94C3
:10079000001682FDE2CF87E40E94B6160E94F70B96
:1007A0002FEF81EE94E0215080409040E1F700C0AF
:1007B000000087E4CECF8CEF8C0F813A70F48C2F41
:1007C0000E947B16882329F08C2F0E94BE160E945F
:1007D000F70B8C2F0E94B616BECF80E28C0F8830AC
:1007E00048F4C77081E001C0880FCA95EAF70E94FB
:1007F0006B0BB1CFEBE5EC0FE33040F4F0E0E25BE4
:10080000FE4F808190E00E941C16A7CFE8E5EC0F18
:10081000EB3150F4F0E0EE0FFF1FE85EFE4F8081F9
:1008200091810E94411699CF83E38C0F833108F0A8
:1008300094CF61E08C2F0E9486038FCF882309F428
:1008400056C0823879F40E94001681FF50C089E3B7
:100850000E94B6160E94F70B89E30E94BE160E9402
:10086000F70B0895833859F40E94001680FF3FC0AB
:1008700083E50E94B6160E94F70B83E5EECF84381D
:1008800059F40E94001682FF32C087E40E94B61617
:100890000E94F70B87E4E1CF9CEF980F913AE8F2C2
:1008A00090E2980F983050F4877091E001C0990F52
:1008B0008A95EAF7892F0E94710BD1CF9BE5980F9B
:1008C000933028F490E080E00E941C16089598E58B
:1008D000980F9B3128F490E080E00E944116089523
:1008E00093E3980F933118F460E00E948603089513
:1008F0001F93CF93DF93182FEB010E949003209753
:1009000039F4812F0E941E04DF91CF911F91089529
:100910008FE99FE00197F1F700C000002197EFCF2A
:1009200070E060E0893311F460E570E00E947804C3
:100930000895882321F00E946B0B0E94F70B089505
:10094000882321F00E94710B0E94F70B0895B0E0FC
:10095000A0E0EDEAF4E00C94141F6C01D62FC72F31
:10096000FC011581068102950F700E94610BE82E33
:100970008823F9F0E12E1123E1F08C2F807F803461
:1009800061F080E28D0F883008F18C2F807E8032FC
:1009900021F4D230D8F00023C9F080914B0282FFBD
:1009A00015C082E00E941C0C0E94610B91E0E82EB1
:1009B000E926BC2EB2949FE0B922FBE0FB15B8F10A
:1009C000EB2DF0E0E054F04E0C94051FE12CF1CF3C
:1009D0000C2F0F70C07F11F00295007F112399F04A
:1009E000002359F080E28D0F883010F0D11107C03C
:1009F000802F0E946B0B0E94F70B8D2F5AC0802F07
:100A00000E947B0BF8CF8D2F0E941E04002379F0EB
:100A100080E28D0F883010F0D11104C0802F0E9429
:100A2000710B03C0802F0E94810B0E94F70BEB2DEE
:100A3000E850FF0B349720F40E94F3150E9428031E
:100A4000EE2089F00E945D0B80FD0DC0F60115823D
:100A50000E94570B0E947507C6010E94B3060E94B0
:100A6000570B0E948507CDB7DEB7E9E00C94301F25
:100A70002C2F2F70F22EC07FC03219F0F29480EF2D
:100A8000F822DD2341F0D130D1F1112309F444C023
:100A90000023F1F0B2CF80914B0282FD15C01123EB
:100AA00059F0FF2029F08F2D0E946B0B0E94F70B4D
:100AB00080E00E949003BBCF80E00E941E04FF20D4
:100AC00009F4B5CF8F2DABCF112369F0011104C00C
:100AD0008F2D0E949904ABCF013009F0A8CF8F2D44
:100AE0000E949F0BA4CF0111A2CF8F2D0E94A004C2
:100AF0008F2D0E94AB0B8F2D0E948F0B98CF11234F
:100B000021F0063008F093CFE3CF053008F08FCF07
:100B10008F2D0E94A0048BCF0023D1F3D93349F449
:100B20003FEF87EE93E0315080409040E1F700C006
:100B300000008D2F0E941E047ACF8C2F86958695FB
:100B4000837069F0813009F072CF8D2F9C2F9370E4
:100B5000111102C080E090E00E94411668CF8D2FF5
:100B60009C2F9370111102C080E090E00E941C162F
:100B70005ECF612F8D2F0E94860359CF8C2F8370FB
:100B8000A1F5111154CF4D2F429546954770440F52
:100B9000440F2D2F2F7030E0042E02C0220F331F80
:100BA0000A94E2F790E080E0D4FF09C08FE090E083
:100BB00002C0880F991F4A95E2F780959095C695D7
:100BC000C695C370822B932BC23049F058F4C130C4
:100BD00019F00E9445072BCF0E943C0728CF0E94A6
:100BE0004E0725CF0E94390722CF8695112311F099
:100BF0008C2F8170882309F41ACF4D2F429546958A
:100C00004770440F440F2D2F2F7030E0042E02C088
:100C1000220F331F0A94E2F790E080E0D4FF09C06E
:100C20008FE090E002C0880F991F4A95E2F7809507
:100C30009095C695C695C370822B932BC23049F010
:100C400058F4C13019F00E94B007F1CE0E94A707F6
:100C5000EECE0E94B907EBCE0E945D07E8CECF70C2
:100C6000112329F08C2F0E9475078D2F32CF8D2FE5
:100C70000E94A0048C2F0E948507D9CED23F41F15B
:100C800060F4D03FB9F0D13F81F0112309F443C0A3
:100C90000111B3CE8C2F8F711FC0D33F01F1D43F10
:100CA000A1F780914B0282FD24C08C2F8F711123FC
:100CB00011F312C0112341F0053008F0B8CE8C2F8B
:100CC0008F710E949707B3CE063008F0B0CEF7CFF1
:100CD0008C2F8F711111CFCF0E947507A8CE1123D1
:100CE00029F08C2F8F710E946907A1CE0E946407A2
:100CF0009ECE112331F063E08C2F8F710E94FE0B8A
:100D000096CE81E00E941C0C023008F490CE82E066
:100D10000E941C0C8CCE002359F0D93309F009CF66
:100D2000EFEFF7EE23E0E150F0402040E1F7FFCE97
:100D30008C2F8F71A0CF0F931F93CF93DF93EC0174
:100D4000688179818D810E9478088C010E94C20798
:100D50000E943807B801CE010E94A704DF91CF910D
:100D60001F910F910895CF93DF93EC018C8188231D
:100D700099F0CE010E94AF02811111C00E94610B57
:100D8000882351F08D81882339F080914B0282FFB6
:100D900003C082E00E941C0CDF91CF910895CE0128
:100DA0000E949B06CE010E946302F6CF90E080E095
:100DB0000E941C1690E080E00E9441160E94880B61
:100DC0000E94F70B0E9436140E941A1408950E9484
:100DD000C6160E94D60608950E94780B0E94E70668
:100DE000089592959F70963091F058F4925F9F709D
:100DF000923058F4803F19F030F4883E30F481E0AE
:100E000008959A5FF4CF843FD1F380E00895883E3F
:100E1000B0F3813FD1F7F3CFFC012481222339F0D5
:100E2000808191810E946D080E94F106089580E002
:100E30000895A6E0B0E0EFE1F7E00C941B1F2696C2
:100E4000E2E00C94371FA7E0B0E0E9E2F7E00C9491
:100E50001B1F2796E2E00C94371F08950E942D0770
:100E600008950E942E079093BD018093BC010895C0
:100E700008950E94310708952091BC013091BD0171
:100E8000822B932B0E94310708952091BC01309151
:100E9000BD01822393230E94310708952091BC0154
:100EA0003091BD01822793270E94310708950E9447
:100EB0002D0708950E94570708950E945A0790939E
:100EC000BB018093BA01089590E080E00E945D0725
:100ED000089521E030E0A90102C0440F551F8A9512
:100EE000E2F7CA010E945D07089521E030E002C0E8
:100EF000220F331F8A95E2F78091BA019091BB01CE
:100F0000822B932B0E945D07089521E030E002C000
:100F1000220F331F8A95E2F7209530958091BA0110
:100F20009091BB01822393230E945D07089521E0E5
:100F300030E002C0220F331F8A95E2F78091BA0198
:100F40009091BB01822793270E945D07089520910D
:100F5000BA013091BB01822B932B0E945D0708954B
:100F60002091BA013091BB01822393230E945D0737
:100F700008952091BA013091BB01822793270E94E6
:100F80005D0708950895262F277091E001C0990FFD
:100F90002A95EAF723E0769567952A95E1F7660F9B
:100FA000771F660F771FFA01E60FF71F50E040E04A
:100FB000682F70E08191DF0111979B01042E02C020
:100FC000369527950A94E2F7217021952827292341
:100FD00028272C934F5F5F4F4430510559F70895F0
:100FE000A82FA77023E0969587952A95E1F7880F9B
:100FF000991F880F991FFB01E80FF91F50E040E08F
:1010000080E0219130E00A2E02C0369527950A949F
:10101000E2F721703327042E01C0220F0A94EAF769
:10102000822B4F5F5F4F4430510559F70895262FAB
:10103000943070F48C3060F4682F70E08CE0989FEE
:10104000600D711D112442EA51E0822F0E94C307F6
:101050000895292F943068F48C3058F490E062EAB7
:1010600071E03CE0239F800D911D11240E94F00748
:10107000089580E00895B0E0A0E0E1E4F8E00C9489
:10108000141F7C010091BA011091BB018091BC0139
:101090009091BD01082B192BCFE0D0E0CC24C39454
:1010A000D12CBC2EC6010C2E02C0880F991F0A94A9
:1010B000E2F780239123892B49F4219790F7B12CF3
:1010C0008B2DCDB7DEB7E9E00C94301FB7018C2F24
:1010D0000E942A0F019789F3F3CFCF93DF93EC019E
:1010E0000E943B08BE010E942A0FDF91CF91089514
:1010F0001F93CF93DF93EB019091A101992339F0D6
:10110000CB010E946D08DF91CF911F910895882334
:1011100069F0CB010E943B08182F682FCE010E9476
:101120001708BE01812F0E942A0FEDCFCB010E942C
:101130002908182FF6CF1F93CF93DF93C091BE01DC
:1011400017E08091BF018C1304C0DF91CF911F91F4
:101150000895D0E01C9FF0011D9FF00D1124E05474
:10116000FE4F208131814281538164817581868166
:101170000E9423072196C770E4CF2091F801309197
:10118000F9014091FA015091FB016091FC017091CD
:10119000FD018091FE010E9423070895CF93DF9304
:1011A0008091FE01807F09F04DC08091FD01882370
:1011B00009F448C0E091BE015091BF01C091F9010E
:1011C000D091F8016091FA017091FB0147E05E1740
:1011D000C9F18E2F90E0E49FF0011124E054FE4FFE
:1011E0002481222391F1489FF001499FF00D1124A1
:1011F000DF01A054BE4F11962C9111972C1325C0DE
:101200002C912D1322C015962C91159721111DC0DC
:1012100012962D913C91261B370B283C3105A8F4E2
:101220008091FE018F7080618093FE01EA53FE4F32
:1012300080818F708061808388EF91E00E94B30687
:101240000E949B08DF91CF910895FC013196E770D1
:10125000BECF482F2091BE019091BF0157E02913C6
:1012600002C080E0089530E0529FF001539FF00DDE
:101270001124E054FE4F8181681306C08081481319
:1012800003C085818111EECF2F5F3F4F2770E7CFDD
:10129000A4E1B0E0EEE4F9E00C94111F8C0186E0CB
:1012A000F801DE011F9601900D928A95E1F7F80191
:1012B0008481E58098EFA92E91E0B92E9091FC01F0
:1012C00091111FC08823D1F0EE20A9F0C8010E941F
:1012D0000C07F82E882379F087E0F801D5010190FA
:1012E0000D928A95E1F7C5010E947D030E94CE0808
:1012F0000E94BD085FC0C8010E94B306FF24F3949A
:1013000059C0C080D18082809380F090FD012091EF
:10131000FA013091FB01A401421B530BFF2009F499
:10132000F9C0483C510508F0A7C0882309F442C021
:101330009091F9018091FE01282F207F09F05CC077
:101340009D1116C09091F801C91212C0E1104EC053
:101350008F7080618093FE010E94BD0888EF91E04C
:101360000E94B3068091FE01F8018683F12C22C011
:10137000E1103CC06D2D8C2D0E9429096D2D8C2D06
:101380000E942909E82E8111F1CFCF86D88A8F8556
:1013900098890E946D08292F22952F70243078F4A7
:1013A0009F702230A8F09923B9F0F8019681907FC0
:1013B00099F4FE2C8F2D6496ECE00C942D1F2A5F7F
:1013C0002F70223068F0C8010E94B306EF2CF1CFD5
:1013D000992311F0882369F3805E883050F3F3CFAE
:1013E000803F38F3815F833070F7E3CF8091FE0157
:1013F00081608093FE01BACF9D1113C09091F801D6
:10140000C9120FC0E1100DC08683C8010E94B30647
:1014100087E0F801A8EFB1E001900D928A95E1F71D
:1014200067CFC8010E940C07882309F464CFEE201F
:1014300009F461CF8091FE01803288F02091F8019B
:101440003091F901398728879B868A869091FC0123
:101450009C871D868E87CE0108960E94B30687E082
:10146000F801A8EFB1E001900D928A95E1F70E9492
:10147000CE080E94BD0842CF9091FE01292F207F07
:10148000A1F4682D9A8A898AA6017A899E2D0E94E4
:10149000190788EF91E00E94B30687E0F5011192E9
:1014A0008A95E9F70E94BD0861CF882309F482CFAD
:1014B0008091F9018D1110C08091F801C8120CC003
:1014C000E1100AC09683C8010E94B30687E0F501C7
:1014D00011928A95E9F76ECFC8010E940C07882304
:1014E00009F409CFEE2009F406CF8091FE01803285
:1014F00008F4B5CF2091F8013091F9013A8329839E
:101500009C828B829091FC019D831E828F83CE01F1
:101510000196A3CF483C5105B8F5882309F4EECED7
:10152000FE2CEE2009F4E7CE8091F9018D111EC04A
:101530008091F801C8121AC08091FE0180FD0DC093
:10154000982F907F51F08683903F09F45ECF982FBB
:10155000907F905F8F70892B57CF87E0F801A8EFBD
:10156000B1E001900D928A95E1F724CFC8010E9465
:101570000C07811174CF8091FE0181608093FE0180
:10158000C8010E94B30616CF682D9A8A898AA601DF
:101590007A899E2D0E94190787E0F50111928A959C
:1015A000E9F7A6CEAEE0B0E0E8EDFAE00C941A1F41
:1015B000288739874A875B876C877D878E87CE012E
:1015C00008960E9448098823B1F06C85662341F093
:1015D000288539854A855B857D858E850E94230710
:1015E00017E08091BE019091BF0189133DC02E96F6
:1015F000E3E00C94361F87E0FE013896DE01119679
:1016000001900D928A95E1F78C85882349F320910A
:10161000BF0130E0C9010196877099274091BE0152
:101620004817190699F097E0929FD001939FB00D4B
:101630001124A054BE4FFE01319601900D929A954F
:10164000E1F78093BF010E949B08CACF0E94EC067D
:101650001092BF011092BE0187E0E8EFF1E0DF01D8
:101660001D928A95E9F7BCCF819FC0011124805457
:101670009E4F0E944809882309F4B9CFE091BE012A
:101680001E9FF0011124E054FE4F208131814281E0
:1016900053816481758186810E9423078091BE01F8
:1016A00090E00196877099278093BE019ACF809130
:1016B0000702869586958695089580910702877022
:1016C000089590910702977081E009F480E00895F1
:1016D00080911302089590911302892B8093130235
:1016E0000895809590911302982390931302089582
:1016F00010921302089590911202892B8093120286
:101700000895809590911202982390931202089563
:1017100010921202089508950E948B0B08959091E3
:101720000802292F282331F080958923809308020D
:101730000E948C0B089508950E949B0B0895909130
:101740000902292F2823281729F0982B90930902A2
:101750000E949C0B089590910902292F282331F0B3
:1017600080958923809309020E949C0B08958091A3
:101770000902882329F01092090280E00E949C0B44
:1017800008950F931F93CF93DF9300910001109161
:101790000101C091130280911202C82B80910902AD
:1017A000882331F0C82B0E94661681110E94B70B66
:1017B000F801C083C0910001D091010148E050E0E0
:1017C0006FEF71E0CE010E94561F892B59F088E01F
:1017D000FE01AFEFB1E001900D928A95E1F7CE01E5
:1017E0000E940316DF91CF911F910F9108950E94DF
:1017F000C10B089508950E94FA0B089590914B0231
:1018000092FF11C098E0899F90011124622B609390
:1018100007020E9475078091070286958695869536
:101820000E94FB0B08950E9475070895109207020D
:1018300080E00E94FB0B0895909107028095892318
:1018400080930702282F277069F4891759F0909127
:101850004B0292FF07C08695869586950E94850764
:101860000E94160C089590914B0292FB222720F9BA
:10187000281769F080FB92F990934B0280914A02FD
:1018800090914B020E94820C82E00E941C0C0895F1
:1018900080914B0282FB882780F991E089270E9482
:1018A000330C089581E00E94330C089580E00E947B
:1018B000330C08956FEF7FEF90E080E00E94A81F47
:1018C000089590E080E00E94741F21E0853E9E4FC5
:1018D00009F020E0822F089582E090E00E946C1FC2
:1018E000089583E090E00E946C1F90E00895682FB7
:1018F00083E090E00E948A1F089584E090E00E94B7
:10190000741F0895BC0184E090E00E94A81F089510
:10191000AB01BC018FE090E00E949C1F0895AB01D9
:10192000BC0183E190E00E949C1F089560E070E09C
:10193000CB010E948F0C089560E070E0CB010E9403
:10194000880C0E94960C0895A8E0B0E0EAEAFCE05A
:101950000C941B1F65EE7EEF90E080E00E94A81FB4
:1019600060E082E090E00E948A1F81E090E0909326
:10197000BD018093BC010E94770C60E074E184E0BB
:1019800090E00E94A81F60E086E090E00E948A1F1D
:1019900060E087E090E00E948A1F40E050E0BA01DA
:1019A00088E090E00E949C1F60E083E290E00E944B
:1019B0008A1F60E08CE090E00E948A1F60E08DE06A
:1019C00090E00E948A1F19821A821B821C821D824B
:1019D0001E821F82188648E050E067E170E0CE0169
:1019E00001960E947A1F40E050E0BA018FE190E03A
:1019F0000E949C1F0E949C0C2896E2E00C94371FCA
:101A00000E94A40C0895682F8EE090E00E948A1F27
:101A10000895A6E0B0E0EFE0FDE00C94191F0E94ED
:101A2000F0178C0180911402909115028017910794
:101A300081F019821A820E94F017682F49815A8119
:101A4000792F80E090E00E944D03109315020093DF
:101A500014022696E4E00C94351F0E94FC17609354
:101A600022027093230280932402909325026093B4
:101A70001E0270931F02809320029093210208950A
:101A8000089508950E94400D089508950E94450DFF
:101A9000089580E290E10E9496110E94410D0E94FB
:101AA000420D089581E008950E94520D08950E940C
:101AB000520D0895089508950E945A0D0E945B0DDD
:101AC00008950E94610C811102C00E94000D0E94C5
:101AD0006C0C809326020E947D0C90934B028093A5
:101AE0004A020E94B9110E94710C0E94390780912C
:101AF000BA019091BB010E945A0708950E94E7170E
:101B00000E94F1100E94610D0E9427030E94460D61
:101B10000895A6E0B0E0EFE8FDE00C940F1F0E94EE
:101B2000540D81110AC00E94090D0E9458140E9490
:101B300034032696EEE00C942B1F0E94071126E139
:101B4000822E22E0922E640110E0F601E190F190E5
:101B50006F01812F0E943C101F5F143009F44BC0AD
:101B6000E816F90691F38091260281FD0E94451046
:101B70000E94570D782E10E066246394812F0E94F6
:101B80003C107C01F401A190B1904F018A159B0596
:101B900061F100E0CC24C394D12CAE24BF24C50154
:101BA0008C219D21892BC1F07720B1F009831A8304
:101BB0000E94F0179C838B836D8221E0C7018C21EA
:101BC0009D21892B09F420E049815A816B817C8118
:101BD0008D81922F0E944D030F5FCC0CDD1C0C30C9
:101BE000F1F6F4013297F182E0821F5F143031F692
:101BF0000E942D0D9ACFE816F90609F0B4CF93CFC5
:101C00001F93CF93DF930E942F0FEC01C11580E546
:101C1000D807F0F5C11580E4D80708F09CC0C03E95
:101C2000D10520F5CD3CD10508F082C0C83AD105D8
:101C300078F4C53AD10508F073C0C130D10519F167
:101C4000209709F1C430D105F0F4D0E0C0E01BC00A
:101C5000C33CD105D0F7C85AD0E0CC0FDD1FCF5A16
:101C6000DE4F0990D881C02DD4640DC0C11580E22B
:101C7000D80708F0D1C0C11581E0D80708F05AC0D4
:101C8000C83ED10510F7CE01DF91CF911F91089585
:101C9000C03682E5D80718F5C03482E5D80708F0C9
:101CA0006BC0C03282E5D80708F05FC0C11582E57D
:101CB000D80708F497C02C2F2695269580E2289FF8
:101CC000900111248C2F8370C1E0D0E002C0CC0FB2
:101CD000DD1F8A95E2F7C22BD32BDD68D4CFC03A43
:101CE00082E5D80760F4C03882E5D80708F459C007
:101CF000CF71D0E0DC2FCC27C46FD06AC4CFC03CFA
:101D000082E5D80708F462C0C03E82E5D80708F033
:101D10009CCFDC2FCC27CC27DF71C06FD06AB3CF2C
:101D2000C55AD0E0C957DE4FC881D0E0D064ABCFF0
:101D3000D065A9CF8D2F0E94D10F182FCE019927E2
:101D40000E942F0FC12FD0E0DC2FCC27CC27DF71D2
:101D5000C82BD92B98CFCE0199270E942F0FCC27C3
:101D6000DF70C82BD92BD06A8ECFCF71D0E0DC2F9B
:101D7000CC27C16FD06A87CF2C2F26952695277048
:101D800080E2289F900111248C2F8370C1E0D0E065
:101D900002C0CC0FDD1F8A95E2F7C22BD32BDC6883
:101DA00072CF2C2F26952695277080E2289F9001D0
:101DB00011248C2F8370C1E0D0E002C0CC0FDD1F56
:101DC0008A95E2F7C22BD32BDA685DCF8C2F8F7107
:101DD0000E94D10FC82FD0E0DC2FCC27CC27DF7199
:101DE000D06251CF8C2F8F710E94D10F55E0D695C4
:101DF000C7955A95E1F7CF70D0E0DC2FCC27282F7C
:101E000030E084FF05C044E0220F331F4A95E1F71C
:101E1000C22BD32BD06937CF8D2F8F710E94D10F5A
:101E2000182FCE0199270E942F0FC12FD0E0DC2F51
:101E3000CC27CC27DF71C82BD92BD2CF462F7430BB
:101E400030F46C3020F4672F0E940A02089590E06D
:101E500080E008950E941E0F0E94000E08958238AF
:101E60009105B9F1B0F48133910509F47DC048F4CE
:101E70008932910509F46DC08A32910509F47BC05D
:101E800008958533910509F45FC08933910509F1FF
:101E90000895833E9105D9F138F4803E910529F1EA
:101EA000823E910579F10895863E9105D9F1873EEC
:101EB000910509F43EC0843E910541F520914B0205
:101EC00021FF24C080914A0284FD19C087EE90E072
:101ED000089520914A02237009F05AC020914B02C4
:101EE00023FF14C089E290E0089520914A0220FD6A
:101EF00038C030914B0230FF09C024FF43C090E04E
:101F000080E0089520914A0222FDF7CF08952091A4
:101F10004A0222FD3AC030914B0230FD39C024FF05
:101F2000F5CFEDCF20914A0223FFF0CF24FDE7CF7C
:101F3000CDCF20914A0223FD2EC030914B0231FFBC
:101F4000EECF84EE90E0089520914A0225FFDECF87
:101F5000C9CF20914A0225FD21C020914B0223FFC9
:101F6000D5CF89E390E0D2CF20914A0226FFCECF91
:101F70008AE290E0089520914A0226FFC7CF81E3CC
:101F800090E0089583EE90E0089582EE90E0089549
:101F900080EE90E0089586EE90E0089585E390E06D
:101FA000089590914A0292FF10C041E0282F2471B9
:101FB000243009F040E031E0282F2871283009F062
:101FC00030E0431711F02CE0822793FF10C041E06E
:101FD000282F2471243109F040E031E0282F2871A6
:101FE000283109F030E0431711F02CE082273091BE
:101FF0004B0230FF10C051E0282F2171213009F031
:1020000050E041E0282F2871283009F040E05417B3
:1020100011F029E0822731FF10C041E0282F217103
:10202000213109F040E031E0282F2871283109F0F2
:1020300030E0431711F029E0822794FD877E089550
:1020400080E00895CF939C01205E3245C1E02032AC
:10205000310538F4FB01C581C11103C08F710E94A5
:102060007B028C2FCF91089508950E94341008951B
:1020700008950E9438100895E82FF0E0EE0FFF1F3A
:10208000EC5AFD4F808191810895089580EA8A95E8
:10209000F1F7089500C008950E9446100895F8943D
:1020A000E82FE295EF70F0E031A1282F2F7081E04A
:1020B00090E001C0880F2A95EAF7982F9095932316
:1020C00091A392A1892B82A378940895CF93DF9353
:1020D00080E30E944F1081E30E944F1082E30E9430
:1020E0004F1087E60E944F10CAE8D1E089918F3FD8
:1020F00011F00E944F1081E0C639D807B9F7DF917F
:10210000CF910895AF92BF92DF92EF92FF920F931B
:102110001F93CF93DF938C01D62EC62FD0E0CE0134
:102120008A569E4F7C01FC0120812F3F09F44CC050
:10213000F894E22FE295EF70F0E031A12F7081E08A
:1021400090E001C0880F2A95EAF7932F982B91A36E
:1021500092A18095892382A378940E944A10EAE88C
:10216000F1E041E050E0B12CA12C21912F3FB1F1E1
:10217000A22FA295AF70B0E090968C9190E02F7056
:1021800002C0959587952A95E2F780FD27C0CA0180
:10219000A82AB92A440F551F81E0E639F80729F724
:1021A000F70180818F3F11F00E944F1061E0A11470
:1021B000B10409F460E08D2D0E944C10CC0FDD1F9E
:1021C000C00FD11FB982A882DF91CF911F910F91CB
:1021D000FF90EF90DF90BF90AF90089590E080E087
:1021E000D7CF0E94661088E0E4E5F2E0DF01982F87
:1021F0001D929A95E9F7ECE4F2E0DF011D928A95D1
:10220000E9F784E00E9442110E9435100895A8E089
:10221000B0E0EDE0F1E10C94181F8E010F5F1F4F4D
:1022200088E0F80111928A95E9F7F12C6F2DC80129
:102230000E948210F394F4E0FF12F8CF48E050E0DF
:10224000B8018CE492E00E94561F21E0009709F447
:1022500020E0892B41F088E0F801ACE4B2E0019085
:102260000D928A95E1F744E064E572E08CE492E037
:102270000E944311182F0E943910812F2896E5E003
:102280000C94341F0895B0E0A0E0E9E4F1E10C946F
:10229000151F6C017B01042FC22F222379F081E0EE
:1022A000809329020E94F0179093280280932702BE
:1022B00080E0CDB7DEB7E8E00C94311FD091290261
:1022C000DD23B1F380912702909128020E94081823
:1022D000059770F310E0000F111FA801B601C701A8
:1022E0000E94561F892B31F0A801B601C7010E9438
:1022F000631FCD2F109229028C2FDBCF0E94890DF6
:1023000008950E9489170E94AD190E94490D0E94EC
:10231000C7190E947E0D0E94D4190E94D9190E94EB
:102320007E110E94F3190E945C0DF7CF90939B01E0
:1023300080939A0108950E945A0C089580E00E94AB
:102340003C10817008950E9407112FEF86E791E0FD
:10235000215080409040E1F700C000000E9407112A
:102360000E949E11882321F00E949B110E943B181D
:1023700008950E94A3110895CF93DF93EB01863156
:102380009C4711F50E94680B9D81992399F08A7AE8
:1023900091E009F490E090932A02811109C089E24A
:1023A0000E94B6160E94F70B80E0DF91CF9108954E
:1023B00085E3F6CF80912A02811104C089E20E9450
:1023C000BE16F0CF85E3FBCF81E0EFCFCF93DF9355
:1023D000EC01FB018581882309F4D2C09E013057AE
:1023E0002332310508F0B2C00E947D0C90934B025D
:1023F00080934A02FE01E150F047E232F10520F4F9
:10240000E453F04E0C94051F80914A028160809342
:102410004A0293C080914B02886080934B028DC02A
:1024200080914A028260F3CF80914A028460EFCFAC
:1024300080914A028860EBCF80914B028160EDCFA2
:1024400080914B028260E9CF80914A028061DFCFA8
:1024500080914A028062DBCF80914A028064D7CFAC
:102460000E94EC0680914A028068D1CF80914A0296
:102470008C60CDCF80914B028360CFCF80914A0298
:102480008E7FC5CF80914B02877FC7CF80914A0254
:102490008D7FBDCF80914A028B7FB9CF80914A0258
:1024A000877FB5CF80914B028E7FB7CF80914B0253
:1024B0008D7FB3CF80914A028F7EA9CF80914A024F
:1024C0008F7DA5CF80914A028F7BA1CF0E94EC0621
:1024D00080914A028F779BCF80914A02837F97CF6A
:1024E00080914B028C7F99CF80914A0282FB992781
:1024F00090F921E0922790FB82F990FB83F987CF36
:1025000080914B02982F909591708E7F892B90FB34
:1025100081F983CF90914A02892F8F7B96FF806447
:1025200076CF0E94EC0690914A02892F97FB87F99B
:1025300080586DCF81E00E94030D80914A029091F6
:102540004B020E94820C0E94EC0680E0DF91CF914A
:10255000089580E0F0CF90914A02892F8F7E94FFFA
:10256000806155CF90914A02892F8E7F90FF8160C4
:102570004ECF90914B02892F877F93FF88604DCF7C
:1025800081E0E4CF282F35EB2303C001112497FF0E
:1025900004C080589109892F089580589F4FFBCF20
:1025A0008091310280FF0DC06091070170E0660FDD
:1025B000771F6038710570F56115710569F1862F17
:1025C000089581FF07C06091070184E0689FB00112
:1025D0001124EFCF6091070182FD0AC08091300283
:1025E0008823A9F02091060160910701821710F05D
:1025F00088E0ECCF869FC001112433E0880F991F3B
:102600003A95E1F7622F70E00E94F11ED2CF68E0A8
:1026100070E0D5CF8FE7089581E008958091310271
:1026200080FF0CC06091030170E07595679575950A
:1026300067956115710549F1862F089581FF06C0E0
:102640006091030170E075956795F3CF6091030188
:1026500082FD0BC090912F029923A1F0609102019D
:1026600080910301961738F0682F70E0603871058B
:1026700000F38FE70895899FC001112470E00E9444
:10268000F11EF4CF61E070E0D7CF81E008958D3C7A
:1026900031F40E94D01281958093350208958E3CCA
:1026A00019F40E94D012F8CF8F3C31F40E94D0125E
:1026B0008195809334020895803D19F40E94D012D0
:1026C000F8CF893D29F40E940E13809336020895B5
:1026D0008A3D21F40E940E138195F7CF8B3D31F492
:1026E0000E940E1381958093370208958C3D19F452
:1026F0000E940E13F8CF9FE2980F983070F4815D1E
:10270000990B21E030E001C0220F8A95EAF7809111
:102710003302822B8093330208958D3D31F48091F2
:10272000310281608093310208958E3D21F48091C1
:1027300031028260F7CF8F3DB9F78091310284601A
:10274000F1CF409134028D3C59F48091350287FFDE
:102750000DC01092350241110BC01092300208C01A
:102760008E3C81F48091350218169CF3442381F04D
:102770008091360290913702892B09F05AC010924D
:102780002F0208958F3C49F447FFF0CF1092340296
:10279000809135028111ECCFE0CF803D19F4141601
:1027A000ACF3E4CF90913602893D29F41916F4F682
:1027B00010923602DBCF8A3D19F497FFD7CFF8CFBE
:1027C000909137028B3D29F497FFD0CF10923702BA
:1027D000CDCF8C3D19F41916CCF3C8CF9FE2980FDA
:1027E000983090F4815D990B21E030E0B90102C08E
:1027F000660F771F8A95E2F7CB018095909133029F
:10280000892380933302B2CF8D3D31F48091310220
:102810008E7F80933102AACF8E3D21F480913102C8
:102820008D7FF7CF8F3D09F0A1CF809131028B7F53
:10283000F0CF08950E94F0179C019091340280918E
:102840003502982B21F030932E0220932D02909187
:10285000360280913702982B21F030932C0220937E
:102860002B0282E392E00E940E16089586E0E2E3D6
:10287000F2E0DF011D928A95E9F710923002109282
:102880002F02109231020895FC01828181110EC045
:10289000838181110BC08481811108C091E0858101
:1028A000811101C090E0892F8170089581E0FCCFF3
:1028B000A6E0B0E0EEE5F4E10C941A1F86E0E2E356
:1028C000F2E0DE01119601900D928A95E1F71092E7
:1028D00034021092350210923602109237028B8128
:1028E0009C81892B89F080912D0290912E020E946B
:1028F0000818AC01909130029923C9F18091080128
:102900008417150608F440C08D819E81892B91F0B3
:1029100080912B0290912C020E940818AC0190919A
:102920002F02992309F46AC08091040184171506C7
:1029300008F472C0BE016F5F7F4F82E392E00E9495
:10294000D116811105C082E392E00E9444148111E6
:102950000E941A1486E0FE013196A2E3B2E00190D3
:102960000D928A95E1F72696E3E00C94361F2091AC
:1029700009018AE0289F900111242417350720F6C9
:102980009F5F9093300202C09F3FD1F71B811123BC
:1029900059F00E94D0129FEF11160CF491E0899F1C
:1029A000802D1124809334021C81112359F00E9440
:1029B000D0129FEF11160CF491E0899F802D112405
:1029C0008093350280913402882309F49DCF1091C1
:1029D0003502112309F498CF0E94C212882351F0C6
:1029E00080933402812F0E94C212882329F08093A1
:1029F00035028ACF81E0F4CF81E0F9CF2091050143
:102A00008AE0289F900111242417350708F092CFFF
:102A10009F5F90932F0202C09F3FD1F71D8111232A
:102A200059F00E940E139FEF11160CF491E0899F4C
:102A3000802D1124809336021E81112359F00E94AB
:102A40000E139FEF11160CF491E0899F802D112435
:102A50008093370280913602882309F46BCF10915E
:102A60003702112309F466CF0E94C212882351F065
:102A700080933602812F0E94C212882329F080930E
:102A8000370258CF81E0F4CF81E0F9CF0F931F9345
:102A9000CF93DF93C42FD22FFC0185818823C9F007
:102AA00040933A020E94F0179093390280933802C3
:102AB00080E28C0F883040F4C77081E001C0880F3D
:102AC000CA95EAF70E949904DF91CF911F910F9167
:102AD000089510913A02141332C0809138029091F7
:102AE00039020E940818883C910548F5C0E2CD0FD4
:102AF0001D17B9F080E2810F883040F4177081E033
:102B000001C0880F1A95EAF70E94A004C83048F463
:102B100081E09D2F977001C0880F9A95EAF70E9477
:102B20009904802F0E949004C83070F6D77081E01D
:102B300001C0880FDA95EAF70E94A004C5CF80E2B1
:102B40008C0F883008F6C77081E001C0880FCA95E5
:102B5000EAF7F2CF0F93DB0188519C47873091054C
:102B6000A0F5FC01E251F04E0C94051F06E221EEA7
:102B700041EE6AE17CE7CD010E94461580E00F91AD
:102B8000089507E225EE45EE6BE17CE7F4CF06E21F
:102B900021EE40EE68E17CE7EECF07E225EE44EE61
:102BA00069E17CE7E8CF06E221EE42EE6CE17CE7EA
:102BB000E2CF07E225EE46EE6DE17CE7DCCF08E2EE
:102BC00021E045EE6EE17CE7D6CF15968C91882307
:102BD00019F010923A02D3CF81E0D1CF9093400206
:102BE00080933F020895E0913F02F09140023097B8
:102BF00029F00190F081E02D0995089580E0089575
:102C00000E94F3150895E0913F02F0914002309741
:102C100021F00280F381E02D09950895E0913F02B3
:102C2000F0914002309739F022E0DC012C930680CD
:102C3000F781E02D09950895A3E0B0E0E2E2F6E126
:102C40000C941B1F20913D0230913E02281739073A
:102C5000A1F090933E0280933D02E0913F02F091FB
:102C60004002309751F023E029839B838A830084BC
:102C7000F185E02DCE01019609952396E2E00C94B2
:102C8000371FA3E0B0E0E7E4F6E10C941B1F2091AE
:102C90003B0230913C0228173907A1F090933C0287
:102CA00080933B02E0913F02F0914002309751F057
:102CB00024E029839B838A830084F185E02DCE0163
:102CC000019609952396E2E00C94371F409100018C
:102CD000509101019A012E5F3F4F485F5F4F80E0A6
:102CE0002417350709F40895F90191919F0199235B
:102CF000B9F38F5FF5CF882371F0209100013091F7
:102D00000101F9013296285F3F4F9191981729F000
:102D1000E217F307D1F780E0089581E008959C0160
:102D2000FC0132969FEF80E04191461751F09F3FA2
:102D300019F4411101C0982F8F5F8630A9F79F3F8A
:102D400009F40895290F311D97FD3A95F901628321
:102D50000895FC01329608962191261303C0DF01E5
:102D600011971C92E817F907B9F70895682F809119
:102D70000001909101010E948F160895682F8091A3
:102D80000001909101010E94A9160895E0910001AF
:102D9000F0910101329686E0DF011D928A95E9F7F4
:102DA0000895DC01FB0111969C9111978181981384
:102DB00022C012968C911297882319F09281891360
:102DC0001AC013968C911397882319F09381891355
:102DD00012C015968C911597882319F09581891347
:102DE0000AC014969C91992321F081E02481291333
:102DF00003C080E001C081E08170089508950E94C1
:102E0000FE16089581110EC081E080930D0160913E
:102E10000A0170910B0180910C0190910D010E94AB
:102E2000FF16089582E0F1CF83E080930D01609159
:102E30000A0170910B0180910C0190910D010E948B
:102E4000FF1608950E940217089581E080930D01F6
:102E500060910A0170910B0180910C0190910D011C
:102E60000E94FF1608950E942517089591E0811190
:102E700001C090E090930C0160910A0170910B01E8
:102E800080910C0190910D010E94FF160895809190
:102E90000C01089580930B0160910A0170910B0160
:102EA00080910C0190910D010E94FF160895809170
:102EB0000B01089580930A0160910A0170910B0142
:102EC00080910C0190910D010E94FF160895809150
:102ED0000A010895089508950E946B1708950895B2
:102EE00008950E946A170895CF930E946F170E9459
:102EF00007110E947017C0E08C2F0E943C10892B94
:102F000031F4CF5FC430C1F780E0CF91089581E004
:102F1000FCCF85B7806885BF85B7806885BF089579
:102F20001F921FB61F9211248F939F93AF93BF934D
:102F300080914102811113C080915C0290915D02E9
:102F4000A0915E02B0915F024196A11DB11D8093D8
:102F50005C0290935D02A0935E02B0935F02BF910A
:102F6000AF919F918F911F901FBE1F9018958091D8
:102F70006402843031F10E940B031092410288E117
:102F800090E020E40FB6F894A895809360000FBEFF
:102F90002093600083B7817F846083BF83B78160A3
:102FA00083BF7894889583B78E7F83BF0FB6F894DC
:102FB000A895809160008861809360001092600005
:102FC0000FBE08950E94EC060E941003089582E04F
:102FD00084BD93E095BD9AEF97BD80936E000895F0
:102FE0002FB7F89480915C0290915D02A0915E02EF
:102FF000B0915F022FBF08952FB7F89460915C02E3
:1030000070915D0280915E0290915F022FBF0895E2
:103010009C014FB7F89480915C0290915D02A09161
:103020005E02B0915F024FBF821B930B08957894AC
:103030001F921FB61F9211248F939F93AF93BF933C
:1030400080915C0290915D02A0915E02B0915F025E
:103050000196A11DB11D80935C0290935D02A09327
:103060005E02B0935F02BF91AF919F918F911F90CD
:103070001FBE1F90189581E08093E00080E280934E
:10308000D8001092C9008FE19EE40197F1F700C0CB
:10309000000087E090EBDC0180936D0290936E025C
:1030A000A0936F02B093700288E19CE00FB6F89491
:1030B000A895809360000FBE90936000FFCF88E1D9
:1030C0009CE00FB6F894A895809360000FBE909393
:1030D0006000FFCF08959B01BA0190916402943083
:1030E000E9F48F708093E9009FEF8091E8009150A0
:1030F00085FD06C085ED8A95F1F700009111F5CFA9
:103100008091E80085FF0AC050E040E0C9010E94BC
:103110006A1A8091E8008E778093E800089543E072
:1031200050E0BC0182E00E946B18089546E050E038
:10313000BC0182E00E946B180895CF93DF93EC01ED
:103140000E94471748E050E0BE0181E00E946B18E2
:1031500088E0FE01A2E4B2E001900D928A95E1F7C9
:10316000DF91CF91089580916302811109C00E947F
:10317000FA1B0E94571C8091E20084608093E20059
:1031800008951092630208950E94251781E00E941D
:10319000361708956091600281E0611101C080E0FE
:1031A0000E94141708959091640281E0943009F010
:1031B00080E0609160020E942217089542E061EC75
:1031C00081E00E94761B42E261EC82E00E94761B65
:1031D0009091640281E0943009F080E06091600297
:1031E0000E940217089580916602833009F461C03D
:1031F00030F48130D1F1823009F49EC008958A30D4
:1032000009F48AC08B3009F46FC0893009F050C0CE
:1032100080916502813209F04BC0809169029091E2
:103220006A02029708F044C08091E800877F80938B
:10323000E8008091E80082FF37C09091F300809110
:10324000F200029731F48091F100813011F0863064
:1032500021F48091F1000E944A178091E8008B7759
:103260008093E8000E94AA1B23C080916502813AE6
:10327000F9F48091E800877F8093E80080916902EB
:1032800090916A02892B61F468E082E492E070E038
:103290000E94B91A8091E8008B778093E800089526
:1032A00060E090E080E0F3CF809164028111C1CFB3
:1032B000089580916502813AD9F7809169029091D1
:1032C0006A02892BA9F78091E800877F8093E80044
:1032D0008091E80080FFFCCF0E9447178093F100A7
:1032E0008091E8008E77BCCF80916502813201F732
:1032F0008091690290916A02892BD1F68091E80051
:10330000877F8093E8000E94AA1B809167020E9439
:1033100036170E94EC06089580916502813241F6CD
:103320008091E800877F8093E8000E94AA1B80912B
:1033300068020E945A17089580916502813A09F047
:10334000B7CF8091E800877F8093E8008091E80004
:1033500080FFFCCF0E946717C1CF84B7877F84BFEF
:103360000FB6F894A8958091600088618093600002
:10337000109260000FBE80E890E00FB6F894809342
:103380006100909361000FBE0E94331708950E9460
:10339000FA1B0E94571CE2EEF0E08081846080837B
:1033A00078940E94D61E08958EE091E00E94EE155A
:1033B000089580916402853031F4809164028530F3
:1033C00019F00E94E21708950E94B7170E9474171F
:1033D000882399F380916202882379F30E94541A1A
:1033E0000E94EC06EACF08959A0140916B02509139
:1033F0006C020E94FC190895492F5527433051054E
:1034000019F168F44130510509F444C042305105C6
:1034100009F445C090E080E050E040E025C0413232
:10342000510549F142325105A9F784E490E044E2A4
:1034300053E061157105C1F08BE790E049EA52E075
:103440006130710589F0E6CF99278130910581F0CF
:10345000009729F00297F1F6ECE2F2E002C0E8E50D
:10346000F2E0849190E0AF01F90151834083089527
:10347000E2E4F2E0F6CF89E090E04EE652E061153A
:10348000710591F389E090E047E852E06130710501
:1034900059F3C0CF82E190E047E952E0E5CF8BE3FA
:1034A00090E04CE552E0E0CF80E189BD82E189BD4A
:1034B00009B400FEFDCF8091D8008F7D8093D800A5
:1034C0008091E00082608093E0008091E00081FDC7
:1034D000FCCF0895AF92BF92CF92DF92FF920F93ED
:1034E0001F93CF93DF936C01EB018A010E94C91BEC
:1034F000F82E811123C00115110539F0F8018081E2
:103500009181C81BD90BC80ED91EB12CA12C2097B4
:10351000A9F08091E80085FD22C08091E8008E77B7
:103520008093E80001151105A1F0F80180819181D7
:10353000A80EB91EB182A08285E0F82E8F2DDF91F2
:10354000CF911F910F91FF90DF90CF90BF90AF90E0
:1035500008950E94C91B8823D1F2F82EEFCFF601FF
:1035600081916F018093F1002197FFEFAF1ABF0A9D
:10357000CECFFC0180916B0290916C028617970769
:10358000A0F06115710529F49091E8009E77909361
:10359000E80090E06115710551F4911108C0809127
:1035A000E80082FF34C080E00895BC01F2CF809132
:1035B00064028823C1F18530C1F18091E80083FD68
:1035C00030C08091E80082FDEACF8091E80080FF62
:1035D000E1CF8091F3002091F200382F6115710541
:1035E00019F02830310558F091E02830310509F004
:1035F00090E02091E8002E772093E800CBCF8191D6
:103600008093F100615071092F5F3F4FE7CF8091A8
:103610006402882341F0853041F08091E80083FF07
:10362000BECF81E0089582E0089583E00895FC0113
:1036300080916B0290916C0286179707A0F061153C
:10364000710529F48091E8008E778093E80090E07E
:103650006115710551F4911108C08091E80082FF55
:1036600035C080E00895BC01F2CF809164028823C8
:10367000C9F18530C9F18091E80083FD31C08091A6
:10368000E80082FDEACF8091E80080FFE1CF8091E1
:10369000F3002091F200382F6115710519F02830E0
:1036A000310558F091E02830310509F090E0809123
:1036B000E8008E778093E800CBCF84918093F1006F
:1036C0003196615071092F5F3F4FE6CF80916402C0
:1036D000882341F0853041F08091E80083FFBDCF21
:1036E00081E0089582E0089583E00895982F97304F
:1036F00028F08F708093E90081E008959093E900AD
:10370000242F762F50E0981731F07091EC00209123
:10371000ED005091F00021FD02C09F5FE8CF309195
:10372000EB003E7F3093EB003091ED003D7F309316
:10373000ED003091EB0031603093EB007093EC00C2
:103740002093ED005093F0002091EE0027FDE5CF8F
:1037500080E008958091650287FF13C08091E800A2
:1037600082FF06C08091E8008B778093E80004C058
:10377000809164028111F2CF0895809164028823C0
:10378000D9F38091E80080FFF8CF8091E8008E7730
:10379000ECCF2091E4003091E50095E6A90120915D
:1037A000EC00822F817020FF06C08091E80080FF2E
:1037B00006C080E008952091E80022FD1AC08091A3
:1037C0006402882389F0853089F08091EB0085FDC3
:1037D0000FC02091E4003091E50042175307F9F241
:1037E0009150E1F684E0089582E0089583E0089521
:1037F00081E008950E94691C0E94711CE0EEF0E0D7
:10380000808181608083E8EDF0E080818F77808324
:1038100019BCA7EDB0E08C918E7F8C9380818F7E58
:1038200080831092630208950F931F93CF93DF93C9
:103830000E94691C0E94711CC8EDD0E088818F77BE
:10384000888388818068888388818F7D888319BC7C
:103850001092640210926002109262021092610251
:1038600000EE10E0F80180818B7F80838881816089
:10387000888342E060E080E00E94761BE1EEF0E0A9
:1038800080818E7F8083E2EEF0E0808181608083A2
:10389000808188608083F80180818E7F8083888129
:1038A00080618883DF91CF911F910F910895E8ED9A
:1038B000F0E080818F7E8083E7EDF0E080818160A1
:1038C000808384E082BF81E0809363020E94141CA5
:1038D0000895E8EDF0E080818E7F80831092E20011
:1038E00008951092DA001092E10008951F920F924D
:1038F0000FB60F9211242F933F934F935F936F93C3
:103900007F938F939F93AF93BF93EF93FF93809198
:10391000E10082FF0BC08091E20082FF07C080912E
:10392000E1008B7F8093E1000E94D51E8091DA0038
:1039300080FF19C08091D80080FF15C08091DA0007
:103940008E7F8093DA008091D90080FF96C080E15D
:1039500089BD82E189BD09B400FEFDCF81E080937D
:1039600064020E94B3188091E10080FF19C0809129
:10397000E20080FF15C08091E2008E7F8093E2001C
:103980008091E20080618093E2008091D8008062A3
:103990008093D80019BC85E0809364020E94CA1805
:1039A0008091E10084FF2BC08091E20084FF27C05A
:1039B00080E189BD82E189BD89B5982F917080FF32
:1039C000FBCF8091D8008F7D8093D8008091E1005B
:1039D0008F7E8093E1008091E2008F7E8093E200F1
:1039E0008091E20081608093E200809160028823F0
:1039F00009F449C084E0809364020E94D318809146
:103A0000E10083FF29C08091E20083FF25C08091FF
:103A1000E100877F8093E10082E08093640210924E
:103A200060028091E1008E7F8093E1008091E2004E
:103A30008E7F8093E2008091E20080618093E200BB
:103A400042E060E080E00E94761B8091F000886098
:103A50008093F0000E94C418FF91EF91BF91AF9145
:103A60009F918F917F916F915F914F913F912F9196
:103A70000F900FBE0F901F90189519BC1092640202
:103A80000E94C11870CF8091E30087FD93E090936E
:103A90006402B3CF1F920F920FB60F9211242F938F
:103AA0003F934F935F936F937F938F939F93AF93C6
:103AB000BF93CF93DF93EF93FF93D091E900DF7033
:103AC0008091EC00C82FC17080FDC0E81092E90021
:103AD0008091F000877F8093F00078940E948E1D83
:103AE0001092E9008091F00088608093F000CD2B67
:103AF000CF70C093E900FF91EF91DF91CF91BF911B
:103B0000AF919F918F917F916F915F914F913F9175
:103B10002F910F900FBE0F901F901895AAE2B0E062
:103B2000E4E9FDE10C941A1F85E692E02091F10092
:103B3000FC012193CF01F2E08D369F07B9F70E9477
:103B4000F3188091E80083FF1EC180916502909177
:103B500066029A3008F017C1E92FF0E0EB50F04E02
:103B60000C94051F803899F0823809F00CC18091BF
:103B700069028F70873008F006C18093E900809158
:103B8000EB0085FB882780F91092E90006C0809140
:103B9000610290916202911182609091E800977F9A
:103BA0009093E8008093F1001092F1008091E8007A
:103BB0008E77E5C0882309F4D3C0823009F0E3C0D2
:103BC000809167028111D6C0809169028F702FEFBA
:103BD000280F263008F0D7C08093E9002091EB0031
:103BE00020FFC8C0933031F48091EB008062809355
:103BF000EB00C0C09091EB0090619093EB0021E04E
:103C000030E001C0220F8A95EAF72093EA00109273
:103C1000EA008091EB008860EACF8111B4C0109176
:103C200067021F778091E3008078812B8093E30007
:103C30008091E800877F8093E8000E94AA1B809112
:103C4000E80080FFFCCF8091E30080688093E30070
:103C500082E0111183E08093640295C08058823025
:103C600008F091C080916702909168028C3D23E03A
:103C70009207A1F583E08A838AE289834FB7F8949B
:103C8000DE01139620E03EE051E2E32FF0E0509396
:103C90005700E49120FF03C0E295EF703F5FEF70A3
:103CA0008E2F90E0EA30C0F0C7968D939D932F5FE2
:103CB000243159F74FBF8091E800877F8093E80057
:103CC0006AE270E0CE0101960E94B91A8091E80084
:103CD0008B778093E80057C0C096E7CF6091690268
:103CE00070916A02AE014F5F5F4F0E94F419BC01F0
:103CF000892B09F448C09091E800977F9093E800E1
:103D000089819A810E94171BE1CF8038E1F580916B
:103D1000E800877F8093E800809160028093F10043
:103D200045CF811130C090916702923060F580914B
:103D3000E800877F8093E800909360020E94AA1BAE
:103D400080916002882311F084E005C08091E30037
:103D500087FDFACF81E0809364020E94DE1813C0D1
:103D600080916702813079F481E0933009F080E03E
:103D7000809362021092E9008091E800877F80932F
:103D8000E8000E94AA1B8091E80083FF0AC080918E
:103D9000E800877F8093E8008091EB008062809349
:103DA000EB00AA96E3E00C94361F0895CF93809120
:103DB00064028823A1F0C091E900CF709091EC00DB
:103DC000892F817090FD80E8C82B1092E9008091C6
:103DD000E80083FD0E948E1DCF70C093E900CF9153
:103DE000089597FB072E16F4009407D077FD09D0AD
:103DF0000E94421F07FC05D03EF4909581959F4F8D
:103E00000895709561957F4F0895EE0FFF1F0590FF
:103E1000F491E02D09942F923F924F925F926F920E
:103E20007F928F929F92AF92BF92CF92DF92EF924A
:103E3000FF920F931F93CF93DF93CDB7DEB7CA1BCB
:103E4000DB0B0FB6F894DEBF0FBECDBF09942A88F6
:103E5000398848885F846E847D848C849B84AA849E
:103E6000B984C884DF80EE80FD800C811B81AA812B
:103E7000B981CE0FD11D0FB6F894DEBF0FBECDBFF6
:103E8000ED010895AA1BBB1B51E107C0AA1FBB1F70
:103E9000A617B70710F0A61BB70B881F991F5A95D6
:103EA000A9F780959095BC01CD010895FB01DC0137
:103EB00004C08D910190801921F441505040C8F701
:103EC000881B990B0895FB01DC0102C001900D9243
:103ED00041505040D8F70895F999FECF92BD81BD69
:103EE000F89A992780B50895A8E1B0E042E050E043
:103EF0000C94B01FDC01A40FB51F4150504048F096
:103F0000CB01840F951F2E910E948B1F4150504072
:103F1000D0F70895262FF999FECF92BD81BDF89A6A
:103F2000019700B4021639F01FBA20BD0FB6F894FD
:103F3000FA9AF99A0FBE08950396272F0E948B1FB5
:103F40000E948A1F252F0E948B1F242F0C948B1FE9
:103F50000196272F0E948B1F0C948A1FDC01CB0136
:103F6000FC01F999FECF06C0F2BDE1BDF89A319689
:103F700000B40D9241505040B8F70895F894FFCF27
:103F8000E804E804380538059D05B9051705170547
:103F9000BE052F063E063E063E12B2124612101213
:103FA00014124A1218124E125A122412AB1228126C
:103FB0005E122C1262128A1230126612911236129E
:103FC0006C1274121C125212201256123A127012F3
:103FD00080129A12A9120A124212B912C715CD15EF
:103FE000B615C115D315D915DF15B21DDA1DC31EBF
:0E3FF000DA1DC31E0D1E2E1EC31E851E911E41
:103FFE000A02280850011E0A14010000010057177A
:10400E009D186A1896188F18E200E900EA00B500AC
:10401E00B600B700CD008301CC008A019201940155
:10402E002102230224022502260227022A02B300BD
:10403E00B4006F0070009F01CB019F02A00281822D
:10404E0083E200E900EA00B500B600B700CD0083B8
:10405E0001CC008A0192019401210223022402253F
:10406E0002260227022A02B300B4006F0070009FDE
:10407E0001CB019F02A002818283F0F1F4F5F6F7E5
:0A408E0066363534979630313267FC
:00000001FF
