:100000000C942D020C9465020C9465020C9465020C
:100010000C9465020C9465020C9465020C946502C4
:100020000C9465020C9465020C9414220C94E82242
:100030000C949C1C0C9465020C9465020C94650253
:100040000C9465020C9465020C9465020C94650294
:100050000C9465020C94231D0C9465020C946502AB
:100060000C9465020C9465020C9465020C94650274
:100070000C9465020C9465020C9465020C94650264
:100080000C9465020C9465020C9465020C94650254
:100090000C9465020C9465020C9465020C94650244
:1000A0000C9465020C9465020C9465022B001400FC
:1000B0001A000800150017001C0018000C001200A0
:1000C0001300407EE00004001600070009000A004B
:1000D000417E0D000E000F0033003400E1001D00D2
:1000E0001B00060019000500110010003600370043
:1000F0003800E500E400E300E200777C787C2A0029
:10010000777C2C00787CE600E700E40001001E000C
:100110001F002000210022002300240025002600CB
:1001200027002D0001001E021F02200221022202D0
:10013000230224022502260227022D020100350097
:1001400035022E002E02000000002F0030002F028A
:100150003002010001000100010001000100010066
:1001600001000100010001000100010001006A001E
:100170006B006C006D006E004A004E004B004D009D
:100180000000460001006F007000710072007300F3
:100190005000510052004F000000450001003A009D
:1001A0003B003C003D003E003F004000410042005B
:1001B00043004400010001000100010001004C0067
:1001C0000100280001000100010001000000000002
:1001D00000000000007C00000000000000000000A3
:1001E0000000000000000000A60000000000000069
:1001F0000000AA00A90000000000000000000000AC
:1002000000000000000000000000A8000000000046
:1002100000000000000000000000000000000000DE
:1002200000000000000000000000000000000000CE
:10023000000000002A2B2800000000000000000041
:100240000000000000000029000000002C1E3420E7
:10025000212224342627252E362D3738271E1F200D
:100260002122232425263333362E37381F04050652
:100270000708090A0B0C0D0E0F1011121314151696
:100280001718191A1B1C1D2F3130232D3504050694
:100290000708090A0B0C0D0E0F1011121314151676
:1002A0001718191A1B1C1D2F3130354C0000000087
:1002B000000000000000000000000000000000003E
:1002C000000000000000000000000000000000002E
:1002D0007E0F00D4FFFFFFC7000000781403430027
:1002E0006F0072006E0065006C006900750073009D
:1002F00000001403590075007300680061006B0072
:100300006F0062006F0000000403090409025B0033
:10031000030100A0FA090400000103010100092102
:1003200011010001224400070581030800010904AE
:100330000100020300000009211101000122220036
:1003400007058203200001070503032000010904BB
:1003500002000103000000092111010001227B00BD
:100360000705840320000112010002000000086557
:100370003205000100010200010660FF0961A101D0
:100380000962150026FF0095207508810209631592
:100390000026FF00952075089102C005010902A101
:1003A0000185020901A10005091901290815002587
:1003B0000195087501810205010930093115812572
:1003C0007F95027508810609381581257F9501758D
:1003D000088106050C0A38021581257F95017508EC
:1003E0008106C0C005010980A101850319012AB752
:1003F00000150126B700950175108100C0050C0994
:1004000001A101850419012AA002150126A0029567
:100410000175108100C005010906A101050719E059
:1004200029E71500250195087501810295017508D8
:1004300081010507190029FF150026FF00950675A3
:100440000881000508190129051500250195057584
:10045000019102950175039101C011241FBECFEFD8
:10046000DAE0DEBFCDBF04B603FE18C080917C0287
:1004700090917D02A0917E02B0917F028730904BD7
:10048000A740B04B59F410927C0210927D0210925A
:100490007E0210927F02E0E0F8E3099511E0A0E00F
:1004A000B1E0EEE6FBE402C005900D92AC3AB10774
:1004B000D9F722E0ACEAB1E001C01D92AC37B20737
:1004C000E1F70E9445120C9463250C940000CF9331
:1004D000803E910549F030F09C0120543E47223087
:1004E000310578F0C1E007C0FB01C581CC2331F0B4
:1004F00081E08093B2018C2FCF9108951092B201C8
:10050000F1CF81349E47E9F081E390E09093B1010F
:100510008093B00189E290E09093AF018093AE01A7
:10052000FB0185818823D9F0C091B201CC2391F0E1
:1005300080EE0E94EF048091AE010E946104C0E051
:10054000DACF8BE090E09093B1018093B0018AE222
:1005500090E0E2CF8091B0010E946104CCCF809105
:10056000B0010E94EF048091AE010E94EF04C0919F
:10057000B201CC2309F4BFCF80EEDFCF8430B8F4D2
:100580006430A8F44C3098F450E09CE0699F400D32
:10059000511D1124FA0190E3899FE00DF11D1124F2
:1005A000EE0FFF1FE455FF4F85919491089581E070
:1005B00090E0089581E008950E94DA02089581E0B4
:1005C00008950E946702089508950E94E402089524
:1005D000A6E0B0E0EEEEF2E00C94BF2449835A832B
:1005E0009E833091B80189819A8131111AC03E8170
:1005F000332399F0222389F00E94DB08182F682FFB
:1006000089819A810E94B70869817A81812F0E942D
:10061000E20F2696E3E00C94DB240E94C908182F11
:10062000F3CF0E94DB0869817A81F1CFFC01262F8C
:100630004081518162817381848195810E94E802A9
:100640000895CF93DF93EC0161E00E941603BE0191
:100650000E94DC02DF91CF910895CF93DF93EC01EC
:1006600060E00E941603BE010E94E502DF91CF9177
:10067000089591E001C0990F8A95EAF7892F0E94A9
:10068000FE070895CF93C82F81E00C2E01C0880F7C
:100690000A94EAF70E94390D8C2F0E943903CF91FA
:1006A000089581E008950E9451030895CF93C82FC3
:1006B0000E94B3078C2F0E9453032FEF84E39CE02A
:1006C000215080409040E1F700C00000CF91089594
:1006D00081E00E9456030E94471D089580E00E9419
:1006E00056030E946B1D08950F931F93CF93DF93C2
:1006F0008C0161E00E941603EC01B8010E94131AFC
:10070000811106C080E0DF91CF911F910F91089574
:10071000B801CE010E94E1028823A1F3B801CE0105
:100720000E941F19882371F3B801CE010E944C1456
:10073000882341F3B801CE010E942214882311F3CB
:10074000B801CE010E9463198823E1F2B801CE01FD
:100750000E94E6108823B1F2F8018581882361F0B8
:10076000C330FCE7DF07E9F058F4C115ECE7DE071A
:10077000A9F0C130DC47B9F0C8010E94DF02C3CF45
:10078000CB358CE7D807A9F0CC35ECE7DE0771F064
:10079000CA35DC4789F70E94140DEECF0E9468032A
:1007A000B1CF0E941C0D0E946E03ACCF0E940A0DB7
:1007B000E3CF0E94180DE0CF0E94781C0E94FC033A
:1007C00008950E9400040E947D1C089581E0089510
:1007D0000895CF93DF93D82F0E94E603C82F882374
:1007E00019F08D2F0E94E8038C2FDF91CF9108958F
:1007F00008950E94E903089580E00E94F903089596
:100800000E94FF1A0E94F9030895CF930E94FF1AD5
:10081000C82F8091B3018C1779F0C093B3010E9467
:10082000081D6093B4017093B5018093B601909355
:10083000B7018C2F0E94F903CF910895ADE0B0E08D
:10084000E4E2F4E00C94C024488759876A877B87E8
:100850008C879D8791110E944A0C1F8286E0FE01C1
:100860003896DE01119601900D928A95E1F78D81FF
:1008700081110DC029813A814B815C816D817E811E
:100880008F810E94940B2D96E2E00C94DC24CE0123
:1008900001960E9421038111EDCFF5CFFC01248147
:1008A000213021F4808191810E94080908956623F6
:1008B00029F00E94AD150E94801608950E94071627
:1008C000FACFCF93C82F8823C9F08238C9F40E9489
:1008D0000C1B81FD13C089E30E94C21B0E94B90C4E
:1008E0002FEF87EE93E0215080409040E1F700C069
:1008F000000089E30E94CA1B0E94B90CCF910895A1
:100900008338A1F40E940C1B80FDF8CF83E50E9480
:10091000C21B0E94B90C2FEF81EE94E02150804061
:100920009040E1F700C0000083E5E4CF8438A1F4F3
:100930000E940C1B82FDE2CF87E40E94C21B0E9432
:10094000B90C2FEF81EE94E0215080409040E1F708
:1009500000C0000087E4CECF8CEF8C0F813A70F49A
:100960008C2F0E94871B882329F08C2F0E94CA1B82
:100970000E94B90C8C2F0E94C21BBECF80E28C0F4C
:10098000883048F4C77081E001C0880FCA95EAF743
:100990000E942D0CB1CFEBE5EC0FE33040F4F0E01A
:1009A000EF5AFE4F808190E00E94281BA7CFE8E518
:1009B000EC0FEB3150F4F0E0EE0FFF1FE55EFE4F61
:1009C000808191810E944D1B99CF83E38C0F8331ED
:1009D00008F094CF61E08C2F0E9457048FCF8823BA
:1009E00009F456C0823879F40E940C1B81FF50C074
:1009F00089E30E94C21B0E94B90C89E30E94CA1BB2
:100A00000E94B90C0895833859F40E940C1B80FF92
:100A10003FC083E50E94C21B0E94B90C83E5EECF64
:100A2000843859F40E940C1B82FF32C087E40E9474
:100A3000C21B0E94B90C87E4E1CF9CEF980F913A5A
:100A4000E8F290E2980F983050F4877091E001C07E
:100A5000990F8A95EAF7892F0E94330CD1CF9BE535
:100A6000980F933028F490E080E00E94281B0895AE
:100A700098E5980F9B3128F490E080E00E944D1B90
:100A8000089593E3980F933118F460E00E9457049F
:100A900008951F93CF93DF93182FEB010E946104F9
:100AA000209739F4812F0E94EF04DF91CF911F919D
:100AB00008958FE99FE00197F1F700C000002197AA
:100AC000EFCF70E060E0893311F460E570E00E94E0
:100AD00049050895882321F00E942D0C0E94B90C2D
:100AE0000895882321F00E94330C0E94B90C0895C8
:100AF000B0E0A0E0EEE7F5E00C94B9246C01D62F4D
:100B0000C72FFC011581068102950F700E94230CEE
:100B1000E82E8823F9F0E12E1123E1F08C2F807F5D
:100B2000803461F080E28D0F883008F18C2F807E58
:100B3000803221F4D230D8F00023C9F080915A02DB
:100B400082FF15C082E00E94DE0C0E94230C91E01F
:100B5000E82EE926BC2EB2949FE0B922FBE0FB15FB
:100B6000B8F1EB2DF0E0EB59FA4D0C94A324E12CF5
:100B7000F1CF0C2F0F70C07F11F00295007F112371
:100B800099F0002359F080E28D0F883010F0D111D8
:100B900007C0802F0E942D0C0E94B90C8D2F5AC0C7
:100BA000802F0E943D0CF8CF8D2F0E94EF04002370
:100BB00079F080E28D0F883010F0D11104C0802FC1
:100BC0000E94330C03C0802F0E94430C0E94B90C7A
:100BD000EB2DE850FF0B349720F40E94FF1A0E947F
:100BE000F903EE2089F00E941F0C80FD0DC0F60174
:100BF00015820E94190C0E942B08C6010E947A07D8
:100C00000E94190C0E943708CDB7DEB7E9E00C94BA
:100C1000D5242C2F2F70F22EC07FC03219F0F29401
:100C200080EFF822DD2341F0D130D1F1112309F416
:100C300044C00023F1F0B2CF80915A0282FD15C06A
:100C4000112359F0FF2029F08F2D0E942D0C0E94B6
:100C5000B90C80E00E946104BBCF80E00E94EF04E9
:100C6000FF2009F4B5CF8F2DABCF112369F001110F
:100C700004C08F2D0E946A05ABCF013009F0A8CFC8
:100C80008F2D0E94610CA4CF0111A2CF8F2D0E9445
:100C900071058F2D0E946D0C8F2D0E94510C98CFE5
:100CA000112321F0063008F093CFE3CF053008F090
:100CB0008FCF8F2D0E9471058BCF0023D1F3D933B5
:100CC00049F43FEF87EE93E0315080409040E1F7E8
:100CD00000C000008D2F0E94EF047ACF8C2F8695E4
:100CE0008695837069F0813009F072CF8D2F9C2F2B
:100CF0009370111102C080E090E00E944D1B68CFFC
:100D00008D2F9C2F9370111102C080E090E00E9403
:100D1000281B5ECF612F8D2F0E94570459CF8C2F37
:100D2000837079F5111154CF4D2F42954695477038
:100D3000440F440F8D2F8F70042E01C0880F0A942A
:100D4000EAF72D2F2071D4FF07C02FE030E001C05B
:100D5000220F4A95EAF72095C695C695C370822B57
:100D6000C23049F058F4C13019F00E94070830CF62
:100D70000E9401082DCF0E940D082ACF0E94FE0775
:100D800027CF8695112311F08C2F8170882309F4C9
:100D90001FCF4D2F429546954770440F440F8D2F1E
:100DA0008F70042E01C0880F0A94EAF72D2F20714E
:100DB000D4FF07C02FE030E001C0220F4A95EAF7C8
:100DC0002095C695C695C370822BC23049F058F461
:100DD000C13019F00E945608FBCE0E945008F8CE90
:100DE0000E945C08F5CE0E941908F2CECF70112344
:100DF00029F08C2F0E942B088D2F3CCF8D2F0E9425
:100E000071058C2F0E943708E3CED23F41F160F488
:100E1000D03FB9F0D13F81F0112309F443C0011153
:100E2000BDCE8C2F8F711FC0D33F01F1D43FA1F7EE
:100E300080915A0282FD24C08C2F8F71112311F3EF
:100E400012C0112341F0053008F0C2CE8C2F8F71F3
:100E50000E944408BDCE063008F0BACEF7CF8C2FE2
:100E60008F711111CFCF0E942B08B2CE112329F020
:100E70008C2F8F710E942208ABCE0E941E08A8CE34
:100E8000112331F063E08C2F8F710E94C00CA0CE33
:100E900081E00E94DE0C023008F49ACE82E00E94CB
:100EA000DE0C96CE002359F0D93309F013CFEFEFC3
:100EB000F7EE23E0E150F0402040E1F709CF8C2F1E
:100EC0008F71A0CF0F931F93CF93DF93EC016881B5
:100ED00079818D810E9413098C010E9462080E9411
:100EE000FD07B801CE010E947805DF91CF911F91D7
:100EF0000F910895CF93DF93EC018C81882399F0B3
:100F0000CE010E947403811111C00E94230C88231A
:100F100051F08D81882339F080915A0282FF03C0FD
:100F200082E00E94DE0CDF91CF910895CE010E94F5
:100F30006207CE010E942D03F6CF90E080E00E9470
:100F4000281B90E080E00E944D1B0E944A0C0E94EA
:100F5000B90C0E949C160E94801608950E94D21B14
:100F60000E949D0708950E943A0C0E94AE070895C2
:100F700092959F70963091F058F4925F9F709230E6
:100F800058F4803F19F030F4883E30F481E0089541
:100F90009A5FF4CF843FD1F380E00895883EB0F3A8
:100FA000813FD1F7F3CFFC012481222339F08081E6
:100FB00091810E9408090E94B807089580E0089571
:100FC000A6E0B0E0E6EEF7E00C94C0242696E2E05E
:100FD0000C94DC24A7E0B0E0E0EFF7E00C94C02430
:100FE0002796E2E00C94DC2408950E94F40708950B
:100FF0000E94F5078093CC01089508950E94F80798
:1010000008959091CC01892B0E94F8070895909142
:10101000CC0189230E94F80708959091CC0189277B
:101020000E94F80708950E94F40708950E9413088B
:1010300008950E9416088093CB01089580E00E94D5
:101040001908089591E001C0990F8A95EAF7892F50
:101050000E941908089521E030E001C0220F8A950E
:10106000EAF78091CB01822B0E941908089521E0B4
:1010700030E001C0220F8A95EAF720958091CB01DC
:1010800082230E941908089521E030E001C0220F58
:101090008A95EAF78091CB0182270E94190808956A
:1010A0009091CB01892B0E94190808959091CB0152
:1010B00089230E94190808959091CB0189270E94E5
:1010C000190808950895262F277091E001C0990FFF
:1010D0002A95EAF723E0769567952A95E1F7FB01D3
:1010E000EE0FFF1FE60FF71FE40FF51F50E040E083
:1010F000682F70E08191DF0111979B01042E02C0DF
:10110000369527950A94E2F72170219528272923FF
:1011100028272C934F5F5F4F4330510559F70895AF
:10112000A82FA77023E0969587952A95E1F7FC01F3
:10113000EE0FFF1FE80FF91FE60FF71F50E040E02A
:1011400080E0219130E00A2E02C0369527950A945E
:10115000E2F721703327042E01C0220F0A94EAF728
:10116000822B4F5F5F4F4330510559F70895262F6B
:10117000943070F48C3060F4682F70E08CE0989FAD
:10118000600D711D112449EB51E0822F0E9463080C
:101190000895292F943068F48C3058F490E069EB6E
:1011A00071E03CE0239F800D911D11240E94900866
:1011B000089580E00895CF92DF92FF920F931F93DE
:1011C000CF93DF936C010091CB018091CC01082B70
:1011D000C3E0D0E010E0FC2EC8010C2E02C09595B3
:1011E00087950A94E2F780FD0CC02197A0F7F12CB7
:1011F0008F2DDF91CF911F910F91FF90DF90CF90B6
:101200000895B6018C2F0E94EE0F019771F3F0CF75
:10121000CF93DF93EC010E94DB08BE010E94EE0F2A
:10122000DF91CF9108951F93CF93DF93EB019091BE
:10123000B801992339F0CB010E940809DF91CF91C1
:101240001F910895882369F0CB010E94DB08182FB5
:10125000682FCE010E94B708BE01812F0E94EE0FB9
:10126000EDCFCB010E94C908182FF6CFE1E0F0E0E6
:10127000DF0102C0AA0FBB1F6A95E2F7BD01DF01C3
:1012800002C0AA0FBB1F4A95E2F76A2B01C0EE0FFE
:101290002A95EAF7962F9823961302C08E2B08956D
:1012A000E0958E230895242F462F682F8091CB013F
:1012B0000E9436090E94190808951F93CF93DF9367
:1012C000C091CD0117E08091CE018C1304C0DF9155
:1012D000CF911F910895D0E01C9FF0011D9FF00D4C
:1012E0001124E153FE4F2081318142815381648179
:1012F000758186810E94EA072196C770E4CF20910C
:101300000702309108024091090250910A0260914F
:101310000B0270910C0280910D020E94EA07089561
:10132000CF93DF9380910D02807F09F04DC08091B3
:101330000C02882309F448C0E091CD015091CE0100
:10134000C0910802D09107026091090270910A02CF
:1013500047E05E17C9F18E2F90E0E49FF001112461
:10136000E153FE4F2481222391F1489FF001499FD0
:10137000F00D1124DF01A153BE4F11962C9111974E
:101380002C1325C02C912D1322C015962C91159746
:1013900021111DC012962D913C91261B370B283C24
:1013A0003105A8F480910D028F70806180930D0249
:1013B000EB52FE4F80818F708061808387E092E0E6
:1013C0000E947A070E945D09DF91CF910895FC0188
:1013D0003196E770BECF482F2091CD019091CE017C
:1013E00057E0291302C080E0089530E0529FF001D9
:1013F000539FF00D1124E153FE4F8181681306C005
:101400008081481303C085818111EECF2F5F3F4F4C
:101410002770E7CFA4E1B0E0E0E1FAE00C94B62455
:101420008C0186E0F801DE011F9601900D928A95ED
:10143000E1F7F8018481E58097E0A92E92E0B92ECA
:1014400090910B0291111FC08823D1F0EE20A9F0DA
:10145000C8010E94D307F82E882379F087E0F801AD
:10146000D50101900D928A95E1F7C5010E944E04C5
:101470000E9490090E947F095FC0C8010E947A07FC
:10148000FF24F39459C0C080D18082809380F09073
:101490000C022091090230910A02A401421B530B55
:1014A000FF2009F4F9C0483C510508F0A7C0882383
:1014B00009F442C09091080280910D02282F207FEC
:1014C00009F05CC09D1116C090910702C91212C0AC
:1014D000E1104EC08F70806180930D020E947F09E1
:1014E00087E092E00E947A0780910D02F8018683DE
:1014F000F12C22C0E1103CC06D2D8C2D0E94EB0917
:101500006D2D8C2D0E94EB09E82E8111F1CFCF8635
:10151000D88A8F8598890E940809292F22952F70D3
:10152000243078F49F702230A8F09923B9F0F801A4
:101530009681907F99F4FE2C8F2D6496ECE00C94AC
:10154000D2242A5F2F70223068F0C8010E947A07E7
:10155000EF2CF1CF992311F0882369F3805E883056
:1015600050F3F3CF803F38F3815F833070F7E3CFE0
:1015700080910D02816080930D02BACF9D1113C03E
:1015800090910702C9120FC0E1100DC08683C801F7
:101590000E947A0787E0F801A7E0B2E001900D927F
:1015A0008A95E1F767CFC8010E94D307882309F421
:1015B00064CFEE2009F461CF80910D02803288F073
:1015C0002091070230910802398728879B868A86F6
:1015D00090910B029C871D868E87CE0108960E94F3
:1015E0007A0787E0F801A7E0B2E001900D928A95B2
:1015F000E1F70E9490090E947F0942CF90910D026D
:10160000292F207FA1F4682D9A8A898AA6017A89D8
:101610009E2D0E94E00787E092E00E947A0787E013
:10162000F50111928A95E9F70E947F0961CF88231D
:1016300009F482CF809108028D1110C080910702B9
:10164000C8120CC0E1100AC09683C8010E947A0734
:1016500087E0F50111928A95E9F76ECFC8010E94E3
:10166000D307882309F409CFEE2009F406CF80912F
:101670000D02803208F4B5CF2091070230910802A4
:101680003A8329839C828B8290910B029D831E82D8
:101690008F83CE010196A3CF483C5105B8F588232E
:1016A00009F4EECEFE2CEE2009F4E7CE809108027C
:1016B0008D111EC080910702C8121AC080910D02C0
:1016C00080FD0DC0982F907F51F08683903F09F4E4
:1016D0005ECF982F907F905F8F70892B57CF87E0D8
:1016E000F801A7E0B2E001900D928A95E1F724CFCE
:1016F000C8010E94D307811174CF80910D028160CF
:1017000080930D02C8010E947A0716CF682D9A8A2D
:10171000898AA6017A899E2D0E94E00787E0F5015B
:1017200011928A95E9F7A6CEAEE0B0E0EAE9FBE0D7
:101730000C94BF24288739874A875B876C877D870D
:101740008E87CE0108960E940A0A8823B1F06C8524
:10175000662341F0288539854A855B857D858E85A0
:101760000E94EA0717E08091CD019091CE01891384
:101770003DC02E96E3E00C94DB2487E0FE01389612
:10178000DE01119601900D928A95E1F78C858823F0
:1017900049F32091CE0130E0C90101968770992765
:1017A0004091CD014817190699F097E0929FD0011A
:1017B000939FB00D1124A153BE4FFE0131960190AD
:1017C0000D929A95E1F78093CE010E945D09CACFF0
:1017D0000E94B3071092CE011092CD0187E0E7E09E
:1017E000F2E0DF011D928A95E9F7BCCF819FC0012D
:1017F000112481539E4F0E940A0A882309F4B9CF0D
:10180000E091CD011E9FF0011124E153FE4F208194
:101810003181428153816481758186810E94EA070A
:101820008091CD0190E00196877099278093CD013A
:101830009ACF809116028695869586950895809117
:1018400016028770089590911602977081E009F44E
:1018500080E0089580912202089590912202892BC0
:10186000809322020895809590912202982390936C
:101870002202089510922202089590912102892B4C
:10188000809321020895809590912102982390934E
:101890002102089510922102089508950E944D0C8E
:1018A000089590911702292F282331F080958923DC
:1018B000809317020E944E0C089508950E945D0CBB
:1018C000089590911802292F2823281729F0982B82
:1018D000909318020E945E0C089590911802292F8F
:1018E000282331F080958923809318020E945E0C92
:1018F000089580911802882329F01092180280E040
:101900000E945E0C08950F931F93CF93DF93009175
:10191000000110910101C091220280912102C82B87
:1019200080911802882331F0C82B0E94721B81110C
:101930000E94790CF801C083C0910001D09101018F
:1019400048E050E06EE072E0CE010E94FB24892B5B
:1019500059F088E0FE01AEE0B2E001900D928A9568
:10196000E1F7CE010E940F1BDF91CF911F910F91E4
:1019700008950E94830C089508950E94BC0C089558
:1019800090915A0292FF11C098E0899F9001112412
:10199000622B609316020E942B0880911602869596
:1019A000869586950E94BD0C08950E942B08089587
:1019B0001092160280E00E94BD0C089590911602CC
:1019C0008095892380931602282F277069F4891740
:1019D00059F090915A0292FF07C086958695869598
:1019E0000E9437080E94D80C089590915A0292FBE9
:1019F000222720F9281769F080FB92F990935A0268
:101A00008091590290915A020E94440D82E00E94F6
:101A1000DE0C089580915A0282FB882780F991E0BC
:101A200089270E94F50C089581E00E94F50C089525
:101A300080E00E94F50C08956FEF7FEF90E080E06A
:101A40000E944D25089590E080E00E941925853E72
:101A50009E4F19F40E94AC19089580E0089582E029
:101A600090E00E941125089583E090E00E941125E6
:101A70000895682F83E090E00E942F25089584E068
:101A800090E00E9419250895BC0184E090E00E9436
:101A90004D250895AB01BC018FE090E00E944125E7
:101AA0000895AB01BC0183E190E00E9441250895B7
:101AB00060E070E0CB010E94510D089560E070E09D
:101AC000CB010E944A0D0E94580D0895A8E0B0E095
:101AD000ECE6FDE00C94C02465EE7EEF90E080E043
:101AE0000E944D2560E082E090E00E942F2581E079
:101AF0008093CC010E94390D60E074E184E090E0B5
:101B00000E944D2560E086E090E00E942F2560E075
:101B100087E090E00E942F2540E050E0BA0188E085
:101B200090E00E94412560E083E290E00E942F2532
:101B300060E08CE090E00E942F2560E08DE090E076
:101B40000E942F2519821A821B821C821D821E82EE
:101B50001F82188648E050E067E170E0CE010196F0
:101B60000E941F2540E050E0BA018FE190E00E9402
:101B7000412580E00E94C5190E94F5190E945E0D62
:101B80002896E2E00C94DC240E94660D0895682FEC
:101B90008EE090E00E942F250895A6E0B0E0E3EDEE
:101BA000FDE00C94BE240E94FC1C8C018091230259
:101BB000909124028017910781F019821A820E9465
:101BC000FC1C682F49815A81792F80E090E00E94A7
:101BD0001E0410932402009323022696E4E00C9442
:101BE000DA240E94081D60933102709332028093C0
:101BF00033029093340260932D0270932E028093EF
:101C00002F02909330020895089508950E94040EC3
:101C1000089508950E94090E089584EE90E10E94AF
:101C20005C120E94050E0E94060E089581E0089540
:101C30000E94160E08950E94160E089508950895A4
:101C40000E941E0E0E941F0E08950E94230D8111F6
:101C500002C00E94C40D0E942F0D809335020E9485
:101C60003F0D90935A02809359020E947F120E9466
:101C7000340D0E94FE078091CB010E941608089542
:101C80000E94F31C0E94051A0E94B5110E94250EA5
:101C90000E94F8030E940A0E0895A6E0B0E0E3E572
:101CA000FEE00C94B4240E94180E81110AC00E9418
:101CB000CD0D0E94BE160E9405042696EEE00C94FF
:101CC000D0240E94CB1125E2822E22E0922E6401C4
:101CD00010E0F601E190F1906F01812F0E94001158
:101CE0001F5F143009F44BC0E816F90691F3809198
:101CF000350281FD0E9409110E941B0E782E10E012
:101D000066246394812F0E9400117C01F401A1904C
:101D1000B1904F018A159B0561F100E0CC24C3947A
:101D2000D12CAE24BF24C5018C219D21892BC1F06B
:101D30007720B1F009831A830E94FC1C9C838B835B
:101D40006D8221E0C7018C219D21892B09F420E0BF
:101D500049815A816B817C818D81922F0E941E0462
:101D60000F5FCC0CDD1C0C30F1F6F4013297F182E0
:101D7000E0821F5F143031F60E94F10D9ACFE81611
:101D8000F90609F0B4CF93CF1F93CF93DF930E944E
:101D9000F30FEC01C11580E5D807F0F5C11580E41B
:101DA000D80708F09CC0C03ED10520F5CD3CD10538
:101DB00008F082C0C83AD10578F4C53AD10508F0D8
:101DC00073C0C130D10519F1209709F1C430D10594
:101DD000F0F4D0E0C0E01BC0C33CD105D0F7C85A36
:101DE000D0E0CC0FDD1FCC5ADE4F0990D881C02D3A
:101DF000D4640DC0C11580E2D80708F0D1C0C11568
:101E000081E0D80708F05AC0C83ED10510F7CE01CE
:101E1000DF91CF911F910895C03682E5D80718F55C
:101E2000C03482E5D80708F06BC0C03282E5D8071D
:101E300008F05FC0C11582E5D80708F497C02C2FC1
:101E40002695269580E2289F900111248C2F83707F
:101E5000C1E0D0E002C0CC0FDD1F8A95E2F7C22BB3
:101E6000D32BDD68D4CFC03A82E5D80760F4C03800
:101E700082E5D80708F459C0CF71D0E0DC2FCC2719
:101E8000C46FD06AC4CFC03C82E5D80708F462C0F2
:101E9000C03E82E5D80708F09CCFDC2FCC27CC27AA
:101EA000DF71C06FD06AB3CFC55AD0E0C657DE4FDE
:101EB000C881D0E0D064ABCFD065A9CF8D2F0E9470
:101EC0009510182FCE0199270E94F30FC12FD0E053
:101ED000DC2FCC27CC27DF71C82BD92B98CFCE0194
:101EE00099270E94F30FCC27DF70C82BD92BD06A1B
:101EF0008ECFCF71D0E0DC2FCC27C16FD06A87CFD7
:101F00002C2F26952695277080E2289F900111247A
:101F10008C2F8370C1E0D0E002C0CC0FDD1F8A950A
:101F2000E2F7C22BD32BDC6872CF2C2F2695269597
:101F3000277080E2289F900111248C2F8370C1E0CC
:101F4000D0E002C0CC0FDD1F8A95E2F7C22BD32B65
:101F5000DA685DCF8C2F8F710E949510C82FD0E06A
:101F6000DC2FCC27CC27DF71D06251CF8C2F8F7123
:101F70000E94951055E0D695C7955A95E1F7CF7018
:101F8000D0E0DC2FCC27282F30E084FF05C044E0D0
:101F9000220F331F4A95E1F7C22BD32BD06937CFDD
:101FA0008D2F8F710E949510182FCE0199270E94B6
:101FB000F30FC12FD0E0DC2FCC27CC27DF71C82B4B
:101FC000D92BD2CF462F743030F46C3020F4672FE9
:101FD0000E943A13089590E080E008950E94E20F75
:101FE0000E94C40E089582389105B9F1B0F481338E
:101FF000910509F47DC048F48932910509F46DC05A
:102000008A32910509F47BC008958533910509F45E
:102010005FC08933910509F10895833E9105D9F197
:1020200038F4803E910529F1823E910579F10895B9
:10203000863E9105D9F1873E910509F43EC0843E64
:10204000910541F520915A0221FF24C08091590247
:1020500084FD19C087EE90E0089520915902237005
:1020600009F05AC020915A0223FF14C089E290E07F
:1020700008952091590220FD38C030915A0230FF56
:1020800009C024FF43C090E080E0089520915902E8
:1020900022FDF7CF08952091590222FD3AC03091D8
:1020A0005A0230FD39C024FFF5CFEDCF20915902FF
:1020B00023FFF0CF24FDE7CFCDCF2091590223FDA0
:1020C0002EC030915A0231FFEECF84EE90E0089599
:1020D0002091590225FFDECFC9CF2091590225FD5D
:1020E00021C020915A0223FFD5CF89E390E0D2CFBF
:1020F0002091590226FFCECF8AE290E008952091E8
:10210000590226FFC7CF81E390E0089583EE90E067
:10211000089582EE90E0089580EE90E0089586EEB6
:1021200090E0089585E390E008959091590292FF20
:1021300010C041E0282F2471243009F040E031E044
:10214000282F2871283009F030E0431711F02CE0D7
:10215000822793FF10C041E0282F2471243109F019
:1021600040E031E0282F2871283109F030E0431792
:1021700011F02CE0822730915A0230FF10C051E05C
:10218000282F2171213009F050E041E0282F2871DB
:10219000283009F040E0541711F029E0822731FF80
:1021A00010C041E0282F2171213109F040E031E0D9
:1021B000282F2871283109F030E0431711F029E069
:1021C000822794FD877E089580E00895CF939C0137
:1021D000205E3245C1E02032310538F4FB01C58173
:1021E000C11103C08F710E9442038C2FCF910895BB
:1021F00008950E94F810089508950E94FC10089513
:10220000E82FF0E0EE0FFF1FED59FD4F8081918127
:102210000895089580EA8A95F1F7089500C0089519
:102220000E940A110895F894E82FE295EF70F0E00B
:1022300031A1282F2F7081E090E001C0880F2A95EE
:10224000EAF7982F9095932391A392A1892B82A3CB
:1022500078940895CF93DF9380E30E94131181E374
:102260000E94131182E30E94131187E60E9413114A
:10227000CDE8D1E089918F3F11F00E94131181E0E8
:10228000C939D807B9F7DF91CF910895AF92BF92BE
:10229000DF92EF92FF920F931F93CF93DF938C0106
:1022A000D62EC62FD0E0CE0187569E4F7C01FC0172
:1022B00020812F3F09F44CC0F894E22FE295EF7093
:1022C000F0E031A12F7081E090E001C0880F2A95E5
:1022D000EAF7932F982B91A392A18095892382A34B
:1022E00078940E940E11EDE8F1E041E050E0B12C4D
:1022F000A12C21912F3FB1F1A22FA295AF70B0E098
:1023000090968C9190E02F7002C0959587952A95B4
:10231000E2F780FD27C0CA01A82AB92A440F551F39
:1023200081E0E939F80729F7F70180818F3F11F043
:102330000E94131161E0A114B10409F460E08D2D35
:102340000E941011CC0FDD1FC00FD11FB982A882CF
:10235000DF91CF911F910F91FF90EF90DF90BF9091
:10236000AF90089590E080E0D7CF0E942A1188E0D6
:10237000E3E6F2E0DF01982F1D929A95E9F7EBE58D
:10238000F2E0DF011D928A95E9F784E00E940612CF
:102390000E94F9100895A8E0B0E0E1EDF1E10C949D
:1023A000BD248E010F5F1F4F88E0F80111928A95BE
:1023B000E9F7F12C6F2DC8010E944611F394F4E067
:1023C000FF12F8CF48E050E0B8018BE592E00E94A0
:1023D000FB2421E0009709F420E0892B41F088E0FC
:1023E000F801ABE5B2E001900D928A95E1F744E087
:1023F00063E672E08BE592E00E940712182F0E94BC
:10240000FD10812F2896E5E00C94D9240895B0E0C2
:10241000A0E0EDE0F2E10C94BA246C017B01042F02
:10242000C22F222379F081E0809338020E94FC1CA5
:10243000909337028093360280E0CDB7DEB7E8E0B4
:102440000C94D624D0913802DD23B1F3809136026A
:10245000909137020E94141D059770F310E0000F51
:10246000111FA801B601C7010E94FB24892B31F07E
:10247000A801B601C7010E940825CD2F109238028D
:102480008C2FDBCF0E944D0E08950E94951C0E9458
:10249000FD1E0E940D0E0E94171F0E94400E0E94FA
:1024A000241F0E94291F0E9442120E94431F0E9463
:1024B000C81D0E94200EF5CF9093AD018093AC0112
:1024C00008950E941C0D089580E00E940011817003
:1024D00008950E94CB112FEF86E791E021508040B4
:1024E0009040E1F700C000000E94CB110E946412EE
:1024F000882321F00E9461120E94471D08950E94C6
:102500006912089584E0089550E0440F551F98E142
:10251000699F400D511D112490E6899F400D511D6A
:102520001124CA01889608950F931F93CF93DF93C8
:102530008430C8F46430B8F44C30A8F40E9484129B
:102540008C010E941125C82FD0E0DC2FCC27C801B8
:1025500001960E9411259E01282BC901DF91CF9180
:102560001F910F91089590E080E0F8CF0F931F9393
:10257000CF93DF93122F032F843078F4643068F404
:102580004C3058F40E948412EC01602F0E942F25D9
:10259000612FCE0101960E942F25DF91CF911F91CF
:1025A0000F9108951F93CF93DF93D0E0C0E011C047
:1025B000412F6C2F8D2F0E94BE029C01412F6C2F4A
:1025C0008D2F0E94B6121F5F1C3091F7CF5FC43071
:1025D00011F010E0EDCFDF5FD43041F7DF91CF9104
:1025E0001F910895EF92FF920F931F93CF93DF9364
:1025F000EC018A017C01E60EF71ECE018896CE150D
:10260000DF0529F4CDB7DEB7E6E00C94D824C03856
:1026100021E0D20740F40E941125F80180830F5F6A
:102620001F4F2196EACFF8011082F9CFB0E0A0E069
:10263000ECE1F3E10C94BA247C016A018C01060FF1
:10264000171FEC01CE018896C017D10729F4CDB72A
:10265000DEB7E8E00C94D624C03821E0D20740F47D
:10266000FE01EE19FF09EC0DFD1D60810E942F2572
:102670002196E8CF843038F4643028F44C3018F4D4
:102680000E949412089590E080E0089580E10895FA
:1026900088E592E00895EF92FF920F931F93CF93F6
:1026A000DF93EC018A017C01E60EF71ECE0188550E
:1026B0009E4FCE15DF0529F4CDB7DEB7E6E00C94CA
:1026C000D824C83522E0D20740F40E941125F80131
:1026D00080830F5F1F4F2196E9CFF8011082F9CF59
:1026E000B0E0A0E0E6E7F3E10C94BA247C016A01D3
:1026F0008C01060F171FEC01CE0188559E4FC017A5
:10270000D10729F4CDB7DEB7E8E00C94D624C8355C
:1027100022E0D20740F4FE01EE19FF09EC0DFD1D89
:1027200060810E942F252196E7CFCF93DF93C8EADF
:10273000D1E060E0CE010E942F252196C11584E0F2
:10274000D807B9F7DF91CF910895A8E0B0E0EBEAA0
:10275000F3E10C94B824F82E8FE08F1508F46EC0C6
:102760008FEF93E00E941125811168C008EA11E003
:10277000F11035C0FE0131966F0188E011928A9503
:10278000E9F77801FFEFEF1AFF0AC8010E9411254F
:1027900089831A82882309F451C08130D1F4580109
:1027A00082E0A80EB11CC7010E9411258A838823EC
:1027B00009F444C09FEF980F9330F0F4780193E050
:1027C000E90EF11CC5010E9411258B838823B1F10C
:1027D0001C8260E0C6010E9450188701D2CF01150B
:1027E00094E0190759F1C8010E941125811101C017
:1027F000FA940F5F1F4FBCCF7501843051F702E090
:1028000010E07501EFEFEE1AFE0AC5010E941125D6
:10281000F601E00FF11F8083882381F08C3741F4AB
:10282000E2E0F0E0EC0FFD1FE00FF11F1082D1CFCE
:102830000F5F1F4F57010730110519F72896EAE07F
:102840000C94D424CF93DF93EB0186319C4711F590
:102850000E942A0C9D81992399F08A7A91E009F4CB
:1028600090E090933902811109C089E20E94C21B55
:102870000E94B90C80E0DF91CF91089585E3F6CFF7
:1028800080913902811104C089E20E94CA1BF0CFF5
:1028900085E3FBCF81E0EFCFCF93DF93EC01FB012A
:1028A0008581882309F4D2C09E0130572332310537
:1028B00008F0B2C00E943F0D90935A0280935902D3
:1028C000FE01E150F047E232F10520F4EF58FA4DF5
:1028D0000C94A3248091590281608093590293C083
:1028E00080915A02886080935A028DC0809159026B
:1028F0008260F3CF809159028460EFCF80915902BA
:102900008860EBCF80915A028160EDCF80915A02AE
:102910008260E9CF809159028061DFCF80915902B6
:102920008062DBCF809159028064D7CF0E94B307C9
:10293000809159028068D1CF809159028C60CDCFAF
:1029400080915A028360CFCF809159028E7FC5CF8C
:1029500080915A02877FC7CF809159028D7FBDCF6A
:10296000809159028B7FB9CF80915902877FB5CF73
:1029700080915A028E7FB7CF80915A028D7FB3CF5C
:10298000809159028F7EA9CF809159028F7DA5CF6A
:10299000809159028F7BA1CF0E94B3078091590289
:1029A0008F779BCF80915902837F97CF80915A0276
:1029B0008C7F99CF8091590282FB992790F921E071
:1029C000922790FB82F990FB83F987CF80915A027E
:1029D000982F909591708E7F892B90FB81F983CFF2
:1029E00090915902892F8F7B96FF806476CF0E9449
:1029F000B30790915902892F97FB87F980586DCFC3
:102A000081E00E94C70D8091590290915A020E9464
:102A1000440D0E94B30780E0DF91CF91089580E0DC
:102A2000F0CF90915902892F8F7E94FF806155CF0E
:102A300090915902892F8E7F90FF81604ECF9091A7
:102A40005A02892F877F93FF88604DCF81E0E4CFC2
:102A5000282F35EB2303C001112497FF04C08058B1
:102A60009109892F089580589F4FFBCF8091400294
:102A700080FF0DC06091070170E0660F771F60381E
:102A8000710570F56115710569F1862F089581FF53
:102A900007C06091070184E0689FB0011124EFCF67
:102AA0006091070182FD0AC080913F028823A9F04E
:102AB0002091060160910701821710F088E0ECCFA9
:102AC000869FC001112433E0880F991F3A95E1F7E2
:102AD000622F70E00E948F24D2CF68E070E0D5CFE3
:102AE0008FE7089581E008958091400280FF0CC037
:102AF0006091030170E0759567957595679561150F
:102B0000710549F1862F089581FF06C06091030188
:102B100070E075956795F3CF6091030182FD0BC05E
:102B200090913E029923A1F06091020180910301EE
:102B3000961738F0682F70E06038710500F38FE762
:102B40000895899FC001112470E00E948F24F4CF62
:102B500061E070E0D7CF81E008958D3C31F40E94B0
:102B6000361581958093440208958E3C19F40E9495
:102B70003615F8CF8F3C31F40E943615819580933D
:102B800043020895803D19F40E943615F8CF893D1F
:102B900029F40E9474158093450208958A3D21F41A
:102BA0000E9474158195F7CF8B3D31F40E94741506
:102BB00081958093460208958C3D19F40E94741506
:102BC000F8CF9FE2980F983070F4815D990B21E067
:102BD00030E001C0220F8A95EAF780914202822BF1
:102BE0008093420208958D3D31F4809140028160CE
:102BF0008093400208958E3D21F4809140028260CE
:102C0000F7CF8F3DB9F7809140028460F1CF4091BA
:102C100043028D3C59F48091440287FF0DC010920D
:102C2000440241110BC010923F0208C08E3C81F457
:102C30008091440218169CF3442381F08091450250
:102C400090914602892B09F05AC010923E020895D5
:102C50008F3C49F447FFF0CF109243028091440229
:102C60008111ECCFE0CF803D19F41416ACF3E4CF22
:102C700090914502893D29F41916F4F61092450207
:102C8000DBCF8A3D19F497FFD7CFF8CF909146025A
:102C90008B3D29F497FFD0CF10924602CDCF8C3DCB
:102CA00019F41916CCF3C8CF9FE2980F983090F41E
:102CB000815D990B21E030E0B90102C0660F771FFA
:102CC0008A95E2F7CB018095909142028923809307
:102CD0004202B2CF8D3D31F4809140028E7F8093CD
:102CE0004002AACF8E3D21F4809140028D7FF7CF24
:102CF0008F3D09F0A1CF809140028B7FF0CF0895E6
:102D00000E94FC1C9C019091430280914402982BEC
:102D100021F030933D0220933C0290914502809136
:102D20004602982B21F030933B0220933A0281E433
:102D300092E00E941A1B089586E0E1E4F2E0DF01D0
:102D40001D928A95E9F710923F0210923E0210926E
:102D500040020895FC01828181110EC0838181119E
:102D60000BC08481811108C091E08581811101C06F
:102D700090E0892F8170089581E0FCCFA6E0B0E05B
:102D8000E4ECF6E10C94BF2486E0E1E4F2E0DE013D
:102D9000119601900D928A95E1F7109243021092DC
:102DA000440210924502109246028B819C81892B2D
:102DB00089F080913C0290913D020E94141DAC016B
:102DC00090913F029923C9F180910801841715065B
:102DD00008F440C08D819E81892B91F080913A0248
:102DE00090913B020E94141DAC0190913E029923E8
:102DF00009F46AC0809104018417150608F472C0B2
:102E0000BE016F5F7F4F81E492E00E94DD1B811164
:102E100005C081E492E00E94AA1681110E948016EA
:102E200086E0FE013196A1E4B2E001900D928A9510
:102E3000E1F72696E3E00C94DB24209109018AE077
:102E4000289F900111242417350720F69F5F909347
:102E50003F0202C09F3FD1F71B81112359F00E940E
:102E600036159FEF11160CF491E0899F802D1124E7
:102E7000809343021C81112359F00E9436159FEF65
:102E800011160CF491E0899F802D11248093440247
:102E900080914302882309F49DCF109144021123AD
:102EA00009F498CF0E942815882351F0809343029B
:102EB000812F0E942815882329F0809344028ACF0D
:102EC00081E0F4CF81E0F9CF209105018AE0289FCD
:102ED000900111242417350708F092CF9F5F90933B
:102EE0003E0202C09F3FD1F71D81112359F00E947D
:102EF00074159FEF11160CF491E0899F802D112419
:102F0000809345021E81112359F00E9474159FEF92
:102F100011160CF491E0899F802D112480934602B4
:102F200080914502882309F46BCF1091460211234A
:102F300009F466CF0E942815882351F0809345023A
:102F4000812F0E942815882329F08093460258CFAC
:102F500081E0F4CF81E0F9CFB0E0A0E0E2EBF7E16F
:102F60000C94B924E82FF0E0E45DFD4FB490282FD5
:102F700026952695269530E0F901E453FD4F0491FE
:102F8000877010E0082E02C0159507950A94E2F7A5
:102F900001701127F901E454FD4FE490F12C082E43
:102FA00002C0F594E7940A94E2F791E0E922FF2445
:102FB000F901E455FD4FC491D0E002C0D595C79505
:102FC0008A95E2F7C170DD27C62ED12C01151105B7
:102FD00049F5E114F10431F086EE0E946104C60166
:102FE000009771F5B6018B2D0E944905C601009727
:102FF00079F5E114F104A1F50115110531F081EE27
:103000000E94EF04C6010097C9F5CD2B31F08CE288
:103010000E946105C114D104C9F5CDB7DEB7E9E05E
:103020000C94D52481EE0E946104C601009789F2B8
:10303000EFE9FFE03197F1F700C000000197F6CF0C
:10304000EFE9FFE03197F1F700C000000197C8CF2A
:10305000EFE9FFE03197F1F700C000000197C7CF1B
:1030600086EE0E94EF04C601009731F2EFE9FFE01F
:103070003197F1F700C000000197F6CFEFE9FFE0CC
:103080003197F1F700C000000197BDCF8FE99FE0B5
:103090000197F1F700C0000091E0C91AD108BACF3A
:1030A000EF92FF920F931F93CF93DF93EC01162FB4
:1030B0000AE08881882309F459C0813009F052C0A0
:1030C0008981813071F47E0182E0E80EF11C8A81F1
:1030D0000E946105E701812F90E00097D9F52196C4
:1030E000E8CF823041F47E01E2E0EE0EF11C8A81ED
:1030F0000E946104EFCF833041F47E01F2E0EF0ED5
:10310000F11C8A810E94EF04E5CF843011F02196F2
:10311000E2CF2A81229690E080E0AE014F5F5F4FC0
:103120002053330B2A30310550F00097A1F2EFE91C
:10313000FFE03197F1F700C000000197F6CF089F3C
:10314000B001099F700D1124C901860F971F2981B5
:10315000EA01E3CFEFE9FFE03197F1F700C00000AB
:103160000197BBCF612F0E94AC17B9CFCDB7DEB7A7
:10317000E6E00C94D8240F931F93CF93DF93C42FD2
:10318000D22FFC0185818823C9F0409349020E9417
:10319000FC1C909348028093470280E28C0F883099
:1031A00040F4C77081E001C0880FCA95EAF70E9419
:1031B0006A05DF91CF911F910F91089510914902F7
:1031C000141332C080914702909148020E94141D4E
:1031D000883C910548F5C0E2CD0F1D17B9F080E29B
:1031E000810F883040F4177081E001C0880F1A9574
:1031F000EAF70E947105C83048F481E09D2F97706E
:1032000001C0880F9A95EAF70E946A05802F0E94F4
:103210006105C83070F6D77081E001C0880FDA957B
:10322000EAF70E947105C5CF80E28C0F883008F65E
:10323000C77081E001C0880FCA95EAF7F2CF0F93FB
:10324000DB0188519C4787309105A0F5FC01ED56C4
:10325000FA4D0C94A32406E221EE41EE6AE17CE7EC
:10326000CD010E94BB1880E00F91089507E225EE82
:1032700045EE6BE17CE7F4CF06E221EE40EE68E13B
:103280007CE7EECF07E225EE44EE69E17CE7E8CF8C
:1032900006E221EE42EE6CE17CE7E2CF07E225EEAA
:1032A00046EE6DE17CE7DCCF08E221E045EE6EE121
:1032B0007CE7D6CF15968C91882319F0109249029D
:1032C000D3CF81E0D1CF1F93CF93DF9387372CE704
:1032D000920759F0C1E088379C47E1F4FB01C581B2
:1032E000CC2371F10E94A61906C0FB01C581CC2335
:1032F000B1F00E94A3190E942B080E94A919D82F8F
:103300000E94A619C82F0E94A3194D2F6C2F0E944E
:103310005309C0E08C2FDF91CF911F9108950E9437
:10332000A3190E9437080E94A919182F0E94A619F4
:10333000D82F0E94A319412F6D2F0E945309EACF65
:103340000E94A619EECF80910C01089580910B0187
:10335000089580910A01089584E290E00E94112569
:10336000853289F485E290E00E941125823059F47B
:1033700086E290E00E94112591E0823009F090E011
:10338000892F8170089580E0FCCFCF93C82F6FEF15
:10339000811165E284E290E00E942F25C1110DC0E9
:1033A000CFEF6C2F85E290E00E942F256C2F86E2F4
:1033B00090E00E942F25CF910895C2E0F2CF0895AA
:1033C00087E290E00E941125682F70E090E080E095
:1033D00008950895CF93C62F0E94E9196C2F87E2B4
:1033E00090E00E942F25CF91089580E00E94C5199A
:1033F00060E070E0CB010E94EA190E94D2120E94A4
:10340000951381E00E94C51908950E94DF190E945A
:10341000E0190E94E9190E94AC19811102C00E94B2
:10342000F519089508959C01FB018581882351F0C9
:10343000A90157574038510530F4822F0E94A51337
:1034400080E0089581E008952FEFFC012083089526
:103450000E94241A089580E00895B0E0A0E0E3E31C
:10346000FAE10C94BA24EC01C62E0E942B1A8111A9
:1034700010C0E881E150E331B8F4F0E0E656FA4DCF
:103480000C94A32419828CE08A836C2DCE010E94B7
:10349000BF1DCDB7DEB7E8E00C94D6248981823019
:1034A000C1F028F4813061F08FEF8883EECF833054
:1034B00099F08430C9F71A821B821C821D82E5CFE5
:1034C0000E94081D0E94A9246A837B838C839D83AC
:1034D000DCCF0E94E019F6CF8A81082F10E07E0130
:1034E0009EE0D92ED80E0430110578F6802F0E9468
:1034F0000011F701938384830F5F1F4FF2E0EF0EFB
:10350000F11CD012F0CFC1CF8981823031F08530EB
:1035100059F68A810E94121AB8CF6A817B818C8108
:103520009D810E94A9240E94EA19AFCF4B816A8134
:1035300089810E9494129827892798279D838C83DC
:10354000A4CF2C813D813227232732274B816A81EA
:1035500089810E94B61299CF0E94D21296CF6C2D0B
:10356000CE010E94281A91CF0E94461389838DCFE5
:103570000E9448139827892798279A83898385CFA3
:103580006B8170E089819A81AE014C5F5F4F982713
:10359000892798270E944B1378CF6B8170E089812F
:1035A0009A81AE014C5F5F4F9827892798270E9428
:1035B00070136BCF0E94951368CF0E948212D6CFF2
:1035C0006B8170E089819A81AE014C5F5F4F9827D3
:1035D000892798270E94F21258CF6B8170E0898169
:1035E0009A81AE014C5F5F4F9827892798270E94E8
:1035F00016134BCF90934F0280934E020895E091A3
:103600004E02F0914F02309729F00190F081E02DA9
:103610000995089580E008950E94FF1A0895E091A9
:103620004E02F0914F02309721F00280F381E02D9D
:1036300009950895E0914E02F0914F02309739F0CC
:1036400022E0DC012C930680F781E02D0995089596
:10365000A3E0B0E0EEE2FBE10C94C02420914C0228
:1036600030914D0228173907A1F090934D028093B5
:103670004C02E0914E02F0914F02309751F023E05E
:1036800029839B838A830084F185E02DCE010196F6
:1036900009952396E2E00C94DC24A3E0B0E0E3E596
:1036A000FBE10C94C02420914A0230914B02281770
:1036B0003907A1F090934B0280934A02E0914E02A9
:1036C000F0914F02309751F024E029839B838A8345
:1036D0000084F185E02DCE01019609952396E2E064
:1036E0000C94DC2440910001509101019A012E5F5D
:1036F0003F4F485F5F4F80E02417350709F4089576
:10370000F90191919F019923B9F38F5FF5CF882338
:1037100071F02091000130910101F9013296285F8A
:103720003F4F9191981729F0E217F307D1F780E006
:10373000089581E008959C01FC0132969FEF80E09E
:103740004191461751F09F3F19F4411101C0982F44
:103750008F5F8630A9F79F3F09F40895290F311D27
:1037600097FD3A95F90162830895FC013296089617
:103770002191261303C0DF0111971C92E817F90766
:10378000B9F70895682F80910001909101010E947E
:103790009B1B0895682F80910001909101010E9468
:1037A000B51B0895E0910001F0910101329686E089
:1037B000DF011D928A95E9F70895DC01FB0111965E
:1037C0009C9111978181981322C012968C91129727
:1037D000882319F0928189131AC013968C9113973C
:1037E000882319F09381891312C015968C9115972F
:1037F000882319F0958189130AC014969C91992306
:1038000021F081E02481291303C080E001C081E020
:103810008170089508950E940A1C089581110EC0B8
:1038200081E08093100160910D0170910E018091F3
:103830000F01909110010E940B1C089582E0F1CFBE
:1038400083E08093100160910D0170910E018091D1
:103850000F01909110010E940B1C08950E940E1CF4
:10386000089581E08093100160910D0170910E0127
:1038700080910F01909110010E940B1C08950E94ED
:10388000311C089591E0811101C090E090930F01E7
:1038900060910D0170910E0180910F0190911001C6
:1038A0000E940B1C089580910F01089580930E01D2
:1038B00060910D0170910E0180910F0190911001A6
:1038C0000E940B1C089580910E01089580930D01B4
:1038D00060910D0170910E0180910F019091100186
:1038E0000E940B1C089580910D010895089508957C
:1038F0000E94771C0895089508950E94761C0895EB
:10390000CF930E947B1C0E94CB110E947C1CC0E0C4
:103910008C2F0E940011892B31F4CF5FC430C1F786
:1039200080E0CF91089581E0FCCF85B7806885BFA6
:1039300085B7806885BF08951F921FB61F92112416
:103940008F939F93AF93BF9380915002811113C0C7
:1039500080916B0290916C02A0916D02B0916E0209
:103960004196A11DB11D80936B0290936C02A093B0
:103970006D02B0936E02BF91AF919F918F911F9096
:103980001FBE1F90189580917302843031F10E9400
:10399000DC031092500288E190E020E40FB6F89426
:1039A000A895809360000FBE2093600083B7817F4D
:1039B000846083BF83B7816083BF7894889583B721
:1039C0008E7F83BF0FB6F894A895809160008861C0
:1039D00080936000109260000FBE08950E94B307AC
:1039E0000E94E103089582E084BD93E095BD9AEFC3
:1039F00097BD80936E0008952FB7F89480916B0265
:103A000090916C02A0916D02B0916E022FBF08954B
:103A10002FB7F89460916B0270916C0280916D02E7
:103A200090916E022FBF08959C014FB7F89480913A
:103A30006B0290916C02A0916D02B0916E024FBF2B
:103A4000821B930B089578941F921FB61F92112426
:103A50008F939F93AF93BF9380916B0290916C0271
:103A6000A0916D02B0916E020196A11DB11D8093CF
:103A70006B0290936C02A0936D02B0936E02BF91A3
:103A8000AF919F918F911F901FBE1F90189581E05D
:103A90008093E00080E28093D8001092C9008FE10B
:103AA0009EE40197F1F700C0000087E090EBDC0195
:103AB00080937C0290937D02A0937E02B0937F025C
:103AC00088E19CE00FB6F894A895809360000FBE43
:103AD00090936000FFCF88E19CE00FB6F894A89522
:103AE000809360000FBE90936000FFCF08959B010C
:103AF000BA01909173029430E9F48F708093E900D9
:103B00009FEF8091E800915085FD06C085ED8A9574
:103B1000F1F700009111F5CF8091E80085FF0AC010
:103B200050E040E0C9010E94B91F8091E8008E7703
:103B30008093E800089543E050E0BC0184E00E94D7
:103B4000771D089546E050E0BC0184E00E94771D97
:103B50000895CF93DF93EC010E94531C48E050E09E
:103B6000BE0181E00E94771D88E0FE01A1E5B2E080
:103B700001900D928A95E1F7DF91CF91089560321F
:103B800031F440E250E0BC0182E00E94771D0895CC
:103B9000A0E2B0E0EEECFDE10C94C0248091730251
:103BA000843009F583E08093E9008091E80082FF8A
:103BB0001AC08091E80090E085FF09C050E040E025
:103BC00060E270E0CE0101960E94082091E08091B1
:103BD000E8008B778093E800992329F060E2CE011A
:103BE00001960E942D1AA096E2E00C94DC248091AC
:103BF0007202811109C00E9498210E94F5218091D2
:103C0000E20084608093E2000895109272020895A9
:103C10000E94311C81E00E94421C089560916F0255
:103C200081E0611101C080E00E94201C0895909104
:103C3000730281E0943009F080E060916F020E948D
:103C40002E1C089542E061EC81E00E94142142E2C2
:103C500061EC84E00E94142142E261EC82E00E9467
:103C6000142142E260EC83E00E94142190917302DF
:103C700081E0943009F080E060916F020E940E1C98
:103C8000089580917502833009F463C030F4813067
:103C9000E1F1823009F4A0C008958A3009F48CC0A3
:103CA0008B3009F471C0893009F052C080917402E0
:103CB000813209F04DC0809178029091790200978D
:103CC00019F0029709F044C08091E800877F809343
:103CD000E8008091E80082FF37C09091F300809166
:103CE000F200029731F48091F100813011F08630BA
:103CF00021F48091F1000E94561C8091E8008B779E
:103D00008093E8000E94482123C080917402813A88
:103D1000F9F48091E800877F8093E8008091780231
:103D200090917902892B61F468E081E592E070E07E
:103D30000E9457208091E8008B778093E8000895D7
:103D400060E090E080E0F3CF809173028111C1CFF9
:103D5000089580917402813AD9F780917802909108
:103D60007902892BA9F78091E800877F8093E8008A
:103D70008091E80080FFFCCF0E94531C8093F100EB
:103D80008091E8008E77BCCF80917402813201F778
:103D90008091780290917902892BD1F68091E80088
:103DA000877F8093E8000E944821809176020E94DC
:103DB000421C0E94B307089580917402813241F63B
:103DC0008091E800877F8093E8000E9448218091DD
:103DD00077020E94661C089580917402813A09F06E
:103DE000B7CF8091E800877F8093E8008091E8005A
:103DF00080FFFCCF0E94731CC1CF84B7877F84BF34
:103E00000FB6F894A8958091600088618093600057
:103E1000109260000FBE80E890E00FB6F894809397
:103E20006100909361000FBE0E943F1C08950E94A4
:103E300098210E94F521E2EEF0E080818460808389
:103E400078940E947424089581E191E00E94FA1A06
:103E5000089580917302853031F48091730285302A
:103E600019F00E94EE1C08950E94C31C0E94801C41
:103E7000882399F380917102882379F30E94A31F0C
:103E80000E94B307EACF08959A0140917A025091B7
:103E90007B020E944C1F0895492F5527433051053E
:103EA00021F168F44130510509F443C04230510515
:103EB00009F444C090E080E050E040E026C0413288
:103EC000510551F142325105A9F76330710590F760
:103ED000FB01EE0FFF1FE056FE4F408151816356FC
:103EE0007E4FFB01808190E010C0992781309105C1
:103EF00081F0009729F00297E9F6ECEDF2E002C0BC
:103F0000E8E0F3E0849190E0AF01F9015183408350
:103F10000895E2EFF2E0F6CF6330710558F6660FD0
:103F2000771FFB01EA55FE4F4081518189E090E007
:103F3000ECCF82E190E047E653E0E7CF8BE590E0FD
:103F40004CE053E0E2CF80E189BD82E189BD09B454
:103F500000FEFDCF8091D8008F7D8093D8008091A6
:103F6000E00082608093E0008091E00081FDFCCF62
:103F70000895AF92BF92CF92DF92FF920F931F935B
:103F8000CF93DF936C01EB018A010E946721F82E29
:103F9000811123C00115110539F0F801808191814B
:103FA000C81BD90BC80ED91EB12CA12C2097A9F083
:103FB0008091E80085FD22C08091E8008E77809393
:103FC000E80001151105A1F0F80180819181A80E8A
:103FD000B91EB182A08285E0F82E8F2DDF91CF919E
:103FE0001F910F91FF90DF90CF90BF90AF900895F9
:103FF0000E9467218823D1F2F82EEFCFF60181913C
:104000006F018093F1002197FFEFAF1ABF0ACECF67
:10401000AF92BF92CF92DF92FF920F931F93CF93F5
:10402000DF936C01EB018A010E946721F82E811158
:1040300023C00115110539F0F80180819181C81B59
:10404000D90BC80ED91EB12CA12C2097A9F08091B4
:10405000E80085FD22C08091E8008B778093E8001E
:1040600001151105A1F0F80180819181A80EB91EFA
:10407000B182A08285E0F82E8F2DDF91CF911F9124
:104080000F91FF90DF90CF90BF90AF9008950E9466
:1040900067218823D1F2F82EEFCF8091F100F6014D
:1040A00081936F012197FFEFAF1ABF0ACECFFC01BA
:1040B00080917A0290917B0286179707A0F0611594
:1040C000710529F49091E8009E779093E80090E0C4
:1040D0006115710551F4911108C08091E80082FFCB
:1040E00034C080E00895BC01F2CF80917302882330
:1040F000C1F18530C1F18091E80083FD30C080912D
:10410000E80082FDEACF8091E80080FFE1CF809156
:10411000F3002091F200382F6115710519F0283055
:10412000310558F091E02830310509F090E02091F8
:10413000E8002E772093E800CBCF81918093F100A7
:10414000615071092F5F3F4FE7CF80917302882341
:1041500041F0853041F08091E80083FFBECF81E0DF
:10416000089582E0089583E00895FC0180917A0229
:1041700090917B0286179707A0F06115710529F4CD
:104180008091E8008E778093E80090E061157105DA
:1041900051F4911108C08091E80082FF35C080E0A1
:1041A0000895BC01F2CF809173028823C9F1853054
:1041B000C9F18091E80083FD31C08091E80082FD63
:1041C000EACF8091E80080FFE1CF8091F300209159
:1041D000F200382F6115710519F02830310558F0BB
:1041E00091E02830310509F090E08091E8008E7769
:1041F0008093E800CBCF84918093F1003196615099
:1042000071092F5F3F4FE6CF80917302882341F001
:10421000853041F08091E80083FFBDCF81E00895B3
:1042200082E0089583E00895982F973028F08F70EA
:104230008093E90081E008959093E900242F762F80
:1042400050E0981731F07091EC002091ED00509102
:10425000F00021FD02C09F5FE8CF3091EB003E7F70
:104260003093EB003091ED003D7F3093ED003091C5
:10427000EB0031603093EB007093EC002093ED0085
:104280005093F0002091EE0027FDE5CF80E00895E7
:104290008091740287FF13C08091E80082FF06C0FE
:1042A0008091E8008B778093E80004C080917302CE
:1042B0008111F2CF0895809173028823D9F3809100
:1042C000E80080FFF8CF8091E8008E77ECCF209156
:1042D000E4003091E50095E6A9012091EC00822FE1
:1042E000817020FF06C08091E80080FF06C080E05A
:1042F00008952091E80022FD1AC08091730288235E
:1043000089F0853089F08091EB0085FD0FC0209108
:10431000E4003091E50042175307F9F29150E1F6BD
:1043200084E0089582E0089583E0089581E008958F
:104330000E9407220E940F22E0EEF0E0808181605F
:104340008083E8EDF0E080818F77808319BCA7ED52
:10435000B0E08C918E7F8C9380818F7E80831092D1
:10436000720208950F931F93CF93DF930E94072249
:104370000E940F22C8EDD0E088818F7788838881E2
:104380008068888388818F7D888319BC109273022E
:1043900010926F02109271021092700200EE10E003
:1043A000F80180818B7F808388818160888342E0EF
:1043B00060E080E00E941421E1EEF0E080818E7FD9
:1043C0008083E2EEF0E0808181608083808188607C
:1043D0008083F80180818E7F8083888180618883DB
:1043E000DF91CF911F910F910895E8EDF0E080816A
:1043F0008F7E8083E7EDF0E080818160808384E0C0
:1044000082BF81E0809372020E94B2210895E8ED9C
:10441000F0E080818E7F80831092E20008951092F8
:10442000DA001092E10008951F920F920FB60F92DA
:1044300011242F933F934F935F936F937F938F93A9
:104440009F93AF93BF93EF93FF938091E10082FF1F
:104450000BC08091E20082FF07C08091E1008B7F5A
:104460008093E1000E9473248091DA0080FF19C0DC
:104470008091D80080FF15C08091DA008E7F8093F4
:10448000DA008091D90080FF96C080E189BD82E189
:1044900089BD09B400FEFDCF81E0809373020E94C4
:1044A000F71D8091E10080FF19C08091E20080FF3C
:1044B00015C08091E2008E7F8093E2008091E2003F
:1044C00080618093E2008091D80080628093D80060
:1044D00019BC85E0809373020E940E1E8091E1005A
:1044E00084FF2BC08091E20084FF27C080E189BD5A
:1044F00082E189BD89B5982F917080FFFBCF8091B3
:10450000D8008F7D8093D8008091E1008F7E8093CA
:10451000E1008091E2008F7E8093E2008091E200D2
:1045200081608093E20080916F02882309F449C082
:1045300084E0809373020E94171E8091E10083FF44
:1045400029C08091E20083FF25C08091E100877F30
:104550008093E10082E08093730210926F02809159
:10456000E1008E7F8093E1008091E2008E7F809356
:10457000E2008091E20080618093E20042E060E02E
:1045800080E00E9414218091F00088608093F00008
:104590000E94081EFF91EF91BF91AF919F918F9163
:1045A0007F916F915F914F913F912F910F900FBE2F
:1045B0000F901F90189519BC109273020E94051E4F
:1045C00070CF8091E30087FD93E090937302B3CFA7
:1045D0001F920F920FB60F9211242F933F934F9378
:1045E0005F936F937F938F939F93AF93BF93CF937B
:1045F000DF93EF93FF93D091E900DF708091EC009F
:10460000C82FC17080FDC0E81092E9008091F000D1
:10461000877F8093F00078940E942C231092E90009
:104620008091F00088608093F000CD2BCF70C09314
:10463000E900FF91EF91DF91CF91BF91AF919F91F1
:104640008F917F916F915F914F913F912F910F903B
:104650000FBE0F901F901895AAE2B0E0E2E3F3E2DC
:104660000C94BF2484E792E02091F100FC01219397
:10467000CF01F2E08C379F07B9F70E94411E80916D
:10468000E80083FF1EC180917402909175029A30F8
:1046900008F017C1E92FF0E0E355FA4D0C94A3247C
:1046A000803899F0823809F00CC1809178028F70BF
:1046B000873008F006C18093E9008091EB0085FB0C
:1046C000882780F91092E90006C0809170029091CD
:1046D0007102911182609091E800977F9093E800B9
:1046E0008093F1001092F1008091E8008E77E5C090
:1046F000882309F4D3C0823009F0E3C080917602A8
:104700008111D6C0809178028F702FEF280F26304C
:1047100008F0D7C08093E9002091EB0020FFC8C0CB
:10472000933031F48091EB0080628093EB00C0C045
:104730009091EB0090619093EB0021E030E001C09C
:10474000220F8A95EAF72093EA001092EA008091FE
:10475000EB008860EACF8111B4C0109176021F7718
:104760008091E3008078812B8093E3008091E800C2
:10477000877F8093E8000E9448218091E80080FFB5
:10478000FCCF8091E30080688093E30082E0111108
:1047900083E08093730295C08058823008F091C006
:1047A00080917602909177028C3D23E09207A1F5EB
:1047B00083E08A838AE289834FB7F894DE011396F7
:1047C00020E03EE051E2E32FF0E050935700E49107
:1047D00020FF03C0E295EF703F5FEF708E2F90E0F7
:1047E000EA30C0F0C7968D939D932F5F243159F71F
:1047F0004FBF8091E800877F8093E8006AE270E015
:10480000CE0101960E9457208091E8008B7780931B
:10481000E80057C0C096E7CF6091780270917902A6
:10482000AE014F5F5F4F0E94441FBC01892B09F40A
:1048300048C09091E800977F9093E80089819A8121
:104840000E94B520E1CF8038E1F58091E800877FB4
:104850008093E80080916F028093F10045CF811131
:1048600030C090917602923060F58091E800877FA9
:104870008093E80090936F020E94482180916F021C
:10488000882311F084E005C08091E30087FDFACF12
:1048900081E0809373020E94221E13C080917602F1
:1048A000813079F481E0933009F080E080937102E7
:1048B0001092E9008091E800877F8093E8000E94D1
:1048C00048218091E80083FF0AC08091E800877F3B
:1048D0008093E8008091EB0080628093EB00AA96C1
:1048E000E3E00C94DB240895CF9380917302882336
:1048F000A1F0C091E900CF709091EC00892F8170F8
:1049000090FD80E8C82B1092E9008091E80083FDBB
:104910000E942C23CF70C093E900CF91089597FB9C
:10492000072E16F4009407D077FD09D00E94E724E3
:1049300007FC05D03EF4909581959F4F08957095A2
:1049400061957F4F0895EE0FFF1F0590F491E02DC4
:104950000994692796276927782787277827089554
:104960002F923F924F925F926F927F928F929F927F
:10497000AF92BF92CF92DF92EF92FF920F931F936D
:10498000CF93DF93CDB7DEB7CA1BDB0B0FB6F8941E
:10499000DEBF0FBECDBF09942A88398848885F845E
:1049A0006E847D848C849B84AA84B984C884DF80CF
:1049B000EE80FD800C811B81AA81B981CE0FD11DB3
:1049C0000FB6F894DEBF0FBECDBFED010895AA1B50
:1049D000BB1B51E107C0AA1FBB1FA617B70710F0EA
:1049E000A61BB70B881F991F5A95A9F7809590951C
:1049F000BC01CD010895FB01DC0104C08D91019043
:104A0000801921F441505040C8F7881B990B089534
:104A1000FB01DC0102C001900D9241505040D8F7DB
:104A20000895F999FECF92BD81BDF89A992780B576
:104A30000895A8E1B0E042E050E00C945525DC0177
:104A4000A40FB51F4150504048F0CB01840F951F73
:104A50002E910E94302541505040D0F70895262FC6
:104A6000F999FECF92BD81BDF89A019700B4021664
:104A700039F01FBA20BD0FB6F894FA9AF99A0FBE12
:104A800008950396272F0E9430250E942F25252F59
:104A90000E943025242F0C9430250196272F0E9448
:104AA00030250C942F25DC01CB01FC01F999FECFB8
:104AB00006C0F2BDE1BDF89A319600B40D924150A6
:104AC0005040B8F70895F894FFCFB905B905090625
:104AD00009066E068A06E805E8058F06F60605074C
:104AE0000507A4141815AC1476147A14B0147E14A7
:104AF000B414C0148A1411158E14C4149214C8145A
:104B0000F0149614CC14F7149C14D214DA148214F2
:104B1000B8148614BC14A014D614E61400150F158E
:104B20007014A8141F153C1942192B19361948196D
:104B30004E195419421A4E1A841A961AA11AAC1A0E
:104B4000AF1AAF1AAF1A541A541AB41AB81AC01AB4
:104B5000CD1ADA1ADD1AE01AED1A502378236124EF
:0E4B600078236124AB23CC23612423242F244B
:104B6E001902280850011E0A140103020100000157
:104B7E0000631CA91D761DA21D9B1DE200E900EA23
:104B8E0000B500B600B700CD008301CC008A0192BB
:104B9E000194012102230224022502260227022A61
:104BAE0002B300B4006F0070009F01CB019F02A002
:104BBE0002818283E200E900EA00B500B600B70088
:104BCE00CD008301CC008A019201940121022302BF
:104BDE0024022502260227022A02B300B4006F0027
:104BEE0070009F01CB019F02A002818283F0F1F43D
:104BFE00F5F6F76636353497963031326744227BB8
:0C4C0E00160479039B031E0337035703B1
:00000001FF
