:100000000C942D020C9465020C9465020C9465020C
:100010000C9465020C9465020C9465020C946502C4
:100020000C9465020C9465020C94B3210C94872205
:100030000C943E1C0C9465020C9465020C946502B1
:100040000C9465020C9465020C9465020C94650294
:100050000C9465020C94C51C0C9465020C9465020A
:100060000C9465020C9465020C9465020C94650274
:100070000C9465020C9465020C9465020C94650264
:100080000C9465020C9465020C9465020C94650254
:100090000C9465020C9465020C9465020C94650244
:1000A0000C9465020C9465020C9465022B001400FC
:1000B0001A000800150017001C0018000C001200A0
:1000C0001300407EE00004001600070009000A004B
:1000D000417E0D000E000F0033003400E1001D00D2
:1000E0001B00060019000500110010003600370043
:1000F0003800E500E400E300E200777C787C2A0029
:10010000777C2C00787CE600E700E40001001E000C
:100110001F002000210022002300240025002600CB
:1001200027002D0001001E021F02200221022202D0
:10013000230224022502260227022D020100350097
:1001400035022E002E02000000002F0030002F028A
:100150003002010001000100010001000100010066
:1001600001000100010001000100010001006A001E
:100170006B006C006D006E004A004E004B004D009D
:100180000000460001006F007000710072007300F3
:100190005000510052004F000000450001003A009D
:1001A0003B003C003D003E003F004000410042005B
:1001B00043004400010001000100010001004C0067
:1001C0000100280001000100010001000000000002
:1001D00000000000007C00000000000000000000A3
:1001E0000000000000000000A60000000000000069
:1001F0000000AA00A90000000000000000000000AC
:1002000000000000000000000000A8000000000046
:1002100000000000000000000000000000000000DE
:1002200000000000000000000000000000000000CE
:10023000000000002A2B2800000000000000000041
:100240000000000000000029000000002C1E3420E7
:10025000212224342627252E362D3738271E1F200D
:100260002122232425263333362E37381F04050652
:100270000708090A0B0C0D0E0F1011121314151696
:100280001718191A1B1C1D2F3130232D3504050694
:100290000708090A0B0C0D0E0F1011121314151676
:1002A0001718191A1B1C1D2F3130354C0000000087
:1002B000000000000000000000000000000000003E
:1002C000000000000000000000000000000000002E
:1002D0007E0F00D4FFFFFFC7000000781403430027
:1002E0006F0072006E0065006C006900750073009D
:1002F00000001403590075007300680061006B0072
:100300006F0062006F0000000403090409025B0033
:10031000030100A0FA090400000103010100092102
:1003200011010001224400070581030800010904AE
:100330000100020300000009211101000122220036
:1003400007058203200001070503032000010904BB
:1003500002000103000000092111010001227B00BD
:100360000705840320000112010002000000086557
:100370003205000100010200010660FF0961A101D0
:100380000962150026FF0095207508810209631592
:100390000026FF00952075089102C005010902A101
:1003A0000185020901A10005091901290815002587
:1003B0000195087501810205010930093115812572
:1003C0007F95027508810609381581257F9501758D
:1003D000088106050C0A38021581257F95017508EC
:1003E0008106C0C005010980A101850319012AB752
:1003F00000150126B700950175108100C0050C0994
:1004000001A101850419012AA002150126A0029567
:100410000175108100C005010906A101050719E059
:1004200029E71500250195087501810295017508D8
:1004300081010507190029FF150026FF00950675A3
:100440000881000508190129051500250195057584
:10045000019102950175039101C011241FBECFEFD8
:10046000DAE0DEBFCDBF04B603FE18C080917D0286
:1004700090917E02A0917F02B09180028730904BD4
:10048000A740B04B59F410927D0210927E02109258
:100490007F0210928002E0E0F8E3099511E0A0E00D
:1004A000B1E0ECEAFAE402C005900D92AA3AB10775
:1004B000D9F722E0AAEAB1E001C01D92AD37B20738
:1004C000E1F70E942C120C9402250C940000CF93AB
:1004D000803E910549F030F09C0120543E47223087
:1004E000310578F0C1E007C0FB01C581CC2331F0B4
:1004F00081E08093B0018C2FCF9108951092B001CC
:10050000F1CF81349E47E9F081E390E09093AF0111
:100510008093AE0189E290E09093AD018093AC01AD
:10052000FB0185818823D9F0C091B001CC2391F0E3
:1005300080EE0E94D8048091AC010E944A04C0E081
:10054000DACF8BE090E09093AF018093AE018AE226
:1005500090E0E2CF8091AE010E944A04CCCF80911E
:10056000AE010E94D8048091AC010E94D804C091D1
:10057000B001CC2309F4BFCF80EEDFCF8430B8F4D4
:100580006430A8F44C3098F450E09CE0699F400D32
:10059000511D1124FA0190E3899FE00DF11D1124F2
:1005A000EE0FFF1FE455FF4F85919491089581E070
:1005B00090E0089581E008950E94DA02089581E0B4
:1005C00008950E946702089508950E94E402089524
:1005D000A6E0B0E0EEEEF2E00C945E2449835A838C
:1005E0009E833091B60189819A8131111AC03E8172
:1005F000332399F0222389F00E94C708182F682F0F
:1006000089819A810E94A30869817A81812F0E9441
:10061000D00F2696E3E00C947A240E94B508182F98
:10062000F3CF0E94C70869817A81F1CFFC01262FA0
:100630004081518162817381848195810E94E802A9
:100640000895CF93DF93EC0161E00E941603BE0191
:100650000E94DC02DF91CF910895CF93DF93EC01EC
:1006600060E00E941603BE010E94E502DF91CF9177
:10067000089581E008950E9439030895CF93C82F0B
:100680000E949F078C2F0E943B032FEF84E39CE086
:10069000215080409040E1F700C00000CF910895C4
:1006A00081E00E943E030E94E91C089580E00E94C0
:1006B0003E030E940D1D08950F931F93CF93DF9368
:1006C0008C0161E00E941603EC01B8010E94011A3E
:1006D000811106C080E0DF91CF911F910F910895A5
:1006E000B801CE010E94E1028823A1F3B801CE0136
:1006F0000E940E19882371F3B801CE010E942914BB
:10070000882341F3B801CE010E94FF13882311F31F
:10071000B801CE010E9452198823E1F2F8018581C7
:10072000882361F0C330FCE7DF07E9F058F4C11516
:10073000ECE7DE07A9F0C130DC47B9F0C8010E9440
:10074000DF02C9CFCB358CE7D807A9F0CC35ECE771
:10075000DE0771F0CA35DC4789F70E94000DEECF45
:100760000E945003B7CF0E94080D0E945603B2CFDB
:100770000E94F60CE3CF0E94040DE0CF0E941A1CE9
:100780000E94E50308950E94E9030E941F1C08953A
:10079000089581E008950895CF93DF93D82F0E94A4
:1007A000C903C82F882319F08D2F0E94CB038C2FEB
:1007B000DF91CF9108950895CF93C82F0E94C80369
:1007C0008C2F0E94CC03CF91089580E00E94DC031F
:1007D00008950E94ED1A0E94DC030895CF930E94B1
:1007E000ED1AC82F8091B1018C1779F0C093B10137
:1007F0000E94AA1C6093B2017093B3018093B4016C
:100800009093B5018C2F0E94DC03CF910895ADE049
:10081000B0E0EDE0F4E00C945F24488759876A87E4
:100820007B878C879D8791110E94360C1F8286E002
:10083000FE013896DE01119601900D928A95E1F73E
:100840008D8181110DC029813A814B815C816D813F
:100850007E818F810E94800B2D96E2E00C947B2498
:10086000CE0101960E9421038111EDCFF5CFFC014D
:100870002481213021F4808191810E94F40808951F
:10088000662329F00E948A150E946F1608950E941F
:10089000F615FACFCF93C82F8823C9F08238C9F450
:1008A0000E94FA1A81FD13C089E30E94B01B0E94C6
:1008B000A50C2FEF87EE93E0215080409040E1F7A8
:1008C00000C0000089E30E94B81B0E94A50CCF91D4
:1008D00008958338A1F40E94FA1A80FDF8CF83E5C9
:1008E0000E94B01B0E94A50C2FEF81EE94E02150D6
:1008F00080409040E1F700C0000083E5E4CF8438F9
:10090000A1F40E94FA1A82FDE2CF87E40E94B01B94
:100910000E94A50C2FEF81EE94E021508040904082
:10092000E1F700C0000087E4CECF8CEF8C0F813A56
:1009300070F48C2F0E94751B882329F08C2F0E9445
:10094000B81B0E94A50C8C2F0E94B01BBECF80E26A
:100950008C0F883048F4C77081E001C0880FCA95B9
:10096000EAF70E94190CB1CFEBE5EC0FE33040F44D
:10097000F0E0E25BFE4F808190E00E94161BA7CF63
:10098000E8E5EC0FEB3150F4F0E0EE0FFF1FE85E0E
:10099000FE4F808191810E943B1B99CF83E38C0F96
:1009A000833108F094CF61E08C2F0E9440048FCFF8
:1009B000882309F456C0823879F40E94FA1A81FF1C
:1009C00050C089E30E94B01B0E94A50C89E30E94DD
:1009D000B81B0E94A50C0895833859F40E94FA1A96
:1009E00080FF3FC083E50E94B01B0E94A50C83E5F9
:1009F000EECF843859F40E94FA1A82FF32C087E49D
:100A00000E94B01B0E94A50C87E4E1CF9CEF980FD9
:100A1000913AE8F290E2980F983050F4877091E0A4
:100A200001C0990F8A95EAF7892F0E941F0CD1CF38
:100A30009BE5980F933028F490E080E00E94161B0D
:100A4000089598E5980F9B3128F490E080E00E948B
:100A50003B1B089593E3980F933118F460E00E94D4
:100A6000400408951F93CF93DF93182FEB010E944A
:100A70004A04209739F4812F0E94D804DF91CF9146
:100A80001F9108958FE99FE00197F1F700C00000E2
:100A90002197EFCF70E060E0893311F460E570E0FA
:100AA0000E9432050895882321F00E94190C0E94AB
:100AB000A50C0895882321F00E941F0C0E94A50C0C
:100AC0000895B0E0A0E0E7E6F5E00C9458246C014E
:100AD000D62FC72FFC011581068102950F700E9449
:100AE0000F0CE82E8823F9F0E12E1123E1F08C2F72
:100AF000807F803461F080E28D0F883008F18C2F88
:100B0000807E803221F4D230D8F00023C9F0809169
:100B10005B0282FF15C082E00E94CA0C0E940F0C8B
:100B200091E0E82EE926BC2EB2949FE0B922FBE0CA
:100B3000FB15B8F1EB2DF0E0EC5FFA4D0C9442247C
:100B4000E12CF1CF0C2F0F70C07F11F00295007FC8
:100B5000112399F0002359F080E28D0F883010F0B6
:100B6000D11107C0802F0E94190C0E94A50C8D2F57
:100B70005AC0802F0E94290CF8CF8D2F0E94D804D4
:100B8000002379F080E28D0F883010F0D11104C07D
:100B9000802F0E941F0C03C0802F0E942F0C0E94E8
:100BA000A50CEB2DE850FF0B349720F40E94ED1AB2
:100BB0000E94DC03EE2089F00E940B0C80FD0DC02A
:100BC000F60115820E94050C0E941708C6010E94BA
:100BD00066070E94050C0E942308CDB7DEB7E9E046
:100BE0000C9474242C2F2F70F22EC07FC03219F079
:100BF000F29480EFF822DD2341F0D130D1F11123BE
:100C000009F444C00023F1F0B2CF80915B0282FD71
:100C100015C0112359F0FF2029F08F2D0E94190CC7
:100C20000E94A50C80E00E944A04BBCF80E00E9495
:100C3000D804FF2009F4B5CF8F2DABCF112369F075
:100C4000011104C08F2D0E945305ABCF013009F074
:100C5000A8CF8F2D0E944D0CA4CF0111A2CF8F2DB4
:100C60000E945A058F2D0E94590C8F2D0E943D0C19
:100C700098CF112321F0063008F093CFE3CF053051
:100C800008F08FCF8F2D0E945A058BCF0023D1F310
:100C9000D93349F43FEF87EE93E0315080409040E4
:100CA000E1F700C000008D2F0E94D8047ACF8C2F6E
:100CB00086958695837069F0813009F072CF8D2F0B
:100CC0009C2F9370111102C080E090E00E943B1BAA
:100CD00068CF8D2F9C2F9370111102C080E090E09F
:100CE0000E94161B5ECF612F8D2F0E94400459CFAA
:100CF0008C2F837079F5111154CF4D2F4295469565
:100D00004770440F440F8D2F8F70042E01C0880F41
:100D10000A94EAF72D2F2071D4FF07C02FE030E0AE
:100D200001C0220F4A95EAF72095C695C695C37073
:100D3000822BC23049F058F4C13019F00E94F307F9
:100D400030CF0E94ED072DCF0E94F9072ACF0E94D5
:100D5000EA0727CF8695112311F08C2F8170882305
:100D600009F41FCF4D2F429546954770440F440F0D
:100D70008D2F8F70042E01C0880F0A94EAF72D2F53
:100D80002071D4FF07C02FE030E001C0220F4A9548
:100D9000EAF72095C695C695C370822BC23049F0FC
:100DA00058F4C13019F00E944208FBCE0E943C0862
:100DB000F8CE0E944808F5CE0E940508F2CECF700A
:100DC000112329F08C2F0E9417088D2F3CCF8D2FD7
:100DD0000E945A058C2F0E942308E3CED23F41F196
:100DE00060F4D03FB9F0D13F81F0112309F446C03F
:100DF0000111BDCE8C2F8F711FC0D33F01F1D43FA5
:100E0000A1F780915B0282FD24C08C2F8F7111238A
:100E100011F312C0112341F0053008F0C2CE8C2F1F
:100E20008F710E943008BDCE063008F0BACEF7CFE1
:100E30008C2F8F711111CFCF0E941708B2CE1123C2
:100E400029F08C2F8F710E940E08ABCE0E940A08E9
:100E5000A8CE112349F0CF718C2F0E94170863E0B0
:100E60008C2F0E94AC0C9DCE81E00E94CA0C0230F7
:100E700008F497CE82E00E94CA0C93CE002359F06A
:100E8000D93309F010CFEFEFF7EE23E0E150F04057
:100E90002040E1F706CF8C2F8F719DCF0F931F93CA
:100EA000CF93DF93EC01688179818D810E94FF08E7
:100EB0008C010E944E080E94E907B801CE010E94F1
:100EC0006105DF91CF911F910F910895CF93DF932B
:100ED000EC018C81882399F0CE010E945C03811182
:100EE00011C00E940F0C882351F08D81882339F0A6
:100EF00080915B0282FF03C082E00E94CA0CDF91F6
:100F0000CF910895CE010E944E07CE010E942D037D
:100F1000F6CF90E080E00E94161B90E080E00E94F7
:100F20003B1B0E94360C0E94A50C0E948B160E944F
:100F30006F1608950E94C01B0E94890708950E94A1
:100F4000260C0E949A07089592959F70963091F012
:100F500058F4925F9F70923058F4803F19F030F44B
:100F6000883E30F481E008959A5FF4CF843FD1F356
:100F700080E00895883EB0F3813FD1F7F3CFFC01C4
:100F80002481222339F0808191810E94F4080E94FB
:100F9000A407089580E00895A6E0B0E0E2EDF7E050
:100FA0000C945F242696E2E00C947B24A7E0B0E04A
:100FB000ECEDF7E00C945F242796E2E00C947B24A0
:100FC00008950E94E00708950E94E1078093CA01F6
:100FD000089508950E94E40708959091CA01892B0D
:100FE0000E94E40708959091CA0189230E94E407B2
:100FF00008959091CA0189270E94E40708950E94EC
:10100000E00708950E94FF0708950E940208809358
:10101000C901089580E00E940508089591E001C08B
:10102000990F8A95EAF7892F0E940508089521E013
:1010300030E001C0220F8A95EAF78091C901822B26
:101040000E940508089521E030E001C0220F8A9532
:10105000EAF720958091C90182230E94050808952E
:1010600021E030E001C0220F8A95EAF78091C901A2
:1010700082270E94050808959091C901892B0E943A
:10108000050808959091C90189230E9405080895D3
:101090009091C90189270E94050808950895262F77
:1010A000277091E001C0990F2A95EAF723E0769521
:1010B00067952A95E1F7FB01EE0FFF1FE60FF71F7B
:1010C000E40FF51F50E040E0682F70E08191DF01F0
:1010D00011979B01042E02C0369527950A94E2F7DA
:1010E000217021952827292328272C934F5F5F4FB4
:1010F0004330510559F70895A82FA77023E096951E
:1011000087952A95E1F7FC01EE0FFF1FE80FF91F05
:10111000E60FF71F50E040E080E0219130E00A2E1A
:1011200002C0369527950A94E2F721703327042EE2
:1011300001C0220F0A94EAF7822B4F5F5F4F4330C2
:10114000510559F70895262F943070F48C3060F4CF
:10115000682F70E08CE0989F600D711D112447EBA3
:1011600051E0822F0E944F080895292F943068F48F
:101170008C3058F490E067EB71E03CE0239F800DE9
:10118000911D11240E947C08089580E00895CF925B
:10119000DF92FF920F931F93CF93DF936C01009127
:1011A000C9018091CA01082BC3E0D0E010E0FC2EF9
:1011B000C8010C2E02C0959587950A94E2F780FD30
:1011C0000CC02197A0F7F12C8F2DDF91CF911F91AB
:1011D0000F91FF90DF90CF900895B6018C2F0E9461
:1011E000DC0F019771F3F0CFCF93DF93EC010E94F6
:1011F000C708BE010E94DC0FDF91CF9108951F93B5
:10120000CF93DF93EB019091B601992339F0CB0195
:101210000E94F408DF91CF911F910895882369F00F
:10122000CB010E94C708182F682FCE010E94A30887
:10123000BE01812F0E94DC0FEDCFCB010E94B508CB
:10124000182FF6CFE1E0F0E0DF0102C0AA0FBB1FCC
:101250006A95E2F7BD01DF0102C0AA0FBB1F4A95E4
:10126000E2F76A2B01C0EE0F2A95EAF7962F982332
:10127000961302C08E2B0895E0958E230895242F97
:10128000462F682F8091C9010E9422090E940508FB
:1012900008951F93CF93DF93C091CB0117E0809106
:1012A000CC018C1304C0DF91CF911F910895D0E041
:1012B0001C9FF0011D9FF00D1124E353FE4F208170
:1012C0003181428153816481758186810E94D60774
:1012D0002196C770E4CF209105023091060240911B
:1012E0000702509108026091090270910A028091F0
:1012F0000B020E94D6070895CF93DF9380910B02D3
:10130000807F09F04DC080910A02882309F448C00B
:10131000E091CB015091CC01C0910602D091050221
:10132000609107027091080247E05E17C9F18E2FA5
:1013300090E0E49FF0011124E353FE4F2481222327
:1013400091F1489FF001499FF00D1124DF01A35353
:10135000BE4F11962C9111972C1325C02C912D1353
:1013600022C015962C91159721111DC012962D9112
:101370003C91261B370B283C3105A8F480910B02C9
:101380008F70806180930B02ED52FE4F80818F70D1
:101390008061808385E092E00E9466070E9449098F
:1013A000DF91CF910895FC013196E770BECF482FB1
:1013B0002091CB019091CC0157E0291302C080E02D
:1013C000089530E0529FF001539FF00D1124E35334
:1013D000FE4F8181681306C08081481303C0858158
:1013E0008111EECF2F5F3F4F2770E7CFA4E1B0E030
:1013F000ECEFF9E00C9455248C0186E0F801DE0155
:101400001F9601900D928A95E1F7F8018481E5809D
:1014100095E0A92E92E0B92E9091090291111FC07A
:101420008823D1F0EE20A9F0C8010E94BF07F82E52
:10143000882379F087E0F801D50101900D928A9513
:10144000E1F7C5010E9437040E947C090E946B09E4
:101450005FC0C8010E946607FF24F39459C0C08092
:10146000D18082809380F0900A022091070230910F
:101470000802A401421B530BFF2009F4F9C0483CA9
:10148000510508F0A7C0882309F442C090910602D4
:1014900080910B02282F207F09F05CC09D1116C09F
:1014A00090910502C91212C0E1104EC08F70806188
:1014B00080930B020E946B0985E092E00E94660710
:1014C00080910B02F8018683F12C22C0E1103CC010
:1014D0006D2D8C2D0E94D7096D2D8C2D0E94D70962
:1014E000E82E8111F1CFCF86D88A8F8598890E9406
:1014F000F408292F22952F70243078F49F70223021
:10150000A8F09923B9F0F8019681907F99F4FE2C08
:101510008F2D6496ECE00C9471242A5F2F7022309A
:1015200068F0C8010E946607EF2CF1CF992311F0F3
:10153000882369F3805E883050F3F3CF803F38F31F
:10154000815F833070F7E3CF80910B0281608093DD
:101550000B02BACF9D1113C090910502C9120FC0A2
:10156000E1100DC08683C8010E94660787E0F8017C
:10157000A5E0B2E001900D928A95E1F767CFC8012E
:101580000E94BF07882309F464CFEE2009F461CFDD
:1015900080910B02803288F0209105023091060282
:1015A000398728879B868A86909109029C871D86A9
:1015B0008E87CE0108960E94660787E0F801A5E0B5
:1015C000B2E001900D928A95E1F70E947C090E9499
:1015D0006B0942CF90910B02292F207FA1F4682D37
:1015E0009A8A898AA6017A899E2D0E94CC0785E075
:1015F00092E00E94660787E0F50111928A95E9F76B
:101600000E946B0961CF882309F482CF8091060282
:101610008D1110C080910502C8120CC0E1100AC0E3
:101620009683C8010E94660787E0F50111928A95AA
:10163000E9F76ECFC8010E94BF07882309F409CFDC
:10164000EE2009F406CF80910B02803208F4B5CF6A
:1016500020910502309106023A8329839C828B8275
:10166000909109029D831E828F83CE010196A3CFA4
:10167000483C5105B8F5882309F4EECEFE2CEE2047
:1016800009F4E7CE809106028D111EC080910502FB
:10169000C8121AC080910B0280FD0DC0982F907F58
:1016A00051F08683903F09F45ECF982F907F905F32
:1016B0008F70892B57CF87E0F801A5E0B2E0019049
:1016C0000D928A95E1F724CFC8010E94BF078111CE
:1016D00074CF80910B02816080930B02C8010E943D
:1016E000660716CF682D9A8A898AA6017A899E2D67
:1016F0000E94CC0787E0F50111928A95E9F7A6CE02
:10170000AEE0B0E0E6E8FBE00C945E242887398781
:101710004A875B876C877D878E87CE0108960E94FB
:10172000F6098823B1F06C85662341F02885398558
:101730004A855B857D858E850E94D60717E080915E
:10174000CB019091CC0189133DC02E96E3E00C941F
:101750007A2487E0FE013896DE01119601900D9201
:101760008A95E1F78C85882349F32091CC0130E0FC
:10177000C9010196877099274091CB014817190636
:1017800099F097E0929FD001939FB00D1124A3533D
:10179000BE4FFE01319601900D929A95E1F780932C
:1017A000CC010E944909CACF0E949F071092CC0128
:1017B0001092CB0187E0E5E0F2E0DF011D928A950F
:1017C000E9F7BCCF819FC001112483539E4F0E9433
:1017D000F609882309F4B9CFE091CB011E9FF001EF
:1017E0001124E353FE4F2081318142815381648172
:1017F000758186810E94D6078091CB0190E0019689
:10180000877099278093CB019ACF80911402869597
:101810008695869508958091140287700895909119
:101820001402977081E009F480E00895809120020D
:10183000089590912002892B80932002089580952D
:1018400090912002982390932002089510922002F4
:10185000089590911F02892B80931F02089580950F
:1018600090911F02982390931F02089510921F02D7
:10187000089508950E94390C089590911502292F1A
:10188000282331F080958923809315020E943A0C19
:10189000089508950E94490C089590911602292FE9
:1018A0002823281729F0982B909316020E944A0C9F
:1018B000089590911602292F282331F080958923CD
:1018C000809316020E944A0C089580911602882384
:1018D00029F01092160280E00E944A0C08950F939E
:1018E0001F93CF93DF930091000110910101C091EC
:1018F000200280911F02C82B80911602882331F0AC
:10190000C82B0E94601B81110E94650CF801C083E6
:10191000C0910001D091010148E050E06CE072E01C
:10192000CE010E949A24892B59F088E0FE01ACE098
:10193000B2E001900D928A95E1F7CE010E94FD1A66
:10194000DF91CF911F910F9108950E946F0C089520
:1019500008950E94A80C089590915B0292FF11C017
:1019600098E0899F90011124622B609314020E94D9
:101970001708809114028695869586950E94A90C79
:1019800008950E94170808951092140280E00E94A2
:10199000A90C0895909114028095892380931402D4
:1019A000282F277069F4891759F090915B0292FFF4
:1019B00007C08695869586950E9423080E94C40CD0
:1019C000089590915B0292FB222720F9281769F075
:1019D00080FB92F990935B0280915A0290915B0296
:1019E0000E942A0D82E00E94CA0C089580915B0239
:1019F00082FB882780F991E089270E94E10C0895F5
:101A000081E00E94E10C089580E00E94E10C0895BD
:101A10006FEF7FEF90E080E00E94EC24089590E06B
:101A200080E00E94B824863E9E4F19F40E949B19C4
:101A3000089580E0089582E090E00E94B024089527
:101A400083E090E00E94B024089584E090E00E943A
:101A5000B8240895BC0184E090E00E94EC2408952D
:101A6000AB01BC018FE090E00E94E0240895AB013F
:101A7000BC0183E190E00E94E024089560E070E002
:101A8000CB010E94370D089560E070E0CB010E9409
:101A9000300D0E943E0D0895A8E0B0E0E2E5FDE0C3
:101AA0000C945F2466EE7EEF90E080E00E94EC24D0
:101AB00060E082E090E00E94CE2481E08093CA0141
:101AC00061E083E090E00E94CE2460E074E184E075
:101AD00090E00E94EC2460E086E090E00E94CE243A
:101AE00060E087E090E00E94CE2440E050E0BA0140
:101AF00088E090E00E94E02460E084E290E00E94B0
:101B0000CE2460E087E190E00E94CE2460E08CE08B
:101B100090E00E94CE2460E08DE090E00E94CE2410
:101B200019821A821B821C821D821E821F821886C5
:101B300048E050E068E170E0CE0101960E94BE24CA
:101B400040E050E0BA0180E290E00E94E02480E0B2
:101B50000E94B4190E94E3190E94440D2896E2E005
:101B60000C947B240E944C0D0895682F8EE090E029
:101B70000E94CE240895A6E0B0E0E1ECFDE00C94D4
:101B80005D240E949E1C8C01809121029091220272
:101B90008017910781F019821A820E949E1C682F7B
:101BA00049815A81792F80E090E00E9407041093C8
:101BB0002202009321022696E4E00C9479240E94EC
:101BC000AA1C60932F02709330028093310290938D
:101BD000320260932B0270932C0280932D0290931B
:101BE0002E020895089508950E94F20D0895089513
:101BF0000E94F70D089582ED90E10E9439120E9433
:101C0000F30D0E94F40D089581E008950E94040EE2
:101C100008950E94040E0895089508950E940C0EE0
:101C20000E940D0E08950E940F0D811102C00E94A6
:101C3000B20D0E941B0D809333020E94250D9093DC
:101C40005B0280935A020E945C120E94200D0E9447
:101C5000EA078091C9010E94020808950E94951C1C
:101C60000E94F3190E9491110E94130E0E94DB033F
:101C70000E94F80D0895A6E0B0E0E1E4FEE00C94C7
:101C800053240E94060E81110AC00E94BB0D0E94BF
:101C9000AD160E94EE032696EEE00C946F240E948F
:101CA000A71123E2822E22E0922E640110E0F601B9
:101CB000E190F1906F01812F0E94DC101F5F1430C2
:101CC00009F44BC0E816F90691F38091330281FDC7
:101CD0000E94E5100E94090E782E10E0662463949D
:101CE000812F0E94DC107C01F401A190B1904F0182
:101CF0008A159B0561F100E0CC24C394D12CAE245D
:101D0000BF24C5018C219D21892BC1F07720B1F022
:101D100009831A830E949E1C9C838B836D8221E021
:101D2000C7018C219D21892B09F420E049815A812A
:101D30006B817C818D81922F0E9407040F5FCC0CF8
:101D4000DD1C0C30F1F6F4013297F182E0821F5F66
:101D5000143031F60E94DF0D9ACFE816F90609F02B
:101D6000B4CF93CF1F93CF93DF930E94E10FEC0189
:101D7000C11580E5D807F0F5C11580E4D80708F053
:101D80009CC0C03ED10520F5CD3CD10508F082C0F5
:101D9000C83AD10578F4C53AD10508F073C0C1300E
:101DA000D10519F1209709F1C430D105F0F4D0E044
:101DB000C0E01BC0C33CD105D0F7C85AD0E0CC0F5F
:101DC000DD1FCF5ADE4F0990D881C02DD4640DC0DD
:101DD000C11580E2D80708F0D1C0C11581E0D8074D
:101DE00008F05AC0C83ED10510F7CE01DF91CF915F
:101DF0001F910895C03682E5D80718F5C03482E5F2
:101E0000D80708F06BC0C03282E5D80708F05FC081
:101E1000C11582E5D80708F497C02C2F2695269582
:101E200080E2289F900111248C2F8370C1E0D0E0C4
:101E300002C0CC0FDD1F8A95E2F7C22BD32BDD68E1
:101E4000D4CFC03A82E5D80760F4C03882E5D8071D
:101E500008F459C0CF71D0E0DC2FCC27C46FD06A12
:101E6000C4CFC03C82E5D80708F462C0C03E82E51A
:101E7000D80708F09CCFDC2FCC27CC27DF71C06FB0
:101E8000D06AB3CFC55AD0E0C957DE4FC881D0E081
:101E9000D064ABCFD065A9CF8D2F0E948310182FAF
:101EA000CE0199270E94E10FC12FD0E0DC2FCC2773
:101EB000CC27DF71C82BD92B98CFCE0199270E9450
:101EC000E10FCC27DF70C82BD92BD06A8ECFCF7112
:101ED000D0E0DC2FCC27C16FD06A87CF2C2F26957E
:101EE0002695277080E2289F900111248C2F837003
:101EF000C1E0D0E002C0CC0FDD1F8A95E2F7C22B13
:101F0000D32BDC6872CF2C2F26952695277080E284
:101F1000289F900111248C2F8370C1E0D0E002C073
:101F2000CC0FDD1F8A95E2F7C22BD32BDA685DCF89
:101F30008C2F8F710E948310C82FD0E0DC2FCC270C
:101F4000CC27DF71D06251CF8C2F8F710E9483100C
:101F500055E0D695C7955A95E1F7CF70D0E0DC2FC4
:101F6000CC27282F30E084FF05C044E0220F331F28
:101F70004A95E1F7C22BD32BD06937CF8D2F8F71C4
:101F80000E948310182FCE0199270E94E10FC12FC4
:101F9000D0E0DC2FCC27CC27DF71C82BD92BD2CFB8
:101FA000462F743030F46C3020F4672F0E941713E2
:101FB000089590E080E008950E94D00F0E94B20E34
:101FC000089582389105B9F1B0F48133910509F48F
:101FD0007DC048F48932910509F46DC08A329105BB
:101FE00009F47BC008958533910509F45FC08933F6
:101FF000910509F10895833E9105D9F138F4803EA9
:10200000910529F1823E910579F10895863E910569
:10201000D9F1873E910509F43EC0843E910541F512
:1020200020915B0221FF24C080915A0284FD19C0D7
:1020300087EE90E0089520915A02237009F05AC06B
:1020400020915B0223FF14C089E290E00895209163
:102050005A0220FD38C030915B0230FF09C024FFD6
:1020600043C090E080E0089520915A0222FDF7CF0E
:10207000089520915A0222FD3AC030915B0230FD52
:1020800039C024FFF5CFEDCF20915A0223FFF0CFC6
:1020900024FDE7CFCDCF20915A0223FD2EC03091F1
:1020A0005B0231FFEECF84EE90E0089520915A025A
:1020B00025FFDECFC9CF20915A0225FD21C02091F6
:1020C0005B0223FFD5CF89E390E0D2CF20915A0263
:1020D00026FFCECF8AE290E0089520915A0226FF93
:1020E000C7CF81E390E0089583EE90E0089582EEFB
:1020F00090E0089580EE90E0089586EE90E00895D7
:1021000085E390E0089590915A0292FF10C041E05B
:10211000282F2471243009F040E031E0282F287165
:10212000283009F030E0431711F02CE0822793FFAC
:1021300010C041E0282F2471243109F040E031E043
:10214000282F2871283109F030E0431711F02CE0D6
:10215000822730915B0230FF10C051E0282F21719F
:10216000213009F050E041E0282F2871283009F093
:1021700040E0541711F029E0822731FF10C041E000
:10218000282F2171213109F040E031E0282F2871FA
:10219000283109F030E0431711F029E0822794FD3F
:1021A000877E089580E0089508950E94D4100895D0
:1021B00008950E94D8100895E82FF0E0EE0FFF1F59
:1021C000EC59FD4F808191810895089580EA8A95A8
:1021D000F1F7089500C008950E94E6100895F8945C
:1021E000E82FE295EF70F0E031A1282F2F7081E009
:1021F00090E001C0880F2A95EAF7982F90959323D5
:1022000091A392A1892B82A378940895CF93DF9311
:1022100080E30E94EF1081E30E94EF1082E30E94AE
:10222000EF1087E60E94EF10CAE8D1E089918F3F56
:1022300011F00E94EF1081E0C639D807B9F7DF919D
:10224000CF910895AF92BF92DF92EF92FF920F93DA
:102250001F93CF93DF938C01D62EC62FD0E0CE01F3
:102260008A569E4F7C01FC0120812F3F09F44CC00F
:10227000F894E22FE295EF70F0E031A12F7081E049
:1022800090E001C0880F2A95EAF7932F982B91A32D
:1022900092A18095892382A378940E94EA10EAE8AB
:1022A000F1E041E050E0B12CA12C21912F3FB1F1A0
:1022B000A22FA295AF70B0E090968C9190E02F7015
:1022C00002C0959587952A95E2F780FD27C0CA013F
:1022D000A82AB92A440F551F81E0E639F80729F7E3
:1022E000F70180818F3F11F00E94EF1061E0A1148F
:1022F000B10409F460E08D2D0E94EC10CC0FDD1FBD
:10230000C00FD11FB982A882DF91CF911F910F9189
:10231000FF90EF90DF90BF90AF90089590E080E045
:10232000D7CF0E94061188E0E4E6F2E0DF01982FA3
:102330001D929A95E9F7ECE5F2E0DF011D928A958E
:10234000E9F784E00E94E2110E94D5100895A8E008
:10235000B0E0EDEAF1E10C945C248E010F5F1F4FB9
:1023600088E0F80111928A95E9F7F12C6F2DC801E8
:102370000E942211F394F4E0FF12F8CF48E050E0FD
:10238000B8018CE592E00E949A2421E0009709F4BC
:1023900020E0892B41F088E0F801ACE5B2E0019043
:1023A0000D928A95E1F744E064E672E08CE592E0F4
:1023B0000E94E311182F0E94D910812F2896E5E082
:1023C0000C9478240895B0E0A0E0E9EEF1E10C94DB
:1023D00059246C017B01042FC22F222379F081E064
:1023E000809336020E949E1C9093350280933402A3
:1023F00080E0CDB7DEB7E8E00C947524D0913602CA
:10240000DD23B1F380913402909135020E94B61C15
:10241000059770F310E0000F111FA801B601C70166
:102420000E949A24892B31F0A801B601C7010E94AD
:10243000A724CD2F109236028C2FDBCF0E94881E4E
:102440000E942E0E0E94951E08950E949A1E0E94C0
:102450003B0E0E94B41E08950E94371C0E946E1EFF
:102460000E94FB0D0E941E120E9425120E940E0E59
:10247000FBCF9093AB018093AA0108950E94080DB1
:10248000089580E00E94DC10817008950E94A711D9
:102490002FEF86E791E0215080409040E1F700C0A7
:1024A00000000E94A7110E944112882321F00E947F
:1024B0003E120E94E91C08950E944612089584E08D
:1024C000089550E0440F551F98E1699F400D511D3C
:1024D000112490E6899F400D511D1124CA0189964F
:1024E00008950F931F93CF93DF938430C8F4643023
:1024F000B8F44C30A8F40E9461128C010E94B02400
:10250000C82FD0E0DC2FCC27C80101960E94B02450
:102510009E01282BC901DF91CF911F910F91089542
:1025200090E080E0F8CF0F931F93CF93DF93122FAB
:10253000032F843078F4643068F44C3058F40E94EF
:102540006112EC01602F0E94CE24612FCE01019612
:102550000E94CE24DF91CF911F910F9108951F9378
:10256000CF93DF93D0E0C0E011C0412F6C2F8D2FAF
:102570000E94BE029C01412F6C2F8D2F0E9493124E
:102580001F5F1C3091F7CF5FC43011F010E0EDCF2A
:10259000DF5FD43041F7DF91CF911F910895EF9223
:1025A000FF920F931F93CF93DF93EC018A017C017D
:1025B000E60EF71ECE018996CE15DF0529F4CDB7BC
:1025C000DEB7E6E00C947724C03821E0D20740F46F
:1025D0000E94B024F80180830F5F1F4F2196EACF3D
:1025E000F8011082F9CFB0E0A0E0E9EFF2E10C943D
:1025F00059247C016A018C01060F171FEC01CE01E2
:102600008996C017D10729F4CDB7DEB7E8E00C945E
:102610007524C03821E0D20740F4FE01EE19FF090D
:10262000EC0DFD1D60810E94CE242196E8CF843000
:1026300038F4643028F44C3018F40E947112089574
:1026400090E080E0089580E1089587E592E00895A4
:10265000EF92FF920F931F93CF93DF93EC018A01C8
:102660007C01E60EF71ECE0187559E4FCE15DF0585
:1026700029F4CDB7DEB7E6E00C947724C73522E025
:10268000D20740F40E94B024F80180830F5F1F4FEF
:102690002196E9CFF8011082F9CFB0E0A0E0E3E5A0
:1026A000F3E10C9459247C016A018C01060F171F79
:1026B000EC01CE0187559E4FC017D10729F4CDB745
:1026C000DEB7E8E00C947524C73522E0D20740F469
:1026D000FE01EE19FF09EC0DFD1D60810E94CE2464
:1026E0002196E7CFCF93DF93C9EAD1E060E0CE0136
:1026F0000E94CE242196C11584E0D807B9F7DF9156
:10270000CF910895A8E0B0E0E8E8F3E10C945724F5
:10271000F82E8FE08F1508F46EC08FEF93E00E94C3
:10272000B024811168C009EA11E0F11035C0FE0142
:1027300031966F0188E011928A95E9F77801FFEFF1
:10274000EF1AFF0AC8010E94B02489831A828823E5
:1027500009F451C08130D1F4580182E0A80EB11CB7
:10276000C7010E94B0248A83882309F444C09FEFE4
:10277000980F9330F0F4780193E0E90EF11CC50155
:102780000E94B0248B838823B1F11C8260E0C601D3
:102790000E943F188701D2CF011594E0190759F123
:1027A000C8010E94B024811101C0FA940F5F1F4F2D
:1027B000BCCF7501843051F702E010E07501EFEFF6
:1027C000EE1AFE0AC5010E94B024F601E00FF11FC7
:1027D0008083882381F08C3741F4E2E0F0E0EC0F55
:1027E000FD1FE00FF11F1082D1CF0F5F1F4F570168
:1027F0000730110519F72896EAE00C947324CF935B
:10280000DF93EB0186319C4711F50E94160C9D81E8
:10281000992399F08A7A91E009F490E09093370235
:10282000811109C089E20E94B01B0E94A50C80E0C2
:10283000DF91CF91089585E3F6CF80913702811122
:1028400004C089E20E94B81BF0CF85E3FBCF81E092
:10285000EFCFCF93DF93EC01FB018581882309F44F
:10286000D2C09E0130572332310508F0B2C00E9419
:10287000250D90935B0280935A02FE01E150F047D0
:10288000E232F10520F4E05FFA4D0C94422480918D
:102890005A02816080935A0293C080915B028860E3
:1028A00080935B028DC080915A028260F3CF809149
:1028B0005A028460EFCF80915A028860EBCF8091FA
:1028C0005B028160EDCF80915B028260E9CF8091F5
:1028D0005A028061DFCF80915A028062DBCF809103
:1028E0005A028064D7CF0E949F0780915A02806865
:1028F000D1CF80915A028C60CDCF80915B028360F2
:10290000CFCF80915A028E7FC5CF80915B02877FA7
:10291000C7CF80915A028D7FBDCF80915A028B7FA5
:10292000B9CF80915A02877FB5CF80915B028E7FAD
:10293000B7CF80915B028D7FB3CF80915A028F7E9B
:10294000A9CF80915A028F7DA5CF80915A028F7BAB
:10295000A1CF0E949F0780915A028F779BCF8091D1
:102960005A02837F97CF80915B028C7F99CF8091B1
:102970005A0282FB992790F921E0922790FB82F975
:1029800090FB83F987CF80915B02982F909591708F
:102990008E7F892B90FB81F983CF90915A02892FEA
:1029A0008F7B96FF806476CF0E949F0790915A029A
:1029B000892F97FB87F980586DCF81E00E94B50D74
:1029C00080915A0290915B020E942A0D0E949F07FB
:1029D00080E0DF91CF91089580E0F0CF90915A028E
:1029E000892F8F7E94FF806155CF90915A02892F55
:1029F0008E7F90FF81604ECF90915B02892F877F01
:102A000093FF88604DCF81E0E4CF282F35EB23037F
:102A1000C001112497FF04C080589109892F08959F
:102A200080589F4FFBCF80913E0280FF0DC0609188
:102A3000070170E0660F771F6038710570F561154A
:102A4000710569F1862F089581FF07C06091070124
:102A500084E0689FB0011124EFCF6091070182FDEF
:102A60000AC080913D028823A9F02091060160915F
:102A70000701821710F088E0ECCF869FC001112477
:102A800033E0880F991F3A95E1F7622F70E00E94BA
:102A90002E24D2CF68E070E0D5CF8FE7089581E093
:102AA000089580913E0280FF0CC06091030170E0A8
:102AB00075956795759567956115710549F1862F2F
:102AC000089581FF06C06091030170E075956795D8
:102AD000F3CF6091030182FD0BC090913C029923DA
:102AE000A1F06091020180910301961738F0682FE0
:102AF00070E06038710500F38FE70895899FC00189
:102B0000112470E00E942E24F4CF61E070E0D7CF52
:102B100081E008959091410220914202922B2091F0
:102B20004402922B20914302922B31F098E0909333
:102B30003D0291E090933C028D3C31F40E941315CC
:102B400081958093420208958E3C19F40E941315DA
:102B5000F8CF8F3C31F40E94131581958093410288
:102B60000895803D19F40E941315F8CF893D29F48A
:102B70000E9451158093430208958A3D21F40E94DA
:102B800051158195F7CF8B3D31F40E9451158195F8
:102B90008093440208958C3D19F40E945115F8CF9A
:102BA0009FE2980F983070F4815D990B21E030E03E
:102BB00001C0220F8A95EAF780914002822B809310
:102BC000400208958D3D31F480913E0281608093F2
:102BD0003E0208958E3D21F480913E028260F7CF3F
:102BE0008F3DB9F780913E028460F1CF4091410260
:102BF0008D3C59F48091420287FF0DC01092420231
:102C000041110BC010923D0208C08E3C81F48091AE
:102C1000420218169CF3442381F080914302909164
:102C20004402892B09F05AC010923C0208958F3C4F
:102C300049F447FFF0CF1092410280914202811186
:102C4000ECCFE0CF803D19F41416ACF3E4CF9091B3
:102C50004302893D29F41916F4F610924302DBCFA2
:102C60008A3D19F497FFD7CFF8CF909144028B3D5E
:102C700029F497FFD0CF10924402CDCF8C3D19F4A8
:102C80001916CCF3C8CF9FE2980F983090F4815D6D
:102C9000990B21E030E0B90102C0660F771F8A95D9
:102CA000E2F7CB0180959091400289238093400206
:102CB000B2CF8D3D31F480913E028E7F80933E02F3
:102CC000AACF8E3D21F480913E028D7FF7CF8F3DBC
:102CD00009F0A1CF80913E028B7FF0CF08950E9432
:102CE0009E1C9C019091410280914202982B21F000
:102CF00030933B0220933A02909143028091440228
:102D0000982B21F030933902209338028FE392E020
:102D10000E94081B089586E0EFE3F2E0DF011D92B8
:102D20008A95E9F710923D0210923C0210923E0201
:102D30000895FC01828181110EC0838181110BC035
:102D40008481811108C091E08581811101C090E0EA
:102D5000892F8170089581E0FCCFA6E0B0E0E3EB1D
:102D6000F6E10C945E2486E0EFE3F2E0DE011196DA
:102D700001900D928A95E1F7109241021092420261
:102D800010924302109244028B819C81892B89F01E
:102D900080913A0290913B020E94B61CAC01909146
:102DA0003D029923C9F1809108018417150608F4A2
:102DB00040C08D819E81892B91F080913802909145
:102DC00039020E94B61CAC0190913C02992309F48F
:102DD0006AC0809104018417150608F472C0BE0110
:102DE0006F5F7F4F8FE392E00E94CB1B811105C084
:102DF0008FE392E00E94991681110E946F1686E07F
:102E0000FE013196AFE3B2E001900D928A95E1F7B1
:102E10002696E3E00C947A24209109018AE0289F09
:102E2000900111242417350720F69F5F90933D02EF
:102E300002C09F3FD1F71B81112359F00E94131547
:102E40009FEF11160CF491E0899F802D112480933F
:102E500041021C81112359F00E9413159FEF111696
:102E60000CF491E0899F802D11248093420280917F
:102E70004102882309F49DCF10914202112309F4E5
:102E800098CF0E940515882351F080934102812F2D
:102E90000E940515882329F0809342028ACF81E0A1
:102EA000F4CF81E0F9CF209105018AE0289F9001BD
:102EB00011242417350708F092CF9F5F90933C02AE
:102EC00002C09F3FD1F71D81112359F00E94511577
:102ED0009FEF11160CF491E0899F802D11248093AF
:102EE00043021E81112359F00E9451159FEF1116C4
:102EF0000CF491E0899F802D1124809344028091ED
:102F00004302882309F46BCF10914402112309F482
:102F100066CF0E940515882351F080934302812FCC
:102F20000E940515882329F08093440258CF81E040
:102F3000F4CF81E0F9CFB0E0A0E0E1EAF7E10C9452
:102F40005824E82FF0E0E45DFD4FB490282F26953B
:102F50002695269530E0F901E453FD4F04918770E2
:102F600010E0082E02C0159507950A94E2F701704B
:102F70001127F901E454FD4FE490F12C082E02C012
:102F8000F594E7940A94E2F791E0E922FF24F9012D
:102F9000E455FD4FC491D0E002C0D595C7958A9500
:102FA000E2F7C170DD27C62ED12C0115110549F5B8
:102FB000E114F10431F086EE0E944A04C601009744
:102FC00071F5B6018B2D0E943205C601009779F587
:102FD000E114F104A1F50115110531F081EE0E9413
:102FE000D804C6010097C9F5CD2B31F08CE20E94C0
:102FF0004A05C114D104C9F5CDB7DEB7E9E00C9498
:10300000742481EE0E944A04C601009789F2EFE918
:10301000FFE03197F1F700C000000197F6CFEFE92C
:10302000FFE03197F1F700C000000197C8CFEFE94A
:10303000FFE03197F1F700C000000197C7CF86EE9F
:103040000E94D804C601009731F2EFE9FFE0319702
:10305000F1F700C000000197F6CFEFE9FFE03197EC
:10306000F1F700C000000197BDCF8FE99FE0019705
:10307000F1F700C0000091E0C91AD108BACFEF9271
:10308000FF920F931F93CF93DF93EC01162F0AE06B
:103090008881882309F459C0813009F052C08981A0
:1030A000813071F47E0182E0E80EF11C8A810E9479
:1030B0004A05E701812F90E00097D9F52196E8CFE6
:1030C000823041F47E01E2E0EE0EF11C8A810E9422
:1030D0004A04EFCF833041F47E01F2E0EF0EF11CA1
:1030E0008A810E94D804E5CF843011F02196E2CF86
:1030F0002A81229690E080E0AE014F5F5F4F20531F
:10310000330B2A30310550F00097A1F2EFE9FFE0D0
:103110003197F1F700C000000197F6CF089FB0018A
:10312000099F700D1124C901860F971F2981EA019B
:10313000E3CFEFE9FFE03197F1F700C0000001971E
:10314000BBCF612F0E949B17B9CFCDB7DEB7E6E0AA
:103150000C9477240F931F93CF93DF93C42FD22F18
:10316000FC0185818823C9F0409347020E949E1C80
:10317000909346028093450280E28C0F883040F4A1
:10318000C77081E001C0880FCA95EAF70E94530515
:10319000DF91CF911F910F91089510914702141361
:1031A00032C080914502909146020E94B61C883C34
:1031B000910548F5C0E2CD0F1D17B9F080E2810FEF
:1031C000883040F4177081E001C0880F1A95EAF743
:1031D0000E945A05C83048F481E09D2F977001C0C5
:1031E000880F9A95EAF70E945305802F0E944A059E
:1031F000C83070F6D77081E001C0880FDA95EAF721
:103200000E945A05C5CF80E28C0F883008F6C7703F
:1032100081E001C0880FCA95EAF7F2CF0F93DB0176
:1032200088519C4787309105A0F5FC01EE5CFA4D72
:103230000C94422406E221EE41EE6AE17CE7CD01E6
:103240000E94AA1880E00F91089507E225EE45EE4E
:103250006BE17CE7F4CF06E221EE40EE68E17CE72B
:10326000EECF07E225EE44EE69E17CE7E8CF06E227
:1032700021EE42EE6CE17CE7E2CF07E225EE46EE7E
:103280006DE17CE7DCCF08E221E045EE6EE17CE712
:10329000D6CF15968C91882319F010924702D3CF80
:1032A00081E0D1CF1F93CF93DF9387372CE792072D
:1032B00059F0C1E088379C47E1F4FB01C581CC237C
:1032C00071F10E94951906C0FB01C581CC23B1F0B4
:1032D0000E9492190E9417080E949819D82F0E94E4
:1032E0009519C82F0E9492194D2F6C2F0E943F09EB
:1032F000C0E08C2FDF91CF911F9108950E94921909
:103300000E9423080E949819182F0E949519D82FFF
:103310000E949219412F6D2F0E943F09EACF0E940F
:103320009519EECF80910C01089580910B010895BD
:1033300080910A01089585E290E00E94B0248432D1
:1033400089F486E290E00E94B024843059F487E248
:1033500090E00E94B02491E0813209F090E0892F42
:103360008170089580E0FCCFCF93C82F6FEF81115B
:1033700064E285E290E00E94CE246FEFC11164E028
:1033800086E290E00E94CE246FEFC11161E287E2F5
:1033900090E00E94CE24CF910895089588E290E0B5
:1033A0000E94B024682F70E090E080E008950895B6
:1033B000CF93C62F0E94D7196C2F88E290E00E940D
:1033C000CE24CF91089580E00E94B41960E070E0AF
:1033D000CB010E94D8190E94AF120E94721381E0A3
:1033E0000E94B41908950E94CD190E94CE190E941E
:1033F000D7190E949B19811102C00E94E3190895F8
:1034000008959C01FB018581882351F0A90157573C
:103410004038510530F4822F0E94821380E00895D5
:1034200081E008952FEFFC01208308950E94121A75
:10343000089580E00895B0E0A0E0E1E2FAE10C94A4
:103440005924EC01C62E0E94191A811110C0E8817E
:10345000E150E331B8F4F0E0E75CFA4D0C9442241B
:1034600019828CE08A836C2DCE010E94621DCDB73B
:10347000DEB7E8E00C94752489818230C1F028F42D
:10348000813061F08FEF8883EECF833099F0843004
:10349000C9F71A821B821C821D82E5CF0E94AA1CDA
:1034A0000E9448246A837B838C839D83DCCF0E94A7
:1034B000CE19F6CF8A81082F10E07E019EE0D92E2A
:1034C000D80E0430110578F6802F0E94DC10F70129
:1034D000938384830F5F1F4FF2E0EF0EF11CD01235
:1034E000F0CFC1CF8981823031F0853059F68A81A1
:1034F0000E94001AB8CF6A817B818C819D810E94D5
:1035000048240E94D819AFCF4B816A8189810E94DB
:1035100071129827892798279D838C83A4CF2C81AB
:103520003D813227232732274B816A8189810E947E
:10353000931299CF0E94AF1296CF6C2DCE010E94AC
:10354000161A91CF0E94231389838DCF0E942513D1
:103550009827892798279A83898385CF6B8170E084
:1035600089819A81AE014C5F5F4F98278927982700
:103570000E94281378CF6B8170E089819A81AE0117
:103580004C5F5F4F9827892798270E944D136BCF78
:103590000E94721368CF0E945F12D6CF6B8170E0D9
:1035A00089819A81AE014C5F5F4F982789279827C0
:1035B0000E94CF1258CF6B8170E089819A81AE0151
:1035C0004C5F5F4F9827892798270E94F3124BCFB3
:1035D00090934D0280934C020895E0914C02F0913B
:1035E0004D02309729F00190F081E02D0995089562
:1035F00080E008950E94ED1A0895E0914C02F09148
:103600004D02309721F00280F381E02D0995089555
:10361000E0914C02F0914D02309739F022E0DC014C
:103620002C930680F781E02D09950895A3E0B0E082
:10363000ECE1FBE10C945F2420914A0230914B02B3
:1036400028173907A1F090934B0280934A02E0912A
:103650004C02F0914D02309751F023E029839B8377
:103660008A830084F185E02DCE0101960995239689
:10367000E2E00C947B24A3E0B0E0E1E4FBE10C94F5
:103680005F24209148023091490228173907A1F0A0
:103690009093490280934802E0914C02F0914D02D0
:1036A000309751F024E029839B838A830084F1853D
:1036B000E02DCE01019609952396E2E00C947B243F
:1036C00040910001509101019A012E5F3F4F485FE8
:1036D0005F4F80E02417350709F40895F9019191AF
:1036E0009F019923B9F38F5FF5CF882371F0209163
:1036F000000130910101F9013296285F3F4F91910D
:10370000981729F0E217F307D1F780E0089581E0D8
:1037100008959C01FC0132969FEF80E0419146178D
:1037200051F09F3F19F4411101C0982F8F5F8630EF
:10373000A9F79F3F09F40895290F311D97FD3A9588
:10374000F90162830895FC013296089621912613AF
:1037500003C0DF0111971C92E817F907B9F7089524
:10376000682F80910001909101010E94891B0895AA
:10377000682F80910001909101010E94A31B089580
:10378000E0910001F0910101329686E0DF011D9287
:103790008A95E9F70895DC01FB0111969C91119738
:1037A0008181981322C012968C911297882319F068
:1037B000928189131AC013968C911397882319F05C
:1037C0009381891312C015968C911597882319F04F
:1037D000958189130AC014969C91992321F081E068
:1037E0002481291303C080E001C081E08170089525
:1037F00008950E94F81B0895811106C081E080930E
:103800004E020E94F91B089582E0F9CF83E0809375
:103810004E020E94F91B08950E94FC1B089581E04E
:1038200080934E020E94F91B08950E940F1C089578
:10383000089508950E94191C0895089508950E94FE
:10384000181C0895CF930E941D1C0E94A7110E946E
:103850001E1CC0E08C2F0E94DC10892B31F4CF5F3E
:10386000C430C1F780E0CF91089581E0FCCF85B7E7
:10387000806885BF85B7806885BF08951F921FB691
:103880001F9211248F939F93AF93BF9380914F0208
:10389000811113C080916C0290916D02A0916E0213
:1038A000B0916F024196A11DB11D80936C0290935F
:1038B0006D02A0936E02B0936F02BF91AF919F9182
:1038C0008F911F901FBE1F901895809174028430B5
:1038D00031F10E94BE0310924F0288E190E020E493
:1038E0000FB6F894A895809360000FBE20936000F7
:1038F00083B7817F846083BF83B7816083BF7894FF
:10390000889583B78E7F83BF0FB6F894A895809172
:103910006000886180936000109260000FBE08957F
:103920000E949F070E94C303089582E084BD93E034
:1039300095BD9AEF97BD80936E0008952FB7F894C8
:1039400080916C0290916D02A0916E02B0916F0215
:103950002FBF08952FB7F89460916C0270916D029B
:1039600080916E0290916F022FBF08959C014FB716
:10397000F89480916C0290916D02A0916E02B091CA
:103980006F024FBF821B930B089578941F921FB64E
:103990001F9211248F939F93AF93BF9380916C02DA
:1039A00090916D02A0916E02B0916F020196A11DDF
:1039B000B11D80936C0290936D02A0936E02B09340
:1039C0006F02BF91AF919F918F911F901FBE1F906B
:1039D000189581E08093E00080E28093D8001092F7
:1039E000C9008FE19EE40197F1F700C0000087E075
:1039F00090EBDC0180937D0290937E02A0937F0286
:103A0000B093800288E19CE00FB6F894A89580936B
:103A100060000FBE90936000FFCF88E19CE00FB67E
:103A2000F894A895809360000FBE90936000FFCF3C
:103A300080915802089508959B01BA0190917402F3
:103A40009430E9F48F708093E9009FEF8091E80053
:103A5000915085FD06C085ED8A95F1F70000911122
:103A6000F5CF8091E80085FF0AC050E040E0C90131
:103A70000E94581F8091E8008E778093E800089597
:103A800043E050E0BC0184E00E941C1D089546E024
:103A900050E0BC0184E00E941C1D0895CF93DF9389
:103AA000EC0148E050E0BC0181E00E941C1D88E070
:103AB000FE01A0E5B2E001900D928A95E1F7DF9159
:103AC000CF910895603231F440E250E0BC0182E0D1
:103AD0000E941C1D089580917302811109C00E94EB
:103AE00037210E9494218091E20084608093E2005B
:103AF00008951092730208950E940F1C089560911A
:103B0000700281E0611101C080E00E94061C0895EE
:103B10009091740281E0943009F080E0609170022D
:103B20000E940C1C089542E061EC81E00E94B320E9
:103B300042E261EC84E00E94B32042E261EC82E068
:103B40000E94B32042E260EC83E00E94B320909197
:103B5000740281E0943009F080E0609170020E946C
:103B6000FC1B089580917602833009F463C030F421
:103B70008130E1F1823009F4A0C008958A3009F45F
:103B80008CC08B3009F471C0893009F052C080912B
:103B90007502813209F04DC08091790290917A02CC
:103BA000009719F0029709F044C08091E800877FE0
:103BB0008093E8008091E80082FF37C09091F30085
:103BC0008091F200029731F48091F100813011F080
:103BD000863021F48091F100809358028091E800B2
:103BE0008B778093E8000E94E72023C080917502C4
:103BF000813AF9F48091E800877F8093E800809112
:103C0000790290917A02892B61F468E080E592E074
:103C100070E00E94F61F8091E8008B778093E800A7
:103C2000089560E090E080E0F3CF8091740281110C
:103C3000C1CF089580917502813AD9F780917902B8
:103C400090917A02892BA9F78091E800877F809371
:103C5000E8008091E80080FFFCCF809117018093FD
:103C6000F1008091E8008E77BCCF8091750281329F
:103C700001F78091790290917A02892BD1F6809197
:103C8000E800877F8093E8000E94E7208091770218
:103C9000809317010E949F070895809175028132D9
:103CA00041F68091E800877F8093E8000E94E7203A
:103CB0008091780280935902089580917502813A2B
:103CC00009F0B7CF8091E800877F8093E80080916A
:103CD000E80080FFFCCF80915902C1CF84B7877F75
:103CE00084BF0FB6F894A895809160008861809396
:103CF0006000109260000FBE80E890E00FB6F8946C
:103D000080936100909361000FBE0E94151C08957E
:103D10000E9437210E949421E2EEF0E080818460CD
:103D2000808378940E94132408958DE091E00E948E
:103D3000E81A089580917402853031F480917402FC
:103D4000853019F00E94901C08950E94651C809196
:103D50007202882399F30E94221C882379F30E941F
:103D6000421F0E949F07EACFA0E2B0E0EAEBFEE12B
:103D70000C945F2480917402843009F583E0809371
:103D8000E9008091E80082FF1AC08091E80090E08D
:103D900085FF09C050E040E060E270E0CE0101968E
:103DA0000E94A71F91E08091E8008B778093E80044
:103DB000992329F060E2CE0101960E941B1AA09679
:103DC000E2E00C947B249A0140917B0250917C02AA
:103DD0000E94EB1E0895492F55274330510521F1CC
:103DE00068F44130510509F443C04230510509F4EB
:103DF00044C090E080E050E040E026C041325105F0
:103E000051F142325105A9F76330710590F7FB017A
:103E1000EE0FFF1FE356FE4F4081518166567E4FE5
:103E2000FB01808190E010C099278130910581F0DD
:103E3000009729F00297E9F6ECEDF2E002C0E8E025
:103E4000F3E0849190E0AF01F9015183408308953C
:103E5000E2EFF2E0F6CF6330710558F6660F771F98
:103E6000FB01ED55FE4F4081518189E090E0ECCFA0
:103E700082E190E047E653E0E7CF8BE590E04CE04D
:103E800053E0E2CF80E189BD82E189BD09B400FE43
:103E9000FDCF8091D8008F7D8093D8008091E00085
:103EA00082608093E0008091E00081FDFCCF089566
:103EB000AF92BF92CF92DF92FF920F931F93CF9357
:103EC000DF936C01EB018A010E940621F82E81111B
:103ED00023C00115110539F0F80180819181C81BBB
:103EE000D90BC80ED91EB12CA12C2097A9F0809116
:103EF000E80085FD22C08091E8008E778093E8007D
:103F000001151105A1F0F80180819181A80EB91E5B
:103F1000B182A08285E0F82E8F2DDF91CF911F9185
:103F20000F91FF90DF90CF90BF90AF9008950E94C7
:103F300006218823D1F2F82EEFCFF60181916F018F
:103F40008093F1002197FFEFAF1ABF0ACECFAF9257
:103F5000BF92CF92DF92FF920F931F93CF93DF9385
:103F60006C01EB018A010E940621F82E811123C009
:103F70000115110539F0F80180819181C81BD90B19
:103F8000C80ED91EB12CA12C2097A9F08091E80071
:103F900085FD22C08091E8008B778093E8000115B1
:103FA0001105A1F0F80180819181A80EB91EB1829E
:103FB000A08285E0F82E8F2DDF91CF911F910F9178
:103FC000FF90DF90CF90BF90AF9008950E940621A0
:103FD0008823D1F2F82EEFCF8091F100F601819382
:103FE0006F012197FFEFAF1ABF0ACECFFC0180917E
:103FF0007B0290917C0286179707A0F061157105EE
:1040000029F49091E8009E779093E80090E0611584
:10401000710551F4911108C08091E80082FF34C00D
:1040200080E00895BC01F2CF809174028823C1F131
:104030008530C1F18091E80083FD30C08091E800B7
:1040400082FDEACF8091E80080FFE1CF8091F3000C
:104050002091F200382F6115710519F028303105D3
:1040600058F091E02830310509F090E02091E80007
:104070002E772093E800CBCF81918093F10061509F
:1040800071092F5F3F4FE7CF80917402882341F081
:10409000853041F08091E80083FFBECF81E0089534
:1040A00082E0089583E00895FC0180917B02909165
:1040B0007C0286179707A0F06115710529F480919D
:1040C000E8008E778093E80090E06115710551F467
:1040D000911108C08091E80082FF35C080E008950A
:1040E000BC01F2CF809174028823C9F18530C9F1F7
:1040F0008091E80083FD31C08091E80082FDEACF25
:104100008091E80080FFE1CF8091F3002091F200E0
:10411000382F6115710519F02830310558F091E0FC
:104120002830310509F090E08091E8008E77809387
:10413000E800CBCF84918093F100319661507109F2
:104140002F5F3F4FE6CF80917402882341F0853086
:1041500041F08091E80083FFBDCF81E0089582E0C7
:10416000089583E00895982F973028F08F708093FA
:10417000E90081E008959093E900242F762F50E024
:10418000981731F07091EC002091ED005091F00003
:1041900021FD02C09F5FE8CF3091EB003E7F30935E
:1041A000EB003091ED003D7F3093ED003091EB005E
:1041B00031603093EB007093EC002093ED0050934E
:1041C000F0002091EE0027FDE5CF80E0089580917A
:1041D000750287FF13C08091E80082FF06C08091BE
:1041E000E8008B778093E80004C08091740281110D
:1041F000F2CF0895809174028823D9F38091E8006A
:1042000080FFF8CF8091E8008E77ECCF2091E4001A
:104210003091E50095E6A9012091EC00822F817094
:1042200020FF06C08091E80080FF06C080E008956E
:104230002091E80022FD1AC080917402882389F041
:10424000853089F08091EB0085FD0FC02091E4005E
:104250003091E50042175307F9F29150E1F684E0FE
:10426000089582E0089583E0089581E008950E9412
:10427000A6210E94AE21E0EEF0E080818160808383
:10428000E8EDF0E080818F77808319BCA7EDB0E086
:104290008C918E7F8C9380818F7E808310927302AD
:1042A00008950F931F93CF93DF930E94A6210E943E
:1042B000AE21C8EDD0E088818F77888388818068BF
:1042C000888388818F7D888319BC10927402109234
:1042D0007002109272021092710200EE10E0F8016A
:1042E00080818B7F808388818160888342E060E069
:1042F00080E00E94B320E1EEF0E080818E7F808339
:10430000E2EEF0E08081816080838081886080833C
:10431000F80180818E7F8083888180618883DF912E
:10432000CF911F910F910895E8EDF0E080818F7E8D
:104330008083E7EDF0E080818160808384E082BF4C
:1043400081E0809373020E9451210895E8EDF0E02E
:1043500080818E7F80831092E20008951092DA00AF
:104360001092E10008951F920F920FB60F92112440
:104370002F933F934F935F936F937F938F939F936D
:10438000AF93BF93EF93FF938091E10082FF0BC047
:104390008091E20082FF07C08091E1008B7F8093D3
:1043A000E1000E9412248091DA0080FF19C0809100
:1043B000D80080FF15C08091DA008E7F8093DA00EC
:1043C0008091D90080FF96C080E189BD82E189BDDE
:1043D00009B400FEFDCF81E0809374020E946B1D42
:1043E0008091E10080FF19C08091E20080FF15C03C
:1043F0008091E2008E7F8093E2008091E2008061F4
:104400008093E2008091D80080628093D80019BC2C
:1044100085E0809374020E947F1D8091E10084FFFB
:104420002BC08091E20084FF27C080E189BD82E13A
:1044300089BD89B5982F917080FFFBCF8091D800FE
:104440008F7D8093D8008091E1008F7E8093E10082
:104450008091E2008F7E8093E2008091E200816093
:104460008093E20080917002882309F449C084E0BF
:10447000809374020E94881D8091E10083FF29C00F
:104480008091E20083FF25C08091E100877F8093C7
:10449000E10082E080937402109270028091E1004A
:1044A0008E7F8093E1008091E2008E7F8093E20016
:1044B0008091E20080618093E20042E060E080E071
:1044C0000E94B3208091F00088608093F0000E94E9
:1044D0007C1DFF91EF91BF91AF919F918F917F9143
:1044E0006F915F914F913F912F910F900FBE0F9061
:1044F0001F90189519BC109274020E94791D70CFFC
:104500008091E30087FD93E090937402B3CF1F92F4
:104510000F920FB60F9211242F933F934F935F93F7
:104520006F937F938F939F93AF93BF93CF93DF93BB
:10453000EF93FF93D091E900DF708091EC00C82FDA
:10454000C17080FDC0E81092E9008091F000877F83
:104550008093F00078940E94CB221092E900809121
:10456000F00088608093F000CD2BCF70C093E900FD
:10457000FF91EF91DF91CF91BF91AF919F918F917B
:104580007F916F915F914F913F912F910F900FBE4F
:104590000F901F901895AAE2B0E0E1EDF2E20C94C2
:1045A0005E2485E792E02091F100FC012193CF0188
:1045B000F2E08D379F07B9F70E94B21D8091E800A5
:1045C00083FF1EC180917502909176029A3008F0A7
:1045D00017C1E92FF0E0E45BFA4D0C9442248038D7
:1045E00099F0823809F00CC1809179028F70873080
:1045F00008F006C18093E9008091EB0085FB8827D5
:1046000080F91092E90006C08091710290917202C7
:10461000911182609091E800977F9093E8008093D9
:10462000F1001092F1008091E8008E77E5C08823B8
:1046300009F4D3C0823009F0E3C080917702811180
:10464000D6C0809179028F702FEF280F263008F0A6
:10465000D7C08093E9002091EB0020FFC8C09330C1
:1046600031F48091EB0080628093EB00C0C09091A8
:10467000EB0090619093EB0021E030E001C0220F4D
:104680008A95EAF72093EA001092EA008091EB0005
:104690008860EACF8111B4C0109177021F778091B2
:1046A000E3008078812B8093E3008091E800877F8E
:1046B0008093E8000E94E7208091E80080FFFCCF13
:1046C0008091E30080688093E30082E0111183E031
:1046D0008093740295C08058823008F091C0809118
:1046E0007702909178028C3D23E09207A1F583E058
:1046F0008A838AE289834FB7F894DE01139620E01B
:104700003EE051E2E32FF0E050935700E49120FFA8
:1047100003C0E295EF703F5FEF708E2F90E0EA30BC
:10472000C0F0C7968D939D932F5F243159F74FBFEB
:104730008091E800877F8093E8006AE270E0CE0114
:1047400001960E94F61F8091E8008B778093E80025
:1047500057C0C096E7CF6091790270917A02AE019E
:104760004F5F5F4F0E94E31EBC01892B09F448C0D4
:104770009091E800977F9093E80089819A810E9448
:104780005420E1CF8038E1F58091E800877F809365
:10479000E800809170028093F10045CF811130C014
:1047A00090917702923060F58091E800877F809346
:1047B000E800909370020E94E720809170028823A5
:1047C00011F084E005C08091E30087FDFACF81E01D
:1047D000809374020E94931D13C0809177028130F0
:1047E00079F481E0933009F080E0809372021092B6
:1047F000E9008091E800877F8093E8000E94E7202D
:104800008091E80083FF0AC08091E800877F809351
:10481000E8008091EB0080628093EB00AA96E3E0D1
:104820000C947A240895CF93809174028823A1F088
:10483000C091E900CF709091EC00892F817090FDBC
:1048400080E8C82B1092E9008091E80083FD0E9467
:10485000CB22CF70C093E900CF91089597FB072E2C
:1048600016F4009407D077FD09D00E94862407FC37
:1048700005D03EF4909581959F4F08957095619570
:104880007F4F0895EE0FFF1F0590F491E02D0994DE
:1048900069279627692778278727782708952F92F1
:1048A0003F924F925F926F927F928F929F92AF92C0
:1048B000BF92CF92DF92EF92FF920F931F93CF930D
:1048C000DF93CDB7DEB7CA1BDB0B0FB6F894DEBFA4
:1048D0000FBECDBF09942A88398848885F846E84CA
:1048E0007D848C849B84AA84B984C884DF80EE8014
:1048F000FD800C811B81AA81B981CE0FD11D0FB61D
:10490000F894DEBF0FBECDBFED010895AA1BBB1BFF
:1049100051E107C0AA1FBB1FA617B70710F0A61BBF
:10492000B70B881F991F5A95A9F780959095BC01E0
:10493000CD010895FB01DC0104C08D910190801927
:1049400021F441505040C8F7881B990B0895FB0192
:10495000DC0102C001900D9241505040D8F70895FB
:10496000F999FECF92BD81BDF89A992780B5089537
:10497000A8E1B0E042E050E00C94F424DC01A40F84
:10498000B51F4150504048F0CB01840F951F2E9128
:104990000E94CF2441505040D0F70895262FF99916
:1049A000FECF92BD81BDF89A019700B4021639F08E
:1049B0001FBA20BD0FB6F894FA9AF99A0FBE08955F
:1049C0000396272F0E94CF240E94CE24252F0E94D9
:1049D000CF24242F0C94CF240196272F0E94CF247C
:1049E0000C94CE24DC01CB01FC01F999FECF06C06A
:1049F000F2BDE1BDF89A319600B40D92415050409D
:104A0000B8F70895F894FFCFA205A205F205F205C4
:104A100057067306D105D1057806DF06EE06EE06C9
:104A20008114F5148914531457148D145B149114C4
:104A30009D146714EE146B14A1146F14A514CD14F7
:104A40007314A914D4147914AF14B7145F14951403
:104A5000631499147D14B314C314DD14EC144D14B1
:104A60008514FC142B1931191A19251937193D19F8
:104A70004319301A3C1A721A841A8F1A9A1A9D1AFC
:104A80009D1A9D1A421A421AA21AA61AAE1ABB1AE7
:104A9000C81ACB1ACE1ADB1AEF22172300241723C9
:0C4AA00000244A236B230024C223CE23F1
:104AAC001702280850011E0A1401030201181D4E9A
:104ABC001D1B1D471D401D01E200E900EA00B50069
:104ACC00B600B700CD008301CC008A01920194019D
:104ADC002102230224022502260227022A02B30005
:104AEC00B4006F0070009F01CB019F02A002818275
:104AFC0083E200E900EA00B500B600B700CD008300
:104B0C0001CC008A01920194012102230224022586
:104B1C0002260227022A02B300B4006F0070009F25
:104B2C0001CB019F02A002818283F0F1F4F5F6F72C
:104B3C006636353497963031326744227B160479C9
:0A4B4C00039B031E03370357030009
:00000001FF
