:100000000C94C6010C94E3010C94E3010C94E301FD
:100010000C94E3010C94E3010C94E3010C94E301D0
:100020000C94E3010C94E3010C942D150C94E91449
:100030000C942A160C94E3010C94E3010C94E30154
:100040000C94E3010C94E3010C94E3010C94E301A0
:100050000C94E3010C9406160C94E3010C94E30158
:100060000C94E3010C94E3010C94E3010C94E30180
:100070000C94E3010C94E3010C94E3010C94E30170
:100080000C94E3010C94E3010C94E3010C94E30160
:100090000C94E3010C94E3010C94E3010C94E30150
:1000A0000C94E3010C94E3010C94E3012B00140085
:1000B0001A0008001500170000001C0018000C00B2
:1000C00012001300407EE000040016000700090043
:1000D0000A0000000B000D000E000F00330034007A
:1000E000E1001D001B0006001900050000001100C2
:1000F0001000360037003800E500E400E300E200BD
:10010000777C787C2A000000777C2C00787CE600E5
:10011000E700E40001001E001F0020002100220073
:100120000000230024002500260027002D000100E8
:100130001E021F02200221022202000023022402CA
:100140002502260227022D020100350035022E006D
:100150002E020000000000002F0030002F023002AD
:100160000100010001000100010001000100000088
:1001700001000100010001000100010001006A000E
:100180006B006C006D006E0000004A004E004B00DA
:100190004D000000460001006F0070007100720009
:1001A000730000005000510052004F000000450055
:1001B00001003A003B003C003D003E0000003F00D3
:1001C00040004100420043004400010001000100E2
:1001D000010001004C0000000100280001000100A6
:1001E000010001000000000000000000007C000091
:1001F00000000000000000000000000000000000FF
:100200000000A60000000000000000000000AA009E
:10021000A900000000000000000000000000000035
:100220000000000000000000A80000000000000026
:1002300000000000000000000000000000000000BE
:10024000000000000000000000000000050109029D
:10025000A10185020901A10005091901290815005C
:1002600025019508750181020501093009311581C3
:10027000257F95027508810609381581257F95012E
:1002800075088106050C0A38021581257F950175D0
:10029000088106C0C005010980A101850319012A52
:1002A000B700150126B700950175108100C0050C37
:1002B0000901A101850419012AA002150126A00245
:1002C000950175108100C005010906A101050719F6
:1002D000E029E71500250195087501810295017552
:1002E0000881010507190029FF150026FF00950662
:1002F00075088100050819012905150025019505D6
:1003000075019102950175039101C009023B00023C
:100310000100A0FA090400000103010100092111F4
:1003200001000122440007058103080001090401BE
:10033000000103000000092111010001227B0007D8
:100340000582032000011201000200000008D80409
:1003500011E60001010200010C036F0035003100BD
:1003600067006F0000002003530061006C0069000B
:10037000630079006C00690063002D006100630078
:1003800069006400330000000403090411241FBE47
:10039000CFEFDAE0DEBFCDBF11E0A0E0B1E0E6E8EC
:1003A000F4E302C005900D92A635B107D9F722E01B
:1003B000A6E5B1E001C01D92A332B207E1F70E94A9
:1003C00051160C94021A0C940000482F20911F0221
:1003D0009091E60157E0291302C080E0089530E0D3
:1003E000529FF001539FF00D1124E951FE4F81817E
:1003F000681306C08081481303C085818111EECF48
:100400002F5F3F4F2770E7CFE8EDF0E080818E7FD0
:1004100080831092E2001092DA001092E100A0EEC8
:10042000B0E08C9181608C9380818F77808319BC40
:10043000A7EDB0E08C918E7F8C9380818F7E80833E
:100440001092CF0108952091E4003091E50095E6E7
:10045000A9012091EC00822F817020FF06C08091BD
:10046000E80080FF06C080E008952091E80022FDAA
:100470001AC08091DC01882389F0853089F0809151
:10048000EB0085FD0FC02091E4003091E50042179C
:100490005307F9F29150E1F684E0089582E008955F
:1004A00083E0089581E008958091DE0187FF13C005
:1004B0008091E80082FF06C08091E8008B778093EE
:1004C000E80004C08091DC018111F2CF0895809191
:1004D000DC018823D9F38091E80080FFF8CF809178
:1004E000E8008E77ECCF982F9093E900242F762F99
:1004F00050E0891731F07091EC002091ED0050919F
:10050000F00021FD07C09F5F973071F78093E900ED
:1005100081E008953091EB003E7F3093EB00309105
:10052000ED003D7F3093ED003091EB003160309372
:10053000EB007093EC002093ED005093F0002091BD
:10054000EE0027FDE0CF80E00895B0E0A0E0EBEA08
:10055000F2E00C946219C8EDD0E088818F7E888328
:10056000E7EDF0E080818160808384E082BF81E0FC
:100570008093CF0188818E7F888302EE10E0F8019E
:1005800010821092DA0081EEC82ED12CF601108272
:1005900088818F77888388818068888388818F7D30
:1005A000888319BC1092DC011092DD011092DB01EE
:1005B0001092DA0190EEE92EF12CF70180818B7F09
:1005C000808388818160888342E060E080E00E94CF
:1005D0007302F60180818E7F8083F80180818160C3
:1005E0008083808188608083F70180818E7F808313
:1005F000888180618883CDB7DEB7E8E00C947E19EE
:10060000FC018091E4019091E50186179707A0F025
:100610006115710529F49091E8009E779093E800A8
:1006200090E06115710551F4911108C08091E800C6
:1006300082FF34C080E00895BC01F2CF8091DC01DC
:100640008823C1F18530C1F18091E80083FD30C07D
:100650008091E80082FDEACF8091E80080FFE1CF41
:100660008091F3002091F200382F6115710519F087
:100670002830310558F091E02830310509F090E03C
:100680002091E8002E772093E800CBCF81918093D2
:10069000F100615071092F5F3F4FE7CF8091DC017E
:1006A000882341F0853041F08091E80083FFBECF80
:1006B00081E0089582E0089583E00895089580918F
:1006C000D101089587E797E7909301088093000888
:1006D00088E19AE00FB6F894A895809360000FBE69
:1006E00090936000FFCF9C014FB7F8948091CB01AD
:1006F0009091CC01A091CD01B091CE014FBF821B52
:10070000930B08952FB7F8948091CB019091CC0171
:10071000A091CD01B091CE012FBF08959C01FC01A5
:1007200032969FEF80E04191461751F09F3F19F4B8
:10073000411101C0982F8F5F8630A9F79F3F09F4C0
:100740000895290F311D97FD3A95F90162830895A7
:10075000A3E0B0E0EEEAF3E00C9468192091C80140
:100760003091C90128173907A1F09093C9018093EE
:10077000C801E091C601F091C701309751F024E023
:1007800029839B838A830084F185E02DCE01019625
:1007900009952396E2E00C948419A3E0B0E0E3ED20
:1007A000F3E00C9468192091C4013091C501281719
:1007B0003907A1F09093C5018093C401E091C6016F
:1007C000F091C701309751F023E029839B838A83FE
:1007D0000084F185E02DCE01019609952396E2E093
:1007E0000C948419E091C601F091C701309729F06B
:1007F0000190F081E02D0995089580E008950E9410
:1008000082039C019091C0018091C101982B21F03D
:100810003093BD012093BC019091C2018091C3012E
:10082000982B21F03093BB012093BA01E091C601CF
:10083000F091C701309749F082E08093BE010680B5
:10084000F781E02D8EEB91E0099508958091B90133
:1008500080FD16C081FD16C082FD16C08091B801D2
:100860008823A1F0883280F428E0829FC0011124FF
:1008700068E270E00E943E19862F672B39F00895D8
:1008800082E0089584E0089588E0089581E0089565
:100890008091B90180FD14C081FD14C082FD16C095
:1008A0008091B701882381F08E3180F420E5829F0A
:1008B000C00111246EE170E00E943E19862F089558
:1008C00084E1089588E2089588E0089580E5089518
:1008D000282F35EB2303C001112497FF04C0805853
:1008E0009109892F089580589F4FFBCF80E008958C
:1008F000F894E82FE295EF70F0E031A1282F2F70E7
:1009000081E090E001C0880F2A95EAF7982F909532
:10091000932391A392A1892B82A378940895909117
:10092000A30192FF10C041E0282F2471243009F068
:1009300040E031E0282F2871283009F030E04317DB
:1009400011F02CE0822793FF10C041E0282F247182
:10095000243109F040E031E0282F2871283109F0D6
:1009600030E0431711F02CE082273091A40130FFD2
:1009700010C051E0282F2171213009F050E041E0F2
:10098000282F2871283009F040E0541711F029E091
:10099000822731FF10C041E0282F2171213109F059
:1009A00040E031E0282F2871283109F030E043176A
:1009B00011F029E0822794FD877E08958238910501
:1009C000B9F1B0F48133910509F47DC048F489325E
:1009D000910509F46DC08A32910509F47BC0089530
:1009E0008533910509F45FC08933910509F10895B4
:1009F000833E9105D9F138F4803E910529F1823E7C
:100A0000910579F10895863E9105D9F1873E9105CA
:100A100009F43EC0843E910541F52091A40121FFD7
:100A200024C08091A30184FD19C087EE90E0089551
:100A30002091A301237009F05AC02091A40123FF43
:100A400014C089E290E008952091A30120FD38C0F0
:100A50003091A40130FF09C024FF43C090E080E042
:100A600008952091A30122FDF7CF08952091A301BD
:100A700022FD3AC03091A40130FD39C024FFF5CFEA
:100A8000EDCF2091A30123FFF0CF24FDE7CFCDCF01
:100A90002091A30123FD2EC03091A40131FFEECFA0
:100AA00084EE90E008952091A30125FFDECFC9CF09
:100AB0002091A30125FD21C02091A40123FFD5CFC2
:100AC00089E390E0D2CF2091A30126FFCECF8AE226
:100AD00090E008952091A30126FFC7CF81E390E025
:100AE000089583EE90E0089582EE90E0089580EE00
:100AF00090E0089586EE90E0089585E390E00895F3
:100B0000972F7430B8F46D30A8F48430B0F470E0EE
:100B10002DE0929F600D711D1124FB0194E3899FCC
:100B2000E00DF11D1124EE0FFF1FE455FF4F8591DD
:100B30009491089580E090E0089581E0FCCF1F93A8
:100B4000CF93DF930E94DE04EC01C11580E5D80746
:100B5000F0F5C11580E4D80708F09CC0C03ED1056F
:100B600020F5CD3CD10508F082C0C83AD10578F413
:100B7000C53AD10508F073C0C130D10519F12097ED
:100B800009F1C430D105F0F4D0E0C0E01BC0C33C93
:100B9000D105D0F7C85AD0E0CC0FDD1FC25FDE4FC1
:100BA0000990D881C02DD4640DC0C11580E2D8074A
:100BB00008F0D1C0C11581E0D80708F05AC0C83E7E
:100BC000D10510F7CE01DF91CF911F910895C03666
:100BD00082E5D80718F5C03482E5D80708F06BC065
:100BE000C03282E5D80708F05FC0C11582E5D8079A
:100BF00008F497C02C2F2695269580E2289F900117
:100C000011248C2F8370C1E0D0E002C0CC0FDD1F17
:100C10008A95E2F7C22BD32BDD68D4CFC03A82E5A8
:100C2000D80760F4C03882E5D80708F459C0CF71FE
:100C3000D0E0DC2FCC27C46FD06AC4CFC03C82E5A3
:100C4000D80708F462C0C03E82E5D80708F09CCF00
:100C5000DC2FCC27CC27DF71C06FD06AB3CFC55A49
:100C6000D0E0C55FDE4FC881D0E0D064ABCFD065A7
:100C7000A9CF8D2F0E948F04182FCE0199270E9493
:100C8000DE04C12FD0E0DC2FCC27CC27DF71C82BAE
:100C9000D92B98CFCE0199270E94DE04CC27DF7094
:100CA000C82BD92BD06A8ECFCF71D0E0DC2FCC27C8
:100CB000C16FD06A87CF2C2F26952695277080E2AA
:100CC000289F900111248C2F8370C1E0D0E002C0D6
:100CD000CC0FDD1F8A95E2F7C22BD32BDC6872CFD5
:100CE0002C2F26952695277080E2289F90011124AD
:100CF0008C2F8370C1E0D0E002C0CC0FDD1F8A953D
:100D0000E2F7C22BD32BDA685DCF8C2F8F710E9454
:100D10008F04C82FD0E0DC2FCC27CC27DF71D06226
:100D200051CF8C2F8F710E948F0455E0D695C795B7
:100D30005A95E1F7CF70D0E0DC2FCC27282F30E098
:100D400084FF05C044E0220F331F4A95E1F7C22B10
:100D5000D32BD06937CF8D2F8F710E948F04182F1E
:100D6000CE0199270E94DE04C12FD0E0DC2FCC27D2
:100D7000CC27DF71C82BD92BD2CF809590919101D0
:100D8000982390939101089580911F029091E6011C
:100D9000981301C008958F5F8770FACFB0E0A0E08C
:100DA000E4EDF6E00C9461197C010091A101109131
:100DB000A20180919F019091A001082B192BCFE0F7
:100DC000D0E0CC24C394D12CBC2EC6010C2E02C082
:100DD000880F991F0A94E2F780239123892B49F405
:100DE000219790F7B12C8B2DCDB7DEB7E9E00C94AD
:100DF0007D19B7018C2F0E9480050E949F050197E5
:100E000079F3F1CFCF93DF93EC010E94CE06BE01C0
:100E10000E9480050E949F05DF91CF910895943034
:100E200078F58D3068F5E82FF0E08DE0989FE00DC3
:100E3000F11D11249E2F977083E0F695E7958A9512
:100E4000E1F7EE0FFF1FEE0FFF1FED59FE4F50E0D1
:100E500040E080E0219130E0092E02C036952795D0
:100E60000A94E2F721703327042E01C0220F0A945E
:100E7000EAF7822B4F5F5F4F4430510559F70895D1
:100E800080E00895943098F58D3088F5E82FF0E0F3
:100E90008DE0989FE00DF11D11248E2F877041E0A9
:100EA00001C0440F8A95EAF783E0F695E7958A95A5
:100EB000E1F7EE0FFF1FEE0FFF1FED59FE4F30E081
:100EC00020E070E05191DF011197CB01022E02C0AA
:100ED000969587950A94E2F78170819585278423FA
:100EE00085278C932F5F3F4F2430310559F70895A4
:100EF0009093A2018093A101089521E030E002C007
:100F0000220F331F8A95E2F7209530958091A10139
:100F10009091A201822393230E94780708959091D3
:100F200086018095892380938601282F277069F494
:100F3000891759F09091A40192FF07C08695869574
:100F400086950E947D0710928601089521E030E089
:100F500002C0220F331F8A95E2F78091A101909180
:100F6000A201822B932B0E94780708959093A001F1
:100F700080939F010895FC0124812223C1F0808188
:100F800091810E94020792959F70963091F058F4DB
:100F9000925F9F70923058F4803F19F030F4883E91
:100FA00030F481E008959A5FF4CF843FD1F380E07C
:100FB0000895883EB0F3813FD1F7F3CF4091C0014F
:100FC0009091C2012091C301662309F469C0942B5A
:100FD000922B2091C101922B31F098E09093B701B0
:100FE00091E09093B8018D3C41F40E9448048195B2
:100FF0008093C1010E94FF0308958E3C19F40E9462
:101000004804F6CF8F3C31F40E94480481958093C8
:10101000C001F0CF803D19F40E944804F8CF893D0B
:1010200029F40E9426048093C201E4CF8A3D21F472
:101030000E9426048195F7CF8B3D31F40E9426044F
:1010400081958093C301D6CF8C3D19F40E9426046C
:10105000F8CF9FE2980F983070F4815D990B21E0F2
:1010600030E001C0220F8A95EAF78091BF01822B00
:101070008093BF01BFCF8D3D31F48091B901816074
:101080008093B901B7CF8E3D21F48091B901826080
:10109000F7CF8F3D09F0AECF8091B9018460F0CFDA
:1010A0008D3C59F48091C10187FF0DC01092C101A0
:1010B00041110BC01092B70108C08E3C81F48091A1
:1010C000C10118169CF3442381F08091C2019091D4
:1010D000C301892B09F08ECF1092B8018BCF8F3CC2
:1010E00049F447FFF0CF1092C0018091C1018111F6
:1010F000ECCFE0CF803D19F41416ACF3E4CF893D7A
:1011000029F4191604F71092C201DDCF8A3D19F4B3
:1011100097FFD9CFF8CF8B3D29F427FFD4CF10927A
:10112000C301D1CF8C3D19F41216CCF3CCCF9FE282
:10113000980F983090F4815D990B21E030E0B9016F
:1011400002C0660F771F8A95E2F7CB0180959091D8
:10115000BF0189238093BF01B6CF8D3D31F48091CB
:10116000B9018E7F8093B901AECF8E3D21F480917D
:10117000B9018D7FF7CF8F3D09F0A5CF8091B901DF
:101180008B7FF0CFA6E0B0E0E8ECF8E00C946719B4
:1011900049835A8349815A819923A1F0222391F0EE
:1011A000CA010E94CE06182F682F89819A810E9459
:1011B000420769817A81812F0E9480052696E3E0AB
:1011C0000C948319CA010E940F07182FF2CF0F93B6
:1011D0001F93CF93DF938B01EA019091DC01943050
:1011E00061F58093E9008FEF9091E800815095FDC3
:1011F00006C095ED9A95F1F700008111F5CF809129
:10120000E80085FF1AC00E942302811111C080915D
:10121000E80085FD06C08091E8008E778093E800A5
:10122000F2CFF80181918F018093F100219779F736
:101230008091E8008E778093E800DF91CF911F9135
:101240000F91089543E050E0BC0182E00E94E7085E
:10125000089546E050E0BC0182E00E94E70808954E
:10126000CF93DF93EC0148E050E0BC0181E00E94A5
:10127000E70888E0FE01A2EDB1E001900D928A95A9
:10128000E1F7DF91CF9108959091A40192FB22277D
:1012900020F9281779F080FB92F99093A4016091CE
:1012A000A3017091A40184E090E00E94DF1982E024
:1012B0000E948F0708952091910180918801282B29
:1012C00080918701882381F0282B30E08AE591E026
:1012D000FC014191CF0141113F5FF1E080369F0752
:1012E000B9F73111109287012093580148E050E07E
:1012F00069E871E088E591E00E94F519892BA9F071
:1013000088E0E8E5F1E0A9E8B1E001900D928A9566
:10131000E1F7E091C601F091C701309731F002800A
:10132000F381E02D88E591E009950895CF9310921F
:101330009101C6E0EAE5F1E0DF018C2F1D928A956C
:10134000E9F790E080E00E94CD0390E080E00E9409
:10135000A803109288010E945B09EEEBF1E0DF0127
:101360001D92CA95E9F71092B7011092B801109238
:10137000B9010E94FF03CF910895AAE2B0E0E3EC27
:10138000F9E00C9467198EED91E02091F100FC01D9
:101390002193CF01F1E0863E9F07B9F78091DF01ED
:1013A000833009F470C0B8F4813009F447C082304A
:1013B00009F4B1C08091E80083FF7EC28091DE0114
:1013C0009091DF019A3008F077C2E92FF0E0EC5FEE
:1013D000F54E0C9452198A3009F48CC08B3009F404
:1013E0006FC0893039F78091DE01813219F7809121
:1013F000E2019091E3010297E8F68091E800877F8F
:101400008093E8008091E80082FF38C09091F3005B
:101410008091F200029731F48091F100813011F057
:10142000863021F48091F1008093D1018091E80011
:101430008B778093E8000E945402BCCF8091DE013C
:10144000813A09F0B7CF8091E800877F8093E80068
:101450008091E2019091E301892B61F468E082EDD3
:1014600091E070E00E9400038091E8008B77809308
:10147000E800A0CF60E090E080E0F3CF8091DC0155
:101480008111C0CF97CF8091DE01813A09F092CFD0
:101490008091E2019091E301892B09F08BCF80913B
:1014A000E800877F8093E8008091E80080FFFCCF10
:1014B00080910A018093F1008091E8008E77B9CF86
:1014C0008091DE01813209F075CF8091E201909127
:1014D000E301892B09F06ECF8091E800877F80932C
:1014E000E8000E9454028091E00180930A010E946A
:1014F000960960CF8091DE01813209F05BCF809147
:10150000E800877F8093E8000E9454028091E10107
:101510008093D0014FCF8091DE01813A09F04ACF0C
:101520008091E800877F8093E8008091E80080FF49
:10153000FCCF8091D001BECF803899F0823809F07D
:10154000BBC18091E2018F70873008F0B5C18093F4
:10155000E9008091EB0085FB882780F91092E90073
:1015600006C08091DA019091DB0191118260909127
:10157000E800977F9093E8008093F1001092F100CB
:101580008091E8008E7794C1882309F482C182306B
:1015900009F092C18091E001811185C18091E20141
:1015A0008F702FEF280F263008F086C18093E90056
:1015B0002091EB0020FF77C1933031F48091EB0054
:1015C00080628093EB006FC19091EB0090619093EB
:1015D000EB0021E030E001C0220F8A95EAF720936A
:1015E000EA001092EA008091EB008860EACF811156
:1015F00063C11091E0011F778091E3008078812B17
:101600008093E3008091E800877F8093E8000E9448
:1016100054028091E80080FFFCCF8091E300806855
:101620008093E30082E0111183E08093DC0144C1E8
:101630008058823008F040C18091E0019091E10132
:101640008C3D23E09207A1F583E08A838AE28983B7
:101650004FB7F894DE01139620E03EE051E2E32F0D
:10166000F0E050935700E49120FF03C0E295EF7043
:101670003F5FEF708E2F90E0EA30C0F0C7968D93F9
:101680009D932F5F243159F74FBF8091E800877FEA
:101690008093E8006AE270E0CE0101960E940003A8
:1016A0008091E8008B778093E80006C1C096E7CF71
:1016B0004091E2015091E301292F33272330310576
:1016C00009F444C078F52130310509F46FC08BE38B
:1016D00090E0EBE0F3E02230310509F0EDC020911D
:1016E000E800277F2093E8002091E4013091E50194
:1016F0008217930708F49C0140E02115310509F099
:1017000064C0411162C08091E80082FDC9CF809120
:10171000DC01882329F2853019F28091E80083FFEB
:10172000F2CFBECF21323105A9F12232310509F0C5
:10173000C3C04115510509F443C04130510509F0BA
:10174000BBC08BE790E0ECE4F2E0C9CF9927813091
:101750009105C1F0009759F0029709F0ADC0E8E596
:10176000F3E0E4918E2F90E0E8E5F3E007C0E8E8CD
:10177000F3E0E4918E2F90E0E8E8F3E0009709F4BD
:101780009BC0ADCFE6E6F3E0E4918E2F90E0E6E675
:10179000F3E0F4CF4115510571F04130510509F0E6
:1017A0008BC089E090E0E6E3F3E099CF82E190E03E
:1017B000E6E4F3E094CF89E090E0EDE1F3E08FCF51
:1017C00084E490E0E7ECF2E08ACF8091DC018823AA
:1017D00009F466CF853009F463CF8091E80083FD7A
:1017E0005FCF8091E80082FD8ECF8091E80080FF7E
:1017F00084CF9091F3008091F2002115310519F00A
:101800008830910550F041E0089709F040E0809160
:10181000E8008E778093E80070CF44914093F10008
:101820003196215031090196E8CF803809F044C043
:101830008091E800877F8093E8008091DD018093AC
:10184000F1009ECE811138C01091E0011230A0F558
:101850008091E800877F8093E8001093DD010E946B
:101860005402112311F084E005C08091E30087FD4C
:10187000FACF81E08093DC0142E061EC81E00E94DC
:10188000730242E261EC82E00E9473028091DC010B
:1018900013C08091E001813079F481E0933009F048
:1018A00080E08093DB011092E9008091E800877F5F
:1018B0008093E8000E9454028091E80083FF0AC0F0
:1018C0008091E800877F8093E8008091EB00806240
:1018D0008093EB00AA96E3E00C9483190E9496098A
:1018E0002FEF84E39CE0215080409040E1F700C05E
:1018F000000088E19AE00FB6F894A8958093600004
:101900000FBE90936000FFCF882321F00E94BD0698
:101910000E945B090895882339F090919101982BDA
:10192000909391010E945B0908958823D1F19CEF67
:10193000980F913A78F4EAE5F1E09191891303C0A8
:10194000DF0111971C9291E0E036F907B1F70E9490
:101950005B09089590E2980F983050F4877091E0F9
:1019600001C0990F8A95EAF7892F0E94BD06EFCF33
:101970009BE5980F933028F490E080E00E94CD031F
:10198000089598E5980F9B3128F490E080E00E943C
:10199000A803089593E3980F933118F460E00E9430
:1019A000DE070895CF93C82F8823B1F08CEF8C0FFA
:1019B000813A00F5EAE5F1E080E691E0DF012D9162
:1019C000C21761F08A179B07D1F76C2F88E591E069
:1019D0000E948E030E945B09CF9108952191C2134A
:1019E00003C0DF0111971C928E179F07B9F70E9461
:1019F0005B09EBCF80E28C0F883068F4C77021E080
:101A000030E001C0220FCA95EAF780919101822B44
:101A100080939101DFCFEBE5EC0FE33040F4F0E091
:101A2000E55FFE4F808190E00E94CD03D5CFE8E5D1
:101A3000EC0FEB3150F4F0E0EE0FFF1FE25FFE4FD2
:101A4000808191810E94A803C7CF83E38C0F8331EB
:101A500018F661E08C2F0E94DE07BECF0F931F9314
:101A6000CF93DF93C62FD42F022FFC0185818823CB
:101A7000A9F0609322020E94820390932102809336
:101A80002002C77081E001C0880FCA95EAF70E9462
:101A90008B0CDF91CF911F910F91089580912202BD
:101AA000681335C080912002909121020E94730337
:101AB000883C910560F510E21D0FCD17B9F080E26A
:101AC0008C0F883040F4C77081E001C0880FCA9540
:101AD000EAF70E94840C183048F481E09D2F97703B
:101AE00001C0880F9A95EAF70E948B0C802F0E9404
:101AF000D20C802F0E94950C183058F6D77081E0D8
:101B000001C0880FDA95EAF70E94840CC2CFC77033
:101B100081E001C0880FCA95EAF7F6CFB0E0A0E0F7
:101B2000E4E9FDE00C9460198C01FC0184818823B8
:101B300009F460C021E04081518162817381958107
:101B40000E94C208EC01803E910571F08034FEE7EE
:101B50009F0799F1FC01E851FC47E730F10558F483
:101B6000E25FF54E0C945219F8018581882311F13A
:101B700081E080936001F8018581882309F4CAC35C
:101B800010922202CE019057839708F0ADC384E0F3
:101B900090E00E94AB199093A4018093A301FE01F1
:101BA000E150F047E232F10508F055C0EB5EF54E2A
:101BB0000C94521910926001DECFF80185818823C0
:101BC00001F1809160018823D1F080EE0E94950C94
:101BD00089E20E94D20C80918601877059F0F80149
:101BE0008581882339F08091A40182FF03C082E0BF
:101BF0000E948F07CDB7DEB7EAE00C947C1981E331
:101C0000E8CF89E20E94950C81E30E94950C8091B7
:101C10006001882301F380EEDCCF26E241EE61EE25
:101C2000C8010E942E0DD7CF27E245EE65EEF8CF12
:101C300026E241EE60EEF4CF27E245EE64EEF0CF0F
:101C400026E241EE62EEECCF27E245EE66EEE8CF0B
:101C500028E241E0EBCF8091A30181608093A30152
:101C600095C08091A40188608093A4018FC0809169
:101C7000A3018260F3CF8091A3018460EFCF8091B4
:101C8000A3018860EBCF8091A4018160EDCF8091AA
:101C9000A4018260E9CF8091A3018061DFCF8091B0
:101CA000A3018062DBCF8091A3018064D7CF0E9423
:101CB00096098091A3018068D1CF8091A3018C60A7
:101CC000CDCF8091A4018360CFCF8091A3018E7F7F
:101CD000C5CF8091A401877FC7CF8091A3018D7F5D
:101CE000BDCF8091A3018B7FB9CF8091A301877F66
:101CF000B5CF8091A4018E7FB7CF8091A4018D7F55
:101D0000B3CF8091A3018F7EA9CF8091A3018F7D56
:101D1000A5CF8091A3018F7BA1CF0E9496098091CE
:101D2000A3018F779BCF8091A301837F97CF809171
:101D3000A4018C7F99CF8091A30182FB992790F910
:101D400021E0922790FB82F990FB83F987CF809165
:101D5000A401982F909591708E7F892B90FB81F92B
:101D600083CF9091A301892F8F7B96FF806476CFDC
:101D70000E9496099091A301892F97FB87F98058BB
:101D80006DCF61E08EE090E00E94C1196091A301E7
:101D90007091A40184E090E00E94DF190E949609EE
:101DA0001ACF60E0EFCF9091A301892F8F7E94FF2F
:101DB000806154CF9091A301892F8E7F90FF816025
:101DC0004DCF9091A401892F877F93FF88604CCFDE
:101DD00085E3A9C20E949609FFEF24E33CE0F1509D
:101DE00020403040E1F700C000000E9462036FEF26
:101DF0007FEF90E080E00E94DF190E946E0C8091DE
:101E0000A40182FB882780F991E089270E94440978
:101E1000F8018581C081D181882309F44DC0CE01AC
:101E20000E94CE06F82E682FCE010E944207BE0106
:101E30008F2D0E9480050E949F05D82FC92FA82EA4
:101E4000F801C580B680B2943FE0B322809186014C
:101E5000877009F1EC2CCC20F9F0892F807F803439
:101E600069F080E28D0F8830B0F0892F807E80325B
:101E700029F4F1E0FD1778F4BB2069F08091A4010A
:101E800082FF09C082E00E948F07809186018770DF
:101E9000EE24E3948111E12CDC2ED2942FE0D222A7
:101EA0002BE02D1508F46DC0ED2DF0E0E95CF54E4A
:101EB0000C94521980E0AACFCE010E940F07F82E91
:101EC000B6CF3C2F3F70F32EC07F19F0F29490EF05
:101ED000F922CC20B9F0FF2069F080E28D0F883024
:101EE00010F0A11009C080919101F82AF09291019F
:101EF0000E945B098D2F43C080918801F82AF092DF
:101F00008801F6CF8D2F0E94950CFF20D1F1D05E75
:101F1000D83010F0A11004C08F2D0E94BD0606C05D
:101F2000F09480918801F822F09288010E945B0968
:101F300028C08C2F8F70F82EC07FC03219F0F29419
:101F400080EFF822AA2059F091E0A91609F479C08F
:101F5000CC2009F485C0BB2009F447C0CBCF8091C9
:101F6000A40182FD3EC0CC20B1F1FF2039F0809168
:101F70009101F82AF09291010E945B0980E00E9491
:101F8000D20C2D2D2850330B2430310510F40E9433
:101F9000F203EE20A9F08091860180FD11C0F801C6
:101FA00015828695869586950E94A607C8010E948F
:101FB0008E0D809186018695869586950E947D0777
:101FC00020E0F80140815181628173818481958193
:101FD0000E94C2080FCE80E00E94950CFF2089F27B
:101FE0009BCFCC20A1F0B11004C08F2D0E948B0C90
:101FF000C8CFE1E0BE12C5CF809187019F2D982305
:10200000F91609F4BECFF82AF0928701BACFB110C1
:10201000B8CF8F2D0E94840C909187018F2D89233A
:1020200029F08F2D8095892380938701809162010B
:102030009F2D982309F4A5CFF094F822F092620125
:10204000A0CFCC2029F0F5E0FB1508F49ACFCDCF36
:1020500024E02B1508F495CF8F2D0E94840C91CF8E
:10206000BB20D1F339E3A31209C08FEF97EEE3E071
:1020700081509040E040E1F700C000008D2F0E94A9
:10208000950C7FCF8C2F86958695837069F0813073
:1020900009F077CF8D2F9C2F9370C11002C080E084
:1020A00090E00E94A8036DCF8D2F9C2F9370C110DC
:1020B00002C080E090E00E94CD0363CF6C2D8D2F95
:1020C0000E94DE075ECF8C2F837009F03FC0C110E5
:1020D00058CF4D2F429546954770440F440F2D2FF2
:1020E0002F7030E0042E02C0220F331F0A94E2F753
:1020F00090E080E0D4FF09C08FE090E002C0880F3C
:10210000991F4A95E2F780959095C695C695C3703C
:10211000C23099F078F440919F015091A001C130F4
:1021200039F0822B932B842395230E94B60729CF65
:10213000242B352B822B932BF8CF822B932B2091A2
:102140009F013091A00182279327EFCF8695CC2065
:1021500011F08C2F8170882309F413CF4D2F4295F5
:1021600046954770440F440F2D2F2F7030E0042EFA
:1021700002C0220F331F0A94E2F790E080E0D4FF00
:1021800009C08FE090E002C0880F991F4A95E2F7DE
:1021900080959095C695C695C370C23099F078F435
:1021A0004091A1015091A201C13039F0822B932BB3
:1021B000842395230E947807E4CE242B352B822B91
:1021C000932BF8CF822B932B2091A1013091A20168
:1021D00082279327EFCFCF70CC2029F08C2F0E943D
:1021E000A6078D2F03CF8D2F0E94840C8C2F0E9469
:1021F0007D07C7CE8D2FF2EFAF1699F1FA1570F06B
:1022000020EFA216D1F031EFA31691F0CC2009F403
:102210005BC0B1106FCE8C2F8F7127C093EFA916C2
:1022200039F1E4EFAE12F2CF8091A40182FD2EC00D
:102230008C2F8F71CC20D9F218C0CC2069F0F4E03B
:10224000FB1508F49ECECF7181E090E002C0880FAC
:10225000991FCA95E2F7B8CF25E02B1508F491CE67
:10226000F2CF8C2F8F71C110C2CF0E94A60789CEEA
:1022700090E080E0CC2009F49DCFCF7181E090E028
:1022800002C0880F991FCA95E2F794CFCC2089F03D
:10229000CF718C2F0E94A6078091A40182FF07C0F6
:1022A00038E0C39FC00111248360809386018C2F86
:1022B000DCCF81E00E948F0781E08B1508F061CEB2
:1022C00082E00E948F075DCEBB2059F0893309F070
:1022D000D5CE9FEFE7EEF3E09150E040F040E1F71C
:1022E000CBCE8C2F8F7183CFC631FCE7DF0749F54A
:1022F000809191018A7A91E009F490E090936101D4
:1023000069E2811165E388E591E00E948E030E94F5
:102310005B0961CCC631DC4709F07ACD809161015F
:10232000811156CD89E2EAE5F1E020E631E09191B4
:10233000891303C0DF0111971C922E173F07B9F7CD
:10234000E6CFC3303CE7D30709F451CD50F4C115B3
:102350009CE7D90709F43ECDC130DC4709F44DCDE7
:1023600057CDCB35FCE7DF0709F4A4CDCC352CE7FE
:10237000D20709F444CDCA35DC4709F049CD81E0E4
:1023800045CDCF93DF9380918501807F09F04DC0CB
:1023900080918401882309F448C0E0911F02509184
:1023A000E601C0918001D0917F016091810170911F
:1023B000820147E05E17C9F18E2F90E0E49FF001A3
:1023C0001124E951FE4F2481222391F1489FF0010D
:1023D000499FF00D1124DF01A951BE4F11962C9198
:1023E00011972C1325C02C912D1322C015962C91DA
:1023F000159721111DC012962D913C91261B370B6C
:10240000283C3105A8F4809185018F70806180930C
:102410008501E351FE4F80818F70806180838FE75B
:1024200091E00E948E0D0E94C406DF91CF91089525
:10243000FC013196E770BECFA4E1B0E0E2E2F2E148
:102440000C945E198C0186E0F801DE011F96019064
:102450000D928A95E1F7F8018481E5809FE7A92E26
:1024600091E0B92E90918301911128C0882319F130
:10247000EE20F1F0C8010E94BB07F82E8823C1F0BE
:1024800087E0F801D50101900D928A95E1F78091DE
:102490008301813031F480917F01909180010E940D
:1024A00002070E94C1118F2D6496ECE00C947A19FA
:1024B000C8010E948E0DFF24F394F5CFD080C18017
:1024C00082809380F090840120918101309182017B
:1024D000A401421B530BFF2009F4D9C0483C51050D
:1024E00008F092C08823F9F29091800180918501D3
:1024F000282F207F09F056C0C91214C090917F0187
:10250000D91210C0E11048C08F708061809385019E
:102510008FE791E00E948E0D80918501F8018683FE
:10252000F12CC1CFE11038C06C2D8D2D0E94E5013A
:102530006C2D8D2D0E94E501E82E8111F1CFDF86F3
:10254000C88A8F8598890E940207292F22952F70AB
:10255000243058F49F70223088F0992399F0F801C4
:102560009681907F79F4FE2C9ECF2A5F2F702230C7
:1025700068F0C8010E948E0DEF2CF5CF992311F061
:10258000882389F3805E883070F3F3CF803F58F35F
:10259000815F833070F7E7CF809185018160809300
:1025A0008501BECFC91207C090917F01D91203C027
:1025B000EE2009F48DC0C8010E94BB07882309F4EE
:1025C00077CFEE2009F474CF80918501803288F0B6
:1025D00020917F0130918001398728879B868A86E8
:1025E000909183019C871D868E87CE0108960E945C
:1025F0008E0D87E0F801AFE7B1E001900D928A956A
:10260000E1F70E94C11157CF90918501292F207FBA
:1026100051F48FE791E00E948E0D87E0F501119251
:102620008A95E9F77DCF882309F43DCF8091800119
:102630008C1110C080917F01D8120CC0E1100AC02B
:102640009683C8010E948E0D87E0F50111928A954C
:10265000E9F729CFC8010E94BB07882309F428CFD6
:10266000EE2009F425CF80918501803210F220916F
:102670007F01309180013A8329839C828B829091E3
:1026800083019D831E828F83CE010196B0CF483C8B
:102690005105D0F6882309F40ECFFE2CEE2009F464
:1026A00007CF809180018C1120C080917F01D812CA
:1026B0001CC08091850180FD0FC0982F907F61F034
:1026C0008683903F31F0982F907F905F8F70892B99
:1026D0008683C8010E948E0D87E0F801AFE7B1E064
:1026E00001900D928A95E1F7DECEC8010E94BB07EA
:1026F00081117FCF80918501816080938501C80120
:102700000E948E0DD0CEABE1B0E0E9E8F3E10C948D
:1027100066194E8B5F8B688F798F8A8F9B8F192FED
:102720009111109288011D8A86E0FE017696DE01E5
:102730001F9601900D928A95E1F70A8D002341F0D2
:1027400021E04F85588969897A89C8010E94C208A9
:102750000B8B1C8B87E0FE013F96DE0118960190E3
:102760000D928A95E1F7CE0108960E941C12811104
:102770002AC087E0FE013896DE01119601900D9285
:102780008A95E1F78C858823F1F02091E60130E00D
:10279000C90101968770992740911F0248171906B1
:1027A000E9F097E0929FD001939FB00D1124A951B9
:1027B000BE4FFE01319601900D929A95E1F78093FC
:1027C000E6010E94C40617E080911F029091E60185
:1027D000891312C06B96E4E00C9482190E9496094A
:1027E0001092E60110921F0287E0EFE7F1E0DF01AF
:1027F0001D928A95E9F7E7CF819FC0011124895185
:102800009E4F0E941C12882329F380911F0290E0A2
:1028100001968770992780931F02D6CFA6E0B0E07B
:10282000E4E1F4E10C9466190E9482038C0180912A
:102830009201909193018017910781F019821A8279
:102840000E948203682F49815A81792F80E090E0AD
:102850000E94831310939301009392012696E4E063
:102860000C948219A8E0B0E0E8E3F4E10C945A1962
:102870008E010F5F1F4F88E0F80111928A95E9F7EA
:1028800094E4E92E91E0F92E680128E4422E21E03B
:10289000522E66246394712C45E5842E41E0942EDB
:1028A000F70181917F018F3F09F445C0F894E82F2B
:1028B000E295EF70F0E021A18F70A30102C0440FF8
:1028C000551F8A95E2F7CA01922F982B91A392A1E6
:1028D0008095892382A3789400C0E8E4F1E021E0A8
:1028E00030E0B12CA12C41914F3F09F44BC0A42FF3
:1028F000A295AF70B0E090968C9190E04F7002C0BE
:10290000959587954A95E2F780FD3CC0C901A82AB4
:10291000B92A220F331F8E169F0629F7F701319728
:1029200080818F3F11F00E94780450EA5A95F1F7A8
:10293000F601B182A082F2E0CF0ED11C4E145F04EA
:1029400009F0AECF48E050E0B80187E991E00E947D
:10295000F519892BE1F088E0F801A7E9B1E00190D1
:102960000D928A95E1F781E0809396010E9482039F
:10297000909395018093940110E0812F2896E0E1D7
:102980000C94761990E080E0C2CF10E01FC0109147
:102990009601112389F380919401909195010E94F1
:1029A0007303059748F348E050E067E971E085EA72
:1029B00091E00E94F519892B41F388E0E7E9F1E005
:1029C000A5EAB1E001900D928A95E1F71092960187
:1029D000D4CF1F920F920FB60F9211242F933F93D3
:1029E0004F935F936F937F938F939F93AF93BF9317
:1029F000CF93DF93EF93FF93D091E900DF70809145
:102A0000EC00C82FC17080FDC0E81092E9008091F1
:102A1000F000877F8093F00078940E94BD091092A7
:102A2000E9008091F00088608093F000CD2BCF709A
:102A3000C093E900FF91EF91DF91CF91BF91AF91EA
:102A40009F918F917F916F915F914F913F912F91C6
:102A50000F900FBE0F901F9018951F920F920FB6F8
:102A60000F9211242F933F934F935F936F937F9314
:102A70008F939F93AF93BF93EF93FF938091E10068
:102A800082FF09C08091E20082FF05C08091E100D1
:102A90008B7F8093E1008091DA0080FF24C08091D9
:102AA000D80080FF20C08091DA008E7F8093DA000A
:102AB0008091D90080FF9DC080E189BD82E189BD00
:102AC00009B400FEFDCF81E08093DC018091CF014D
:102AD000811109C00E9404020E94A5028091E200B7
:102AE00084608093E2008091E10080FF17C08091B4
:102AF000E20080FF13C08091E2008E7F8093E200AD
:102B00008091E20080618093E2008091D800806231
:102B10008093D80019BC85E08093DC018091E100AE
:102B200084FF2BC08091E20084FF27C080E189BD33
:102B300082E189BD89B5982F917080FFFBCF80918C
:102B4000D8008F7D8093D8008091E1008F7E8093A4
:102B5000E1008091E2008F7E8093E2008091E200AC
:102B600081608093E2008091DD01882309F447C0F1
:102B700084E08093DC018091DC018091E10083FF9F
:102B800027C08091E20083FF23C08091E100877F0E
:102B90008093E10082E08093DC011092DD0180915E
:102BA000E1008E7F8093E1008091E2008E7F809330
:102BB000E2008091E20080618093E20042E060E008
:102BC00080E00E9473028091F00088608093F000A2
:102BD000FF91EF91BF91AF919F918F917F916F91F5
:102BE0005F914F913F912F910F900FBE0F901F90CB
:102BF000189519BC1092DC011092CF0174CF80910E
:102C0000E30087FD93E09093DC01B5CF78941F92A9
:102C10001FB61F9211248F939F93AF93BF93809100
:102C2000CB019091CC01A091CD01B091CE01019644
:102C3000A11DB11D8093CB019093CC01A093CD0138
:102C4000B093CE01BF91AF919F918F911F901FBE06
:102C50001F9018951F921FB61F9211248F939F9358
:102C6000AF93BF938091CA01811113C08091CB01B2
:102C70009091CC01A091CD01B091CE014196A11DC2
:102C8000B11D8093CB019093CC01A093CD01B09363
:102C9000CE01BF91AF919F918F911F901FBE1F904A
:102CA0001895CDB7DEB72E970FB6F894DEBF0FBEDE
:102CB000CDBF85B7806885BF85B7806885BF84B77D
:102CC000877F84BF0FB6F894A895809160008861D3
:102CD00080936000109260000FBE80E890E00FB615
:102CE000F89480936100909361000FBE86E794E0B2
:102CF00090935701809356010E9404020E94A502FE
:102D00008091E20084608093E20078948091DC01FD
:102D10008823A1F01091E9001F709091EC00892F99
:102D2000817090FD80E8182B1092E9008091E800F6
:102D300083FD0E94BD091F701093E90082E084BDED
:102D400093E095BD9AEF97BD80936E0080EF0E944F
:102D5000780481EF0E94780484EF0E94780486E36F
:102D60000E94780408E411E065E5E62E61E0F62EA5
:102D7000D8018D918D018F3F11F00E947804E016EB
:102D8000F106B1F788E0E5EAF1E0DF01282F1D92B6
:102D90002A95E9F7E7E9F1E0DF011D928A95E9F765
:102DA00090E080E00E94AB19863E9E4F09F466C019
:102DB00066EE7EEF90E080E00E94DF1960E082E046
:102DC00090E00E94C11981E090E09093A00180936F
:102DD0009F0161E083E090E00E94C11960E074E12E
:102DE00084E090E00E94DF1960E086E090E00E94BD
:102DF000C11960E087E090E00E94C11940E050E016
:102E0000BA0188E090E00E94D31960E084E290E08B
:102E10000E94C11960E087E190E00E94C11960E062
:102E20008CE090E00E94C11960E08DE090E00E948B
:102E3000C11919821A821B821C821D821E821F8266
:102E4000188648E050E068E170E0CE0101960E94EB
:102E5000B11940E050E0BA0180E290E00E94D3193D
:102E600040E050E0BA018FE090E00E94D31940E0CA
:102E700050E0BA0183E190E00E94D31982E090E033
:102E80000E94A3198093AD0184E090E00E94AB19E9
:102E90009093A4018093A3010E943214EFEFF6E710
:102EA00021E0E150F0402040E1F700C000000E9426
:102EB00032148091A50180FF08C06FEF7FEF90E092
:102EC00080E00E94DF190E94620383E090E00E948C
:102ED000A31990E00E94B60780E091E09093C701AB
:102EE0008093C60158E1652E712C5524539440E11E
:102EF000242E8091DC0112E1853009F496C00E94F5
:102F000032142EEAA22E21E0B22E35EA832E31E0D1
:102F1000932ED401F501219131918D919D9141E044
:102F2000E63BF40709F48BC028173907A1F3412CBD
:102F3000D4010D911D914D01F501C190D1905F011A
:102F4000C016D10659F1312CEE24E394F12CC026A1
:102F5000D126C6018E219F21892BB1F039864A8660
:102F60000E9482039C878B875D8691E098012E21C9
:102F70003F21232B09F490E09E8749855A856B8574
:102F80007C858D850E9483133394EE0CFF1CFDE03D
:102F90003F12DFCFF501329711830083439424E081
:102FA0004212C6CF8FB7F8944091CB015091CC011B
:102FB0006091CD017091CE018FBF47C08091DC013F
:102FC000843011F11092CA0140E40FB6F894A8952C
:102FD000609260000FBE4093600083B7817F846081
:102FE00083BF83B7816083BF7894889583B78E7FD2
:102FF00083BF0FB6F894A895809160008861809394
:103000006000109260000FBE8091DB01882369F0A0
:103010000E943214E5EAF1E081919191892B09F047
:1030200008C181E0ED3AF807B9F78091DC018530FD
:1030300009F4C4CF0E9496090E94F20360CF2817BA
:10304000390709F074CF0E940E1486E0EEEBF1E030
:10305000DE01119601900D928A95E1F7D090BF01A3
:10306000F090C0010091C101E090C2011091C30134
:103070001092C0011092C1011092C2011092C301BE
:10308000802F8F2909F445C08091BC019091BD012A
:103090000E9473039C019091B701992309F4E9C040
:1030A00025313105B0F19F3F19F09F5F9093B70133
:1030B000FF2059F00E9448049FEF1F140CF491E088
:1030C000899F802D11248093C001002359F00E9414
:1030D000480491E010160CF09FEF899F802D112479
:1030E0008093C1018091C001882399F0C090C101F3
:1030F000CC2079F00E946804882309F48EC0809364
:10310000C0018C2D0E946804882309F489C0809333
:10311000C101812F8E2909F445C08091BA01909197
:10312000BB010E9473039C019091B801992309F49B
:103130009BC021353105B0F19F3F19F09F5F9093FF
:10314000B801EE2059F00E9426049FEF1E140CF4E3
:1031500091E0899F802D11248093C201112359F0A1
:103160000E94260491E011160CF09FEF899F802D9C
:1031700011248093C3018091C201882399F0E090CB
:10318000C301EE2079F00E946804882309F44BC043
:103190008093C2018E2D0E946804882309F446C0E2
:1031A0008093C3018091BF01D81217C08091C001E4
:1031B000882311F08F1111C02091C101222311F039
:1031C00002130BC09091C301992311F0191305C08C
:1031D0003091C201332309F442C00E94FF0386E00C
:1031E000FE013196AEEBB1E001900D928A95E1F7C8
:1031F0000E94F2039091B601891709F47ACE809368
:10320000B6018FB7F8944091CB015091CC016091F9
:10321000CD017091CE018FBF6ACE5092C00171CFA7
:103220005092C10176CF5092C201B4CF5092C301E7
:10323000B9CF29BC19BD09B400FEFDCF8091D800DB
:103240008F7D8093D8008091E00082608093E000C1
:103250008091E00081FDFCCF0E949609E6CE822B92
:10326000892B09F4BCCFB9CF2B30310508F066CFDC
:1032700099CF2B30310508F018CF4BCF97FB072E95
:1032800016F4009407D077FD09D00E948F1907FC2F
:1032900005D03EF4909581959F4F08957095619566
:1032A0007F4F0895EE0FFF1F0590F491E02D0994D4
:1032B0002F923F924F925F926F927F928F929F9246
:1032C000AF92BF92CF92DF92EF92FF920F931F9334
:1032D000CF93DF93CDB7DEB7CA1BDB0B0FB6F894E5
:1032E000DEBF0FBECDBF09942A88398848885F8425
:1032F0006E847D848C849B84AA84B984C884DF8096
:10330000EE80FD800C811B81AA81B981CE0FD11D79
:103310000FB6F894DEBF0FBECDBFED010895AA1B16
:10332000BB1B51E107C0AA1FBB1FA617B70710F0B0
:10333000A61BB70B881F991F5A95A9F780959095E2
:10334000BC01CD010895F999FECF92BD81BDF89AD7
:10335000992780B50895A8E1B0E042E050E00C94D0
:10336000E719DC01A40FB51F4150504048F0CB01D4
:10337000840F951F2E910E94C21941505040D0F7E2
:103380000895262FF999FECF92BD81BDF89A019735
:1033900000B4021639F01FBA20BD0FB6F894FA9A9D
:1033A000F99A0FBE08950396272F0E94C2190E9412
:1033B000C119252F0E94C219242F0C94C2190196FD
:1033C000272F0E94C2190C94C119DC01CB01FC010A
:1033D000F999FECF06C0F2BDE1BDF89A319600B46E
:1033E0000D9241505040B8F70895FB01DC0104C034
:1033F0008D910190801921F441505040C8F7881BED
:10340000990B0895F894FFCF9C0AC40A5C0CC40A77
:103410005C0CF70A180B5C0C150C220C180E1C0E19
:103420000D0E140E200E240E280E650EDA0E6D0EF3
:10343000370E3B0E710E3F0E750E810E4B0ED30EE6
:103440004F0E850E530E890EB10E570E8D0EB80E0F
:103450005D0E930E9B0E430E790E470E7D0E610E90
:10346000970EA70EC10ED10E310E690EE10E610F3F
:10347000610F990F990F42105E10C10FC10F6310B9
:06348000EB10FA10FA1037
:103486005F0330095E032909220901818283E20074
:10349600E900EA00B500B600B700CD008301CC0014
:1034A6008A019201940121022302240225022602A6
:1034B60027022A02B300B4006F0070009F01CB01FF
:1034C6009F02A002F0F1F4366667F7F6F5349192A2
:0634D60093959496970007
:00000001FF
