:100000000C94C6010C94E3010C94E3010C94E301FD
:100010000C94E3010C94E3010C94E3010C94E301D0
:100020000C94E3010C94E3010C9445150C94011518
:100030000C9450160C94E3010C94E3010C94E3012E
:100040000C94E3010C94E3010C94E3010C94E301A0
:100050000C94E3010C942C160C94E3010C94E30132
:100060000C94E3010C94E3010C94E3010C94E30180
:100070000C94E3010C94E3010C94E3010C94E30170
:100080000C94E3010C94E3010C94E3010C94E30160
:100090000C94E3010C94E3010C94E3010C94E30150
:1000A0000C94E3010C94E3010C94E3012B00140085
:1000B0001A0008001500170000001C0018000C00B2
:1000C00012001300407EE000040016000700090043
:1000D0000A0000000B000D000E000F00330034007A
:1000E000E1001D001B0006001900050000001100C2
:1000F0001000360037003800E500E400E300E200BD
:10010000777C787C2A000000777C2C00787CE600E5
:10011000E700E40001001E001F0020002100220073
:100120000000230024002500260027002D000100E8
:100130001E021F02200221022202000023022402CA
:100140002502260227022D020100350035022E006D
:100150002E020000000000002F0030002F023002AD
:100160000100010001000100010001000100000088
:1001700001000100010001000100010001006A000E
:100180006B006C006D006E0000004A004E004B00DA
:100190004D000000460001006F0070007100720009
:1001A000730000005000510052004F000000450055
:1001B00001003A003B003C003D003E0000003F00D3
:1001C00040004100420043004400010001000100E2
:1001D000010001004C0000000100280001000100A6
:1001E000010001000000000000000000007C000091
:1001F00000000000000000000000000000000000FF
:100200000000A60000000000000000000000AA009E
:10021000A900000000000000000000000000000035
:100220000000000000000000A80000000000000026
:1002300000000000000000000000000000000000BE
:10024000000000000000000000000000050109029D
:10025000A10185020901A10005091901290815005C
:1002600025019508750181020501093009311581C3
:10027000257F95027508810609381581257F95012E
:1002800075088106050C0A38021581257F950175D0
:10029000088106C0C005010980A101850319012A52
:1002A000B700150126B700950175108100C0050C37
:1002B0000901A101850419012AA002150126A00245
:1002C000950175108100C005010906A101050719F6
:1002D000E029E71500250195087501810295017552
:1002E0000881010507190029FF150026FF00950662
:1002F00075088100050819012905150025019505D6
:1003000075019102950175039101C009023B00023C
:100310000100A0FA090400000103010100092111F4
:1003200001000122440007058103080001090401BE
:10033000000103000000092111010001227B0007D8
:100340000582032000011201000200000008D80409
:1003500011E60001010200010C036F0035003100BD
:1003600067006F0000002003530061006C0069000B
:10037000630079006C00690063002D006100630078
:1003800069006400330000000403090411241FBE47
:10039000CFEFDAE0DEBFCDBF11E0A0E0B1E0E8EDE5
:1003A000F4E302C005900D92A835B107D9F722E019
:1003B000A8E5B1E001C01D92A332B207E1F70E94A7
:1003C00077160C942B1A0C940000482F20911F02D2
:1003D0009091E60157E0291302C080E0089530E0D3
:1003E000529FF001539FF00D1124E951FE4F81817E
:1003F000681306C08081481303C085818111EECF48
:100400002F5F3F4F2770E7CFE8EDF0E080818E7FD0
:1004100080831092E2001092DA001092E100A0EEC8
:10042000B0E08C9181608C9380818F77808319BC40
:10043000A7EDB0E08C918E7F8C9380818F7E80833E
:100440001092D10108952091E4003091E50095E6E5
:10045000A9012091EC00822F817020FF06C08091BD
:10046000E80080FF06C080E008952091E80022FDAA
:100470001AC08091DC01882389F0853089F0809151
:10048000EB0085FD0FC02091E4003091E50042179C
:100490005307F9F29150E1F684E0089582E008955F
:1004A00083E0089581E008958091DE0187FF13C005
:1004B0008091E80082FF06C08091E8008B778093EE
:1004C000E80004C08091DC018111F2CF0895809191
:1004D000DC018823D9F38091E80080FFF8CF809178
:1004E000E8008E77ECCF982F9093E900242F762F99
:1004F00050E0891731F07091EC002091ED0050919F
:10050000F00021FD07C09F5F973071F78093E900ED
:1005100081E008953091EB003E7F3093EB00309105
:10052000ED003D7F3093ED003091EB003160309372
:10053000EB007093EC002093ED005093F0002091BD
:10054000EE0027FDE0CF80E00895B0E0A0E0EBEA08
:10055000F2E00C948B19C8EDD0E088818F7E8883FF
:10056000E7EDF0E080818160808384E082BF81E0FC
:100570008093D10188818E7F888302EE10E0F8019C
:1005800010821092DA0081EEC82ED12CF601108272
:1005900088818F77888388818068888388818F7D30
:1005A000888319BC1092DC011092DD011092DB01EE
:1005B0001092DA0190EEE92EF12CF70180818B7F09
:1005C000808388818160888342E060E080E00E94CF
:1005D0007302F60180818E7F8083F80180818160C3
:1005E0008083808188608083F70180818E7F808313
:1005F000888180618883CDB7DEB7E8E00C94A719C5
:10060000FC018091E4019091E50186179707A0F025
:100610006115710529F49091E8009E779093E800A8
:1006200090E06115710551F4911108C08091E800C6
:1006300082FF34C080E00895BC01F2CF8091DC01DC
:100640008823C1F18530C1F18091E80083FD30C07D
:100650008091E80082FDEACF8091E80080FFE1CF41
:100660008091F3002091F200382F6115710519F087
:100670002830310558F091E02830310509F090E03C
:100680002091E8002E772093E800CBCF81918093D2
:10069000F100615071092F5F3F4FE7CF8091DC017E
:1006A000882341F0853041F08091E80083FFBECF80
:1006B00081E0089582E0089583E00895089587E732
:1006C00097E7909301088093000888E19AE00FB6BD
:1006D000F894A895809360000FBE90936000FFCFC0
:1006E0009C014FB7F8948091CD019091CE01A091DB
:1006F000CF01B091D0014FBF821B930B08952FB74C
:10070000F8948091CD019091CE01A091CF01B0914C
:10071000D0012FBF089580910B0108959C01FC0129
:1007200032969FEF80E04191461751F09F3F19F4B8
:10073000411101C0982F8F5F8630A9F79F3F09F4C0
:100740000895290F311D97FD3A95F90162830895A7
:10075000A3E0B0E0EEEAF3E00C9491192091CA0115
:100760003091CB0128173907A1F09093CB018093EA
:10077000CA01E091C801F091C901309751F024E01D
:1007800029839B838A830084F185E02DCE01019625
:1007900009952396E2E00C94AD19A3E0B0E0E3EDF7
:1007A000F3E00C9491192091C6013091C7012817EC
:1007B0003907A1F09093C7018093C601E091C80169
:1007C000F091C901309751F023E029839B838A83FC
:1007D0000084F185E02DCE01019609952396E2E093
:1007E0000C94AD19E091C801F091C901309729F03E
:1007F0000190F081E02D0995089580E008950E9410
:100800007F039C019091C2018091C301982B21F03C
:100810003093BF012093BE019091C4018091C50126
:10082000982B21F03093BD012093BC01E091C801C9
:10083000F091C901309749F082E08093C0010680B1
:10084000F781E02D80EC91E0099508958091BB013E
:1008500080FD16C081FD16C082FD16C08091BA01D0
:100860008823A1F0883280F428E0829FC0011124FF
:1008700068E270E00E946719862F672B39F00895AF
:1008800082E0089584E0089588E0089581E0089565
:100890008091BB0180FD14C081FD14C082FD16C093
:1008A0008091B901882381F08E3180F420E5829F08
:1008B000C00111246EE170E00E946719862F08952F
:1008C00084E1089588E2089588E0089580E5089518
:1008D000282F35EB2303C001112497FF04C0805853
:1008E0009109892F089580589F4FFBCF80E008958C
:1008F000F894E82FE295EF70F0E031A1282F2F70E7
:1009000081E090E001C0880F2A95EAF7982F909532
:10091000932391A392A1892B82A378940895909117
:10092000A50192FF10C041E0282F2471243009F066
:1009300040E031E0282F2871283009F030E04317DB
:1009400011F02CE0822793FF10C041E0282F247182
:10095000243109F040E031E0282F2871283109F0D6
:1009600030E0431711F02CE082273091A60130FFD0
:1009700010C051E0282F2171213009F050E041E0F2
:10098000282F2871283009F040E0541711F029E091
:10099000822731FF10C041E0282F2171213109F059
:1009A00040E031E0282F2871283109F030E043176A
:1009B00011F029E0822794FD877E08958238910501
:1009C000B9F1B0F48133910509F47DC048F489325E
:1009D000910509F46DC08A32910509F47BC0089530
:1009E0008533910509F45FC08933910509F10895B4
:1009F000833E9105D9F138F4803E910529F1823E7C
:100A0000910579F10895863E9105D9F1873E9105CA
:100A100009F43EC0843E910541F52091A60121FFD5
:100A200024C08091A50184FD19C087EE90E008954F
:100A30002091A501237009F05AC02091A60123FF3F
:100A400014C089E290E008952091A50120FD38C0EE
:100A50003091A60130FF09C024FF43C090E080E040
:100A600008952091A50122FDF7CF08952091A501B9
:100A700022FD3AC03091A60130FD39C024FFF5CFE8
:100A8000EDCF2091A50123FFF0CF24FDE7CFCDCFFF
:100A90002091A50123FD2EC03091A60131FFEECF9C
:100AA00084EE90E008952091A50125FFDECFC9CF07
:100AB0002091A50125FD21C02091A60123FFD5CFBE
:100AC00089E390E0D2CF2091A50126FFCECF8AE224
:100AD00090E008952091A50126FFC7CF81E390E023
:100AE000089583EE90E0089582EE90E0089580EE00
:100AF00090E0089586EE90E0089585E390E00895F3
:100B0000972F7430B8F46D30A8F48430B0F470E0EE
:100B10002DE0929F600D711D1124FB0194E3899FCC
:100B2000E00DF11D1124EE0FFF1FE455FF4F8591DD
:100B30009491089580E090E0089581E0FCCF1F93A8
:100B4000CF93DF930E94DE04EC01C11580E5D80746
:100B5000F0F5C11580E4D80708F09CC0C03ED1056F
:100B600020F5CD3CD10508F082C0C83AD10578F413
:100B7000C53AD10508F073C0C130D10519F12097ED
:100B800009F1C430D105F0F4D0E0C0E01BC0C33C93
:100B9000D105D0F7C85AD0E0CC0FDD1FCF5EDE4FB5
:100BA0000990D881C02DD4640DC0C11580E2D8074A
:100BB00008F0D1C0C11581E0D80708F05AC0C83E7E
:100BC000D10510F7CE01DF91CF911F910895C03666
:100BD00082E5D80718F5C03482E5D80708F06BC065
:100BE000C03282E5D80708F05FC0C11582E5D8079A
:100BF00008F497C02C2F2695269580E2289F900117
:100C000011248C2F8370C1E0D0E002C0CC0FDD1F17
:100C10008A95E2F7C22BD32BDD68D4CFC03A82E5A8
:100C2000D80760F4C03882E5D80708F459C0CF71FE
:100C3000D0E0DC2FCC27C46FD06AC4CFC03C82E5A3
:100C4000D80708F462C0C03E82E5D80708F09CCF00
:100C5000DC2FCC27CC27DF71C06FD06AB3CFC55A49
:100C6000D0E0C25FDE4FC881D0E0D064ABCFD065AA
:100C7000A9CF8D2F0E948F04182FCE0199270E9493
:100C8000DE04C12FD0E0DC2FCC27CC27DF71C82BAE
:100C9000D92B98CFCE0199270E94DE04CC27DF7094
:100CA000C82BD92BD06A8ECFCF71D0E0DC2FCC27C8
:100CB000C16FD06A87CF2C2F26952695277080E2AA
:100CC000289F900111248C2F8370C1E0D0E002C0D6
:100CD000CC0FDD1F8A95E2F7C22BD32BDC6872CFD5
:100CE0002C2F26952695277080E2289F90011124AD
:100CF0008C2F8370C1E0D0E002C0CC0FDD1F8A953D
:100D0000E2F7C22BD32BDA685DCF8C2F8F710E9454
:100D10008F04C82FD0E0DC2FCC27CC27DF71D06226
:100D200051CF8C2F8F710E948F0455E0D695C795B7
:100D30005A95E1F7CF70D0E0DC2FCC27282F30E098
:100D400084FF05C044E0220F331F4A95E1F7C22B10
:100D5000D32BD06937CF8D2F8F710E948F04182F1E
:100D6000CE0199270E94DE04C12FD0E0DC2FCC27D2
:100D7000CC27DF71C82BD92BD2CF809590919301CE
:100D8000982390939301089580911F029091E6011A
:100D9000981301C008958F5F8770FACFB0E0A0E08C
:100DA000E4EDF6E00C948A197C010091A301109106
:100DB000A4018091A1019091A201082B192BCFE0F1
:100DC000D0E0CC24C394D12CBC2EC6010C2E02C082
:100DD000880F991F0A94E2F780239123892B49F405
:100DE000219790F7B12C8B2DCDB7DEB7E9E00C94AD
:100DF000A619B7018C2F0E9480050E949F050197BC
:100E000079F3F1CFCF93DF93EC010E94CE06BE01C0
:100E10000E9480050E949F05DF91CF910895943034
:100E200078F58D3068F5E82FF0E08DE0989FE00DC3
:100E3000F11D11249E2F977083E0F695E7958A9512
:100E4000E1F7EE0FFF1FEE0FFF1FEB59FE4F50E0D3
:100E500040E080E0219130E0092E02C036952795D0
:100E60000A94E2F721703327042E01C0220F0A945E
:100E7000EAF7822B4F5F5F4F4430510559F70895D1
:100E800080E00895943098F58D3088F5E82FF0E0F3
:100E90008DE0989FE00DF11D11248E2F877041E0A9
:100EA00001C0440F8A95EAF783E0F695E7958A95A5
:100EB000E1F7EE0FFF1FEE0FFF1FEB59FE4F30E083
:100EC00020E070E05191DF011197CB01022E02C0AA
:100ED000969587950A94E2F78170819585278423FA
:100EE00085278C932F5F3F4F2430310559F70895A4
:100EF0009093A4018093A301089521E030E002C003
:100F0000220F331F8A95E2F7209530958091A30137
:100F10009091A401822393230E94780708959091D1
:100F200088018095892380938801282F277069F490
:100F3000891759F09091A60192FF07C08695869572
:100F400086950E947D0710928801089521E030E087
:100F500002C0220F331F8A95E2F78091A30190917E
:100F6000A401822B932B0E94780708959093A201ED
:100F70008093A1010895FC0124812223C1F0808186
:100F800091810E94020792959F70963091F058F4DB
:100F9000925F9F70923058F4803F19F030F4883E91
:100FA00030F481E008959A5FF4CF843FD1F380E07C
:100FB0000895883EB0F3813FD1F7F3CF662309F45B
:100FC0005DC08D3C41F40E94480481958093C3012B
:100FD0000E94FF0308958E3C19F40E944804F6CF46
:100FE0008F3C31F40E94480481958093C201F0CF78
:100FF000803D19F40E944804F8CF893D29F40E94ED
:1010000026048093C401E4CF8A3D21F40E94260483
:101010008195F7CF8B3D31F40E9426048195809312
:10102000C501D6CF8C3D19F40E942604F8CF9FE26B
:10103000980F983070F4815D990B21E030E001C089
:10104000220F8A95EAF78091C101822B8093C1011A
:10105000BFCF8D3D31F48091BB0181608093BB0196
:10106000B7CF8E3D21F48091BB018260F7CF8F3DD9
:1010700009F0AECF8091BB018460F0CF4091C201F6
:101080008D3C59F48091C30187FF0DC01092C301BC
:1010900041110BC01092B90108C08E3C81F48091BF
:1010A000C30118169CF3442381F08091C4019091F0
:1010B000C501892B09F08CCF1092BA0189CF8F3CE2
:1010C00049F447FFF0CF1092C2018091C301811112
:1010D000ECCFE0CF803D19F41416ACF3E4CF90913F
:1010E000C401893D29F41916F4F61092C401DBCF2E
:1010F0008A3D19F497FFD7CFF8CF9091C5018B3D6A
:1011000029F497FFD0CF1092C501CDCF8C3D19F4B3
:101110001916CCF3C8CF9FE2980F983090F4815DF8
:10112000990B21E030E0B90102C0660F771F8A9564
:10113000E2F7CB0180959091C10189238093C10191
:10114000B2CF8D3D31F48091BB018E7F8093BB0186
:10115000AACF8E3D21F48091BB018D7FF7CF8F3DCB
:1011600009F0A1CF8091BB018B7FF0CFA6E0B0E06A
:10117000ECEBF8E00C94901949835A8349815A8129
:101180009923A1F0222391F0CA010E94CE06182FC4
:10119000682F89819A810E94420769817A81812F13
:1011A0000E9480052696E3E00C94AC19CA010E94C7
:1011B0000F07182FF2CF0F931F93CF93DF938B015D
:1011C000EA019091DC01943061F58093E9008FEFA2
:1011D0009091E800815095FD06C095ED9A95F1F744
:1011E00000008111F5CF8091E80085FF1AC00E94B0
:1011F0002302811111C08091E80085FD06C0809115
:10120000E8008E778093E800F2CFF80181918F019A
:101210008093F100219779F78091E8008E77809391
:10122000E800DF91CF911F910F91089543E050E0C6
:10123000BC0182E00E94DB08089546E050E0BC015A
:1012400082E00E94DB080895CF93DF93EC0148E031
:1012500050E0BC0181E00E94DB0888E0FE01A2EDC5
:10126000B1E001900D928A95E1F7DF91CF91089559
:101270009091A60192FB222720F9281779F080FB94
:1012800092F99093A6016091A5017091A60184E066
:1012900090E00E94081A82E00E948F070895209132
:1012A000930180918A01282B80918901882381F004
:1012B000282B30E08CE591E0FC014191CF014111F8
:1012C0003F5FF1E082369F07B9F731111092890133
:1012D00020935A0148E050E06BE871E08AE591E024
:1012E0000E941E1A892BA9F088E0EAE5F1E0ABE83C
:1012F000B1E001900D928A95E1F7E091C801F0917B
:10130000C901309731F00280F381E02D8AE591E048
:1013100009950895CF9310929301C6E0ECE5F1E0B2
:10132000DF018C2F1D928A95E9F790E080E00E9402
:10133000CD0390E080E00E94A80310928A010E94F1
:101340004F09E0ECF1E0DF011D92CA95E9F7109238
:10135000B9011092BA011092BB010E94FF03CF9114
:101360000895AAE2B0E0E7EBF9E00C9490198EED55
:1013700091E02091F100FC012193CF01F1E0863E44
:101380009F07B9F78091DF01833009F470C0B8F48A
:10139000813009F447C0823009F4B5C08091E8007B
:1013A00083FF89C28091DE019091DF019A3008F0BD
:1013B00082C2E92FF0E0E35DF54E0C947B198A3090
:1013C00009F490C08B3009F46FC0893039F78091EF
:1013D000DE01813219F78091E2019091E3010297D9
:1013E000E8F68091E800877F8093E8008091E8002C
:1013F00082FF38C09091F3008091F200029731F49F
:101400008091F100813011F0863021F48091F1005B
:1014100080930B018091E8008B778093E8000E9415
:101420005402BCCF8091DE01813A09F0B7CF8091A0
:10143000E800877F8093E8008091E2019091E301CA
:10144000892B61F468E082ED91E070E00E94000376
:101450008091E8008B778093E800A0CF60E090E077
:1014600080E0F3CF8091DC018111C0CF97CF8091D4
:10147000DE01813A09F092CF8091E2019091E3017F
:10148000892B09F08BCF8091E800877F8093E8005B
:101490008091E80080FFFCCF80910C018093F100E7
:1014A0008091E8008E77B9CF8091DE01813209F01A
:1014B00075CF8091E2019091E301892B09F06ECF05
:1014C0008091E800877F8093E8000E94540281E0C9
:1014D0009091E001911101C080E080930C010E9485
:1014E0008A095CCF8091DE01813209F057CF80916B
:1014F000E800877F8093E8000E9454028091E10118
:1015000080930A014BCF8091DE01813A09F046CFEA
:101510008091E800877F8093E8008091E80080FF59
:10152000FCCF80910A01BACF803899F0823809F057
:10153000C2C18091E2018F70873008F0BCC18093F6
:10154000E9008091EB0085FB882780F91092E90083
:1015500006C08091DA019091DB0191118260909137
:10156000E800977F9093E8008093F1001092F100DB
:101570008091E8008E779BC1882309F489C182306D
:1015800009F099C18091E00181118CC18091E20143
:101590008F702FEF280F263008F08DC18093E9005F
:1015A0002091EB0020FF7EC1933031F48091EB005D
:1015B00080628093EB0076C19091EB0090619093F4
:1015C000EB0021E030E001C0220F8A95EAF720937A
:1015D000EA001092EA008091EB008860EACF811166
:1015E0006AC11091E0011F778091E3008078812B20
:1015F0008093E3008091E800877F8093E8000E9459
:1016000054028091E80080FFFCCF8091E300806865
:101610008093E30082E0111183E08093DC014BC1F1
:101620008058823008F047C18091E0019091E1013B
:101630008C3D23E09207A1F583E08A838AE28983C7
:101640004FB7F894DE01139620E03EE051E2E32F1D
:10165000F0E050935700E49120FF03C0E295EF7053
:101660003F5FEF708E2F90E0EA30C0F0C7968D9309
:101670009D932F5F243159F74FBF8091E800877FFA
:101680008093E8006AE270E0CE0101960E940003B8
:101690008091E8008B778093E8000DC1C096E7CF7A
:1016A0004091E2015091E301292F33272330310586
:1016B00009F444C078F52130310509F46FC08BE39B
:1016C00090E0EBE0F3E02230310509F0F4C0209126
:1016D000E800277F2093E8002091E4013091E501A4
:1016E0008217930708F49C0140E02115310509F0A9
:1016F00064C0411162C08091E80082FDC9CF809131
:10170000DC01882329F2853019F28091E80083FFFB
:10171000F2CFBECF21323105A9F12232310509F0D5
:10172000CAC04115510509F443C04130510509F0C3
:10173000C2C08BE790E0ECE4F2E0C9CF992781309A
:101740009105C1F0009759F0029709F0B4C0E8E59F
:10175000F3E0E4918E2F90E0E8E5F3E007C0E8E8DD
:10176000F3E0E4918E2F90E0E8E8F3E0009709F4CD
:10177000A2C0ADCFE6E6F3E0E4918E2F90E0E6E67E
:10178000F3E0F4CF4115510571F04130510509F0F6
:1017900092C089E090E0E6E3F3E099CF82E190E047
:1017A000E6E4F3E094CF89E090E0EDE1F3E08FCF61
:1017B00084E490E0E7ECF2E08ACF8091DC018823BA
:1017C00009F466CF853009F463CF8091E80083FD8A
:1017D0005FCF8091E80082FD8ECF8091E80080FF8E
:1017E00084CF9091F3008091F2002115310519F01A
:1017F0008830910550F041E0089709F040E0809171
:10180000E8008E778093E80070CF44914093F10018
:101810003196215031090196E8CF803809F04BC04C
:101820008091E800877F8093E8008091DD018093BC
:10183000F1009ECE81113FC01091E0011230D8F529
:101840008091E800877F8093E8001093DD010E947B
:101850005402112311F084E005C08091E30087FD5C
:10186000FACF81E08093DC0142E061EC81E00E94EC
:10187000730242E261EC82E00E9473028091DC011B
:10188000843021F081E080930D0115C082E0FBCF10
:101890008091E001813079F481E0933009F080E0BB
:1018A0008093DB011092E9008091E800877F8093AC
:1018B000E8000E9454028091E80083FF0AC08091F2
:1018C000E800877F8093E8008091EB00806280933E
:1018D000EB00AA96E3E00C94AC190E948A092FEF62
:1018E00084E39CE0215080409040E1F700C000007C
:1018F00088E19AE00FB6F894A895809360000FBE37
:1019000090936000FFCF882321F00E94BD060E94C3
:101910004F090895882339F090919301982B909363
:1019200093010E944F0908958823D1F19CEF980FED
:10193000913A78F4ECE5F1E09191891303C0DF016D
:1019400011971C9291E0E236F907B1F70E944F0916
:10195000089590E2980F983050F4877091E001C09C
:10196000990F8A95EAF7892F0E94BD06EFCF9BE574
:10197000980F933028F490E080E00E94CD03089502
:1019800098E5980F9B3128F490E080E00E94A8032E
:10199000089593E3980F933118F460E00E94DE07F6
:1019A0000895CF93C82F8823B1F08CEF8C0F813A24
:1019B00000F5ECE5F1E082E691E0DF012D91C21740
:1019C00061F08A179B07D1F76C2F8AE591E00E949E
:1019D0008E030E944F09CF9108952191C21303C035
:1019E000DF0111971C928E179F07B9F70E944F09CC
:1019F000EBCF80E28C0F883068F4C77021E030E0D4
:101A000001C0220FCA95EAF780919301822B80933F
:101A10009301DFCFEBE5EC0FE33040F4F0E0E25F61
:101A2000FE4F808190E00E94CD03D5CFE8E5EC0F1A
:101A3000EB3150F4F0E0EE0FFF1FEF5EFE4F8081C0
:101A400091810E94A803C7CF83E38C0F833118F6DE
:101A500061E08C2F0E94DE07BECF0F931F93CF93C0
:101A6000DF93C62FD42F022FFC0185818823A9F094
:101A7000609322020E947F039093210280932002B0
:101A8000C77081E001C0880FCA95EAF70E948A0CEE
:101A9000DF91CF911F910F910895809122026813D9
:101AA00035C080912002909121020E947003883CF1
:101AB000910560F510E21D0FCD17B9F080E28C0F93
:101AC000883040F4C77081E001C0880FCA95EAF7FA
:101AD0000E94830C183048F481E09D2F977001C05C
:101AE000880F9A95EAF70E948A0C802F0E94D10CE9
:101AF000802F0E94940C183058F6D77081E001C0F6
:101B0000880FDA95EAF70E94830CC2CFC77081E094
:101B100001C0880FCA95EAF7F6CFB0E0A0E0E3E98C
:101B2000FDE00C9489198C01FC018481882309F45F
:101B300061C021E0408151816281738195810E9461
:101B4000B608EC01803E910571F08034FEE79F07F6
:101B5000A1F1FC01E851FC47E730F10558F4E95CDC
:101B6000F54E0C947B19F8018581882319F181E0E9
:101B700080936201F8018581882309F402C41092E0
:101B800022029E0130572332310508F0E3C384E07E
:101B900090E00E94D4199093A6018093A501FE01C4
:101BA000E150F047E232F10508F055C0E25CF54E35
:101BB0000C947B1910926201DDCFF8018581882396
:101BC00001F1809162018823D1F080EE0E94940C93
:101BD00089E20E94D10C80918801877059F0F80148
:101BE0008581882339F08091A60182FF03C082E0BD
:101BF0000E948F07CDB7DEB7EAE00C94A51981E308
:101C0000E8CF89E20E94940C81E30E94940C8091B9
:101C10006201882301F380EEDCCF26E241EE61EE23
:101C2000C8010E942D0DD7CF27E245EE65EEF8CF13
:101C300026E241EE60EEF4CF27E245EE64EEF0CF0F
:101C400026E241EE62EEECCF27E245EE66EEE8CF0B
:101C500028E241E0EBCF8091A50181608093A5014E
:101C600095C08091A60188608093A6018FC0809165
:101C7000A5018260F3CF8091A5018460EFCF8091B0
:101C8000A5018860EBCF8091A6018160EDCF8091A6
:101C9000A6018260E9CF8091A5018061DFCF8091AC
:101CA000A5018062DBCF8091A5018064D7CF0E941F
:101CB0008A098091A5018068D1CF8091A5018C60AF
:101CC000CDCF8091A6018360CFCF8091A5018E7F7B
:101CD000C5CF8091A601877FC7CF8091A5018D7F59
:101CE000BDCF8091A5018B7FB9CF8091A501877F62
:101CF000B5CF8091A6018E7FB7CF8091A6018D7F51
:101D0000B3CF8091A5018F7EA9CF8091A5018F7D52
:101D1000A5CF8091A5018F7BA1CF0E948A098091D8
:101D2000A5018F779BCF8091A501837F97CF80916D
:101D3000A6018C7F99CF8091A50182FB992790F90C
:101D400021E0922790FB82F990FB83F987CF809165
:101D5000A601982F909591708E7F892B90FB81F929
:101D600083CF9091A501892F8F7B96FF806476CFDA
:101D70000E948A099091A501892F97FB87F98058C5
:101D80006DCF61E08EE090E00E94EA196091A501BC
:101D90007091A60184E090E00E94081A0E948A09CE
:101DA0001ACF60E0EFCF9091A501892F8F7E94FF2D
:101DB000806154CF9091A501892F8E7F90FF816023
:101DC0004DCF9091A601892F877F93FF88604CCFDC
:101DD00085E3E1C29E01205E324520323105A8F440
:101DE000811115C0CF7181E090E09C0102C0220FEB
:101DF000331FCA95E2F7E901622F83E090E00E9469
:101E0000EA19CE010E94B607E6CE882381F0C330DE
:101E10003CE7D30709F478C008F05BC0C1159CE724
:101E2000D90709F464C0C130DC4709F473C0F80174
:101E30008581C081D181882309F47AC0CE010E94B6
:101E4000CE06F82E682FCE010E944207BE018F2DCC
:101E50000E9480050E949F05D82FC92FA82EF80147
:101E6000C580B680B2943FE0B3228091880187702C
:101E700009F1FC2CCC20F9F0892F807F803469F0A7
:101E800080E28D0F8830B0F0892F807E803229F477
:101E9000F1E0FD1778F4BB2069F08091A60182FF84
:101EA00009C082E00E948F07809188018770FF241B
:101EB000F3948111F12CEC2EE2942FE0E2222BE03E
:101EC0002E1508F49AC0EE2DF0E0E05AF54E0C9471
:101ED0007B19CB35FCE7DF0749F1CC352CE7D2077E
:101EE000D9F0CA35DC4709F0A2CF81E01CC00E94BE
:101EF0008A098FEF94E3ECE081509040E040E1F7F5
:101F000000C000000E945F036FEF7FEF90E080E071
:101F10000E94081A0E946D0C8091A60182FB8827FE
:101F200080F991E089270E94380981CF80E0FBCFBA
:101F3000CE010E940F07F82E89CF3C2F3F70D32E81
:101F4000C07F19F0D29490EFD922CC20B9F0DD20D7
:101F500069F080E28D0F883010F0A11009C08091E7
:101F60009301D82AD09293010E944F098D2F43C02C
:101F700080918A01D82AD0928A01F6CF8D2F0E94B3
:101F8000940CDD20D1F1D05ED83010F0A11004C047
:101F90008D2D0E94BD0606C0D09480918A01D82262
:101FA000D0928A010E944F0928C08C2F8F70D82EA2
:101FB000C07FC03219F0D29480EFD822AA2059F005
:101FC00091E0A91609F478C0CC2009F484C0BB20A4
:101FD00009F446C0CBCF8091A60182FD3DC0CC2044
:101FE000A9F1DD2039F080919301D82AD092930194
:101FF0000E944F0980E00E94D10CEE2DE850FF0BAB
:10200000349710F40E94F203FF20A9F08091880118
:1020100080FD11C0F80115828695869586950E94EF
:10202000A607C8010E948D0D80918801869586952E
:1020300086950E947D0720E0F801408151816281F0
:102040007381848195810E94B608D4CD80E00E947E
:10205000940CDD2091F29CCFCC20A1F0B11004C0F3
:102060008D2D0E948A0CC9CFE1E0BE12C6CF8091AF
:1020700089019D2D9823D91609F4BFCFD82AD09273
:102080008901BBCFB110B9CF8D2D0E94830C9091E7
:1020900089018D2D892329F08D2D809589238093A9
:1020A0008901809164019D2D982309F4A6CFD094D5
:1020B000D822D0926401A1CFCC2029F0F5E0FB1505
:1020C00008F49BCFCDCF24E02B1508F496CF8D2DAF
:1020D0000E94830C92CFBB20D1F339E3A31209C035
:1020E0008FEF97EEE3E081509040E040E1F700C0D1
:1020F00000008D2F0E94940C80CF8C2F86958695A2
:10210000837069F0813009F078CF8D2F9C2F937008
:10211000C11002C080E090E00E94A8036ECF8D2F16
:102120009C2F9370C11002C080E090E00E94CD030C
:1021300064CF6C2D8D2F0E94DE075FCF8C2F8370B4
:1021400009F03FC0C11059CF4D2F429546954770B9
:10215000440F440F2D2F2F7030E0042E02C0220FA9
:10216000331F0A94E2F790E080E0D4FF09C08FE0CB
:1021700090E002C0880F991F4A95E2F780959095EC
:10218000C695C695C370C23099F078F44091A1010C
:102190005091A201C13039F0822B932B84239523D7
:1021A0000E94B6072ACF242B352B822B932BF8CFF6
:1021B000822B932B2091A1013091A201822793279A
:1021C000EFCF8695CC2011F08C2F8170882309F4F5
:1021D00014CF4D2F429546954770440F440F2D2F35
:1021E0002F7030E0042E02C0220F331F0A94E2F752
:1021F00090E080E0D4FF09C08FE090E002C0880F3B
:10220000991F4A95E2F780959095C695C695C3703B
:10221000C23099F078F44091A3015091A401C130EB
:1022200039F0822B932B842395230E947807E5CEE7
:10223000242B352B822B932BF8CF822B932B2091A1
:10224000A3013091A40182279327EFCFCF70CC2038
:1022500029F08C2F0E94A6078D2F03CF8D2F0E946F
:10226000830C8C2F0E947D07C8CE8D2FF2EFAF1606
:1022700099F1FA1570F020EFA216D1F031EFA31604
:1022800091F0CC2009F456C0B11070CE8C2F8F7114
:1022900027C093EFA91639F1E4EFAE12F2CF909177
:1022A000A60192FD2EC08C2F8F71CC20D9F218C0C0
:1022B000CC2069F0F4E0FB1508F49FCECF7181E0EB
:1022C00090E002C0880F991FCA95E2F7B8CF25E0C9
:1022D0002B1508F492CEF2CF8C2F8F71C110C2CF84
:1022E0000E94A6078ACE90E080E0CC2009F49DCF22
:1022F000CF7181E090E002C0880F991FCA95E2F784
:1023000094CFCC2061F08C2F8F7192FFE9CF98E0B1
:10231000899F90011124236020938801E1CF81E0FF
:102320000E948F07E1E0EB1508F067CE82E00E9483
:102330008F0763CEBB2059F0893309F0DACEFFEF67
:1023400027EE33E0F15020403040E1F7D0CE8C2F23
:102350008F7188CFC631FCE7DF0709F03BCD809154
:1023600093018A7A91E009F490E09093630169E225
:10237000811165E38AE591E00E948E030E944F0976
:102380002ACCC6312CE7D20709F024CD8091630115
:1023900081111ECD89E2ECE5F1E022E631E0919178
:1023A000891303C0DF0111971C922E173F07B9F75D
:1023B000E5CFCF93DF9380918701807F09F04DC0F7
:1023C00080918601882309F448C0E0911F02509152
:1023D000E601C0918201D0918101609183017091E9
:1023E000840147E05E17C9F18E2F90E0E49FF00171
:1023F0001124E951FE4F2481222391F1489FF001DD
:10240000499FF00D1124DF01A951BE4F11962C9167
:1024100011972C1325C02C912D1322C015962C91A9
:10242000159721111DC012962D913C91261B370B3B
:10243000283C3105A8F4809187018F7080618093DA
:102440008701E351FE4F80818F708061808381E836
:1024500091E00E948D0D0E94C406DF91CF910895F6
:10246000FC013196E770BECFA4E1B0E0EAE3F2E10F
:102470000C9487198C0186E0F801DE011F9601900B
:102480000D928A95E1F7F8018481E58091E8A92E03
:1024900091E0B92E90918501911128C0882319F1FE
:1024A000EE20F1F0C8010E94BB07F82E8823C1F08E
:1024B00087E0F801D50101900D928A95E1F78091AE
:1024C0008501813031F480918101909182010E94D7
:1024D00002070E94D9118F2D6496ECE00C94A31989
:1024E000C8010E948D0DFF24F394F5CFD080C180E8
:1024F00082809380F0908601209183013091840145
:10250000A401421B530BFF2009F4D9C0483C5105DC
:1025100008F092C08823F9F290918201809187019E
:10252000282F207F09F056C0C91214C09091810154
:10253000D91210C0E11048C08F708061809387016C
:1025400081E891E00E948D0D80918701F8018683DA
:10255000F12CC1CFE11038C06C2D8D2D0E94E5010A
:102560006C2D8D2D0E94E501E82E8111F1CFDF86C3
:10257000C88A8F8598890E940207292F22952F707B
:10258000243058F49F70223088F0992399F0F80194
:102590009681907F79F4FE2C9ECF2A5F2F70223097
:1025A00068F0C8010E948D0DEF2CF5CF992311F032
:1025B000882389F3805E883070F3F3CF803F58F32F
:1025C000815F833070F7E7CF8091870181608093CE
:1025D0008701BECFC91207C090918101D91203C0F3
:1025E000EE2009F48DC0C8010E94BB07882309F4BE
:1025F00077CFEE2009F474CF80918701803288F084
:102600002091810130918201398728879B868A86B3
:10261000909185019C871D868E87CE0108960E9429
:102620008D0D87E0F801A1E8B1E001900D928A9547
:10263000E1F70E94D91157CF90918701292F207F70
:1026400051F481E891E00E948D0D87E0F50111922F
:102650008A95E9F77DCF882309F43DCF80918201E7
:102660008C1110C080918101D8120CC0E1100AC0F9
:102670009683C8010E948D0D87E0F50111928A951D
:10268000E9F729CFC8010E94BB07882309F428CFA6
:10269000EE2009F425CF80918701803210F220913D
:1026A0008101309182013A8329839C828B829091AF
:1026B00085019D831E828F83CE010196B0CF483C59
:1026C0005105D0F6882309F40ECFFE2CEE2009F434
:1026D00007CF809182018C1120C080918101D81296
:1026E0001CC08091870180FD0FC0982F907F61F002
:1026F0008683903F31F0982F907F905F8F70892B69
:102700008683C8010E948D0D87E0F801A1E8B1E041
:1027100001900D928A95E1F7DECEC8010E94BB07B9
:1027200081117FCF80918701816080938701C801EB
:102730000E948D0DD0CEABE1B0E0E1EAF3E10C9464
:102740008F194E8B5F8B688F798F8A8F9B8F192F94
:10275000911110928A011D8A86E0FE017696DE01B3
:102760001F9601900D928A95E1F70A8D002341F0A2
:1027700021E04F85588969897A89C8010E94B60885
:102780000B8B1C8B87E0FE013F96DE0118960190B3
:102790000D928A95E1F7CE0108960E9434128111BC
:1027A0002AC087E0FE013896DE01119601900D9255
:1027B0008A95E1F78C858823F1F02091E60130E0DD
:1027C000C90101968770992740911F024817190681
:1027D000E9F097E0929FD001939FB00D1124A95189
:1027E000BE4FFE01319601900D929A95E1F78093CC
:1027F000E6010E94C40617E080911F029091E60155
:10280000891312C06B96E4E00C94AB190E948A09FC
:102810001092E60110921F0287E0E1E8F1E0DF018B
:102820001D928A95E9F7E7CF819FC0011124895154
:102830009E4F0E943412882329F380911F0290E05A
:1028400001968770992780931F02D6CFA6E0B0E04B
:10285000ECE2F4E10C948F190E947F038C018091CB
:102860009401909195018017910781F019821A8245
:102870000E947F03682F49815A81792F80E090E080
:102880000E949B1310939501009394012696E4E017
:102890000C94AB19A8E0B0E0E0E5F4E10C948319E6
:1028A0008E010F5F1F4F88E0F80111928A95E9F7BA
:1028B00097E4E92E91E0F92E68012BE4422E21E005
:1028C000522E66246394712C48E5842E41E0942EA8
:1028D000F70181917F018F3F09F445C0F894E82FFB
:1028E000E295EF70F0E021A18F70A30102C0440FC8
:1028F000551F8A95E2F7CA01922F982B91A392A1B6
:102900008095892382A3789400C0EBE4F1E021E074
:1029100030E0B12CA12C41914F3F09F44BC0A42FC2
:10292000A295AF70B0E090968C9190E04F7002C08D
:10293000959587954A95E2F780FD3CC0C901A82A84
:10294000B92A220F331F8E169F0629F7F7013197F8
:1029500080818F3F11F00E94780450EA5A95F1F778
:10296000F601B182A082F2E0CF0ED11C4E145F04BA
:1029700009F0AECF48E050E0B80189E991E00E944B
:102980001E1A892BE1F088E0F801A9E9B1E0019075
:102990000D928A95E1F781E0809398010E947F0370
:1029A000909397018093960110E0812F2896E0E1A3
:1029B0000C949F1990E080E0C2CF10E01FC01091EE
:1029C0009801112389F380919601909197010E94BB
:1029D0007003059748F348E050E069E971E087EA41
:1029E00091E00E941E1A892B41F388E0E9E9F1E0A9
:1029F000A7EAB1E001900D928A95E1F71092980153
:102A0000D4CF1F920F920FB60F9211242F933F93A2
:102A10004F935F936F937F938F939F93AF93BF93E6
:102A2000CF93DF93EF93FF93D091E900DF70809114
:102A3000EC00C82FC17080FDC0E81092E9008091C1
:102A4000F000877F8093F00078940E94B109109283
:102A5000E9008091F00088608093F000CD2BCF706A
:102A6000C093E900FF91EF91DF91CF91BF91AF91BA
:102A70009F918F917F916F915F914F913F912F9196
:102A80000F900FBE0F901F9018951F920F920FB6C8
:102A90000F9211242F933F934F935F936F937F93E4
:102AA0008F939F93AF93BF93EF93FF938091E10038
:102AB00082FF09C08091E20082FF05C08091E100A1
:102AC0008B7F8093E1008091DA0080FF24C08091A9
:102AD000D80080FF20C08091DA008E7F8093DA00DA
:102AE0008091D90080FFAAC080E189BD82E189BDC3
:102AF00009B400FEFDCF81E08093DC018091D1011B
:102B0000811109C00E9404020E94A5028091E20086
:102B100084608093E2008091E10080FF1AC0809180
:102B2000E20080FF16C08091E2008E7F8093E20079
:102B30008091E20080618093E2008091D800806201
:102B40008093D80019BC85E08093DC0183E08093FA
:102B50000D018091E10084FF30C08091E20084FF8C
:102B60002CC080E189BD82E189BD99B5892F817032
:102B700090FFFBCF9091D8009F7D9093D8009091CB
:102B8000E1009F7E9093E1009091E2009F7E909300
:102B9000E2009091E20091609093E2009091DD015B
:102BA000992309F451C094E09093DC019091DC01E9
:102BB000943009F482E080930D018091E10083FF5D
:102BC0002CC08091E20083FF28C08091E100877FC4
:102BD0008093E10082E08093DC011092DD0180911E
:102BE000E1008E7F8093E1008091E2008E7F8093F0
:102BF000E2008091E20080618093E20042E060E0C8
:102C000080E00E9473028091F00088608093F00061
:102C100081E080930D0180930C01FF91EF91BF91B2
:102C2000AF919F918F917F916F915F914F913F9164
:102C30002F910F900FBE0F901F90189519BC1092F6
:102C4000DC011092D10167CF9091E30097FD02C0A3
:102C5000982FAACF93E0A8CF78941F921FB61F9207
:102C600011248F939F93AF93BF938091CD01909147
:102C7000CE01A091CF01B091D0010196A11DB11D4F
:102C80008093CD019093CE01A093CF01B093D0015A
:102C9000BF91AF919F918F911F901FBE1F9018956C
:102CA0001F921FB61F9211248F939F93AF93BF93D0
:102CB0008091CC01811113C08091CD019091CE0102
:102CC000A091CF01B091D0014196A11DB11D80937B
:102CD000CD019093CE01A093CF01B093D001BF91CD
:102CE000AF919F918F911F901FBE1F901895CDB7E8
:102CF000DEB72E970FB6F894DEBF0FBECDBF85B7F7
:102D0000806885BF85B7806885BF84B7877F84BFAB
:102D10000FB6F894A8958091600088618093600058
:102D2000109260000FBE80E890E00FB6F894809398
:102D30006100909361000FBE81E080930D0186E7F2
:102D400094E090935901809358010E9404020E94DC
:102D5000A5028091E20084608093E20078948091E3
:102D6000DC018823A1F01091E9001F709091EC0024
:102D7000892F817090FD80E8182B1092E9008091D6
:102D8000E80083FD0E94B1091F701093E90082E002
:102D900084BD93E095BD9AEF97BD80936E0080EF60
:102DA0000E94780481EF0E94780484EF0E947804E6
:102DB00086E30E9478040BE411E058E5E52E51E02B
:102DC000F52ED8018D918D018F3F11F00E9478046E
:102DD000E016F106B1F788E0E7EAF1E0DF01282F1D
:102DE0001D922A95E9F7E9E9F1E0DF011D928A9544
:102DF000E9F790E080E00E94D419853E9E4F09F4E7
:102E000061C065EE7EEF90E080E00E94081A60E00D
:102E100082E090E00E94EA1981E090E09093A201A4
:102E20008093A10161E083E090E00E94EA1960E0F4
:102E300074E184E090E00E94081A60E086E090E08F
:102E40000E94EA1960E087E090E00E94EA1940E001
:102E500050E0BA0188E090E00E94FC1960E083E253
:102E600090E00E94EA1960E08CE090E00E94EA198C
:102E700060E08DE090E00E94EA1919821A821B82BC
:102E80001C821D821E821F82188648E050E067E186
:102E900070E0CE0101960E94DA1940E050E0BA01DC
:102EA0008FE190E00E94FC1940E050E0BA018FE011
:102EB00090E00E94FC1940E050E0BA0183E190E00C
:102EC0000E94FC1982E090E00E94CC198093AF012F
:102ED00084E090E00E94D4199093A6018093A5010C
:102EE0000E944A14EFEFF6E721E0E150F040204065
:102EF000E1F700C000000E944A148091A70180FF02
:102F000008C06FEF7FEF90E080E00E94081A0E94F7
:102F10005F0383E090E00E94CC1990E00E94B60726
:102F200080E091E09093C9018093C80148EB642E42
:102F300041E0742E44244394222423948091DC01A4
:102F400010E4853009F493C00E944A1420EBA22EAD
:102F500021E0B22E37EA832E31E0932ED401F50121
:102F6000219131918D919D916E167F0609F489C052
:102F700028173907A9F3512CD4010D911D914D014A
:102F8000F501C190D1905F01C016D10659F1312CE5
:102F9000EE24E394F12CC026D126C6018E219F2178
:102FA000892BB1F039865A860E947F039C878B87D4
:102FB0002D8691E098012E213F21232B09F490E0EA
:102FC0009E8749855A856B857C858D850E949B13DC
:102FD0003394EE0CFF1CFDE03F12DFCFF50132977A
:102FE00011830083539424E05212C6CF8FB7F89414
:102FF0004091CD015091CE016091CF017091D001EF
:103000008FBF45C08091DC01843019F11092CC0152
:1030100088E190E00FB6F894A895809360000FBE09
:103020001093600083B7817F846083BF83B7816022
:1030300083BF7894889583B78E7F83BF0FB6F8944B
:10304000A895809160008861809360001092600074
:103050000FBE0E944A14E7EAF1E081919191892B19
:1030600009F009C1AFEAB1E0AE17BF07B1F780912F
:10307000DC01853009F4C6CF0E948A090E94F20360
:1030800063CF2817390709F076CF0E94261486E00F
:10309000E0ECF1E0DE01119601900D928A95E1F7E6
:1030A000D090C1010091C201F090C301E090C40131
:1030B0001091C5011092C2011092C3011092C40177
:1030C0001092C501802F8F2909F445C08091BE015F
:1030D0009091BF010E9470039C019091B9019923C6
:1030E00009F4F0C025313105B0F19F3F19F09F5F21
:1030F0009093B901002359F00E9448049FEF1016E5
:103100000CF491E0899F802D11248093C201FF204F
:1031100059F00E94480491E01F140CF09FEF899F22
:10312000802D11248093C3018091C201882399F0DE
:10313000C090C301CC2079F00E946804882309F470
:103140008EC08093C2018C2D0E946804882309F4EC
:1031500089C08093C3018E2D812B09F445C08091D5
:10316000BC019091BD010E9470039C019091BA0135
:10317000992309F4A2C021353105B0F19F3F19F020
:103180009F5F9093BA01EE2059F00E9426049FEFB2
:103190001E140CF491E0899F802D11248093C401AA
:1031A000112359F00E94260491E011160CF09FEFB4
:1031B000899F802D11248093C5018091C4018823AB
:1031C00099F0E090C501EE2079F00E946804882310
:1031D00009F44BC08093C4018E2D0E94680488239B
:1031E00009F446C08093C5018091C101D81217C06F
:1031F0008091C201882311F0081311C02091C301EE
:10320000222311F02F110BC09091C501992311F0C9
:10321000191305C03091C401332309F449C00E9439
:10322000FF0386E0FE013196A0ECB1E001900D9223
:103230008A95E1F70E94F2039091B801891709F489
:103240007DCE8093B8018FB7F8944091CD01509115
:10325000CE016091CF017091D0018FBF6FCE4092AF
:10326000C20171CF4092C30176CF4092C401B4CF66
:103270004092C501B9CF8091DB01882309F4F7CED4
:10328000B0E1B9BDE2E1E9BD09B400FEFDCF809136
:10329000D8008F7D8093D8008091E0008260809379
:1032A000E0008091E00081FDFCCF0E948A09DFCE22
:1032B000822B892B09F4B5CFB2CF2B30310508F022
:1032C0005FCF92CF2B30310508F011CF44CF97FB61
:1032D000072E16F4009407D077FD09D00E94B81984
:1032E00007FC05D03EF4909581959F4F0895709509
:1032F00061957F4F0895EE0FFF1F0590F491E02D2B
:1033000009942F923F924F925F926F927F928F9289
:103310009F92AF92BF92CF92DF92EF92FF920F9364
:103320001F93CF93DF93CDB7DEB7CA1BDB0B0FB66E
:10333000F894DEBF0FBECDBF09942A88398848882B
:103340005F846E847D848C849B84AA84B984C884C1
:10335000DF80EE80FD800C811B81AA81B981CE0FB8
:10336000D11D0FB6F894DEBF0FBECDBFED0108959D
:10337000AA1BBB1B51E107C0AA1FBB1FA617B7079B
:1033800010F0A61BB70B881F991F5A95A9F78095B7
:103390009095BC01CD010895F999FECF92BD81BDF4
:1033A000F89A992780B50895A8E1B0E042E050E08E
:1033B0000C94101ADC01A40FB51F4150504048F086
:1033C000CB01840F951F2E910E94EB194150504064
:1033D000D0F70895262FF999FECF92BD81BDF89AB6
:1033E000019700B4021639F01FBA20BD0FB6F89449
:1033F000FA9AF99A0FBE08950396272F0E94EB19A7
:103400000E94EA19252F0E94EB19242F0C94EB1926
:103410000196272F0E94EB190C94EA19DC01CB01CD
:10342000FC01F999FECF06C0F2BDE1BDF89A3196D4
:1034300000B40D9241505040B8F70895FB01DC01F3
:1034400004C08D910190801921F441505040C8F77B
:10345000881B990B0895F894FFCF940ABC0A5B0C63
:10346000BC0A5B0CEF0A100B5B0C0D0C1A0C180E4F
:103470001C0E0D0E140E200E240E280E650EDA0EF4
:103480006D0E370E3B0E710E3F0E750E810E4B0EFC
:10349000D30E4F0E850E530E890EB10E570E8D0EA4
:1034A000B80E5D0E930E9B0E430E790E470E7D0EE9
:1034B000610E970EA70EC10ED10E310E690EE10EF0
:1034C0009D0F9D0FD50FD50F7D109910FD0FFD0F8E
:0834D0009E1026113511351183
:1034D8008B0324095E031D0916090000010081827F
:1034E80083E200E900EA00B500B600B700CD00832A
:1034F80001CC008A019201940121022302240225B1
:1035080002260227022A02B300B4006F0070009F4F
:1035180001CB019F02A002F0F1F4366667F7F6F5D9
:0835280034919293959496975B
:00000001FF
