:100000000C943F020C945C020C945C020C945C0215
:100010000C945C020C945C020C945C020C945C02E8
:100020000C945C020C945C020C941F180C94DB176B
:100030000C941C190C945C020C945C020C945C02F1
:100040000C945C020C945C020C945C020C945C02B8
:100050000C945C020C94F8180C945C020C945C02F6
:100060000C945C020C945C020C945C020C945C0298
:100070000C945C020C945C020C945C020C945C0288
:100080000C945C020C945C020C945C020C945C0278
:100090000C945C020C945C020C945C020C945C0268
:1000A0000C945C020C945C020C945C020501090245
:1000B000A10185020901A1000509190129081500FE
:1000C0002501950875018102050109300931158165
:1000D000257F95027508810609381581257F9501D0
:1000E00075088106050C0A38021581257F95017572
:1000F000088106C0C005010980A101850319012AF4
:10010000B700150126B700950175108100C0050CD8
:100110000901A101850419012AA002150126A002E6
:10012000950175108100C00660FF0961A101096297
:10013000150026FF00952075088102096315002629
:10014000FF00952075089102C005010906A101056F
:100150000719E029E7150025019508750181029529
:1001600001750881010507190029FF150026FF0008
:100170009506750881000508190129051500250156
:10018000950575019102950175039101C00000006C
:10019000000000000000000000000000000000005F
:1001A000000000000000000000000000000000004F
:1001B000007E0F00D4FFFFFFC700000078000000A2
:1001C00000000000002A2B280000000000000000B2
:1001D000000000000000000029000000002C1E3478
:1001E00020212224342627252E362D3738271E1F7E
:1001F000202122232425263333362E37381F0405A9
:10020000060708090A0B0C0D0E0F10111213141516
:10021000161718191A1B1C1D2F3130232D350405F4
:10022000060708090A0B0C0D0E0F101112131415F6
:10023000161718191A1B1C1D2F3130354C2B0014A2
:10024000001A0008001500170000001C0018000C20
:100250000012001300407EE00004001600070009B1
:10026000000A0000000B000D000E000F00330034E8
:1002700000E1001D001B0006001900050000001130
:10028000001000360037003800E500E400E300E22B
:1002900000777C787C2A000000777C2C00787CE654
:1002A00000E700E40001001E001F002000210022E2
:1002B000000000230024002500260027002D000157
:1002C000001E021F0220022102220200002302243B
:1002D000022502260227022D020100350035022EDA
:1002E000002E020000000000002F0030002F02301E
:1002F00002010001000100010001000100010000F5
:100300000001000100010001000100010001006A7C
:10031000006B006C006D006E0000004A004E004B48
:10032000004D000000460001006F00700071007277
:1003300000730000005000510052004F00000045C3
:100340000001003A003B003C003D003E0000003F41
:100350000040004100420043004400010001000150
:1003600000010001004C0000000100280001000114
:1003700000010001000000000000000000007C00FF
:10038000000000000000000000000000000000006D
:10039000000000A60000000000000000000000AA0D
:1003A00000A90000000000000000000000000000A4
:1003B000000000000000000000A800000000000095
:1003C000000000000000000000000000000000002D
:1003D0000000000000000000000000000009025BB7
:1003E00000030100A0FA0904000001030101000953
:1003F00021110100012244000705810308000109C1
:100400000401000203000000092111010001222261
:1004100000070582032000010705030320000109EE
:100420000402000103000000092111010001227BE8
:1004300000070584032000011201000200000008EB
:10044000D80411E60001010200010C036F00350021
:10045000310067006F0000002003530061006C0052
:100460006900630079006C00690063002D00610081
:1004700063006900640033000000040309041124D0
:100480001FBECFEFDAE0DEBFCDBF11E0A0E0B1E0EC
:10049000E0E5FDE302C005900D92A436B107D9F75F
:1004A00022E0A4E6B1E001C01D92A832B207E1F754
:1004B0000E9443190C94541E0C940000482F209164
:1004C00024029091EB0157E0291302C080E00895C7
:1004D00030E0529FF001539FF00D1124E451FE4F84
:1004E0008181681306C08081481303C08581811112
:1004F000EECF2F5F3F4F2770E7CFE8EDF0E0808130
:100500008E7F80831092E2001092DA001092E10058
:10051000A0EEB0E08C9181608C9380818F77808396
:1005200019BCA7EDB0E08C918E7F8C9380818F7E7B
:1005300080831092D40108952091E4003091E50069
:1005400095E6A9012091EC00822F817020FF06C062
:100550008091E80080FF06C080E008952091E800C7
:1005600022FD1AC08091E101882389F0853089F04D
:100570008091EB0085FD0FC02091E4003091E500F3
:1005800042175307F9F29150E1F684E0089582E0B2
:10059000089583E0089581E008958091E30187FF45
:1005A00013C08091E80082FF06C08091E8008B773D
:1005B0008093E80004C08091E1018111F2CF089599
:1005C0008091E1018823D9F38091E80080FFF8CF82
:1005D0008091E8008E77ECCF982F9093E900242F3C
:1005E000762F50E0891731F07091EC002091ED00EA
:1005F0005091F00021FD07C09F5F973071F7809305
:10060000E90081E008953091EB003E7F3093EB00EC
:100610003091ED003D7F3093ED003091EB00316083
:100620003093EB007093EC002093ED005093F000BA
:100630002091EE0027FDE0CF80E00895B0E0A0E03B
:10064000E4E2F3E00C94B41DC8EDD0E088818F7E25
:100650008883E7EDF0E080818160808384E082BF61
:1006600081E08093D40188818E7F888302EE10E040
:10067000F80110821092DA0081EEC82ED12CF6011A
:10068000108288818F7788838881806888838881B9
:100690008F7D888319BC1092E1011092E2011092C3
:1006A000E0011092DF0190EEE92EF12CF70180813C
:1006B0008B7F808388818160888342E060E080E076
:1006C0000E94EC02F60180818E7F8083F801808198
:1006D00081608083808188608083F70180818E7F44
:1006E0008083888180618883CDB7DEB7E8E00C9491
:1006F000D01DFC018091E9019091EA0186179707CE
:10070000A0F06115710529F49091E8009E7790930F
:10071000E80090E06115710551F4911108C08091D5
:10072000E80082FF34C080E00895BC01F2CF8091E0
:10073000E1018823C1F18530C1F18091E80083FD9A
:1007400030C08091E80082FDEACF8091E80080FF10
:10075000E1CF8091F3002091F200382F61157105EF
:1007600019F02830310558F091E02830310509F0B2
:1007700090E02091E8002E772093E800CBCF819184
:100780008093F100615071092F5F3F4FE7CF809157
:10079000E101882341F0853041F08091E80083FF3A
:1007A000BECF81E0089582E0089583E00895089522
:1007B0008091D601089587E797E790930108809389
:1007C000000888E19AE00FB6F894A895809360003D
:1007D0000FBE90936000FFCF9C014FB7F8948091BB
:1007E000D0019091D101A091D201B091D3014FBF1E
:1007F000821B930B08952FB7F8948091D0019091AC
:10080000D101A091D201B091D3012FBF08959C01D5
:10081000FC0132969FEF80E04191461751F09F3FD7
:1008200019F4411101C0982F8F5F8630A9F79F3FBF
:1008300009F40895290F311D97FD3A95F901628356
:100840000895A3E0B0E0E7E2F4E00C94BA1D209133
:10085000CD013091CE0128173907A1F09093CE0138
:100860008093CD01E091CB01F091CC01309751F014
:1008700024E029839B838A830084F185E02DCE01C7
:10088000019609952396E2E00C94D61DA3E0B0E012
:10089000ECE4F4E00C94BA1D2091C9013091CA0136
:1008A00028173907A1F09093CA018093C901E091FC
:1008B000CB01F091CC01309751F023E029839B8349
:1008C0008A830084F185E02DCE0101960995239657
:1008D000E2E00C94D61DE091CB01F091CC01309771
:1008E00029F00190F081E02D0995089580E00895A8
:1008F0000E94FB039C019091C5018091C601982B39
:1009000021F03093C2012093C1019091C7018091E1
:10091000C801982B21F03093C0012093BF01E091D2
:10092000CB01F091CC01309749F082E08093C30174
:100930000680F781E02D83EC91E009950895809180
:10094000BE0180FD16C081FD16C082FD16C08091DB
:10095000BD018823A1F0883280F428E0829FC00185
:10096000112468E270E00E94891D862F672B39F000
:10097000089582E0089584E0089588E0089581E074
:1009800008958091BE0180FD14C081FD14C082FDD8
:1009900016C08091BC01882381F08E3180F420E55F
:1009A000829FC00111246EE170E00E94891D862F94
:1009B000089584E1089588E2089588E0089580E527
:1009C0000895282F35EB2303C001112497FF04C09D
:1009D00080589109892F089580589F4FFBCF80E060
:1009E0000895F894E82FE295EF70F0E031A1282FF8
:1009F0002F7081E090E001C0880F2A95EAF7982FC8
:100A00009095932391A392A1892B82A37894089522
:100A10009091A80192FF10C041E0282F247124304A
:100A200009F040E031E0282F2871283009F030E04B
:100A3000431711F02CE0822793FF10C041E0282FCC
:100A40002471243109F040E031E0282F2871283149
:100A500009F030E0431711F02CE082273091A90112
:100A600030FF10C051E0282F2171213009F050E0F3
:100A700041E0282F2871283009F040E0541711F088
:100A800029E0822731FF10C041E0282F2171213158
:100A900009F040E031E0282F2871283109F030E0DA
:100AA000431711F029E0822794FD877E089582384C
:100AB0009105B9F1B0F48133910509F47DC048F492
:100AC0008932910509F46DC08A32910509F47BC021
:100AD00008958533910509F45FC08933910509F1C3
:100AE0000895833E9105D9F138F4803E910529F1AE
:100AF000823E910579F10895863E9105D9F1873EB0
:100B0000910509F43EC0843E910541F52091A9016B
:100B100021FF24C08091A80184FD19C087EE90E0D8
:100B200008952091A801237009F05AC02091A901CD
:100B300023FF14C089E290E008952091A80120FDD0
:100B400038C03091A90130FF09C024FF43C090E0B4
:100B500080E008952091A80122FDF7CF089520910B
:100B6000A80122FD3AC03091A90130FD39C024FF0F
:100B7000F5CFEDCF2091A80123FFF0CF24FDE7CFE3
:100B8000CDCF2091A80123FD2EC03091A90131FFC6
:100B9000EECF84EE90E008952091A80125FFDECFEE
:100BA000C9CF2091A80125FD21C02091A90123FFD3
:100BB000D5CF89E390E0D2CF2091A80126FFCECFF8
:100BC0008AE290E008952091A80126FFC7CF81E333
:100BD00090E0089583EE90E0089582EE90E008950D
:100BE00080EE90E0089586EE90E0089585E390E031
:100BF00008951F93CF93DF930E945705EC01C11511
:100C000080E5D807F0F5C11580E4D80708F09CC04E
:100C1000C03ED10520F5CD3CD10508F082C0C83AD0
:100C2000D10578F4C53AD10508F073C0C130D105BB
:100C300019F1209709F1C430D105F0F4D0E0C0E0FB
:100C40001BC0C33CD105D0F7C85AD0E0CC0FDD1F84
:100C5000C25FDE4F0990D881C02DD4640DC0C1158C
:100C600080E2D80708F0D1C0C11581E0D80708F0AC
:100C70005AC0C83ED10510F7CE01DF91CF911F9128
:100C80000895C03682E5D80718F5C03482E5D80744
:100C900008F06BC0C03282E5D80708F05FC0C1150C
:100CA00082E5D80708F497C02C2F2695269580E278
:100CB000289F900111248C2F8370C1E0D0E002C0E6
:100CC000CC0FDD1F8A95E2F7C22BD32BDD68D4CF82
:100CD000C03A82E5D80760F4C03882E5D80708F446
:100CE00059C0CF71D0E0DC2FCC27C46FD06AC4CFFD
:100CF000C03C82E5D80708F462C0C03E82E5D80750
:100D000008F09CCFDC2FCC27CC27DF71C06FD06AD6
:100D1000B3CFC55AD0E0C55FDE4FC881D0E0D06404
:100D2000ABCFD065A9CF8D2F0E940805182FCE011B
:100D300099270E945705C12FD0E0DC2FCC27CC2764
:100D4000DF71C82BD92B98CFCE0199270E94570568
:100D5000CC27DF70C82BD92BD06A8ECFCF71D0E0D3
:100D6000DC2FCC27C16FD06A87CF2C2F26952695F4
:100D7000277080E2289F900111248C2F8370C1E09E
:100D8000D0E002C0CC0FDD1F8A95E2F7C22BD32B37
:100D9000DC6872CF2C2F26952695277080E2289F3D
:100DA000900111248C2F8370C1E0D0E002C0CC0FE1
:100DB000DD1F8A95E2F7C22BD32BDA685DCF8C2F2B
:100DC0008F710E940805C82FD0E0DC2FCC27CC27DC
:100DD000DF71D06251CF8C2F8F710E94080555E0D2
:100DE000D695C7955A95E1F7CF70D0E0DC2FCC2788
:100DF000282F30E084FF05C044E0220F331F4A95BE
:100E0000E1F7C22BD32BD06937CF8D2F8F710E9482
:100E10000805182FCE0199270E945705C12FD0E051
:100E2000DC2FCC27CC27DF71C82BD92BD2CF8095D4
:100E300090919801982390939801089580912402AD
:100E40009091EB01981301C008958F5F8770FACFDE
:100E5000292F943078F58D3068F590E03DE0239FA0
:100E6000800D911D1124682F677023E0969587955A
:100E70002A95E1F7FC01EE0FFF1FE80FF91FEF586D
:100E8000FE4F50E040E080E0219130E0062E02C0AD
:100E9000369527950A94E2F721703327042E01C076
:100EA000220F0A94EAF7822B4F5F5F4F43305105C0
:100EB00059F7089580E00895292F943098F58D30E2
:100EC00088F590E03DE0239F800D911D1124282F8F
:100ED000277041E001C0440F2A95EAF723E0969578
:100EE00087952A95E1F7FC01EE0FFF1FE80FF91F28
:100EF000EF58FE4F30E020E070E05191DF01119794
:100F0000CB01022E02C0969587950A94E2F7817074
:100F100081958527842385278C932F5F3F4F23302E
:100F2000310559F708958093A70108959091A7017D
:100F300021E030E0F90101C0EE0F8A95EAF7D9010E
:100F400002C0AA0FBB1F6A95E2F7EA2B01C0220F6D
:100F50004A95EAF7892F8E23E81305C0292B822FA3
:100F60000E949307089520952923F9CF21E030E0CE
:100F700001C0220F8A95EAF720958091A70182236C
:100F80000E949307089590918D0180958923809305
:100F90008D01282F277069F4891759F09091A901C4
:100FA00092FF07C08695869586950E94B607109297
:100FB0008D01089521E030E001C0220F8A95EAF703
:100FC0008091A701822B0E94930708958093A60128
:100FD00008954091C5019091C7012091C8016623F1
:100FE00009F469C0942B922B2091C601922B31F009
:100FF00098E09093BC0191E09093BD018D3C41F449
:101000000E94C10481958093C6010E9478040895CE
:101010008E3C19F40E94C104F6CF8F3C31F40E943B
:10102000C10481958093C501F0CF803D19F40E94E1
:10103000C104F8CF893D29F40E949F048093C70121
:10104000E4CF8A3D21F40E949F048195F7CF8B3D28
:1010500031F40E949F0481958093C801D6CF8C3DC6
:1010600019F40E949F04F8CF9FE2980F983070F413
:10107000815D990B21E030E001C0220F8A95EAF7EB
:101080008091C401822B8093C401BFCF8D3D31F488
:101090008091BE0181608093BE01B7CF8E3D21F467
:1010A0008091BE018260F7CF8F3D09F0AECF809175
:1010B000BE018460F0CF8D3C59F48091C60187FF5A
:1010C0000DC01092C60141110BC01092BC0108C0A6
:1010D0008E3C81F48091C60118169CF3442381F064
:1010E0008091C7019091C801892B09F08ECF109291
:1010F000BD018BCF8F3C49F447FFF0CF1092C50163
:101100008091C6018111ECCFE0CF803D19F4141617
:10111000ACF3E4CF893D29F4191604F71092C70106
:10112000DDCF8A3D19F497FFD9CFF8CF8B3D29F455
:1011300027FFD4CF1092C801D1CF8C3D19F41216DD
:10114000CCF3CCCF9FE2980F983090F4815D990B4F
:1011500021E030E0B90102C0660F771F8A95E2F7FF
:10116000CB0180959091C40189238093C401B6CFAF
:101170008D3D31F48091BE018E7F8093BE01AECF54
:101180008E3D21F48091BE018D7FF7CF8F3D09F018
:10119000A5CF8091BE018B7FF0CF0F931F93CF938C
:1011A000DF938B01EA019091E101943061F5809326
:1011B000E9008FEF9091E800815095FD06C095ED14
:1011C0009A95F1F700008111F5CF8091E80085FF35
:1011D0001AC00E949C02811111C08091E80085FD17
:1011E00006C08091E8008E778093E800F2CFF80186
:1011F00081918F018093F100219779F78091E80028
:101200008E778093E800DF91CF911F910F91089521
:1012100043E050E0BC0184E00E94CD08089546E020
:1012200050E0BC0184E00E94CD080895CF93DF9385
:10123000EC0148E050E0BC0181E00E94CD0888E06C
:10124000FE01A7EDB1E001900D928A95E1F7DF91E3
:10125000CF910895CF93C82F6FEF811164E285E29B
:1012600090E00E94131E6FEFC11163E086E290E0F0
:101270000E94131E6FEFC11164E087E290E00E94AC
:10128000131ECF910895CF93DF93C1E0D3E060E0C8
:10129000CE010E94131E2196C11584E0D807B9F72C
:1012A000DF91CF9108951F93CF93DF93122F873053
:1012B000E0F46430D0F44D30C0F4C42FD0E0CC0F53
:1012C000DD1F9AE1699FC00DD11D112498E6899F09
:1012D000C00DD11D1124632FCE0189960E94131ECB
:1012E000612FCE018A960E94131EDF91CF911F912C
:1012F0000895B0E0A0E0EFE7F9E00C94B41D9DE3A1
:10130000E92E92E0F92ED12C8701C12C1CC04C2F64
:1013100083E021E030E08D1540F0FE01EE0FFF1F6D
:10132000E00FF11F859194919C016C2D8D2D0E94F1
:1013300053092196CD30D10551F7C394065E1F4F56
:1013400084E0C81619F0D0E0C0E0E1CFD39488E67D
:10135000E80EF11C87E0D812D7CFCDB7DEB7E8E0B2
:101360000C94D01D80E00E942A0960E088E290E0A1
:101370000E94131E0E9479090E94430981E00E9485
:101380002A09089585E290E00E94F51D843289F4CF
:1013900086E290E00E94F51D833059F487E290E0E8
:1013A0000E94F51D91E0843009F090E0892F817052
:1013B000089580E0FCCF0F931F93CF93DF93873086
:1013C00030F5643020F54D3010F5C42FD0E0CC0F4F
:1013D000DD1F2AE1629FC00DD11D112438E6839FD5
:1013E000C00DD11D1124CE0189960E94F51D082F34
:1013F00010E0102F0027CE018A960E94F51D98015B
:10140000282BC901DF91CF911F910F91089590E092
:1014100080E0F8CF462F743040F46D3030F48730E0
:1014200020F4672F0E94DB09089590E080E0089582
:10143000CF92DF92FF920F931F93CF93DF936C01B4
:101440000091A7018091A601082BC6E0D0E010E032
:10145000FC2EC8010C2E02C0959587950A94E2F7E0
:1014600080FD0CC02197A0F7F12C8F2DDF91CF913B
:101470001F910F91FF90DF90CF900895B6018C2FB0
:101480000E940A0A0E94F905019761F3EECFCF93FB
:10149000DF93EC010E94180ABE010E940A0A0E9412
:1014A000F905DF91CF910895FC0124812223C1F039
:1014B000808191810E94470A92959F70963091F0A9
:1014C00058F4925F9F70923058F4803F19F030F4D6
:1014D000883E30F481E008959A5FF4CF843FD1F3E1
:1014E00080E00895883EB0F3813FD1F7F3CFA6E0C6
:1014F000B0E0EDE7FAE00C94B91D49835A834981C5
:101500005A819923A1F0222391F0CA010E94180A5E
:10151000182F682F89819A810E945C0769817A81DE
:10152000812F0E940A0A2696E3E00C94D51DCA0179
:101530000E942807182FF2CF9091A90192FB222731
:1015400020F9281779F080FB92F99093A901609116
:10155000A8017091A90184E090E00E94311E82E010
:101560000E94C30708952091980180918F01282B34
:1015700080918E01882381F0282B30E088E691E06D
:10158000FC014191CF0141113F5FF1E08E369F0791
:10159000B9F7311110928E012093660148E050E0B6
:1015A00060E971E086E691E00E94471E892BA9F070
:1015B00088E0E6E6F1E0A0E9B1E001900D928A95BD
:1015C000E1F7E091CB01F091CC01309731F002804E
:1015D000F381E02D86E691E009950895CF9310926E
:1015E0009801C6E0E8E6F1E0DF018C2F1D928A95B4
:1015F000E9F790E080E00E94460490E080E00E94DD
:10160000210410928F010E94B30AE3ECF1E0DF01A4
:101610001D92CA95E9F71092BC011092BD0110927B
:10162000BE010E947804CF910895AAE2B0E0EBE1F8
:10163000FBE00C94B91D83EE91E02091F100DC01F8
:101640002D93CD01B1E08B3E9B07B9F78091E4016A
:10165000833009F472C0B8F4813009F449C0823093
:1016600009F4B3C08091E80083FF8BC28091E3014D
:101670009091E4019A3008F084C2E92FF0E0EA5A30
:10168000F14E0C949D1D8A3009F48EC08B3009F404
:1016900071C0893039F78091E301813219F7809167
:1016A000E7019091E801009711F00297D9F6809137
:1016B000E800877F8093E8008091E80082FF38C0CF
:1016C0009091F3008091F200029731F48091F10043
:1016D000813011F0863021F48091F1008093D601A1
:1016E0008091E8008B778093E8000E94CD02BACF0A
:1016F0008091E301813A09F0B5CF8091E800877FBE
:101700008093E8008091E7019091E801892B61F4D2
:1017100068E087ED91E070E00E9479038091E80035
:101720008B778093E8009ECF60E090E080E0F3CF7D
:101730008091E1018111C0CF95CF8091E301813A81
:1017400009F090CF8091E7019091E801892B09F091
:1017500089CF8091E800877F8093E8008091E8003E
:1017600080FFFCCF80910A018093F1008091E80016
:101770008E77B9CF8091E301813209F073CF8091E8
:10178000E7019091E801892B09F06CCF8091E80086
:10179000877F8093E8000E94CD028091E5018093CD
:1017A0000A010E94EE0A5ECF8091E301813209F0C6
:1017B00059CF8091E800877F8093E8000E94CD0296
:1017C0008091E6018093D5014DCF8091E301813A6C
:1017D00009F048CF8091E800877F8093E8008091EE
:1017E000E80080FFFCCF8091D501BECF803899F012
:1017F000823809F0C6C18091E7018F70873008F008
:10180000C0C18093E9008091EB0085FB882780F9B7
:101810001092E90006C08091DF019091E0019111E2
:1018200082609091E800977F9093E8008093F100A8
:101830001092F1008091E8008E779FC1882309F40F
:101840008DC1823009F09DC18091E501811190C167
:101850008091E7018F702FEF280F263008F091C19B
:101860008093E9002091EB0020FF82C1933031F496
:101870008091EB0080628093EB007AC19091EB0045
:1018800090619093EB0021E030E001C0220F8A9537
:10189000EAF72093EA001092EA008091EB0088605A
:1018A000EACF81116EC11091E5011F778091E300AD
:1018B0008078812B8093E3008091E800877F80937C
:1018C000E8000E94CD028091E80080FFFCCF80916B
:1018D000E30080688093E30082E0111183E080934D
:1018E000E1014FC18058823008F04BC12091E501E1
:1018F0003091E6012C3DE3E03E07A1F583E08A83C9
:101900008AE289834FB7F894DE01139620E03EE027
:1019100051E2E32FF0E050935700E49120FF03C021
:10192000E295EF703F5FEF708E2F90E0EA30C0F0ED
:10193000C7968D939D932F5F243159F74FBF8091A8
:10194000E800877F8093E8006AE270E0CE010196AC
:101950000E9479038091E8008B778093E80011C1A1
:10196000C096E7CF8091E7019091E801432F55277A
:101970004330510509F44AC078F54130510509F466
:101980007AC08BE590E0EDEDF3E04230510509F0CF
:10199000F8C02091E800277F2093E8002091E9011A
:1019A0003091EA018217930708F49C0140E0211569
:1019B000310509F065C0411163C08091E80082FDE6
:1019C000C9CF8091E101882329F2853019F28091F5
:1019D000E80083FFF2CFBECF4132510509F43CC08D
:1019E0004232510509F0CDC08330910508F0C9C0DD
:1019F000FC01EE0FFF1FE85AFE4F0190F081E02D31
:101A00008B5A9E4FDC018C9190E01AC03327213015
:101A10003105D1F02115310561F02230310509F091
:101A2000B0C0EAE4F4E0E4918E2F90E0EAE4F4E060
:101A300007C0EAE7F4E0E4918E2F90E0EAE7F4E0F3
:101A4000009709F49EC0A5CFE8E5F4E0E4918E2F5D
:101A500090E0E8E5F4E0F4CF8330910508F091C020
:101A6000880F991FFC01E25AFE4F0190F081E02D92
:101A700089E090E08ECF82E190E0E8E3F4E089CF66
:101A80008091E101882309F465CF853009F462CFA4
:101A90008091E80083FD5ECF8091E80082FD8DCFCC
:101AA0008091E80080FF83CF9091F3008091F20055
:101AB0002115310519F08830910550F041E0089763
:101AC00009F040E08091E8008E778093E8006FCFC6
:101AD00044914093F1003196215031090196E8CFAD
:101AE000803809F04EC08091E800877F8093E8003D
:101AF0008091E2018093F1009DCE811142C010914E
:101B0000E5011230F0F58091E800877F8093E800CE
:101B10001093E2010E94CD02112311F084E005C070
:101B20008091E30087FDFACF81E08093E10142E0FC
:101B300061EC81E00E94EC0242E261EC84E00E94F0
:101B4000EC0242E261EC82E00E94EC0242E260ECD4
:101B500083E00E94EC028091E10113C08091E501D5
:101B6000813079F481E0933009F080E08093E001E6
:101B70001092E9008091E800877F8093E8000E943E
:101B8000CD028091E80083FF0AC08091E800877F42
:101B90008093E8008091EB0080628093EB00AA962E
:101BA000E3E00C94D51D0E94EE0A2FEF84E39CE045
:101BB000215080409040E1F700C0000088E19AE0A9
:101BC0000FB6F894A895809360000FBE90936000C4
:101BD000FFCF882321F00E9417070E94B30A0895BF
:101BE000882339F090919801982B909398010E9446
:101BF000B30A08958823D1F19CEF980F913A78F4B5
:101C0000E8E6F1E09191891303C0DF0111971C927E
:101C100091E0EE36F907B1F70E94B30A089590E219
:101C2000980F983050F4877091E001C0990F8A9511
:101C3000EAF7892F0E941707EFCF9BE5980F9330A3
:101C400028F490E080E00E944604089598E5980FFB
:101C50009B3128F490E080E00E942104089593E3F2
:101C6000980F933118F460E00E94E9070895CF932C
:101C7000C82F8823B1F08CEF8C0F813A00F5E8E68D
:101C8000F1E08EE691E0DF012D91C21761F08A1735
:101C90009B07D1F76C2F86E691E00E9407040E9413
:101CA000B30ACF9108952191C21303C0DF011197A8
:101CB0001C928E179F07B9F70E94B30AEBCF80E200
:101CC0008C0F883068F4C77021E030E001C0220F2B
:101CD000CA95EAF780919801822B80939801DFCF13
:101CE000EBE5EC0FE33040F4F0E0E55FFE4F808180
:101CF00090E00E944604D5CFE8E5EC0FEB3150F4BC
:101D0000F0E0EE0FFF1FE25FFE4F808191810E94A5
:101D10002104C7CF83E38C0F833118F661E08C2F49
:101D20000E94E907BECFA8E0B0E0E9E9FEE00C942C
:101D3000AC1D8E010F5F1F4F88E0F80111928A954C
:101D4000E9F794E4E92E91E0F92E680128E4422EA7
:101D500021E0522E66246394712C45E5842E41E0E7
:101D6000942EF70181917F018F3F09F445C0F894CB
:101D7000E82FE295EF70F0E021A18F70A30102C07F
:101D8000440F551F8A95E2F7CA01922F982B91A311
:101D900092A18095892382A3789400C0E8E4F1E0C1
:101DA00021E030E0B12CA12C41914F3F09F44BC010
:101DB000A42FA295AF70B0E090968C9190E04F70F8
:101DC00002C0959587954A95E2F780FD3CC0C90110
:101DD000A82AB92A220F331F8E169F0629F7F7016A
:101DE000319780818F3F11F00E94F10450EA5A959B
:101DF000F1F7F601B182A082F2E0CF0ED11C4E14B1
:101E00005F0409F0AECF48E050E0B8018EE991E000
:101E10000E94471E892BE1F088E0F801AEE9B1E0AD
:101E200001900D928A95E1F781E080939D010E94D7
:101E3000FB0390939C0180939B0110E0812F2896D7
:101E4000E0E10C94C81D90E080E0C2CF10E01FC01C
:101E500010919D01112389F380919B0190919C0128
:101E60000E94EC03059748F348E050E06EE971E00A
:101E700084EB91E00E94471E892B41F388E0EEE954
:101E8000F1E0A4EBB1E001900D928A95E1F7109298
:101E90009D01D4CF1F93CF93DF93182FEB010E94A6
:101EA000370E209739F4812F0E94FA0DDF91CF91E0
:101EB0001F9108958FE99FE00197F1F700C000009E
:101EC0002197EFCF0F931F93CF93DF93C62FD42F7C
:101ED000022FFC0185818823A9F0609327020E94CC
:101EE000FB039093260280932502C77081E001C016
:101EF000880FCA95EAF70E94F00DDF91CF911F91EC
:101F00000F91089580912702681334C080912502B3
:101F1000909126020E94EC03843B910558F510E253
:101F20001D0FCD17B9F080E28C0F883040F4C770D8
:101F300081E001C0880FCA95EAF70E94E90D1830C8
:101F400048F481E09D2F977001C0880F9A95EAF7B9
:101F50000E94F00D70E060E0802F0E944A0F183060
:101F600060F6D77081E001C0880FDA95EAF70E9429
:101F7000E90DC3CFC77081E001C0880FCA95EAF7A9
:101F8000F6CFA8E0B0E0E7ECFFE00C94AC1D8C01CC
:101F9000DC0114968C911497882309F4BEC021E0CB
:101FA0004C9111965C91119712966C911297139621
:101FB0007C91139715969C910E94770A7C01F801F9
:101FC0008581882309F455C5970137572038310595
:101FD00008F066C5FFE0FE1508F48FC08FEF93E0B0
:101FE0000E94F51D811189C0AA24A39463E0B62E36
:101FF000E1104DC0FE01339686E0DF011D928A9507
:10200000E9F75AE0452E7501BFEFEB1AFB0AC5014F
:102010000E94F51D89831A82882309F46EC08130DD
:1020200009F07FC06501E2E0CE0ED11CC7010E941D
:10203000F51D8A83882309F460C09FEF980F9330C1
:10204000A0F5F3E0AF0EB11CC6010E94F51D8B8315
:10205000882309F452C01C82DE0111967D01F7012C
:102060002081222381F2213009F09DC0918182815B
:10207000913009F058C0F2E0EF0EF11C70E060E022
:10208000893311F460E570E00E944A0F53C0A11437
:1020900024E0B20691F1C5010E94F51D811101C035
:1020A000EA943FEFA31AB30AA3CF56018430A1F6F6
:1020B00042E0E42EF12C56012FEFA21AB20AC6011B
:1020C0000E94F51DE1E0F0E0EC0FFD1FEE0DFF1D9D
:1020D0008083882391F08C3741F4E2E0F0E0EC0F4C
:1020E000FD1FEE0DFF1D1082B7CF3FEFE31AF30A7D
:1020F000650187E0E816F104F1F680918D018770A3
:1021000061F0D80115968C91882339F08091A9014E
:1021100082FF03C082E00E94C3072896E0E10C948E
:10212000C81D570199CF923049F422E0E20EF11C0C
:102130000E94370E9FEFE91AF90A91CF933031F4DC
:1021400032E0E30EF11C0E94FA0DF4CF943021F03E
:102150008FEFE81AF80AEECF92E0E90EF11C30E0BA
:1021600020E0B7016F5F7F4FD70111964C918053EC
:10217000990B8A30910560F021153105D9F2EFE90C
:10218000FFE03197F1F700C0000021503109F4CF92
:10219000429EF001439EF00D11249C012E0F3F1F23
:1021A000842F7B01DECFE22FF0E0E354FE4F54900A
:1021B000822F86958695869590E0FC01E355FE4F2B
:1021C00064902770712C022E02C0759467940A9453
:1021D000E2F7F1E06F227724FC01E356FE4F849092
:1021E000912C022E02C0959487940A94E2F731E074
:1021F00083229924FC01E357FE4FC490D12C02C0E6
:10220000D594C7942A95E2F781E0C822DD246114B1
:10221000710419F081EE0E94370E8114910419F0B7
:1022200086EE0E94370E70E060E0852D0E944A0F16
:102230008114910419F086EE0E94FA0D6114710464
:1022400019F081EE0E94FA0DC114D10409F472CF85
:1022500070E060E08CE218CF91E090936E011092F4
:102260002702970130572332310508F0EAC384E092
:1022700090E00E94FD1D9093A9018093A801F701B1
:10228000E150F047E232F10508F0C1C0E05AF14EEA
:102290000C949D1D10926E01A7E7EA16ACE7FA06B2
:1022A00009F474C1B8E7EB16BCE7FB0609F47DC17D
:1022B000882399F0E3E0EE16ECE7FE0609F49AC1F4
:1022C00008F079C1E1142CE7F20609F486C131E087
:1022D000E3163CE7F30609F493C1F8018581E08039
:1022E000F180882309F49AC1C7010E94180AD82EE8
:1022F000682FC7010E945C07B7018D2D0E940A0A52
:102300000E94F9057C01882ED8011596AC9015978E
:1023100016969C9092943FE0932280918D01877055
:1023200009F1DA2CAA20F9F08F2D807F803469F032
:1023300080E28E0D8830B0F08F2D807E803229F4BF
:10234000B1E0BE1578F4992069F08091A90182FF6F
:1023500009C082E00E94C30780918D018770DD244F
:10236000D3948111D12CCF2CC2942FE0C222EBE068
:10237000EC1508F4C2C1EC2DF0E0EE57F14E0C94D0
:102380009D1D80916E01882339F080EE0E94FA0D28
:1023900089E20E94370EB1CE81E3FBCF26E241EE07
:1023A00061EEC8010E94620FA8CE27E245EE65EEFD
:1023B000F8CF26E241EE60EEF4CF27E245EE64EE80
:1023C000F0CF26E241EE62EEECCF27E245EE66EE7C
:1023D000E8CF28E241E0EBCF811141CFE6E1EE16F4
:1023E000ECE7FE0609F058CF80916F018111CCC057
:1023F00089E2E8E6F1E02EE631E09191891303C02D
:10240000DF0111971C922E173F07B9F72FC3809158
:10241000A80181608093A80195C08091A90188607E
:102420008093A9018FC08091A8018260F3CF809131
:10243000A8018460EFCF8091A8018860EBCF8091E4
:10244000A9018160EDCF8091A9018260E9CF8091DF
:10245000A8018061DFCF8091A8018062DBCF8091ED
:10246000A8018064D7CF0E94EE0A8091A8018068FD
:10247000D1CF8091A8018C60CDCF8091A9018360DC
:10248000CFCF8091A8018E7FC5CF8091A901877F92
:10249000C7CF8091A8018D7FBDCF8091A8018B7F90
:1024A000B9CF8091A801877FB5CF8091A9018E7F98
:1024B000B7CF8091A9018D7FB3CF8091A8018F7E86
:1024C000A9CF8091A8018F7DA5CF8091A8018F7B96
:1024D000A1CF0E94EE0A8091A8018F779BCF8091B7
:1024E000A801837F97CF8091A9018C7F99CF80919C
:1024F000A80182FB992790F921E0922790FB82F9AD
:1025000090FB83F987CF8091A901982F90959170C6
:102510008E7F892B90FB81F983CF9091A801892F21
:102520008F7B96FF806476CF0E94EE0A9091A8017F
:10253000892F97FB87F980586DCF61E08EE090E09E
:102540000E94131E6091A8017091A90184E090E09F
:102550000E94311E0E94EE0AD0CD60E0EFCF909134
:10256000A801892F8F7E94FF806154CF9091A8019C
:10257000892F8E7F90FF81604DCF9091A901892F87
:10258000877F93FF88604CCF85E333CF882349F062
:1025900081E00E94DA0743E062E081E00E94960752
:1025A000ACCD81E00E94B607F6CF882311F082E01F
:1025B000F0CF82E0F7CF8BE5E8168CE7F80661F103
:1025C0009CE5E9169CE7F906E9F0AAE5EA16ACE70E
:1025D000FA0609F082CE81E01CC00E94EE0ABFEF2D
:1025E000E4E3FCE0B150E040F040E1F700C000005F
:1025F0000E94DB036FEF7FEF90E080E00E94311ECE
:102600000E94D30D8091A90182FB882780F991E077
:1026100089270E949C0A61CE80E0FBCFC7010E94FF
:102620002807D82E69CEFF2DFF70BF2E8F2D807FFB
:1026300019F0B29490EFB922AA20B9F0BB2069F04A
:1026400080E28E0D883010F0811009C080919801D1
:10265000B82AB09298010E94B30A8E2D4CC0809186
:102660008F01B82AB0928F01F6CF8E2D0E94FA0DFD
:10267000BB2009F442C080E28E0D883010F081103A
:1026800004C08B2D0E94170706C0B09480918F0163
:10269000B822B0928F010E94B30A2FC02F2D2F7045
:1026A000B22E8F2D807F803219F0B29480EFB82245
:1026B000882089F031E0831609F488C0AA2009F443
:1026C00094C0992009F455C0F801868180FFC5CFD8
:1026D0008F7086834EC08091A90182FD46C0AA20DA
:1026E000F1F1BB2039F0809198018B2980939801FA
:1026F0000E94B30A80E00E94370EAC2DA850BB0B9D
:10270000149710F40E946B04DD20A9F080918D01D4
:1027100080FD11C0F80115828695869586950E94E8
:10272000DA07C8010E94C10F80918D0186958695B8
:1027300086950E94B60720E0D8014C9111965C91D5
:10274000119712966C91129713967C911397149689
:102750008C91149715969C910E94770ADECC80E0AC
:102760000E94FA0DBB2049F28CCFAA20A1F0911053
:1027700004C08B2D0E94F00DC0CF81E09812BDCF18
:1027800080918E019B2D9823B91609F4B6CF8B2921
:1027900080938E01B2CF9110B0CF8B2D0E94E90DA6
:1027A00090918E018B2D892329F08B2D8095892383
:1027B00080938E01909170018B2D892309F49DCF18
:1027C0008B2D809589238093700197CFAA2029F0C3
:1027D00095E0991508F491CFCCCFA4E0A91508F4A1
:1027E0008CCF8B2D0E94E90D88CF9920D1F3F9E38E
:1027F0008F1209C02FEF37EE83E021503040804028
:10280000E1F700C000008E2D0E94FA0D76CF8F2DCB
:1028100086958695837061F0813009F06ECFC7018F
:102820009370A11002C080E090E00E94210465CF67
:10283000C7019370A11002C080E090E00E9446049E
:102840005CCF6A2D8E2D0E94E90757CF8F2D8370A4
:1028500091F5A11052CF4E2D429546954770440FE9
:10286000440F8E2D8F70042E01C0880F0A94EAF752
:102870002E2D2071E4FE07C02FE030E001C0220FB2
:102880004A95EAF720953F2D3695369533703230CC
:1028900069F050F44091A601313029F0822B842355
:1028A0000E94E6072ACF842B822BFACF282B809117
:1028B000A6018227F5CF8695AA2011F08F2D817071
:1028C000882309F41ACF4E2D429546954770440F40
:1028D000440F8E2D8F70042E01C0880F0A94EAF7E2
:1028E0002E2D2071E4FE07C02FE030E001C0220F42
:1028F0004A95EAF720953F2D36953695337032305C
:1029000069F050F44091A701313029F0822B8423E3
:102910000E949307F2CE842B822BFACF282B809132
:10292000A7018227F5CF9F2D9F70F92EAA2029F0AD
:10293000892F0E94DA078E2D1DCF8E2D0E94E90D62
:102940008F2D0E94B607D9CE8E2DA2EF8A16B1F137
:10295000A81570F0B0EF8B16D1F0E1EF8E1691F064
:10296000AA2009F45EC0911078CE8F2D8F712AC0F5
:10297000F3EF8F1651F124EF8212F2CF8091A9016B
:1029800082FD2FC08F2D8F71AA20D9F21BC0AA20E3
:1029900081F034E0391508F4B0CE2F2D2F7181E08D
:1029A00090E001C0880F2A95EAF79091A701892746
:1029B000AFCF85E0891508F4A0CEEFCF8F2D8F71B2
:1029C000A110BFCF0E94DA0798CE80E0AA2009F4B8
:1029D0009FCF9F2D9F7181E001C0880F9A95EAF7E4
:1029E00097CFAA2099F09F2D9F71F92E892F0E94D1
:1029F000DA078091A90182FF07C0A8E0FA9EC00112
:102A00001124836080938D018F2DDCCF81E00E94A3
:102A1000C307B1E0B91508F070CE82E00E94C30789
:102A20006CCE992059F0893309F0EDCEEFEFF7EE37
:102A300023E0E150F0402040E1F7E3CE8F2D8F718D
:102A400080CFB6E1EB16BCE7FB0609F025CC809100
:102A500098018A7A91E009F490E090936F0169E21D
:102A6000811165E386E691E00E9407040E94B30AA3
:102A700044CBF0EEEF16F10409F40CCC20E4E2169E
:102A80002EE7F206C1F489E20E94FA0D81E30E946A
:102A9000FA0D80916E01882309F42FCB80EE79CC5A
:102AA00030EEE316F10409F4D7CB90E4E9169EE783
:102AB000F90609F466CCF701E851FC47E730F10567
:102AC00008F08ACCE257F14E0C949D1DCF93DF9312
:102AD00080918C01807F09F04DC080918B0188230B
:102AE00009F448C0E09124025091EB01C0918701A4
:102AF000D0918601609188017091890147E05E174D
:102B0000C9F18E2F90E0E49FF0011124E451FE4FB3
:102B10002481222391F1489FF001499FF00D112457
:102B2000DF01A451BE4F11962C9111972C1325C093
:102B30002C912D1322C015962C91159721111DC093
:102B400012962D913C91261B370B243B3105A8F49E
:102B500080918C018F70806180938C01EE50FE4FCC
:102B600080818F708061808386E891E00E94C10F30
:102B70000E941E07DF91CF910895FC013196E77006
:102B8000BECFA4E1B0E0E7ECF5E10C94B01D8C0100
:102B900086E0F801DE011F9601900D928A95E1F71B
:102BA000D80114968C9114971596EC9096E8A92E5E
:102BB00091E0B92E90918A01911128C0882319F1D2
:102BC000EE20F1F0C8010E94540AF82E8823C1F0CB
:102BD00087E0F801D50101900D928A95E1F7809187
:102BE0008A01813031F480918601909187010E94A1
:102BF000470A0E9466158F2D6496ECE00C94CC1D5C
:102C0000C8010E94C10FFF24F394F5CFF801D080D2
:102C1000C18082809380F0908B0120918801309157
:102C20008901A401421B530BFF2009F4EEC0443B71
:102C3000510508F0AAC08823F1F290918701809194
:102C40008C01282F207F09F062C0C91215C0909115
:102C50008601D91211C0E11049C08F708061809344
:102C60008C0186E891E00E94C10F80918C01D8010F
:102C700016968C93F12CBFCFE11038C06C2D8D2DA2
:102C80000E945E026C2D8D2D0E945E02E82E811145
:102C9000F1CFDF86C88A8F8598890E94470A292F3D
:102CA00022952F70243058F49F70223088F0992399
:102CB00099F0F8019681907F79F4FE2C9CCF2A5FE1
:102CC0002F70223068F0C8010E94C10FEF2CF5CFA1
:102CD000992311F0882389F3805E883070F3F3CF55
:102CE000803F58F3815F833070F7E7CF80918C018C
:102CF000816080938C0186E891E00E94C10F87E09B
:102D0000E6E8F1E0DF011D928A95E9F7B3CFC91239
:102D100013C090918601D9120FC0E1100DC08683B7
:102D2000C8010E94C10F87E0F801A6E8B1E0019058
:102D30000D928A95E1F75FCFC8010E94540A88235B
:102D400009F45ECFEE2009F45BCF80918C018032D4
:102D500088F02091860130918701398728879B86EA
:102D60008A8690918A019C871D868E87CE0108965F
:102D70000E94C10F87E0F801A6E8B1E001900D9232
:102D80008A95E1F70E9466153ECF90918C01292F1C
:102D9000207F39F486E891E00E94C10F87E0D501D9
:102DA000B2CF882309F427CF809187018C1110C0FE
:102DB00080918601D8120CC0E1100AC09683C80128
:102DC0000E94C10F87E0D5011D928A95E9F713CFC4
:102DD000C8010E94540A882309F412CFEE2009F496
:102DE0000FCF80918C01803228F2209186013091A2
:102DF00087013A8329839C828B8290918A019D83EB
:102E00001E828F83CE010196B3CF443B5105F0F46F
:102E1000882309F4F8CEFE2CEE2009F4F1CE80913F
:102E200087018C1105C080918601D81609F47BCFEB
:102E3000C8010E94540A81119DCF80918C0181604C
:102E400080938C01C8010E94C10FD5CE87E0F501A7
:102E500011928A95E9F7CFCEABE1B0E0E2E3F7E17A
:102E60000C94B81D4E8B5F8B688F798F8A8F9B8FE8
:102E7000192F911110928F011D8A86E0FE0176961E
:102E8000DE011F9601900D928A95E1F70A8D0023CD
:102E900041F021E04F85588969897A89C8010E94EB
:102EA000770A0B8B1C8B87E0FE013F96DE0118969C
:102EB00001900D928A95E1F7CE0108960E94C11506
:102EC00081112AC087E0FE013896DE01119601903B
:102ED0000D928A95E1F78C858823F1F02091EB0122
:102EE00030E0C90101968770992740912402481764
:102EF0001906E9F097E0929FD001939FB00D11243D
:102F0000A451BE4FFE01319601900D929A95E1F7C2
:102F10008093EB010E941E0717E08091240290919C
:102F2000EB01891312C06B96E4E00C94D41D0E944F
:102F3000EE0A1092EB011092240287E0E6E8F1E03D
:102F4000DF011D928A95E9F7E7CF819FC001112427
:102F500084519E4F0E94C115882329F38091240239
:102F600090E001968770992780932402D6CFA6E03F
:102F7000B0E0EDEBF7E10C94B81D0E94FB038C016F
:102F80008091990190919A018017910781F019829F
:102F90001A820E94FB03682F49815A81792F80E0B1
:102FA00090E00E942C1710939A01009399012696A5
:102FB000E4E00C94D41D1F920F920FB60F921124CF
:102FC0002F933F934F935F936F937F938F939F9331
:102FD000AF93BF93CF93DF93EF93FF93D091E9002B
:102FE000DF708091EC00C82FC17080FDC0E81092A6
:102FF000E9008091F000877F8093F00078940E9430
:10300000150B1092E9008091F00088608093F00029
:10301000CD2BCF70C093E900FF91EF91DF91CF915D
:10302000BF91AF919F918F917F916F915F914F91E0
:103030003F912F910F900FBE0F901F9018951F92E8
:103040000F920FB60F9211242F933F934F935F93DC
:103050006F937F938F939F93AF93BF93EF93FF9360
:103060008091E10082FF09C08091E20082FF05C0EB
:103070008091E1008B7F8093E1008091DA0080FFF6
:1030800024C08091D80080FF20C08091DA008E7F1C
:103090008093DA008091D90080FF9DC080E189BDD6
:1030A00082E189BD09B400FEFDCF81E08093E1019A
:1030B0008091D401811109C00E947D020E941E03EB
:1030C0008091E20084608093E2008091E10080FFC3
:1030D00017C08091E20080FF13C08091E2008E7FD4
:1030E0008093E2008091E20080618093E200809111
:1030F000D80080628093D80019BC85E08093E101FC
:103100008091E10084FF2BC08091E20084FF27C002
:1031100080E189BD82E189BD89B5982F917080FFDA
:10312000FBCF8091D8008F7D8093D8008091E10003
:103130008F7E8093E1008091E2008F7E8093E20099
:103140008091E20081608093E2008091E201882317
:1031500009F447C084E08093E1018091E10180910E
:10316000E10083FF27C08091E20083FF23C08091AC
:10317000E100877F8093E10082E08093E10110927B
:10318000E2018091E1008E7F8093E1008091E20076
:103190008E7F8093E2008091E20080618093E20064
:1031A00042E060E080E00E94EC028091F0008860E4
:1031B0008093F000FF91EF91BF91AF919F918F911C
:1031C0007F916F915F914F913F912F910F900FBE23
:1031D0000F901F90189519BC1092E1011092D40124
:1031E00074CF8091E30087FD93E09093E101B5CF28
:1031F00078941F921FB61F9211248F939F93AF93C1
:10320000BF938091D0019091D101A091D201B09152
:10321000D3010196A11DB11D8093D0019093D101DE
:10322000A093D201B093D301BF91AF919F918F91A1
:103230001F901FBE1F9018951F921FB61F9211243A
:103240008F939F93AF93BF938091CF01811113C050
:103250008091D0019091D101A091D201B091D30180
:103260004196A11DB11D8093D0019093D101A093EF
:10327000D201B093D301BF91AF919F918F911F90D5
:103280001FBE1F901895CDB7DEB7A6970FB6F8945E
:10329000DEBF0FBECDBF85B7806885BF85B78068AC
:1032A00085BF84B7877F84BF0FB6F894A8958091B7
:1032B0006000886180936000109260000FBE80E81B
:1032C00090E00FB6F89480936100909361000FBE78
:1032D0008FEE94E090936501809364010E947D02DB
:1032E0000E941E038091E20084608093E200789443
:1032F0008091E1018823A1F01091E9001F70909165
:10330000EC00892F817090FD80E8182B1092E90065
:103310008091E80083FD0E94150B1F701093E90057
:1033200082E084BD93E095BD9AEF97BD80936E00D7
:103330000E94C209811102C00E94B20980EF0E945E
:10334000F10481EF0E94F10484EF0E94F10486E30E
:103350000E94F10408E411E0D8018D918D018F3FA6
:1033600011F00E94F104B1E005351B07A9F788E0D0
:10337000E4EBF1E0DF01282F1D922A95E9F7EEE951
:10338000F1E0DF011D928A95E9F790E080E00E946C
:10339000FD1D863E9E4F21F40E94C209811168C026
:1033A00066EE7EEF90E080E00E94311E60E082E0F9
:1033B00090E00E94131E81E08093A60161E083E00B
:1033C00090E00E94131E60E074E184E090E00E94AF
:1033D000311E60E086E090E00E94131E60E087E00E
:1033E00090E00E94131E40E050E0BA0188E090E0B7
:1033F0000E94251E60E084E290E00E94131E60E0BF
:1034000087E190E00E94131E60E08CE090E00E9453
:10341000131E60E08DE090E00E94131E19821A8254
:103420001B821C821D821E821F82188648E050E08B
:1034300068E170E0CE0101960E94031E40E050E07A
:10344000BA0180E290E00E94251E80E00E942A09D5
:103450000E94B20940E050E0BA018FE090E00E9483
:10346000251E40E050E0BA0183E190E00E94251E55
:1034700082E090E00E94F51D8093AA0184E090E034
:103480000E94FD1D9093A9018093A8010E94930EB4
:10349000EFEFF6E721E0E150F0402040E1F700C017
:1034A00000000E94930E8091B40180FF08C06FEF6E
:1034B0007FEF90E080E00E94311E0E94DB0383E0FA
:1034C00090E00E94F51D0E94E60780E091E0909355
:1034D000CC018093CB01E8E14E2E512CFCEB6F2EFA
:1034E000F1E07F2E8091E10112E1853009F496C070
:1034F0000E94930E6BEAA62E61E0B62E74EB872E27
:1035000071E0972ED401F501219131918D919D911A
:1035100041E0E33BF40709F48BC028173907A1F316
:10352000312CD4010D911D914D01F501C190D19027
:103530005F01C016D10661F1212CEE24E394F12C39
:10354000C026D126C6018E219F21892BB9F029A240
:103550003AA20E94FB039CA38BA3F1E0FDA391E0A0
:1035600098012E213F21232B09F490E09EA349A12D
:103570005AA16BA17CA18DA10E942C172394EE0C63
:10358000FF1C2DE02212DECFF5013297118300835C
:10359000339444E03412C5CF8FB7F8944091D001F2
:1035A0005091D1016091D2017091D3018FBF46C07B
:1035B0008091E101843011F11092CF0140E40FB607
:1035C000F894A895409260000FBE4093600083B7C6
:1035D000817F846083BF83B7816083BF789488953F
:1035E00083B78E7F83BF0FB6F894A8958091600053
:1035F000886180936000109260000FBE8091E001AE
:10360000882361F00E94930EE4EBF1E081919191A7
:10361000892B09F04FC26E167F06C1F78091E10138
:10362000853009F4C5CF0E94EE0A0E946B0460CF7A
:103630002817390709F074CF0E94B71786E0E3EC2A
:10364000F1E0DE01119601900D928A95E1F7D0909C
:10365000C401F090C5011091C601E090C70100912E
:10366000C8011092C5011092C6011092C7011092B4
:10367000C801812F8F2909F445C08091C101909123
:10368000C2010E94EC039C019091BC01992309F4B2
:103690003BC225313105B0F19F3F19F09F5F9093F8
:1036A000BC01FF2059F00E94C1049FEF1F140CF4CD
:1036B00091E0899F802D11248093C501112359F039
:1036C0000E94C10491E011160CF09FEF899F802D9C
:1036D00011248093C6018091C501882399F0C09080
:1036E000C601CC2079F00E94E104882309F4B3C01C
:1036F0008093C5018C2D0E94E104882309F4ADC09C
:103700008093C6018E2D802B09F445C08091BF01A6
:103710009091C0010E94EC039C019091BD019923FE
:1037200009F4EDC121353105B0F19F3F19F09F5FDC
:103730009093BD01EE2059F00E949F049FEF1E144C
:103740000CF491E0899F802D11248093C701002300
:1037500059F00E949F0491E010160CF09FEF899F92
:10376000802D11248093C8018091C701882399F08E
:10377000E090C801EE2079F00E94E104882309F46A
:103780006EC08093C7018E2D0E94E104882309F446
:1037900068C08093C8018091C401D81217C080917D
:1037A000C501882311F08F1111C02091C601222379
:1037B00011F012130BC09091C801992311F09013CE
:1037C00005C03091C701332309F48BC10E947804EE
:1037D00086E0FE013196A3ECB1E001900D928A954E
:1037E000E1F70E946B049091B301891769F080930F
:1037F000B3018FB7F8944091D0015091D1016091FD
:10380000D2017091D3018FBF8091E101843009F022
:1038100069CE83E08093E9008091E80082FF62CE68
:103820008091E80090E085FF05C00E949C028823FB
:10383000D1F091E08091E8008B778093E8009923A4
:1038400009F450CEE981E150E331A0F5F0E0EB5608
:10385000F14E0C949D1D81E04BCF81E051CF81E072
:1038600090CF81E096CF00E210E0CE0101967C017E
:103870008091E80085FD0AC08091E8008B778093F5
:10388000E8000E949C02882399F3D3CF8091F10035
:10389000D7018D937D010150110951F7CACF1A82CA
:1038A0008CE08B8324C08A81823009F41FC128F404
:1038B000813061F08FEF89831AC0833009F1843041
:1038C000C9F71B821C821D821E8211C02FB7F8947B
:1038D0006091D0017091D1018091D2019091D3017A
:1038E0002FBF0E94A31D6B837C838D839E8340E248
:1038F00050E0BE016F5F7F4F82E00E94CD08F2CDA5
:103900002B81822F90E0FE013196225F8430910559
:1039100070F7DC01AA0FBB1FAC54BE4F3C9111964F
:103920004C9143833483019632962813EFCFDFCF37
:103930008A81823019F08530D1F2BCCF6B817C81D5
:103940008D819E810E94A31D88E290E00E94131E3B
:10395000CECF4C816B818A810E94DB099827892711
:1039600098279E838D83C3CF2D813E8132272327C5
:1039700032274C816B818A810E945309B8CF0E9403
:103980007909B5CFB0E1BA83B2CF1A828FEF89CF70
:103990000A811B81102701271027FE0131966F0134
:1039A000EC80CF018E0D911D7C01C8018F5F9C4F73
:1039B000EC14FD0409F49BCF0F3F110558F40E944D
:1039C000F51DD60114968C930F5F1F4FFFEFCF1A92
:1039D000DF0AEBCFF6011482F7CF0A811B81102793
:1039E00001271027CE0101966C01EC80E00EF12E2C
:1039F000F11CC8018F5F9C4FE016F10609F477CFE8
:103A00000F3F110528F4D60114966C910E94131EE5
:103A1000BFEFCB1ADB0A0F5F1F4FEBCF0E944309AA
:103A200066CF87E08A8363CF0A811B811027012735
:103A30001027FE0131966F01EC80CF018E0D911D94
:103A40007C01C8018996EC14FD0409F450CF083DAF
:103A5000A2E01A0750F40E94F51DF60184830F5F5F
:103A60001F4FBFEFCB1ADB0AECCFD60114961C9286
:103A7000F6CF0A811B81102701271027FE013196FE
:103A80006F01EC80E00EF12EF11CC8018996E01662
:103A9000F10609F42CCF083DF2E01F0728F4D60107
:103AA00014966C910E94131EBFEFCB1ADB0A0F5FB6
:103AB0001F4FEBCFE0E1E9BD19BD09B400FEFDCF1A
:103AC0008091D8008F7D8093D8008091E000826043
:103AD0008093E0008091E00081FDFCCF0E94EE0A1F
:103AE0009DCD822B892B09F473CE70CE88E290E0B5
:103AF0000E94F51D1B821C821D828E83F8CE2B3006
:103B0000310508F014CE47CE2B30310508F0C6CD74
:103B1000F9CD97FB072E16F4009407D077FD09D056
:103B20000E94E11D07FC05D03EF4909581959F4FC2
:103B30000895709561957F4F0895EE0FFF1F0590D2
:103B4000F491E02D0994692796276927782787271C
:103B5000782708952F923F924F925F926F927F92B3
:103B60008F929F92AF92BF92CF92DF92EF92FF928D
:103B70000F931F93CF93DF93CDB7DEB7CA1BDB0B39
:103B80000FB6F894DEBF0FBECDBF09942A883988DE
:103B900048885F846E847D848C849B84AA84B984E5
:103BA000C884DF80EE80FD800C811B81AA81B981F1
:103BB000CE0FD11D0FB6F894DEBF0FBECDBFED0105
:103BC0000895AA1BBB1B51E107C0AA1FBB1FA61764
:103BD000B70710F0A61BB70B881F991F5A95A9F7B6
:103BE00080959095BC01CD010895F999FECF92BDC5
:103BF00081BDF89A992780B50895A8E1B0E042E028
:103C000050E00C94391EDC01A40FB51F4150504008
:103C100048F0CB01840F951F2E910E94141E415035
:103C20005040D0F70895262FF999FECF92BD81BD5F
:103C3000F89A019700B4021639F01FBA20BD0FB6EA
:103C4000F894FA9AF99A0FBE08950396272F0E94C6
:103C5000141E0E94131E252F0E94141E242F0C9444
:103C6000141E0196272F0E94141E0C94131EDC01B3
:103C7000CB01FC01F999FECF06C0F2BDE1BDF89A77
:103C8000319600B40D9241505040B8F70895FB01B1
:103C9000DC0104C08D910190801921F44150504005
:103CA000C8F7881B990B0895F894FFCFF60B1E0CEC
:103CB000C10D1E0CC10D510C720CC10D700D7D0D8E
:103CC0004112B6124912131217124D121B12511241
:103CD0005D122712AF122B1261122F1265128D1274
:103CE00033126912941239126F1277121F12551281
:103CF000231259123D12731283129D12AD120D122E
:103D00004512BD12131313134E134E13071421142F
:103D10007D137D1326149314A414A414D911DD115A
:103D2000CE11D511E111E511E9114F1C531C981C5E
:103D3000A91CB41CBF1C5A1C5A1C5A1C5A1C5A1CC5
:103D4000C21CC51CC81CED1C0E1D111D141D391DE7
:103D5000D8031609D7030F09080901818283E200FD
:103D6000E900EA00B500B600B700CD008301CC0041
:103D70008A019201940121022302240225022602D3
:103D800027022A02B300B4006F0070009F01CB012C
:103D90009F02A002F0F1F4366667F7F6F5349192CF
:103DA000939594969744227B49012701AC00EF0339
:043DB00008042804D7
:00000001FF
