:100000000C9473020C9490020C9490020C94900245
:100010000C9490020C9490020C9490020C94900218
:100020000C9490020C9490020C9426180C94E217F5
:100030000C9423190C9490020C9490020C9490024E
:100040000C9490020C9490020C9490020C949002E8
:100050000C9490020C94FF180C9490020C94900253
:100060000C9490020C9490020C9490020C949002C8
:100070000C9490020C9490020C9490020C949002B8
:100080000C9490020C9490020C9490020C949002A8
:100090000C9490020C9490020C9490020C94900298
:1000A0000C9490020C9490020C94900205010902A9
:1000B000A10185020901A1000509190129081500FE
:1000C0002501950875018102050109300931158165
:1000D000257F95027508810609381581257F9501D0
:1000E00075088106050C0A38021581257F95017572
:1000F000088106C0C005010980A101850319012AF4
:10010000B700150126B700950175108100C0050CD8
:100110000901A101850419012AA002150126A002E6
:10012000950175108100C00660FF0961A101096297
:10013000150026FF00952075088102096315002629
:10014000FF00952075089102C005010906A101056F
:100150000719E029E7150025019508750181029529
:1001600001750881010507190029FF150026FF0008
:100170009506750881000508190129051500250156
:10018000950575019102950175039101C00000006C
:10019000000000000000000000000000000000005F
:1001A000000000000000000000000000000000004F
:1001B000007E0F00D4FFFFFFC700000078000000A2
:1001C00000000000002A2B280000000000000000B2
:1001D000000000000000000029000000002C1E3478
:1001E00020212224342627252E362D3738271E1F7E
:1001F000202122232425263333362E37381F0405A9
:10020000060708090A0B0C0D0E0F10111213141516
:10021000161718191A1B1C1D2F3130232D350405F4
:10022000060708090A0B0C0D0E0F101112131415F6
:10023000161718191A1B1C1D2F3130354C2B0014A2
:10024000001A000800150017002F021C0018000CEF
:1002500000120013004C00390004001600070009CA
:10026000000A0033000B000D000E000F00330028C1
:1002700000E1001D001B000600190005002D001103
:100280000010003600370052002152E000E300E287
:100290000090002C002C0000002C002C009100503D
:1002A0000051004F000100010001000100010001A8
:1002B0000001000100010001000100010001000136
:1002C0000001000100010001000100010001000126
:1002D0000001000100010001000100010001000116
:1002E0000001000100010001000100010001000106
:1002F00000010001000100010001000100010000F7
:1003000000010001000100010001000100010001E5
:1003100000010001000100010001000100010001D5
:1003200000010001000100010001000100010001C5
:1003300000010001000100010001000100010001B5
:1003400000010001000100010001000100010001A5
:100350000001000100010001000100010001000195
:100360000001000100010000000100010001000186
:100370000001000100010001000100010001000175
:100380000001000100010001000100010001000165
:100390000001000100010001000100010001000155
:1003A0000001000100010001000100010001000145
:1003B0000001000100010001000100010001000135
:1003C0000001000100010001000100010001000026
:1003D0000001000100010001000100010001000115
:1003E0000001000100010001000100010001000105
:1003F00000010001000100010001000100010001F5
:1004000000010001000100010001000100010001E4
:1004100000010001000100010001000100010001D4
:1004200000010001000100010001000100010001C4
:1004300000010001000100000001000100010001B5
:10044000000100010009025B00030100A0FA090499
:1004500000000103010100092111010001224400F3
:1004600007058103080001090401000203000000E0
:100470000921110100012222000705820320000149
:100480000705030320000109040200010300000026
:10049000092111010001227B0007058403200001CE
:1004A0001201000200000008D80411E60001010258
:1004B00000010C036F003500310067006F00000081
:1004C0002003530061006C006900630079006C0038
:1004D000690063002D00610063006900640033005F
:1004E00000000403090411241FBECFEFDAE0DEBFD1
:1004F000CDBF11E0A0E0B1E0E4E6FDE302C005906D
:100500000D92A436B107D9F722E0A4E6B1E001C00C
:100510001D92A732B207E1F70E944A190C945E1EA1
:100520000C940000482F209123029091EA0157E09B
:10053000291302C080E0089530E0529FF001539FDC
:10054000F00D1124E551FE4F8181681306C08081B2
:10055000481303C085818111EECF2F5F3F4F277075
:10056000E7CFE8EDF0E080818E7F80831092E2009B
:100570001092DA001092E100A0EEB0E08C91816060
:100580008C9380818F77808319BCA7EDB0E08C912C
:100590008E7F8C9380818F7E80831092D30108950B
:1005A0002091E4003091E50095E6A9012091EC004E
:1005B000822F817020FF06C08091E80080FF06C076
:1005C00080E008952091E80022FD1AC08091E001AA
:1005D000882389F0853089F08091EB0085FD0FC07C
:1005E0002091E4003091E50042175307F9F2915051
:1005F000E1F684E0089582E0089583E0089581E0C3
:1006000008958091E20187FF13C08091E80082FF86
:1006100006C08091E8008B778093E80004C0809149
:10062000E0018111F2CF08958091E0018823D9F390
:100630008091E80080FFF8CF8091E8008E77ECCFC2
:10064000982F9093E900242F762F50E0891731F0EE
:100650007091EC002091ED005091F00021FD07C059
:100660009F5F973071F78093E90081E008953091A2
:10067000EB003E7F3093EB003091ED003D7F3093F7
:10068000ED003091EB0031603093EB007093EC00A3
:100690002093ED005093F0002091EE0027FDE0CF75
:1006A00080E00895B0E0A0E0E8E5F3E00C94BE1D22
:1006B000C8EDD0E088818F7E8883E7EDF0E080810F
:1006C0008160808384E082BF81E08093D301888150
:1006D0008E7F888302EE10E0F80110821092DA001B
:1006E00081EEC82ED12CF601108288818F77888305
:1006F00088818068888388818F7D888319BC109267
:10070000E0011092E1011092DF011092DE0190EE03
:10071000E92EF12CF70180818B7F808388818160B5
:10072000888342E060E080E00E942003F60180813F
:100730008E7F8083F80180818160808380818860E2
:100740008083F70180818E7F8083888180618883A8
:10075000CDB7DEB7E8E00C94DA1DFC018091E8012A
:100760009091E90186179707A0F06115710529F4AA
:100770009091E8009E779093E80090E061157105F4
:1007800051F4911108C08091E80082FF34C080E0EC
:100790000895BC01F2CF8091E0018823C1F185303A
:1007A000C1F18091E80083FD30C08091E80082FDB6
:1007B000EACF8091E80080FFE1CF8091F3002091A3
:1007C000F200382F6115710519F02830310558F005
:1007D00091E02830310509F090E02091E8002E7773
:1007E0002093E800CBCF81918093F1006150710993
:1007F0002F5F3F4FE7CF8091E001882341F08530A4
:1008000041F08091E80083FFBECF81E0089582E04F
:10081000089583E0089508958091D501089587E7AC
:1008200097E7909301088093000888E19AE00FB65B
:10083000F894A895809360000FBE90936000FFCF5E
:100840009C014FB7F8948091CF019091D001A09175
:10085000D101B091D2014FBF821B930B08952FB7E6
:10086000F8948091CF019091D001A091D101B091E5
:10087000D2012FBF08959C01FC0132969FEF80E0CA
:100880004191461751F09F3F19F4411101C0982F33
:100890008F5F8630A9F79F3F09F40895290F311D16
:1008A00097FD3A95F90162830895A3E0B0E0EBE586
:1008B000F4E00C94C41D2091CC013091CD01281797
:1008C0003907A1F09093CD018093CC01E091CA014A
:1008D000F091CB01309751F024E029839B838A83E8
:1008E0000084F185E02DCE01019609952396E2E082
:1008F0000C94E01DA3E0B0E0E0E8F4E00C94C41D2B
:100900002091C8013091C90128173907A1F09093AF
:10091000C9018093C801E091CA01F091CB013097E1
:1009200051F023E029839B838A830084F185E02DA5
:10093000CE01019609952396E2E00C94E01DE0912A
:10094000CA01F091CB01309729F00190F081E02DA0
:100950000995089580E008950E942F049C019091CC
:10096000C4018091C501982B21F03093C1012093DF
:10097000C0019091C6018091C701982B21F030935E
:10098000BF012093BE01E091CA01F091CB013097E5
:1009900049F082E08093C2010680F781E02D82EC6D
:1009A00091E0099508958091BD0180FD16C081FDFB
:1009B00016C082FD16C08091BC018823A1F0883248
:1009C00080F428E0829FC001112468E270E00E9458
:1009D000931D862F672B39F0089582E0089584E0F7
:1009E000089588E0089581E008958091BD0180FD1B
:1009F00014C081FD14C082FD16C08091BB01882304
:100A000081F08E3180F420E5829FC00111246EE1D7
:100A100070E00E94931D862F089584E1089588E276
:100A2000089588E0089580E50895282F35EB230385
:100A3000C001112497FF04C080589109892F08959F
:100A400080589F4FFBCF80E00895F894E82FE295FF
:100A5000EF70F0E031A1282F2F7081E090E001C00D
:100A6000880F2A95EAF7982F9095932391A392A146
:100A7000892B82A3789408959091A70192FF10C0CA
:100A800041E0282F2471243009F040E031E0282F84
:100A90002871283009F030E0431711F02CE082274C
:100AA00093FF10C041E0282F2471243109F040E069
:100AB00031E0282F2871283109F030E0431711F078
:100AC0002CE082273091A80130FF10C051E0282F80
:100AD0002171213009F050E041E0282F28712830A1
:100AE00009F040E0541711F029E0822731FF10C0CF
:100AF00041E0282F2171213109F040E031E0282F19
:100B00002871283109F030E0431711F029E08227DD
:100B100094FD877E089582389105B9F1B0F4813350
:100B2000910509F47DC048F48932910509F46DC03E
:100B30008A32910509F47BC008958533910509F443
:100B40005FC08933910509F10895833E9105D9F17C
:100B500038F4803E910529F1823E910579F108959E
:100B6000863E9105D9F1873E910509F43EC0843E49
:100B7000910541F52091A80121FF24C08091A70192
:100B800084FD19C087EE90E008952091A70123709D
:100B900009F05AC02091A80123FF14C089E290E017
:100BA00008952091A70120FD38C03091A80130FFA1
:100BB00009C024FF43C090E080E008952091A70180
:100BC00022FDF7CF08952091A70122FD3AC0309170
:100BD000A80130FD39C024FFF5CFEDCF2091A7014A
:100BE00023FFF0CF24FDE7CFCDCF2091A70123FD38
:100BF0002EC03091A80131FFEECF84EE90E0089531
:100C00002091A70125FFDECFC9CF2091A70125FDA7
:100C100021C02091A80123FFD5CF89E390E0D2CF56
:100C20002091A70126FFCECF8AE290E0089520917F
:100C3000A70126FFC7CF81E390E0089583EE90E0FF
:100C4000089582EE90E0089580EE90E0089586EE9B
:100C500090E0089585E390E008951F93CF93DF938C
:100C60000E948B05EC01C11580E5D807F0F5C11590
:100C700080E4D80708F09CC0C03ED10520F5CD3CEB
:100C8000D10508F082C0C83AD10578F4C53AD1053B
:100C900008F073C0C130D10519F1209709F1C430B3
:100CA000D105F0F4D0E0C0E01BC0C33CD105D0F7C3
:100CB000C85AD0E0CC0FDD1FC25FDE4F0990D8814B
:100CC000C02DD4640DC0C11580E2D80708F0D1C092
:100CD000C11581E0D80708F05AC0C83ED10510F709
:100CE000CE01DF91CF911F910895C03682E5D807DC
:100CF00018F5C03482E5D80708F06BC0C03282E531
:100D0000D80708F05FC0C11582E5D80708F497C07E
:100D10002C2F2695269580E2289F900111248C2F58
:100D20008370C1E0D0E002C0CC0FDD1F8A95E2F7EE
:100D3000C22BD32BDD68D4CFC03A82E5D80760F44C
:100D4000C03882E5D80708F459C0CF71D0E0DC2F55
:100D5000CC27C46FD06AC4CFC03C82E5D80708F462
:100D600062C0C03E82E5D80708F09CCFDC2FCC27BC
:100D7000CC27DF71C06FD06AB3CFC55AD0E0C55F52
:100D8000DE4FC881D0E0D064ABCFD065A9CF8D2F26
:100D90000E943C05182FCE0199270E948B05C12F78
:100DA000D0E0DC2FCC27CC27DF71C82BD92B98CFF4
:100DB000CE0199270E948B05CC27DF70C82BD92B39
:100DC000D06A8ECFCF71D0E0DC2FCC27C16FD06A34
:100DD00087CF2C2F26952695277080E2289F90019B
:100DE00011248C2F8370C1E0D0E002C0CC0FDD1F36
:100DF0008A95E2F7C22BD32BDC6872CF2C2F269575
:100E00002695277080E2289F900111248C2F8370F3
:100E1000C1E0D0E002C0CC0FDD1F8A95E2F7C22B03
:100E2000D32BDA685DCF8C2F8F710E943C05C82FC1
:100E3000D0E0DC2FCC27CC27DF71D06251CF8C2FB4
:100E40008F710E943C0555E0D695C7955A95E1F7FC
:100E5000CF70D0E0DC2FCC27282F30E084FF05C0F6
:100E600044E0220F331F4A95E1F7C22BD32BD06900
:100E700037CF8D2F8F710E943C05182FCE019927F7
:100E80000E948B05C12FD0E0DC2FCC27CC27DF714F
:100E9000C82BD92BD2CF809590919701982390930E
:100EA00097010895809123029091EA01981301C05F
:100EB00008958F5F8770FACF292F943078F58D30A1
:100EC00068F590E03DE0239F800D911D1124682F6F
:100ED000677023E0969587952A95E1F7FC01EE0F60
:100EE000FF1FE80FF91FE059FE4F50E040E080E09F
:100EF000219130E0062E02C0369527950A94E2F73C
:100F000021703327042E01C0220F0A94EAF7822BA6
:100F10004F5F5F4F4330510559F7089580E00895C2
:100F2000292F943098F58D3088F590E03DE0239F8F
:100F3000800D911D1124282F277041E001C0440F1E
:100F40002A95EAF723E0969587952A95E1F7FC0123
:100F5000EE0FFF1FE80FF91FE059FE4F30E020E0D1
:100F600070E05191DF011197CB01022E02C09695DE
:100F700087950A94E2F781708195852784238527D8
:100F80008C932F5F3F4F2330310559F7089580939D
:100F9000A60108959091A60121E030E0F90101C079
:100FA000EE0F8A95EAF7D90102C0AA0FBB1F6A9516
:100FB000E2F7EA2B01C0220F4A95EAF7892F8E2328
:100FC000E81305C0292B822F0E94C707089520959A
:100FD0002923F9CF21E030E001C0220F8A95EAF7FA
:100FE00020958091A60182230E94C70708959091C1
:100FF0008C018095892380938C01282F277069F4B8
:10100000891759F09091A80192FF07C0869586959F
:1010100086950E94EA0710928C01089521E030E045
:1010200001C0220F8A95EAF78091A601822B0E94C7
:10103000C70708958093A50108954091C401909138
:10104000C6012091C701662309F469C0942B922B35
:101050002091C501922B31F098E09093BB0191E073
:101060009093BC018D3C41F40E94F50481958093DE
:10107000C5010E94AC0408958E3C19F40E94F50449
:10108000F6CF8F3C31F40E94F50481958093C40122
:10109000F0CF803D19F40E94F504F8CF893D29F482
:1010A0000E94D3048093C601E4CF8A3D21F40E94BC
:1010B000D3048195F7CF8B3D31F40E94D304819501
:1010C0008093C701D6CF8C3D19F40E94D304F8CF8A
:1010D0009FE2980F983070F4815D990B21E030E029
:1010E00001C0220F8A95EAF78091C301822B809379
:1010F000C301BFCF8D3D31F48091BD0181608093EC
:10110000BD01B7CF8E3D21F48091BD018260F7CF44
:101110008F3D09F0AECF8091BD018460F0CF8D3C52
:1011200059F48091C50187FF0DC01092C50141118E
:101130000BC01092BB0108C08E3C81F48091C501A8
:1011400018169CF3442381F08091C6019091C70149
:10115000892B09F08ECF1092BC018BCF8F3C49F4C4
:1011600047FFF0CF1092C4018091C5018111ECCFEF
:10117000E0CF803D19F41416ACF3E4CF893D29F497
:10118000191604F71092C601DDCF8A3D19F497FFB6
:10119000D9CFF8CF8B3D29F427FFD4CF1092C701C8
:1011A000D1CF8C3D19F41216CCF3CCCF9FE2980F1F
:1011B000983090F4815D990B21E030E0B90102C0D4
:1011C000660F771F8A95E2F7CB0180959091C30156
:1011D00089238093C301B6CF8D3D31F48091BD0149
:1011E0008E7F8093BD01AECF8E3D21F48091BD01F5
:1011F0008D7FF7CF8F3D09F0A5CF8091BD018B7F0B
:10120000F0CF0F931F93CF93DF938B01EA0190915F
:10121000E001943061F58093E9008FEF9091E80050
:10122000815095FD06C095ED9A95F1F7000081116A
:10123000F5CF8091E80085FF1AC00E94D00281118D
:1012400011C08091E80085FD06C08091E8008E778E
:101250008093E800F2CFF80181918F018093F10033
:10126000219779F78091E8008E778093E800DF91ED
:10127000CF911F910F91089543E050E0BC0184E0AD
:101280000E940109089546E050E0BC0184E00E94FC
:1012900001090895CF93DF93EC0148E050E0BC01D1
:1012A00081E00E94010988E0FE01A6EDB1E0019015
:1012B0000D928A95E1F7DF91CF910895CF93C82FD2
:1012C0006FEF811164E285E290E00E941D1E6FEFD6
:1012D000C11164E086E290E00E941D1E6FEFC11113
:1012E00061E287E290E00E941D1ECF910895CF93A6
:1012F000DF93C1E3D2E060E0CE010E941D1E219683
:10130000C11584E0D807B9F7DF91CF9108951F93F5
:10131000CF93DF93122F8530E0F46430D0F44D305A
:10132000C0F4C42FD0E0CC0FDD1F9AE1699FC00D3F
:10133000D11D112498E6899FC00DD11D1124632F62
:10134000CE0189960E941D1E612FCE018A960E94B1
:101350001D1EDF91CF911F910895AF92BF92CF9242
:10136000DF92EF92FF921F93CF93DF938DE3C82E0E
:1013700082E0D82ED0E07601C0E014C0F5012591BE
:101380003491412F6C2F8D2F0E94870982E0A80E87
:10139000B11C1F5F1D3091F78AE1E80EF11CCF5F91
:1013A000C43019F0570110E0E9CFDF5F88E6C80EBE
:1013B000D11CD53001F7DF91CF911F91FF90EF90B5
:1013C000DF90CF90BF90AF90089580E00E945E09BB
:1013D00060E088E290E00E941D1E0E94AD090E941C
:1013E000770981E00E945E09089585E290E00E94FD
:1013F000FF1D843289F486E290E00E94FF1D843054
:1014000059F487E290E00E94FF1D91E0813209F0DB
:1014100090E0892F8170089580E0FCCF0F931F9397
:10142000CF93DF93853030F5643020F54D3010F5E3
:10143000C42FD0E0CC0FDD1F2AE1629FC00DD11D6B
:10144000112438E6839FC00DD11D1124CE01899649
:101450000E94FF1D082F10E0102F0027CE018A9652
:101460000E94FF1D9801282BC901DF91CF911F9188
:101470000F91089590E080E0F8CF462F743040F44B
:101480006D3030F4853020F4672F0E940E0A0895E5
:1014900090E080E00895CF92DF92FF920F931F9328
:1014A000CF93DF936C010091A6018091A501082BD9
:1014B000C4E0D0E010E0FC2EC8010C2E02C09595CF
:1014C00087950A94E2F780FD0CC02197A0F7F12CD4
:1014D0008F2DDF91CF911F910F91FF90DF90CF90D3
:1014E0000895B6018C2F0E943D0A0E942D06019797
:1014F00061F3EECFCF93DF93EC010E944B0ABE0164
:101500000E943D0A0E942D06DF91CF910895FC01B3
:1015100024812223C1F0808191810E947A0A9295D0
:101520009F70963091F058F4925F9F70923058F40B
:10153000803F19F030F4883E30F481E008959A5FDE
:10154000F4CF843FD1F380E00895883EB0F3813F2B
:10155000D1F7F3CFA6E0B0E0E0EBFAE00C94C31DC6
:1015600049835A8349815A819923A1F0222391F01A
:10157000CA010E944B0A182F682F89819A810E9404
:10158000900769817A81812F0E943D0A2696E3E0C7
:101590000C94DF1DCA010E945C07182FF2CF9091B6
:1015A000A80192FB222720F9281779F080FB92F9F5
:1015B0009093A8016091A7017091A80184E090E048
:1015C0000E943B1E82E00E94F70708952091970138
:1015D00080918E01282B80918D01882381F0282B0A
:1015E00030E088E691E0FC014191CF0141113F5F7D
:1015F000F1E08E369F07B9F7311110928D012093DB
:10160000660148E050E06FE871E086E691E00E94F4
:10161000511E892BA9F088E0E6E6F1E0AFE8B1E0E1
:1016200001900D928A95E1F7E091CA01F091CB010A
:10163000309731F00280F381E02D86E691E0099544
:101640000895CF9310929701C6E0E8E6F1E0DF013C
:101650008C2F1D928A95E9F790E080E00E947A0431
:1016600090E080E00E94550410928E010E94E60AEC
:10167000E2ECF1E0DF011D92CA95E9F71092BB019F
:101680001092BC011092BD010E94AC04CF9108954C
:10169000AAE2B0E0EEE4FBE00C94C31D82EE91E020
:1016A0002091F100DC012D93CD01B1E08A3E9B0732
:1016B000B9F78091E301833009F472C0B8F4813046
:1016C00009F449C0823009F4B3C08091E80083FF77
:1016D0008BC28091E2019091E3019A3008F084C2BC
:1016E000E92FF0E0E05AF14E0C94A71D8A3009F47E
:1016F0008EC08B3009F471C0893039F78091E201D6
:10170000813219F78091E6019091E701009711F07D
:101710000297D9F68091E800877F8093E800809156
:10172000E80082FF38C09091F3008091F2000297A8
:1017300031F48091F100813011F0863021F48091F4
:10174000F1008093D5018091E8008B778093E800C9
:101750000E940103BACF8091E201813A09F0B5CF2E
:101760008091E800877F8093E8008091E601909166
:10177000E701892B61F468E086ED91E070E00E945A
:10178000AD038091E8008B778093E8009ECF60E006
:1017900090E080E0F3CF8091E0018111C0CF95CF40
:1017A0008091E201813A09F090CF8091E601909119
:1017B000E701892B09F089CF8091E800877F80932A
:1017C000E8008091E80080FFFCCF80910A018093BF
:1017D000F1008091E8008E77B9CF8091E2018132EB
:1017E00009F073CF8091E6019091E701892B09F010
:1017F0006CCF8091E800877F8093E8000E9401030E
:101800008091E40180930A010E94210B5ECF8091B8
:10181000E201813209F059CF8091E800877F8093FF
:10182000E8000E9401038091E5018093D4014DCF2F
:101830008091E201813A09F048CF8091E800877FEA
:101840008093E8008091E80080FFFCCF8091D40174
:10185000BECF803899F0823809F0C6C18091E60188
:101860008F70873008F0C0C18093E9008091EB0051
:1018700085FB882780F91092E90006C08091DE017F
:101880009091DF01911182609091E800977F909391
:10189000E8008093F1001092F1008091E8008E77CB
:1018A0009FC1882309F48DC1823009F09DC18091C8
:1018B000E401811190C18091E6018F702FEF280F14
:1018C000263008F091C18093E9002091EB0020FFC1
:1018D00082C1933031F48091EB0080628093EB0001
:1018E0007AC19091EB0090619093EB0021E030E0A1
:1018F00001C0220F8A95EAF72093EA001092EA00CD
:101900008091EB008860EACF81116EC11091E401F3
:101910001F778091E3008078812B8093E300809192
:10192000E800877F8093E8000E9401038091E8002F
:1019300080FFFCCF8091E30080688093E30082E029
:10194000111183E08093E0014FC18058823008F08C
:101950004BC12091E4013091E5012C3DE3E03E07CD
:10196000A1F583E08A838AE289834FB7F894DE0188
:10197000139620E03EE051E2E32FF0E05093570051
:10198000E49120FF03C0E295EF703F5FEF708E2F70
:1019900090E0EA30C0F0C7968D939D932F5F24317D
:1019A00059F74FBF8091E800877F8093E8006AE293
:1019B00070E0CE0101960E94AD038091E8008B7724
:1019C0008093E80011C1C096E7CF8091E601909125
:1019D000E701432F55274330510509F44AC078F5F4
:1019E0004130510509F47AC08BE590E0E5E4F4E07C
:1019F0004230510509F0F8C02091E800277F20937C
:101A0000E8002091E8013091E9018217930708F47A
:101A10009C0140E02115310509F065C0411163C00A
:101A20008091E80082FDC9CF8091E001882329F2EE
:101A3000853019F28091E80083FFF2CFBECF4132AA
:101A4000510509F43CC04232510509F0CDC0833044
:101A5000910508F0C9C0FC01EE0FFF1FE85AFE4FC8
:101A60000190F081E02D8B5A9E4FDC018C9190E02B
:101A70001AC0332721303105D1F02115310561F02D
:101A80002230310509F0B0C0E2EBF4E0E4918E2F92
:101A900090E0E2EBF4E007C0E2EEF4E0E4918E2F98
:101AA00090E0E2EEF4E0009709F49EC0A5CFE0ECF0
:101AB000F4E0E4918E2F90E0E0ECF4E0F4CF83309A
:101AC000910508F091C0880F991FFC01E25AFE4F62
:101AD0000190F081E02D89E090E08ECF82E190E0EE
:101AE000E0EAF4E089CF8091E001882309F465CF32
:101AF000853009F462CF8091E80083FD5ECF80914C
:101B0000E80082FD8DCF8091E80080FF83CF909127
:101B1000F3008091F2002115310519F0883091050C
:101B200050F041E0089709F040E08091E8008E779E
:101B30008093E8006FCF44914093F100319621509B
:101B400031090196E8CF803809F04EC08091E80055
:101B5000877F8093E8008091E1018093F1009DCE22
:101B6000811142C01091E4011230F0F58091E8003B
:101B7000877F8093E8001093E1010E940103112305
:101B800011F084E005C08091E30087FDFACF81E089
:101B90008093E00142E061EC81E00E94200342E298
:101BA00061EC84E00E94200342E261EC82E00E944A
:101BB000200342E260EC83E00E9420038091E00178
:101BC00013C08091E401813079F481E0933009F011
:101BD00080E08093DF011092E9008091E800877F28
:101BE0008093E8000E9401038091E80083FF0AC00F
:101BF0008091E800877F8093E8008091EB0080620D
:101C00008093EB00AA96E3E00C94DF1D0E94210B69
:101C10002FEF84E39CE0215080409040E1F700C02A
:101C2000000088E19AE00FB6F894A89580936000D0
:101C30000FBE90936000FFCF882321F00E944B07D6
:101C40000E94E60A0895882339F090919701982B15
:101C5000909397010E94E60A08958823D1F19CEFA2
:101C6000980F913A78F4E8E6F1E09191891303C076
:101C7000DF0111971C9291E0EE36F907B1F70E944F
:101C8000E60A089590E2980F983050F4877091E03A
:101C900001C0990F8A95EAF7892F0E944B07EFCF71
:101CA0009BE5980F933028F490E080E00E947A043E
:101CB000089598E5980F9B3128F490E080E00E9409
:101CC0005504089593E3980F933118F460E00E944F
:101CD0001D080895CF93C82F8823B1F08CEF8C0F87
:101CE000813A00F5E8E6F1E08EE691E0DF012D9122
:101CF000C21761F08A179B07D1F76C2F86E691E037
:101D00000E943B040E94E60ACF9108952191C213DC
:101D100003C0DF0111971C928E179F07B9F70E942D
:101D2000E60AEBCF80E28C0F883068F4C77021E0C0
:101D300030E001C0220FCA95EAF780919701822B0B
:101D400080939701DFCFEBE5EC0FE33040F4F0E058
:101D5000E55FFE4F808190E00E947A04D5CFE8E5F0
:101D6000EC0FEB3150F4F0E0EE0FFF1FE25FFE4F9F
:101D7000808191810E945504C7CF83E38C0F83310A
:101D800018F661E08C2F0E941D08BECFA8E0B0E0DD
:101D9000ECECFEE00C94B61D8E010F5F1F4F88E047
:101DA000F80111928A95E9F794E4E92E91E0F92E71
:101DB000680128E4422E21E0522E66246394712C9F
:101DC00045E5842E41E0942EF70181917F018F3FFC
:101DD00009F445C0F894E82FE295EF70F0E021A1F6
:101DE0008F70A30102C0440F551F8A95E2F7CA0104
:101DF000922F982B91A392A18095892382A3789406
:101E000000C0E8E4F1E021E030E0B12CA12C4191E8
:101E10004F3F09F44BC0A42FA295AF70B0E090964D
:101E20008C9190E04F7002C0959587954A95E2F7A6
:101E300080FD3CC0C901A82AB92A220F331F8E1683
:101E40009F0629F7F701319780818F3F11F00E949B
:101E5000250550EA5A95F1F7F601B182A082F2E029
:101E6000CF0ED11C4E145F0409F0AECF48E050E015
:101E7000B8018DE991E00E94511E892BE1F088E0C4
:101E8000F801ADE9B1E001900D928A95E1F781E0AA
:101E900080939C010E942F0490939B0180939A0150
:101EA00010E0812F2896E0E10C94D21D90E080E0B4
:101EB000C2CF10E01FC010919C01112389F38091C3
:101EC0009A0190919B010E942004059748F348E0F5
:101ED00050E06DE971E083EB91E00E94511E892B87
:101EE00041F388E0EDE9F1E0A3EBB1E001900D9260
:101EF0008A95E1F710929C01D4CF1F93CF93DF9383
:101F0000182FEB010E946A0E209739F4812F0E944E
:101F10002D0EDF91CF911F9108958FE99FE00197DA
:101F2000F1F700C000002197EFCF0F931F93CF93DD
:101F3000DF93C62FD42F022FFC0185818823A9F0BF
:101F4000609326020E942F0490932502809324021E
:101F5000C77081E001C0880FCA95EAF70E94230E7E
:101F6000DF91CF911F910F91089580912602681300
:101F700034C080912402909125020E942004843B69
:101F8000910558F510E21D0FCD17B9F080E28C0FC6
:101F9000883040F4C77081E001C0880FCA95EAF725
:101FA0000E941C0E183048F481E09D2F977001C0EC
:101FB000880F9A95EAF70E94230E70E060E0802F68
:101FC0000E947D0F183060F6D77081E001C0880F45
:101FD000DA95EAF70E941C0EC3CFC77081E001C0FA
:101FE000880FCA95EAF7F6CFA8E0B0E0EAEFFFE085
:101FF0000C94B61D8C01DC0114968C9114978823E7
:1020000009F4BEC021E04C9111965C911197129693
:102010006C91129713967C91139715969C910E9440
:10202000AA0A7C01F8018581882309F448C1C70107
:1020300097578038910508F021C5FFE0FE1508F498
:102040008FC08FEF93E00E94FF1D811189C061E373
:10205000A62E62E0B62EE1104DC0FE01339686E05A
:10206000DF011D928A95E9F75AE0452E7501BFEF11
:10207000EB1AFB0AC5010E94FF1D89831A8288237F
:1020800009F46EC0813009F07FC06501E2E0CE0E38
:10209000D11CC7010E94FF1D8A83882309F460C0F8
:1020A0009FEF980F9330A0F5F3E0AF0EB11CC6017F
:1020B0000E94FF1D8B83882309F452C01C82DE011D
:1020C00011967D01F7012081222381F2213009F050
:1020D0009DC091818281913009F058C0F2E0EF0EED
:1020E000F11C70E060E0893311F460E570E00E945B
:1020F0007D0F53C0A11424E0B20691F1C5010E94E6
:10210000FF1D811101C0EA943FEFA31AB30AA3CFC8
:1021100056018430A1F642E0E42EF12C56012FEF57
:10212000A21AB20AC6010E94FF1DE1E0F0E0EC0F26
:10213000FD1FEE0DFF1D8083882391F08C3741F445
:10214000E2E0F0E0EC0FFD1FEE0DFF1D1082B7CFB7
:102150003FEFE31AF30A650187E0E816F104F1F6B0
:1021600080918C01877061F0D80115968C9188233D
:1021700039F08091A80182FF03C082E00E94F70736
:102180002896E0E10C94D21D570199CF923049F482
:1021900022E0E20EF11C0E946A0E9FEFE91AF90A92
:1021A00091CF933031F432E0E30EF11C0E942D0EFA
:1021B000F4CF943021F08FEFE81AF80AEECF92E0D6
:1021C000E90EF11C30E020E0B7016F5F7F4FD701CF
:1021D00011964C918053990B8A30910560F021152E
:1021E0003105D9F2EFE9FFE03197F1F700C00000C7
:1021F00021503109F4CF429EF001439EF00D11248D
:102200009C012E0F3F1F842F7B01DECFE22FF0E0D9
:10221000E354FE4F5490822F86958695869590E0E4
:10222000FC01E355FE4F64902770712C022E02C012
:10223000759467940A94E2F7F1E06F227724FC0129
:10224000E356FE4F8490912C022E02C09594879401
:102250000A94E2F731E083229924FC01E357FE4F10
:10226000C490D12C02C0D594C7942A95E2F781E09E
:10227000C822DD246114710419F081EE0E946A0EF7
:102280008114910419F086EE0E946A0E70E060E0FD
:10229000852D0E947D0F8114910419F086EE0E9415
:1022A0002D0E6114710419F081EE0E942D0EC114DF
:1022B000D10409F472CF70E060E08CE218CFF7012E
:1022C000E851FC47E730F10508F0C0C3E659F14E8C
:1022D0000C94A71D26E241EE61EEC8010E94950F05
:1022E0003FCF27E245EE65EEF8CF26E241EE60EE05
:1022F000F4CF27E245EE64EEF0CF26E241EE62EE47
:10230000ECCF27E245EE66EEE8CF28E241E0EBCFE6
:102310008091A70181608093A70195C08091A80159
:1023200088608093A8018FC08091A7018260F3CF5D
:102330008091A7018460EFCF8091A7018860EBCFE7
:102340008091A8018160EDCF8091A8018260E9CFE2
:102350008091A7018061DFCF8091A7018062DBCFF0
:102360008091A7018064D7CF0E94210B8091A701A3
:102370008068D1CF8091A7018C60CDCF8091A801DA
:102380008360CFCF8091A7018E7FC5CF8091A801B8
:10239000877FC7CF8091A7018D7FBDCF8091A70197
:1023A0008B7FB9CF8091A701877FB5CF8091A8019E
:1023B0008E7FB7CF8091A8018D7FB3CF8091A70189
:1023C0008F7EA9CF8091A7018F7DA5CF8091A70196
:1023D0008F7BA1CF0E94210B8091A7018F779BCF8C
:1023E0008091A701837F97CF8091A8018C7F99CF9F
:1023F0008091A70182FB992790F921E0922790FB19
:1024000082F990FB83F987CF8091A801982F90954E
:1024100091708E7F892B90FB81F983CF9091A701DA
:10242000892F8F7B96FF806476CF0E94210B90913D
:10243000A701892F97FB87F980586DCF61E08EE067
:1024400090E00E941D1E6091A7017091A80184E098
:1024500090E00E943B1E0E94210B82CE60E0EFCFF5
:102460009091A701892F8F7E94FF806154CF909126
:10247000A701892F8E7F90FF81604DCF9091A80199
:10248000892F877F93FF88604CCF85E3E9C2A7E758
:10249000EA16ACE7FA0609F46EC082E0B8E7EB167C
:1024A000BCE7FB0609F468C0E3E0EE16ECE7FE06C5
:1024B00009F48DC008F06CC0E1142CE7F20609F4B1
:1024C00079C031E0E3163CE7F30609F486C0F80171
:1024D0008581E080F180882309F48DC0C7010E94C6
:1024E0004B0AD82E682FC7010E949007B7018D2D87
:1024F0000E943D0A0E942D067C01882ED801159667
:10250000AC90159716969C9092943FE09322809100
:102510008C01877009F1DA2CAA20F9F08F2D807FC9
:10252000803469F080E28E0D8830B0F08F2D807E8F
:10253000803229F4B1E0BE1578F4992069F08091D9
:10254000A80182FF09C082E00E94F70780918C01F8
:102550008770DD24D3948111D12CCF2CC2942FE02D
:10256000C222EBE0EC1508F4B5C0EC2DF0E0EF581A
:10257000F14E0C94A71D81E00E940E0843E062E03A
:1025800081E00E94CA07ECCD81E00E94EA07F6CF05
:102590008BE5E8168CE7F80661F19CE5E9169CE707
:1025A000F906E9F0AAE5EA16ACE7FA0609F08FCFDA
:1025B00081E01CC00E94210BBFEFE4E3FCE0B150BE
:1025C000E040F040E1F700C000000E940F046FEF10
:1025D0007FEF90E080E00E943B1E0E94060E8091FB
:1025E000A80182FB882780F991E089270E94CF0A01
:1025F0006ECF80E0FBCFC7010E945C07D82E76CF5C
:10260000FF2DFF70BF2E8F2D807F19F0B29490EFB9
:10261000B922AA20B9F0BB2069F080E28E0D883083
:1026200010F0811009C080919701B82AB0929701EB
:102630000E94E60A8E2D4CC080918E01B82AB0927D
:102640008E01F6CF8E2D0E942D0EBB2009F442C0C4
:1026500080E28E0D883010F0811004C08B2D0E9416
:102660004B0706C0B09480918E01B822B0928E01C3
:102670000E94E60A2FC02F2D2F70B22E8F2D807F43
:10268000803219F0B29480EFB822882089F031E0CE
:10269000831609F488C0AA2009F494C0992009F48B
:1026A00055C0F801868180FFC5CF8F7086834EC0EC
:1026B0008091A80182FD46C0AA20F1F1BB2039F02B
:1026C000809197018B29809397010E94E60A80E010
:1026D0000E946A0EAC2DA850BB0B149710F40E94F8
:1026E0009F04DD20A9F080918C0180FD11C0F801CC
:1026F00015828695869586950E940E08C8010E94CF
:10270000F40F80918C018695869586950E94EA0744
:1027100020E0D8014C9111965C91119712966C9122
:10272000129713967C91139714968C911497159683
:102730009C910E94AA0A24CD80E00E942D0EBB200D
:1027400049F28CCFAA20A1F0911004C08B2D0E94D9
:10275000230EC0CF81E09812BDCF80918D019B2DBB
:102760009823B91609F4B6CF8B2980938D01B2CF87
:102770009110B0CF8B2D0E941C0E90918D018B2D4E
:10278000892329F08B2D8095892380938D01909149
:102790006F018B2D892309F49DCF8B2D8095892383
:1027A00080936F0197CFAA2029F095E0991508F43E
:1027B00091CFCCCFA4E0A91508F48CCF8B2D0E942B
:1027C0001C0E88CF9920D1F3F9E38F1209C02FEFA7
:1027D00037EE83E0215030408040E1F700C0000038
:1027E0008E2D0E942D0E76CF8F2D86958695837027
:1027F00061F0813009F06ECFC7019370A11002C063
:1028000080E090E00E94550465CFC7019370A1104D
:1028100002C080E090E00E947A045CCF6A2D8E2D89
:102820000E941D0857CF8F2D837091F5A11052CFB4
:102830004E2D429546954770440F440F8E2D8F7054
:10284000042E01C0880F0A94EAF72E2D2071E4FEB1
:1028500007C02FE030E001C0220F4A95EAF720952B
:102860003F2D369536953370323069F050F44091F3
:10287000A501313029F0822B84230E941A082ACF27
:10288000842B822BFACF282B8091A5018227F5CFAC
:102890008695AA2011F08F2D8170882309F41ACF14
:1028A0004E2D429546954770440F440F8E2D8F70E4
:1028B000042E01C0880F0A94EAF72E2D2071E4FE41
:1028C00007C02FE030E001C0220F4A95EAF72095BB
:1028D0003F2D369536953370323069F050F4409183
:1028E000A601313029F0822B84230E94C707F2CE43
:1028F000842B822BFACF282B8091A6018227F5CF3B
:102900009F2D9F70F92EAA2029F0892F0E940E0872
:102910008E2D1DCF8E2D0E941C0E8F2D0E94EA073A
:10292000D9CE8E2DA2EF8A16B1F1A81570F0B0EFB6
:102930008B16D1F0E1EF8E1691F0AA2009F45EC05B
:10294000911078CE8F2D8F712AC0F3EF8F1651F131
:1029500024EF8212F2CF8091A80182FD2FC08F2D2B
:102960008F71AA20D9F21BC0AA2081F034E039155A
:1029700008F4B0CE2F2D2F7181E090E001C0880FB8
:102980002A95EAF79091A6018927AFCF85E08915AE
:1029900008F4A0CEEFCF8F2D8F71A110BFCF0E9472
:1029A0000E0898CE80E0AA2009F49FCF9F2D9F713A
:1029B00081E001C0880F9A95EAF797CFAA2099F095
:1029C0009F2D9F71F92E892F0E940E088091A801DA
:1029D00082FF07C0A8E0FA9EC001112483608093A3
:1029E0008C018F2DDCCF81E00E94F707B1E0B91593
:1029F00008F070CE82E00E94F7076CCE992059F063
:102A0000893309F0EDCEEFEFF7EE23E0E150F0402F
:102A10002040E1F7E3CE8F2D8F7180CFB6E1EB162A
:102A2000BCE7FB0609F033CD809197018A7A91E0EB
:102A300009F490E090936E0169E2811165E386E606
:102A400091E00E943B040E94E60A8ACBE6E1EE1682
:102A5000ECE7FE06A1F580916E01811116CD89E2A9
:102A6000E8E6F1E02EE631E09191891303C0DF0141
:102A700011971C922E173F07B9F7E5CFF701E851E0
:102A8000FC47E730F10508F421CC10922602C7017B
:102A90009057839708F0C2CF84E090E00E94071E11
:102AA0009093A8018093A701F701E150F047E2322B
:102AB000F10508F02DCCE358F14E0C94A71DF7E773
:102AC000EF16FCE7FF0609F45FCD28E7E2162CE7D6
:102AD000F20609F0FCCC82E058CDCF93DF938091D1
:102AE0008B01807F09F04DC080918A01882309F411
:102AF00048C0E09123025091EA01C0918601D09133
:102B00008501609187017091880147E05E17C9F1E6
:102B10008E2F90E0E49FF0011124E551FE4F2481B7
:102B2000222391F1489FF001499FF00D1124DF010C
:102B3000A551BE4F11962C9111972C1325C02C91A5
:102B40002D1322C015962C91159721111DC0129698
:102B50002D913C91261B370B243B3105A8F4809125
:102B60008B018F70806180938B01EF50FE4F8081CD
:102B70008F708061808385E891E00E94F40F0E944D
:102B80005207DF91CF910895FC013196E770BECFD7
:102B9000A4E1B0E0EEECF5E10C94BA1D8C0186E006
:102BA000F801DE011F9601900D928A95E1F7D80198
:102BB00014968C9114971596EC9095E8A92E91E0B7
:102BC000B92E90918901911128C0882319F1EE2026
:102BD000F1F0C8010E94870AF82E8823C1F087E02F
:102BE000F801D50101900D928A95E1F78091890154
:102BF000813031F480918501909186010E947A0A9A
:102C00000E946D158F2D6496ECE00C94D61DC801C2
:102C10000E94F40FFF24F394F5CFF801D080C18017
:102C200082809380F0908A01209187013091880101
:102C3000A401421B530BFF2009F4EEC0443B510595
:102C400008F0AAC08823F1F29091860180918B014F
:102C5000282F207F09F062C0C91215C0909185010C
:102C6000D91211C0E11049C08F70806180938B012F
:102C700085E891E00E94F40F80918B01D8011696AF
:102C80008C93F12CBFCFE11038C06C2D8D2D0E949C
:102C900092026C2D8D2D0E949202E82E8111F1CFAF
:102CA000DF86C88A8F8598890E947A0A292F229503
:102CB0002F70243058F49F70223088F0992399F0B7
:102CC000F8019681907F79F4FE2C9CCF2A5F2F70BB
:102CD000223068F0C8010E94F40FEF2CF5CF992341
:102CE00011F0882389F3805E883070F3F3CF803F42
:102CF00058F3815F833070F7E7CF80918B0181605B
:102D000080938B0185E891E00E94F40F87E0E5E86D
:102D1000F1E0DF011D928A95E9F7B3CFC91213C024
:102D200090918501D9120FC0E1100DC08683C801B2
:102D30000E94F40F87E0F801A5E8B1E001900D9240
:102D40008A95E1F75FCFC8010E94870A882309F4BA
:102D50005ECFEE2009F45BCF80918B01803288F04A
:102D60002091850130918601398728879B868A8644
:102D7000909189019C871D868E87CE0108960E94BE
:102D8000F40F87E0F801A5E8B1E001900D928A9573
:102D9000E1F70E946D153ECF90918B01292F207F86
:102DA00039F485E891E00E94F40F87E0D501B2CFB5
:102DB000882309F427CF809186018C1110C080915F
:102DC0008501D8120CC0E1100AC09683C8010E9488
:102DD000F40F87E0D5011D928A95E9F713CFC8015A
:102DE0000E94870A882309F412CFEE2009F40FCF3E
:102DF00080918B01803228F22091850130918601EB
:102E00003A8329839C828B82909189019D831E82C3
:102E10008F83CE010196B3CF443B5105F0F4882354
:102E200009F4F8CEFE2CEE2009F4F1CE8091860153
:102E30008C1105C080918501D81609F47BCFC8019B
:102E40000E94870A81119DCF80918B0181608093C0
:102E50008B01C8010E94F40FD5CE87E0F5011192D5
:102E60008A95E9F7CFCEABE1B0E0E9E3F7E10C9466
:102E7000C21D4E8B5F8B688F798F8A8F9B8F192F26
:102E8000911110928E011D8A86E0FE017696DE0178
:102E90001F9601900D928A95E1F70A8D002341F06B
:102EA00021E04F85588969897A89C8010E94AA0A58
:102EB0000B8B1C8B87E0FE013F96DE01189601907C
:102EC0000D928A95E1F7CE0108960E94C8158111EE
:102ED0002AC087E0FE013896DE01119601900D921E
:102EE0008A95E1F78C858823F1F02091EA0130E0A2
:102EF000C901019687709927409123024817190646
:102F0000E9F097E0929FD001939FB00D1124A55155
:102F1000BE4FFE01319601900D929A95E1F7809394
:102F2000EA010E94520717E0809123029091EA0182
:102F3000891312C06B96E4E00C94DE1D0E94210BF5
:102F40001092EA011092230287E0E5E8F1E0DF0148
:102F50001D928A95E9F7E7CF819FC0011124855121
:102F60009E4F0E94C815882329F38091230290E088
:102F700001968770992780932302D6CFA6E0B0E010
:102F8000E4ECF7E10C94C21D0E942F048C018091A7
:102F90009801909199018017910781F019821A8206
:102FA0000E942F04682F49815A81792F80E090E098
:102FB0000E94331710939901009398012696E4E03C
:102FC0000C94DE1D1F920F920FB60F9211242F93B7
:102FD0003F934F935F936F937F938F939F93AF93A1
:102FE000BF93CF93DF93EF93FF93D091E900DF700E
:102FF0008091EC00C82FC17080FDC0E81092E900FC
:103000008091F000877F8093F00078940E94480BB5
:103010001092E9008091F00088608093F000CD2B41
:10302000CF70C093E900FF91EF91DF91CF91BF91F5
:10303000AF919F918F917F916F915F914F913F9150
:103040002F910F900FBE0F901F9018951F920F9207
:103050000FB60F9211242F933F934F935F936F936B
:103060007F938F939F93AF93BF93EF93FF93809141
:10307000E10082FF09C08091E20082FF05C08091DB
:10308000E1008B7F8093E1008091DA0080FF24C013
:103090008091D80080FF20C08091DA008E7F8093DD
:1030A000DA008091D90080FF9DC080E189BD82E176
:1030B00089BD09B400FEFDCF81E08093E0018091DD
:1030C000D301811109C00E94B1020E945203809174
:1030D000E20084608093E2008091E10080FF17C0ED
:1030E0008091E20080FF13C08091E2008E7F809388
:1030F000E2008091E20080618093E2008091D8003C
:1031000080628093D80019BC85E08093E0018091B3
:10311000E10084FF2BC08091E20084FF27C080E1A2
:1031200089BD82E189BD89B5982F917080FFFBCF61
:103130008091D8008F7D8093D8008091E1008F7EB0
:103140008093E1008091E2008F7E8093E200809185
:10315000E20081608093E2008091E101882309F41C
:1031600047C084E08093E0018091E0018091E1001C
:1031700083FF27C08091E20083FF23C08091E1009C
:10318000877F8093E10082E08093E0011092E1016B
:103190008091E1008E7F8093E1008091E2008E7F3C
:1031A0008093E2008091E20080618093E20042E03F
:1031B00060E080E00E9420038091F00088608093AE
:1031C000F000FF91EF91BF91AF919F918F917F910F
:1031D0006F915F914F913F912F910F900FBE0F9084
:1031E0001F90189519BC1092E0011092D30174CF72
:1031F0008091E30087FD93E09093E001B5CF789450
:103200001F921FB61F9211248F939F93AF93BF936A
:103210008091CF019091D001A091D101B091D201C4
:103220000196A11DB11D8093CF019093D001A09371
:10323000D101B093D201BF91AF919F918F911F9017
:103240001FBE1F9018951F921FB61F9211248F93B7
:103250009F93AF93BF938091CE01811113C0809152
:10326000CF019091D001A091D101B091D2014196AE
:10327000A11DB11D8093CF019093D001A093D101E6
:10328000B093D201BF91AF919F918F911F901FBEBC
:103290001F901895CDB7DEB7A6970FB6F894DEBF8E
:1032A0000FBECDBF85B7806885BF85B7806885BFF5
:1032B00084B7877F84BF0FB6F894A895809160008B
:1032C000886180936000109260000FBE80E890E0FB
:1032D0000FB6F89480936100909361000FBE83E273
:1032E00095E090936501809364010E94B1020E9471
:1032F00052038091E20084608093E2007894809190
:10330000E0018823A1F01091E9001F709091EC007A
:10331000892F817090FD80E8182B1092E900809130
:10332000E80083FD0E94480B1F701093E90082E0C3
:1033300084BD93E095BD9AEF97BD80936E000E9487
:10334000F509811102C00E94E50980EF0E94250560
:1033500081EF0E94250584EF0E94250586E30E94E7
:10336000250508E411E0D8018D918D018F3F11F002
:103370000E942505B1E005351B07A9F788E0E3EBBE
:10338000F1E0DF01282F1D922A95E9F7EDE9F1E040
:10339000DF011D928A95E9F790E080E00E94071E08
:1033A000863E9E4F21F40E94F509811168C066EEA9
:1033B0007EEF90E080E00E943B1E60E082E090E0C3
:1033C0000E941D1E81E08093A50161E083E090E0F2
:1033D0000E941D1E60E074E184E090E00E943B1EAC
:1033E00060E086E090E00E941D1E60E087E090E0D3
:1033F0000E941D1E40E050E0BA0188E090E00E946B
:103400002F1E60E084E290E00E941D1E60E087E1D4
:1034100090E00E941D1E60E08CE090E00E941D1E66
:1034200060E08DE090E00E941D1E19821A821B82CE
:103430001C821D821E821F82188648E050E068E1CF
:1034400070E0CE0101960E940D1E40E050E0BA01EE
:1034500080E290E00E942F1E80E00E945E090E94A0
:10346000E50940E050E0BA018FE090E00E942F1E95
:1034700040E050E0BA0183E190E00E942F1E82E01C
:1034800090E00E94FF1D8093A90184E090E00E94DB
:10349000071E9093A8018093A7010E94C60EEFEF2C
:1034A000F6E721E0E150F0402040E1F700C00000E5
:1034B0000E94C60E8091B30180FF08C06FEF7FEFBE
:1034C00090E080E00E943B1E0E940F0483E090E0A9
:1034D0000E94FF1D0E941A0880E091E09093CB01AA
:1034E0008093CA01E8E14E2E512CFBEB6F2EF1E0E8
:1034F0007F2E8091E00112E1853009F496C00E9490
:10350000C60E6AEAA62E61E0B62E73EB872E71E036
:10351000972ED401F501219131918D919D9141E03A
:10352000E23BF40709F48BC028173907A1F3312CCB
:10353000D4010D911D914D01F501C190D1905F0114
:10354000C016D10661F1212CEE24E394F12CC026A3
:10355000D126C6018E219F21892BB9F029A23AA23A
:103560000E942F049CA38BA3F1E0FDA391E098019E
:103570002E213F21232B09F490E09EA349A15AA1BB
:103580006BA17CA18DA10E9433172394EE0CFF1C2C
:103590002DE02212DECFF5013297118300833394A0
:1035A00044E03412C5CF8FB7F8944091CF015091C9
:1035B000D0016091D1017091D2018FBF46C080913E
:1035C000E001843011F11092CE0140E40FB6F8947E
:1035D000A895409260000FBE4093600083B7817F42
:1035E000846083BF83B7816083BF7894889583B7F5
:1035F0008E7F83BF0FB6F894A89580916000886194
:1036000080936000109260000FBE8091DF018823DC
:1036100061F00E94C60EE3EBF1E081919191892B5C
:1036200009F052C26E167F06C1F78091E001853025
:1036300009F4C5CF0E94210B0E949F0460CF281778
:10364000390709F074CF0E94BE1786E0E2ECF1E082
:10365000DE01119601900D928A95E1F7D090C30199
:10366000F090C4011091C501E090C6010091C7011E
:103670001092C4011092C5011092C6011092C701A8
:10368000812F8F2909F445C08091C0019091C1011B
:103690000E9420049C019091BB01992309F43EC231
:1036A00025313105B0F19F3F19F09F5F9093BB0129
:1036B000FF2059F00E94F5049FEF1F140CF491E0D5
:1036C000899F802D11248093C401112359F00E94F9
:1036D000F50491E011160CF09FEF899F802D1124C5
:1036E0008093C5018091C401882399F0C090C501E1
:1036F000CC2079F00E941505882309F4B3C080938B
:10370000C4018C2D0E941505882309F4ADC0809357
:10371000C5018E2D802B09F445C08091BE0190918A
:10372000BF010E9420049C019091BC01992309F4DF
:10373000F0C121353105B0F19F3F19F09F5F9093A3
:10374000BC01EE2059F00E94D3049FEF1E140CF42C
:1037500091E0899F802D11248093C601002359F0A8
:103760000E94D30491E010160CF09FEF899F802DEA
:1037700011248093C7018091C601882399F0E090BD
:10378000C701EE2079F00E941505882309F46EC068
:103790008093C6018E2D0E941505882309F468C008
:1037A0008093C7018091C301D81217C08091C401D2
:1037B000882311F08F1111C02091C501222311F02F
:1037C00012130BC09091C701992311F0901305C0FB
:1037D0003091C601332309F48EC10E94AC0486E007
:1037E000FE013196A2ECB1E001900D928A95E1F7CD
:1037F0000E949F049091B201891769F08093B201F1
:103800008FB7F8944091CF015091D0016091D101D0
:103810007091D2018FBF8091E001843009F069CEB0
:1038200083E08093E9008091E80082FF62CE80917E
:10383000E80090E085FF05C00E94D0028823D1F007
:1038400091E08091E8008B778093E800992309F458
:1038500050CEE981E150E331A0F5F0E0E156F14EC0
:103860000C94A71D81E04BCF81E051CF81E090CF38
:1038700081E096CF00E210E0CE0101967C018091BC
:10388000E80085FD0AC08091E8008B778093E8000E
:103890000E94D002882399F3D3CF8091F100D70101
:1038A0008D937D010150110951F7CACF1A828CE026
:1038B0008B8324C08A81823009F422C128F48130AC
:1038C00061F08FEF89831AC0833009F18430C9F722
:1038D0001B821C821D821E8211C02FB7F89460913A
:1038E000CF017091D0018091D1019091D2012FBF71
:1038F0000E94AD1D6B837C838D839E8340E250E0EC
:10390000BE016F5F7F4F82E00E940109F2CD2B81E3
:10391000822F90E0FE013196225F8430910570F78E
:10392000DC01AA0FBB1FAD54BE4F3C9111964C91C8
:1039300043833483019632962813EFCFDFCF8A81F9
:10394000823019F08530D1F2BCCF6B817C818D81C2
:103950009E810E94AD1D88E290E00E941D1ECECF88
:103960004C816B818A810E940E0A982789279827AB
:103970009E838D83C3CF2D813E813227232732271B
:103980004C816B818A810E948709B8CF0E94AD0962
:10399000B5CFB0E1BA83B2CF81E08A838FEC88CF14
:1039A0000A811B81102701271027FE0131966F0124
:1039B000EC80CF018E0D911D7C01C8018F5C9D4F65
:1039C000EC14FD0409F49ACF0F3CA1E01A0750F45F
:1039D0000E94FF1DF60184830F5F1F4FBFEFCB1ABC
:1039E000DB0AEBCFD60114961C92F6CF0A811B811D
:1039F000102701271027FE0131966F01EC80E00EA1
:103A0000F12EF11CC8018F5C9D4FE016F10609F400
:103A100075CF0F3CF1E01F0728F4D60114966C9186
:103A20000E941D1EBFEFCB1ADB0A0F5F1F4FEACFAC
:103A30000E94770963CF85E08A8360CF0A811B816A
:103A4000102701271027FE0131966F01EC80CF016E
:103A50008E0D911D7C01C8018996EC14FD0409F4BA
:103A60004DCF0830A2E01A0750F40E94FF1DF60166
:103A700084830F5F1F4FBFEFCB1ADB0AECCFD60159
:103A800014961C92F6CF0A811B811027012710275C
:103A9000FE0131966F01EC80E00EF12EF11CC801A1
:103AA0008996E016F10609F429CF0830F2E01F07E5
:103AB00028F4D60114966C910E941D1EBFEFCB1AFC
:103AC000DB0A0F5F1F4FEBCFE0E1E9BD19BD09B481
:103AD00000FEFDCF8091D8008F7D8093D80080912B
:103AE000E00082608093E0008091E00081FDFCCFE7
:103AF0000E94210B9ACD822B892B09F470CE6DCEBA
:103B000088E290E00E94FF1D1B821C821D828E8332
:103B1000F5CE2B30310508F011CE44CE2B303105D7
:103B200008F0C3CDF6CD97FB072E16F4009407D00E
:103B300077FD09D00E94EB1D07FC05D03EF490955F
:103B400081959F4F0895709561957F4F0895EE0F71
:103B5000FF1F0590F491E02D0994692796276927A6
:103B600078278727782708952F923F924F925F9268
:103B70006F927F928F929F92AF92BF92CF92DF927D
:103B8000EF92FF920F931F93CF93DF93CDB7DEB7E2
:103B9000CA1BDB0B0FB6F894DEBF0FBECDBF099476
:103BA0002A88398848885F846E847D848C849B84CD
:103BB000AA84B984C884DF80EE80FD800C811B81DB
:103BC000AA81B981CE0FD11D0FB6F894DEBF0FBE0A
:103BD000CDBFED010895AA1BBB1B51E107C0AA1F71
:103BE000BB1FA617B70710F0A61BB70B881F991F9E
:103BF0005A95A9F780959095BC01CD010895F99942
:103C0000FECF92BD81BDF89A992780B50895A8E1AD
:103C1000B0E042E050E00C94431EDC01A40FB51F5D
:103C20004150504048F0CB01840F951F2E910E94C7
:103C30001E1E41505040D0F70895262FF999FECF0F
:103C400092BD81BDF89A019700B4021639F01FBAEF
:103C500020BD0FB6F894FA9AF99A0FBE089503960C
:103C6000272F0E941E1E0E941D1E252F0E941E1E11
:103C7000242F0C941E1E0196272F0E941E1E0C94AA
:103C80001D1EDC01CB01FC01F999FECF06C0F2BD7F
:103C9000E1BDF89A319600B40D9241505040B8F70A
:103CA0000895FB01DC0104C08D910190801921F47D
:103CB00041505040C8F7881B990B0895F894FFCFE6
:103CC000290C510CF40D510CF40D840CA50CF40DC1
:103CD000A30DB00D751179116A1171117D1181114A
:103CE0008511001300133B133B13F4130E146A13D6
:103CF0006A131314801491149114C2113712CA114B
:103D000094119811CE119C11D211DE11A81130120C
:103D1000AC11E211B011E6110E12B411EA11151234
:103D2000BA11F011F811A011D611A411DA11BE11B7
:103D3000F41104121E122E128E11C6113E12561CC0
:103D40005A1C9F1CB01CBB1CC61C611C611C611C46
:103D5000611C611CC91CCC1CD01CF61C181D1B1D31
:043D60001E1D431DC4
:103D64000C044A090B0443093C0901818283E200E3
:103D7400E900EA00B500B600B700CD008301CC002D
:103D84008A019201940121022302240225022602BF
:103D940027022A02B300B4006F0070009F01CB0118
:103DA4009F02A002F0F1F4366667F7F6F5349192BB
:103DB400939594969744227B49012701AC005704BC
:043DC40070049004F3
:00000001FF
