:100000000C942D020C9465020C9465020C9465020C
:100010000C9465020C9465020C9465020C946502C4
:100020000C9465020C9465020C9492210C94662247
:100030000C941D1C0C9465020C9465020C946502D2
:100040000C9465020C9465020C9465020C94650294
:100050000C9465020C94A41C0C9465020C9465022B
:100060000C9465020C9465020C9465020C94650274
:100070000C9465020C9465020C9465020C94650264
:100080000C9465020C9465020C9465020C94650254
:100090000C9465020C9465020C9465020C94650244
:1000A0000C9465020C9465020C9465022B001400FC
:1000B0001A000800150017001C0018000C001200A0
:1000C0001300407EE00004001600070009000A004B
:1000D0000B000D000E000F0033003400E1001D0086
:1000E0001B00060019000500110010003600370043
:1000F0003800E500E400E300E200777C787C2A0029
:10010000777C2C00787CE600E700E40001001E000C
:100110001F002000210022002300240025002600CB
:1001200027002D0001001E021F02200221022202D0
:10013000230224022502260227022D020100350097
:1001400035022E002E02000000002F0030002F028A
:100150003002010001000100010001000100010066
:1001600001000100010001000100010001006A001E
:100170006B006C006D006E004A004E004B004D009D
:100180000000460001006F007000710072007300F3
:100190005000510052004F000000450001003A009D
:1001A0003B003C003D003E003F004000410042005B
:1001B00043004400010001000100010001004C0067
:1001C0000100280001000100010001000000000002
:1001D00000000000007C00000000000000000000A3
:1001E0000000000000000000A60000000000000069
:1001F0000000AA00A90000000000000000000000AC
:1002000000000000000000000000A8000000000046
:1002100000000000000000000000000000000000DE
:1002200000000000000000000000000000000000CE
:10023000000000002A2B2800000000000000000041
:100240000000000000000029000000002C1E3420E7
:10025000212224342627252E362D3738271E1F200D
:100260002122232425263333362E37381F04050652
:100270000708090A0B0C0D0E0F1011121314151696
:100280001718191A1B1C1D2F3130232D3504050694
:100290000708090A0B0C0D0E0F1011121314151676
:1002A0001718191A1B1C1D2F3130354C0000000087
:1002B000000000000000000000000000000000003E
:1002C000000000000000000000000000000000002E
:1002D0007E0F00D4FFFFFFC7000000781403430027
:1002E0006F0072006E0065006C006900750073009D
:1002F00000001403590075007300680061006B0072
:100300006F0062006F0000000403090409025B0033
:10031000030100A0FA090400000103010100092102
:1003200011010001224400070581030800010904AE
:100330000100020300000009211101000122220036
:1003400007058203200001070503032000010904BB
:1003500002000103000000092111010001227B00BD
:100360000705840320000112010002000000086557
:100370003205000100010200010660FF0961A101D0
:100380000962150026FF0095207508810209631592
:100390000026FF00952075089102C005010902A101
:1003A0000185020901A10005091901290815002587
:1003B0000195087501810205010930093115812572
:1003C0007F95027508810609381581257F9501758D
:1003D000088106050C0A38021581257F95017508EC
:1003E0008106C0C005010980A101850319012AB752
:1003F00000150126B700950175108100C0050C0994
:1004000001A101850419012AA002150126A0029567
:100410000175108100C005010906A101050719E059
:1004200029E71500250195087501810295017508D8
:1004300081010507190029FF150026FF00950675A3
:100440000881000508190129051500250195057584
:10045000019102950175039101C011241FBECFEFD8
:10046000DAE0DEBFCDBF04B603FE18C0809179028A
:1004700090917A02A0917B02B0917C028730904BE0
:10048000A740B04B59F41092790210927A02109260
:100490007B0210927C02E0E0F8E3099511E0A0E015
:1004A000B1E0EAE6FAE402C005900D92AA3AB1077B
:1004B000D9F722E0AAEAB1E001C01D92A937B2073C
:1004C000E1F70E940B120C94E1240C940000CF93EE
:1004D000803E910529F080349E4779F0C1E007C045
:1004E000FB01C581CC2331F081E08093AC018C2FDE
:1004F000CF9108951092AC01F1CFFB018581882343
:1005000081F0C091AC01CC2341F080EE0E94B70491
:1005100089E20E942904C0E0EACF81E30E94290415
:10052000E6CF89E20E94B70481E30E94B704C0913C
:10053000AC01CC23E1F280EEECCF8430B8F464302F
:10054000A8F44C3098F450E09CE0699F400D511D98
:100550001124FA0190E3899FE00DF11D1124EE0FA3
:10056000FF1FE455FF4F85919491089581E090E03D
:10057000089581E008950E94B902089581E00895E8
:100580000E946702089508950E94C3020895A6E09C
:10059000B0E0EDECF2E00C943D2449835A839E8355
:1005A0003091B20189819A8131111AC03E81332381
:1005B00099F0222389F00E94A608182F682F8981BC
:1005C0009A810E94820869817A81812F0E94AF0FEF
:1005D0002696E3E00C9459240E949408182FF3CF38
:1005E0000E94A60869817A81F1CFFC01262F408103
:1005F000518162817381848195810E94C70208952F
:10060000CF93DF93EC0161E00E94F502BE010E94EE
:10061000BB02DF91CF910895CF93DF93EC0160E0AF
:100620000E94F502BE010E94C402DF91CF9108959D
:1006300081E008950E9418030895CF93C82F0E9467
:100640007E078C2F0E941A032FEF84E39CE0215039
:1006500080409040E1F700C00000CF91089581E014
:100660000E941D030E94C81C089580E00E941D0383
:100670000E94EC1C08950F931F93CF93DF938C017E
:1006800061E00E94F502EC01B8010E94E0198111BD
:1006900006C080E0DF91CF911F910F910895B801BE
:1006A000CE010E94C0028823A1F3B801CE010E94AE
:1006B000ED18882371F3B801CE010E940814882335
:1006C00041F3B801CE010E94DE13882311F3B80173
:1006D000CE010E9431198823E1F2F8018581882337
:1006E00061F0C330FCE7DF07E9F058F4C115ECE72F
:1006F000DE07A9F0C130DC47B9F0C8010E94BE0294
:10070000C9CFCB358CE7D807A9F0CC35ECE7DE07AD
:1007100071F0CA35DC4789F70E94DF0CEECF0E94EA
:100720002F03B7CF0E94E70C0E943503B2CF0E947F
:10073000D50CE3CF0E94E30CE0CF0E94F91B0E948E
:10074000C40308950E94C8030E94FE1B08950895E3
:1007500081E008950895CF93DF93D82F0E94A803D6
:10076000C82F882319F08D2F0E94AA038C2FDF91A8
:10077000CF9108950895CF93C82F0E94A7038C2F7F
:100780000E94AB03CF91089580E00E94BB030895BF
:100790000E94CC1A0E94BB030895CF930E94CC1AEA
:1007A000C82F8091AD018C1779F0C093AD010E94E4
:1007B000891C6093AE017093AF018093B001909358
:1007C000B1018C2F0E94BB03CF910895ADE0B0E042
:1007D000ECEEF3E00C943E24488759876A877B87C8
:1007E0008C879D8791110E94150C1F8286E0FE0167
:1007F0003896DE01119601900D928A95E1F78D8170
:1008000081110DC029813A814B815C816D817E818E
:100810008F810E945F0B2D96E2E00C945A24CE014A
:1008200001960E9400038111EDCFF5CFFC012481D8
:10083000213021F4808191810E94D308089566239C
:1008400029F00E9469150E944E1608950E94D51540
:10085000FACFCF93C82F8823C9F08238C9F40E94F9
:10086000D91A81FD13C089E30E948F1B0E94840C5A
:100870002FEF87EE93E0215080409040E1F700C0D9
:10088000000089E30E94971B0E94840CCF91089579
:100890008338A1F40E94D91A80FDF8CF83E50E9425
:1008A0008F1B0E94840C2FEF81EE94E0215080403A
:1008B0009040E1F700C0000083E5E4CF8438A1F464
:1008C0000E94D91A82FDE2CF87E40E948F1B0E940A
:1008D000840C2FEF81EE94E0215080409040E1F7AE
:1008E00000C0000087E4CECF8CEF8C0F813A70F40B
:1008F0008C2F0E94541B882329F08C2F0E94971B59
:100900000E94840C8C2F0E948F1BBECF80E28C0F24
:10091000883048F4C77081E001C0880FCA95EAF7B3
:100920000E94F80BB1CFEBE5EC0FE33040F4F0E0C0
:10093000E25BFE4F808190E00E94F51AA7CFE8E5C8
:10094000EC0FEB3150F4F0E0EE0FFF1FE85EFE4FCE
:10095000808191810E941A1B99CF83E38C0F833190
:1009600008F094CF61E08C2F0E941F048FCF882362
:1009700009F456C0823879F40E94D91A81FF50C018
:1009800089E30E948F1B0E94840C89E30E94971BBD
:100990000E94840C0895833859F40E94D91A80FF6C
:1009A0003FC083E50E948F1B0E94840C83E5EECF3D
:1009B000843859F40E94D91A82FF32C087E40E9419
:1009C0008F1B0E94840C87E4E1CF9CEF980F913A33
:1009D000E8F290E2980F983050F4877091E001C0EF
:1009E000990F8A95EAF7892F0E94FE0BD1CF9BE5DC
:1009F000980F933028F490E080E00E94F51A089553
:100A000098E5980F9B3128F490E080E00E941A1B33
:100A1000089593E3980F933118F460E00E941F0447
:100A200008951F93CF93DF93182FEB010E942904A1
:100A3000209739F4812F0E94B704DF91CF911F9145
:100A400008958FE99FE00197F1F700C0000021971A
:100A5000EFCF70E060E0893311F460E570E00E9450
:100A600011050895882321F00E94F80B0E94840C40
:100A70000895882321F00E94FE0B0E94840C0895A3
:100A8000B0E0A0E0E6E4F5E00C9437246C01D62F4A
:100A9000C72FFC011581068102950F700E94EE0B95
:100AA000E82E8823F9F0E12E1123E1F08C2F807FCE
:100AB000803461F080E28D0F883008F18C2F807EC9
:100AC000803221F4D230D8F00023C9F0809157024F
:100AD00082FF15C082E00E94A90C0E94EE0B91E0FB
:100AE000E82EE926BC2EB2949FE0B922FBE0FB156C
:100AF000B8F1EB2DF0E0ED51FB4D0C942124E12CED
:100B0000F1CF0C2F0F70C07F11F00295007F1123E1
:100B100099F0002359F080E28D0F883010F0D11148
:100B200007C0802F0E94F80B0E94840C8D2F5AC0A2
:100B3000802F0E94080CF8CF8D2F0E94B70400234D
:100B400079F080E28D0F883010F0D11104C0802F31
:100B50000E94FE0B03C0802F0E940E0C0E94840C8A
:100B6000EB2DE850FF0B349720F40E94CC1A0E9422
:100B7000BB03EE2089F00E94EA0B80FD0DC0F60158
:100B800015820E94E40B0E94F607C6010E944507E9
:100B90000E94E40B0E940208CDB7DEB7E9E00C9496
:100BA00053242C2F2F70F22EC07FC03219F0F294F4
:100BB00080EFF822DD2341F0D130D1F1112309F487
:100BC00044C00023F1F0B2CF8091570282FD15C0DE
:100BD000112359F0FF2029F08F2D0E94F80B0E945D
:100BE000840C80E00E942904BBCF80E00E94B704FF
:100BF000FF2009F4B5CF8F2DABCF112369F0011180
:100C000004C08F2D0E943205ABCF013009F0A8CF70
:100C10008F2D0E942C0CA4CF0111A2CF8F2D0E94EA
:100C200039058F2D0E94380C8F2D0E941C0C98CFF7
:100C3000112321F0063008F093CFE3CF053008F000
:100C40008FCF8F2D0E9439058BCF0023D1F3D9335D
:100C500049F43FEF87EE93E0315080409040E1F758
:100C600000C000008D2F0E94B7047ACF8C2F86958C
:100C70008695837069F0813009F072CF8D2F9C2F9B
:100C80009370111102C080E090E00E941A1B68CF9F
:100C90008D2F9C2F9370111102C080E090E00E9474
:100CA000F51A5ECF612F8D2F0E941F0459CF8C2F14
:100CB000837079F5111154CF4D2F429546954770A9
:100CC000440F440F8D2F8F70042E01C0880F0A949B
:100CD000EAF72D2F2071D4FF07C02FE030E001C0CC
:100CE000220F4A95EAF72095C695C695C370822BC8
:100CF000C23049F058F4C13019F00E94D20730CF09
:100D00000E94CC072DCF0E94D8072ACF0E94C90786
:100D100027CF8695112311F08C2F8170882309F439
:100D20001FCF4D2F429546954770440F440F8D2F8E
:100D30008F70042E01C0880F0A94EAF72D2F2071BE
:100D4000D4FF07C02FE030E001C0220F4A95EAF738
:100D50002095C695C695C370822BC23049F058F4D1
:100D6000C13019F00E942108FBCE0E941B08F8CE6A
:100D70000E942708F5CE0E94E407F2CECF7011231F
:100D800029F08C2F0E94F6078D2F3CCF8D2F0E94CB
:100D900039058C2F0E940208E3CED23F41F160F466
:100DA000D03FB9F0D13F81F0112309F446C00111C1
:100DB000BDCE8C2F8F711FC0D33F01F1D43FA1F75F
:100DC0008091570282FD24C08C2F8F71112311F363
:100DD00012C0112341F0053008F0C2CE8C2F8F7164
:100DE0000E940F08BDCE063008F0BACEF7CF8C2F88
:100DF0008F711111CFCF0E94F607B2CE112329F0C7
:100E00008C2F8F710E94ED07ABCE0E94E907A8CE10
:100E1000112349F0CF718C2F0E94F60763E08C2FCD
:100E20000E948B0C9DCE81E00E94A90C023008F438
:100E300097CE82E00E94A90C93CE002359F0D933BB
:100E400009F010CFEFEFF7EE23E0E150F040204043
:100E5000E1F706CF8C2F8F719DCF0F931F93CF9308
:100E6000DF93EC01688179818D810E94DE088C011D
:100E70000E942D080E94C807B801CE010E944005BB
:100E8000DF91CF911F910F910895CF93DF93EC01E4
:100E90008C81882399F0CE010E943B03811111C0FF
:100EA0000E94EE0B882351F08D81882339F08091C8
:100EB000570282FF03C082E00E94A90CDF91CF910C
:100EC0000895CE010E942D07CE010E940C03F6CF9B
:100ED00090E080E00E94F51A90E080E00E941A1BEA
:100EE0000E94150C0E94840C0E946A160E944E16E5
:100EF00008950E949F1B0E94680708950E94050C98
:100F00000E947907089592959F70963091F058F459
:100F1000925F9F70923058F4803F19F030F4883E11
:100F200030F481E008959A5FF4CF843FD1F380E0FC
:100F30000895883EB0F3813FD1F7F3CFFC012481BF
:100F4000222339F0808191810E94D3080E94830777
:100F5000089580E00895A6E0B0E0E1EBF7E00C949E
:100F60003E242696E2E00C945A24A7E0B0E0EBEB96
:100F7000F7E00C943E242796E2E00C945A2408955E
:100F80000E94BF0708950E94C0078093C60108957C
:100F900008950E94C30708959091C601892B0E946D
:100FA000C30708959091C60189230E94C30708953D
:100FB0009091C60189270E94C30708950E94BF0728
:100FC00008950E94DE0708950E94E1078093C501FD
:100FD000089580E00E94E407089591E001C0990F10
:100FE0008A95EAF7892F0E94E407089521E030E00E
:100FF00001C0220F8A95EAF78091C501822B0E94D9
:10100000E407089521E030E001C0220F8A95EAF755
:1010100020958091C50182230E94E407089521E074
:1010200030E001C0220F8A95EAF78091C50182273E
:101030000E94E40708959091C501892B0E94E4075E
:1010400008959091C50189230E94E4070895909125
:10105000C50189270E94E40708950895262F277067
:1010600091E001C0990F2A95EAF723E076956795FC
:101070002A95E1F7FB01EE0FFF1FE60FF71FE40FC4
:10108000F51F50E040E0682F70E08191DF0111977B
:101090009B01042E02C0369527950A94E2F7217031
:1010A00021952827292328272C934F5F5F4F433012
:1010B000510559F70895A82FA77023E096958795B5
:1010C0002A95E1F7FC01EE0FFF1FE80FF91FE60F6D
:1010D000F71F50E040E080E0219130E00A2E02C08E
:1010E000369527950A94E2F721703327042E01C024
:1010F000220F0A94EAF7822B4F5F5F4F433051056E
:1011000059F70895262F943070F48C3060F4682FCE
:1011100070E08CE0989F600D711D112443EB51E04D
:10112000822F0E942E080895292F943068F48C3065
:1011300058F490E063EB71E03CE0239F800D911D3B
:1011400011240E945B08089580E00895CF92DF92F9
:10115000FF920F931F93CF93DF936C010091C50112
:101160008091C601082BC3E0D0E010E0FC2EC8013E
:101170000C2E02C0959587950A94E2F780FD0CC06D
:101180002197A0F7F12C8F2DDF91CF911F910F9117
:10119000FF90DF90CF900895B6018C2F0E94BB0F77
:1011A000019771F3F0CFCF93DF93EC010E94A60873
:1011B000BE010E94BB0FDF91CF9108951F93CF9383
:1011C000DF93EB019091B201992339F0CB010E949A
:1011D000D308DF91CF911F910895882369F0CB0147
:1011E0000E94A608182F682FCE010E948208BE0117
:1011F000812F0E94BB0FEDCFCB010E949408182FC6
:10120000F6CFE1E0F0E0DF0102C0AA0FBB1F6A9554
:10121000E2F7BD01DF0102C0AA0FBB1F4A95E2F74A
:101220006A2B01C0EE0F2A95EAF7962F98239613A2
:1012300002C08E2B0895E0958E230895242F462F0B
:10124000682F8091C5010E9401090E94E40708955A
:101250001F93CF93DF93C091C70117E08091C8011E
:101260008C1304C0DF91CF911F910895D0E01C9F93
:10127000F0011D9FF00D1124E753FE4F20813181B5
:10128000428153816481758186810E94B5072196D0
:10129000C770E4CF20910102309102024091030215
:1012A000509104026091050270910602809107023C
:1012B0000E94B5070895CF93DF9380910702807F46
:1012C00009F04DC080910602882309F448C0E091DE
:1012D000C7015091C801C0910202D09101026091F2
:1012E00003027091040247E05E17C9F18E2F90E06F
:1012F000E49FF0011124E753FE4F2481222391F152
:10130000489FF001499FF00D1124DF01A753BE4F04
:1013100011962C9111972C1325C02C912D1322C0BE
:1013200015962C91159721111DC012962D913C9167
:10133000261B370B283C3105A8F4809107028F70DB
:10134000806180930702E153FE4F80818F7080613E
:10135000808381E092E00E9445070E942809DF9186
:10136000CF910895FC013196E770BECF482F2091B0
:10137000C7019091C80157E0291302C080E0089589
:1013800030E0529FF001539FF00D1124E753FE4FC0
:101390008181681306C08081481303C08581811153
:1013A000EECF2F5F3F4F2770E7CFA4E1B0E0EBED2A
:1013B000F9E00C9434248C0186E0F801DE011F96DC
:1013C00001900D928A95E1F7F8018481E58091E022
:1013D000A92E92E0B92E9091050291111FC0882389
:1013E000D1F0EE20A9F0C8010E949E07F82E8823B4
:1013F00079F087E0F801D50101900D928A95E1F727
:10140000C5010E9416040E945B090E944A095FC040
:10141000C8010E944507FF24F39459C0C080D180C1
:1014200082809380F09006022091030230910402A2
:10143000A401421B530BFF2009F4F9C0483C51059D
:1014400008F0A7C0882309F442C09091020280915D
:101450000702282F207F09F05CC09D1116C09091D3
:101460000102C91212C0E1104EC08F7080618093DA
:1014700007020E944A0981E092E00E94450780919C
:101480000702F8018683F12C22C0E1103CC06D2DCB
:101490008C2D0E94B6096D2D8C2D0E94B609E82E68
:1014A0008111F1CFCF86D88A8F8598890E94D30881
:1014B000292F22952F70243078F49F702230A8F0C5
:1014C0009923B9F0F8019681907F99F4FE2C8F2D25
:1014D0006496ECE00C9450242A5F2F70223068F060
:1014E000C8010E944507EF2CF1CF992311F0882302
:1014F00069F3805E883050F3F3CF803F38F3815F2B
:10150000833070F7E3CF80910702816080930702F8
:10151000BACF9D1113C090910102C9120FC0E11002
:101520000DC08683C8010E94450787E0F801A1E04D
:10153000B2E001900D928A95E1F767CFC8010E9451
:101540009E07882309F464CFEE2009F461CF8091CF
:101550000702803288F0209101023091020239871F
:1015600028879B868A86909105029C871D868E8798
:10157000CE0108960E94450787E0F801A1E0B2E09D
:1015800001900D928A95E1F70E945B090E944A0939
:1015900042CF90910702292F207FA1F4682D9A8ACB
:1015A000898AA6017A899E2D0E94AB0781E092E08C
:1015B0000E94450787E0F50111928A95E9F70E949C
:1015C0004A0961CF882309F482CF809102028D11EC
:1015D00010C080910102C8120CC0E1100AC09683AD
:1015E000C8010E94450787E0F50111928A95E9F745
:1015F0006ECFC8010E949E07882309F409CFEE2010
:1016000009F406CF80910702803208F4B5CF20910B
:101610000102309102023A8329839C828B8290914D
:1016200005029D831E828F83CE010196A3CF483C85
:101630005105B8F5882309F4EECEFE2CEE2009F40E
:10164000E7CE809102028D111EC080910102C81266
:101650001AC08091070280FD0DC0982F907F51F035
:101660008683903F09F45ECF982F907F905F8F70B4
:10167000892B57CF87E0F801A1E0B2E001900D92ED
:101680008A95E1F724CFC8010E949E07811174CF8B
:1016900080910702816080930702C8010E9445077C
:1016A00016CF682D9A8A898AA6017A899E2D0E9472
:1016B000AB0787E0F50111928A95E9F7A6CEAEE077
:1016C000B0E0E5E6FBE00C943D24288739874A87A3
:1016D0005B876C877D878E87CE0108960E94D5092F
:1016E0008823B1F06C85662341F0288539854A85C9
:1016F0005B857D858E850E94B50717E08091C701C7
:101700009091C80189133DC02E96E3E00C945924B2
:1017100087E0FE013896DE01119601900D928A95C0
:10172000E1F78C85882349F32091C80130E0C90195
:101730000196877099274091C7014817190699F0BB
:1017400097E0929FD001939FB00D1124A753BE4FF5
:10175000FE01319601900D929A95E1F78093C801B0
:101760000E942809CACF0E947E071092C8011092D9
:10177000C70187E0E1E0F2E0DF011D928A95E9F719
:10178000BCCF819FC001112487539E4F0E94D50971
:10179000882309F4B9CFE091C7011E9FF0011124FD
:1017A000E753FE4F208131814281538164817581ED
:1017B00086810E94B5078091C70190E001968770ED
:1017C00099278093C7019ACF8091100286958695BC
:1017D0008695089580911002877008959091100267
:1017E000977081E009F480E0089580911C020895CB
:1017F00090911C02892B80931C02089580959091F2
:101800001C02982390931C02089510921C020895C4
:1018100090911B02892B80931B02089580959091D3
:101820001B02982390931B02089510921B020895A7
:1018300008950E94180C089590911102292F2823D1
:1018400031F080958923809311020E94190C08952C
:1018500008950E94280C089590911202292F2823A0
:10186000281729F0982B909312020E94290C0895B2
:1018700090911202292F282331F08095892380939B
:1018800012020E94290C089580911202882329F0E7
:101890001092120280E00E94290C08950F931F936A
:1018A000CF93DF930091000110910101C0911C02C0
:1018B00080911B02C82B80911202882331F0C82B23
:1018C0000E943F1B81110E94440CF801C083C0910B
:1018D0000001D091010148E050E068E072E0CE01E3
:1018E0000E947924892B59F088E0FE01A8E0B2E03B
:1018F00001900D928A95E1F7CE010E94DC1ADF91EA
:10190000CF911F910F9108950E944E0C0895089554
:101910000E94870C08959091570292FF11C098E0A1
:10192000899F90011124622B609310020E94F60798
:10193000809110028695869586950E94880C089560
:101940000E94F60708951092100280E00E94880C11
:101950000895909110028095892380931002282F7A
:10196000277069F4891759F09091570292FF07C0C8
:101970008695869586950E9402080E94A30C08957C
:101980009091570292FB222720F9281769F080FBDB
:1019900092F99093570280915602909157020E94BB
:1019A000090D82E00E94A90C08958091570282FBE4
:1019B000882780F991E089270E94C00C089581E072
:1019C0000E94C00C089580E00E94C00C08956FEF43
:1019D0007FEF90E080E00E94CB24089590E080E0CB
:1019E0000E949724863E9E4F19F40E947A1908950A
:1019F00080E0089582E090E00E948F24089583E0C3
:101A000090E00E948F24089584E090E00E94972443
:101A10000895BC0184E090E00E94CB240895AB01BE
:101A2000BC018FE090E00E94BF240895AB01BC018F
:101A300083E190E00E94BF24089560E070E0CB0154
:101A40000E94160D089560E070E0CB010E940F0D1A
:101A50000E941D0D0895A8E0B0E0E1E3FDE00C94C4
:101A60003E2466EE7EEF90E080E00E94CB2460E0B2
:101A700082E090E00E94AD2481E08093C60161E0A5
:101A800083E090E00E94AD2460E074E184E090E0A7
:101A90000E94CB2460E086E090E00E94AD2460E0EC
:101AA00087E090E00E94AD2440E050E0BA0188E079
:101AB00090E00E94BF2460E084E290E00E94AD24A8
:101AC00060E087E190E00E94AD2460E08CE090E06F
:101AD0000E94AD2460E08DE090E00E94AD24198268
:101AE0001A821B821C821D821E821F82188648E079
:101AF00050E068E170E0CE0101960E949D2440E034
:101B000050E0BA0180E290E00E94BF2480E00E9491
:101B100093190E94C2190E94230D2896E2E00C94AA
:101B20005A240E942B0D0895682F8EE090E00E94A9
:101B3000AD240895A6E0B0E0E0EAFDE00C943C247A
:101B40000E947D1C8C0180911D0290911E028017C5
:101B5000910781F019821A820E947D1C682F4981A9
:101B60005A81792F80E090E00E94E60310931E02D4
:101B700000931D022696E4E00C9458240E94891CD0
:101B800060932B0270932C0280932D0290932E026F
:101B900060932702709328028093290290932A026F
:101BA0000895089508950E94D10D089508950E9402
:101BB000D60D089581EB90E10E9418120E94D20D7B
:101BC0000E94D30D089581E008950E94E30D0895C9
:101BD0000E94E30D0895089508950E94EB0D0E9460
:101BE000EC0D08950E94EE0C811102C00E94910D2F
:101BF0000E94FA0C80932F020E94040D90935702CA
:101C0000809356020E943B120E94FF0C0E94C9075B
:101C10008091C5010E94E10708950E94741C0E94F2
:101C2000D2190E9470110E94F20D0E94BA030E9404
:101C3000D70D0895A6E0B0E0E0E2FEE00C94322477
:101C40000E94E50D81110AC00E949A0D0E948C1617
:101C50000E94CD032696EEE00C944E240E9486113D
:101C60002FE1822E22E0922E640110E0F601E19035
:101C7000F1906F01812F0E94BB101F5F143009F497
:101C80004BC0E816F90691F380912F0281FD0E9466
:101C9000C4100E94E80D782E10E066246394812F12
:101CA0000E94BB107C01F401A190B1904F018A15F4
:101CB0009B0561F100E0CC24C394D12CAE24BF2459
:101CC000C5018C219D21892BC1F07720B1F00983BA
:101CD0001A830E947D1C9C838B836D8221E0C70147
:101CE0008C219D21892B09F420E049815A816B8147
:101CF0007C818D81922F0E94E6030F5FCC0CDD1C4E
:101D00000C30F1F6F4013297F182E0821F5F14305B
:101D100031F60E94BE0D9ACFE816F90609F0B4CF4D
:101D200093CF1F93CF93DF930E94C00FEC01C11597
:101D300080E5D807F0F5C11580E4D80708F09CC00D
:101D4000C03ED10520F5CD3CD10508F082C0C83A8F
:101D5000D10578F4C53AD10508F073C0C130D1057A
:101D600019F1209709F1C430D105F0F4D0E0C0E0BA
:101D70001BC0C33CD105D0F7C85AD0E0CC0FDD1F43
:101D8000CF5ADE4F0990D881C02DD4640DC0C11543
:101D900080E2D80708F0D1C0C11581E0D80708F06B
:101DA0005AC0C83ED10510F7CE01DF91CF911F91E7
:101DB0000895C03682E5D80718F5C03482E5D80703
:101DC00008F06BC0C03282E5D80708F05FC0C115CB
:101DD00082E5D80708F497C02C2F2695269580E237
:101DE000289F900111248C2F8370C1E0D0E002C0A5
:101DF000CC0FDD1F8A95E2F7C22BD32BDD68D4CF41
:101E0000C03A82E5D80760F4C03882E5D80708F404
:101E100059C0CF71D0E0DC2FCC27C46FD06AC4CFBB
:101E2000C03C82E5D80708F462C0C03E82E5D8070E
:101E300008F09CCFDC2FCC27CC27DF71C06FD06A95
:101E4000B3CFC55AD0E0C957DE4FC881D0E0D064C7
:101E5000ABCFD065A9CF8D2F0E946210182FCE0175
:101E600099270E94C00FC12FD0E0DC2FCC27CC27B0
:101E7000DF71C82BD92B98CFCE0199270E94C00FB4
:101E8000CC27DF70C82BD92BD06A8ECFCF71D0E092
:101E9000DC2FCC27C16FD06A87CF2C2F26952695B3
:101EA000277080E2289F900111248C2F8370C1E05D
:101EB000D0E002C0CC0FDD1F8A95E2F7C22BD32BF6
:101EC000DC6872CF2C2F26952695277080E2289FFC
:101ED000900111248C2F8370C1E0D0E002C0CC0FA0
:101EE000DD1F8A95E2F7C22BD32BDA685DCF8C2FEA
:101EF0008F710E946210C82FD0E0DC2FCC27CC2736
:101F0000DF71D06251CF8C2F8F710E94621055E02B
:101F1000D695C7955A95E1F7CF70D0E0DC2FCC2746
:101F2000282F30E084FF05C044E0220F331F4A957C
:101F3000E1F7C22BD32BD06937CF8D2F8F710E9441
:101F40006210182FCE0199270E94C00FC12FD0E038
:101F5000DC2FCC27CC27DF71C82BD92BD2CF462F33
:101F6000743030F46C3020F4672F0E94F61208951C
:101F700090E080E008950E94AF0F0E94910E0895B6
:101F800082389105B9F1B0F48133910509F47DC02F
:101F900048F48932910509F46DC08A32910509F43B
:101FA0007BC008958533910509F45FC0893391059D
:101FB00009F10895833E9105D9F138F4803E9105E9
:101FC00029F1823E910579F10895863E9105D9F176
:101FD000873E910509F43EC0843E910541F520916C
:101FE000570221FF24C08091560284FD19C087EE5C
:101FF00090E0089520915602237009F05AC0209174
:10200000570223FF14C089E290E008952091560200
:1020100020FD38C03091570230FF09C024FF43C073
:1020200090E080E008952091560222FDF7CF0895B8
:102030002091560222FD3AC03091570230FD39C03E
:1020400024FFF5CFEDCF2091560223FFF0CF24FDE2
:10205000E7CFCDCF2091560223FD2EC030915702FD
:1020600031FFEECF84EE90E008952091560225FFD7
:10207000DECFC9CF2091560225FD21C02091570205
:1020800023FFD5CF89E390E0D2CF2091560226FFDF
:10209000CECF8AE290E008952091560226FFC7CF66
:1020A00081E390E0089583EE90E0089582EE90E061
:1020B000089580EE90E0089586EE90E0089585E31F
:1020C00090E008959091560292FF10C041E0282FB1
:1020D0002471243009F040E031E0282F28712830A5
:1020E00009F030E0431711F02CE0822793FF10C075
:1020F00041E0282F2471243109F040E031E0282FFD
:102100002871283109F030E0431711F02CE08227C4
:102110003091570230FF10C051E0282F217121303B
:1021200009F050E041E0282F2871283009F040E004
:10213000541711F029E0822731FF10C041E0282F09
:102140002171213109F040E031E0282F2871283138
:1021500009F030E0431711F029E0822794FD877ED3
:10216000089580E0089508950E94B3100895089599
:102170000E94B7100895E82FF0E0EE0FFF1FE05A1D
:10218000FD4F808191810895089580EA8A95F1F745
:10219000089500C008950E94C5100895F894E82F8E
:1021A000E295EF70F0E031A1282F2F7081E090E0F0
:1021B00001C0880F2A95EAF7982F9095932391A351
:1021C00092A1892B82A378940895CF93DF9380E323
:1021D0000E94CE1081E30E94CE1082E30E94CE10B6
:1021E00087E60E94CE10CAE8D1E089918F3F11F0B6
:1021F0000E94CE1081E0C639D807B9F7DF91CF91A0
:102200000895AF92BF92DF92EF92FF920F931F93C8
:10221000CF93DF938C01D62EC62FD0E0CE018A5605
:102220009E4F7C01FC0120812F3F09F44CC0F894A3
:10223000E22FE295EF70F0E031A12F7081E090E0A5
:1022400001C0880F2A95EAF7932F982B91A392A1AA
:102250008095892382A378940E94C910EAE8F1E06E
:1022600041E050E0B12CA12C21912F3FB1F1A22FE0
:10227000A295AF70B0E090968C9190E02F7002C064
:10228000959587952A95E2F780FD27C0CA01A82A6F
:10229000B92A440F551F81E0E639F80729F7F701FD
:1022A00080818F3F11F00E94CE1061E0A114B10433
:1022B00009F460E08D2D0E94CB10CC0FDD1FC00F04
:1022C000D11FB982A882DF91CF911F910F91FF900A
:1022D000EF90DF90BF90AF90089590E080E0D7CF6F
:1022E0000E94E51088E0E0E6F2E0DF01982F1D9201
:1022F0009A95E9F7E8E5F2E0DF011D928A95E9F7A2
:1023000084E00E94C1110E94B4100895A8E0B0E0DA
:10231000ECE8F1E10C943B248E010F5F1F4F88E045
:10232000F80111928A95E9F7F12C6F2DC8010E94EE
:102330000111F394F4E0FF12F8CF48E050E0B80147
:1023400088E592E00E94792421E0009709F420E0DA
:10235000892B41F088E0F801A8E5B2E001900D92E8
:102360008A95E1F744E060E672E088E592E00E9439
:10237000C211182F0E94B810812F2896E5E00C9406
:1023800057240895B0E0A0E0E8ECF1E10C94382483
:102390006C017B01042FC22F222379F081E080930E
:1023A00032020E947D1C909331028093300280E0C3
:1023B000CDB7DEB7E8E00C945424D0913202DD238F
:1023C000B1F380913002909131020E94951C0597E3
:1023D00070F310E0000F111FA801B601C7010E94A1
:1023E0007924892B31F0A801B601C7010E94862407
:1023F000CD2F109232028C2FDBCF0E94671E0E94DD
:102400000D0E0E94741E08950E94791E0E941A0EDD
:102410000E94931E08950E94161C0E944D1E0E9449
:10242000DA0D0E94FD110E9404120E94ED0DFBCFF7
:102430009093AB018093AA0108950E94E70C089540
:1024400080E00E94BB10817008950E9486112FEFDA
:1024500086E791E0215080409040E1F700C0000005
:102460000E9486110E942012882321F00E941D12D2
:102470000E94C81C08950E942512089584E00895C2
:1024800050E0440F551F98E1699F400D511D1124E4
:1024900090E6899F400D511D1124CA018996089527
:1024A0000F931F93CF93DF938430C8F46430B8F454
:1024B0004C30A8F40E9440128C010E948F24C82F37
:1024C000D0E0DC2FCC27C80101960E948F249E010A
:1024D000282BC901DF91CF911F910F91089590E0B2
:1024E00080E0F8CF0F931F93CF93DF93122F032F2A
:1024F000843078F4643068F44C3058F40E94401210
:10250000EC01602F0E94AD24612FCE0101960E9444
:10251000AD24DF91CF911F910F9108951F93CF9319
:10252000DF93D0E0C0E011C0412F6C2F8D2F0E94AF
:102530009D029C01412F6C2F8D2F0E9472121F5FF4
:102540001C3091F7CF5FC43011F010E0EDCFDF5FAA
:10255000D43041F7DF91CF911F910895EF92FF9210
:102560000F931F93CF93DF93EC018A017C01E60E5A
:10257000F71ECE018996CE15DF0529F4CDB7DEB75B
:10258000E6E00C945624C03821E0D20740F40E94C3
:102590008F24F80180830F5F1F4F2196EACFF80147
:1025A0001082F9CFB0E0A0E0E8EDF2E10C9438241D
:1025B0007C016A018C01060F171FEC01CE01899680
:1025C000C017D10729F4CDB7DEB7E8E00C94542446
:1025D000C03821E0D20740F4FE01EE19FF09EC0DEE
:1025E000FD1D60810E94AD242196E8CF843038F42F
:1025F000643028F44C3018F40E945012089590E092
:1026000080E0089580E1089587E592E00895EF92D3
:10261000FF920F931F93CF93DF93EC018A017C010C
:10262000E60EF71ECE0187559E4FCE15DF0529F425
:10263000CDB7DEB7E6E00C945624C73522E0D207CA
:1026400040F40E948F24F80180830F5F1F4F219672
:10265000E9CFF8011082F9CFB0E0A0E0E2E3F3E1C6
:102660000C9438247C016A018C01060F171FEC01C1
:10267000CE0187559E4FC017D10729F4CDB7DEB7DD
:10268000E8E00C945424C73522E0D20740F4FE0160
:10269000EE19FF09EC0DFD1D60810E94AD2421960D
:1026A000E7CFCF93DF93C9EAD1E060E0CE010E948B
:1026B000AD242196C11584E0D807B9F7DF91CF91F9
:1026C0000895A8E0B0E0E7E6F3E10C943624F82E94
:1026D0008FE08F1508F46EC08FEF93E00E948F2477
:1026E000811168C009EA11E0F11035C0FE01319690
:1026F0006F0188E011928A95E9F77801FFEFEF1AF0
:10270000FF0AC8010E948F2489831A82882309F452
:1027100051C08130D1F4580182E0A80EB11CC7012C
:102720000E948F248A83882309F444C09FEF980F66
:102730009330F0F4780193E0E90EF11CC5010E949A
:102740008F248B838823B1F11C8260E0C6010E9434
:102750001E188701D2CF011594E0190759F1C8015D
:102760000E948F24811101C0FA940F5F1F4FBCCFCC
:102770007501843051F702E010E07501EFEFEE1AB9
:10278000FE0AC5010E948F24F601E00FF11F80832D
:10279000882381F08C3741F4E2E0F0E0EC0FFD1F7C
:1027A000E00FF11F1082D1CF0F5F1F4F570107308D
:1027B000110519F72896EAE00C945224CF93DF9381
:1027C000EB0186319C4711F50E94F50B9D81992301
:1027D00099F08A7A91E009F490E0909333028111A4
:1027E00009C089E20E948F1B0E94840C80E0DF9167
:1027F000CF91089585E3F6CF80913302811104C013
:1028000089E20E94971BF0CF85E3FBCF81E0EFCFF9
:10281000CF93DF93EC01FB018581882309F4D2C0BB
:102820009E0130572332310508F0B2C00E94040DDA
:102830009093570280935602FE01E150F047E23236
:10284000F10520F4E151FB4D0C94212480915602B6
:1028500081608093560293C0809157028860809374
:1028600057028DC0809156028260F3CF809156024C
:102870008460EFCF809156028860EBCF8091570241
:102880008160EDCF809157028260E9CF809156023E
:102890008061DFCF809156028062DBCF809156024B
:1028A0008064D7CF0E947E07809156028068D1CF86
:1028B000809156028C60CDCF809157028360CFCF3C
:1028C000809156028E7FC5CF80915702877FC7CFF8
:1028D000809156028D7FBDCF809156028B7FB9CFFC
:1028E00080915602877FB5CF809157028E7FB7CFF8
:1028F000809157028D7FB3CF809156028F7EA9CFF2
:10290000809156028F7DA5CF809156028F7BA1CFFB
:102910000E947E07809156028F779BCF809156024E
:10292000837F97CF809157028C7F99CF80915602F9
:1029300082FB992790F921E0922790FB82F990FB86
:1029400083F987CF80915702982F909591708E7F51
:10295000892B90FB81F983CF90915602892F8F7B31
:1029600096FF806476CF0E947E0790915602892F51
:1029700097FB87F980586DCF81E00E94940D80917C
:102980005602909157020E94090D0E947E0780E036
:10299000DF91CF91089580E0F0CF90915602892F7A
:1029A0008F7E94FF806155CF90915602892F8E7F44
:1029B00090FF81604ECF90915702892F877F93FFC0
:1029C00088604DCF81E0E4CF282F35EB2303C00191
:1029D000112497FF04C080589109892F08958058C9
:1029E0009F4FFBCF80913A0280FF0DC0609107019D
:1029F00070E0660F771F6038710570F5611571051D
:102A000069F1862F089581FF07C06091070184E076
:102A1000689FB0011124EFCF6091070182FD0AC0C9
:102A2000809139028823A9F0209106016091070165
:102A3000821710F088E0ECCF869FC001112433E0AC
:102A4000880F991F3A95E1F7622F70E00E940D24DC
:102A5000D2CF68E070E0D5CF8FE7089581E0089588
:102A600080913A0280FF0CC06091030170E075957F
:102A70006795759567956115710549F1862F0895DC
:102A800081FF06C06091030170E075956795F3CFF3
:102A90006091030182FD0BC0909138029923A1F04F
:102AA0006091020180910301961738F0682F70E061
:102AB0006038710500F38FE70895899FC0011124E4
:102AC00070E00E940D24F4CF61E070E0D7CF81E088
:102AD000089590913D0220913E02922B2091400258
:102AE000922B20913F02922B31F098E09093390283
:102AF00091E0909338028D3C31F40E94F21481955C
:102B000080933E0208958E3C19F40E94F214F8CF8F
:102B10008F3C31F40E94F214819580933D02089518
:102B2000803D19F40E94F214F8CF893D29F40E94E7
:102B3000301580933F0208958A3D21F40E9430159C
:102B40008195F7CF8B3D31F40E94301581958093AC
:102B5000400208958C3D19F40E943015F8CF9FE291
:102B6000980F983070F4815D990B21E030E001C03E
:102B7000220F8A95EAF780913C02822B80933C02D7
:102B800008958D3D31F480913A02816080933A023C
:102B900008958E3D21F480913A028260F7CF8F3DF7
:102BA000B9F780913A028460F1CF40913D028D3CAB
:102BB00059F480913E0287FF0DC010923E024111F0
:102BC0000BC01092390208C08E3C81F480913E0205
:102BD00018169CF3442381F080913F0290914002AB
:102BE000892B09F05AC01092380208958F3C49F49D
:102BF00047FFF0CF10923D0280913E028111ECCF51
:102C0000E0CF803D19F41416ACF3E4CF90913F026D
:102C1000893D29F41916F4F610923F02DBCF8A3D64
:102C200019F497FFD7CFF8CF909140028B3D29F44C
:102C300097FFD0CF10924002CDCF8C3D19F41916DA
:102C4000CCF3C8CF9FE2980F983090F4815D990B38
:102C500021E030E0B90102C0660F771F8A95E2F7E4
:102C6000CB01809590913C02892380933C02B2CFA6
:102C70008D3D31F480913A028E7F80933A02AACF43
:102C80008E3D21F480913A028D7FF7CF8F3D09F080
:102C9000A1CF80913A028B7FF0CF08950E947D1CD6
:102CA0009C0190913D0280913E02982B21F030933F
:102CB00037022093360290913F0280914002982B78
:102CC00021F030933502209334028BE392E00E948E
:102CD000E71A089586E0EBE3F2E0DF011D928A95A2
:102CE000E9F7109239021092380210923A020895D0
:102CF000FC01828181110EC0838181110BC084810E
:102D0000811108C091E08581811101C090E0892F77
:102D10008170089581E0FCCFA6E0B0E0E2E9F6E141
:102D20000C943D2486E0EBE3F2E0DE011196019085
:102D30000D928A95E1F710923D0210923E02109298
:102D40003F02109240028B819C81892B89F08091F7
:102D50003602909137020E94951CAC019091390285
:102D60009923C9F1809108018417150608F440C021
:102D70008D819E81892B91F0809134029091350252
:102D80000E94951CAC0190913802992309F46AC005
:102D9000809104018417150608F472C0BE016F5FAC
:102DA0007F4F8BE392E00E94AA1B811105C08BE349
:102DB00092E00E94781681110E944E1686E0FE0174
:102DC0003196ABE3B2E001900D928A95E1F7269639
:102DD000E3E00C945924209109018AE0289F900196
:102DE00011242417350720F69F5F9093390202C003
:102DF0009F3FD1F71B81112359F00E94F2149FEFDE
:102E000011160CF491E0899F802D112480933D02CE
:102E10001C81112359F00E94F2149FEF11160CF43B
:102E200091E0899F802D112480933E0280913D0284
:102E3000882309F49DCF10913E02112309F498CF05
:102E40000E94E414882351F080933D02812F0E9458
:102E5000E414882329F080933E028ACF81E0F4CFE6
:102E600081E0F9CF209105018AE0289F900111248B
:102E70002417350708F092CF9F5F9093380202C065
:102E80009F3FD1F71D81112359F00E9430159FEF0C
:102E900011160CF491E0899F802D112480933F023C
:102EA0001E81112359F00E9430159FEF11160CF46A
:102EB00091E0899F802D11248093400280913F02F0
:102EC000882309F46BCF10914002112309F466CFD7
:102ED0000E94E414882351F080933F02812F0E94C6
:102EE000E414882329F08093400258CF81E0F4CF86
:102EF00081E0F9CFB0E0A0E0E0E8F7E10C943724FE
:102F0000E82FF0E0E45DFD4FB490282F269526953C
:102F1000269530E0F901E453FD4F0491877010E0ED
:102F2000082E02C0159507950A94E2F70170112743
:102F3000F901E454FD4FE490F12C082E02C0F59401
:102F4000E7940A94E2F791E0E922FF24F901E455BD
:102F5000FD4FC491D0E002C0D595C7958A95E2F7A0
:102F6000C170DD27C62ED12C0115110549F5E114DC
:102F7000F10431F086EE0E942904C601009771F534
:102F8000B6018B2D0E941105C601009779F5E11459
:102F9000F104A1F50115110531F081EE0E94B7048D
:102FA000C6010097C9F5CD2B31F08CE20E942905AE
:102FB000C114D104C9F5CDB7DEB7E9E00C945324B0
:102FC00081EE0E942904C601009789F2EFE9FFE033
:102FD0003197F1F700C000000197F6CFEFE9FFE06D
:102FE0003197F1F700C000000197C8CFEFE9FFE08B
:102FF0003197F1F700C000000197C7CF86EE0E941D
:10300000B704C601009731F2EFE9FFE03197F1F71D
:1030100000C000000197F6CFEFE9FFE03197F1F72C
:1030200000C000000197BDCF8FE99FE00197F1F745
:1030300000C0000091E0C91AD108BACFEF92FF9208
:103040000F931F93CF93DF93EC01162F0AE0888133
:10305000882309F459C0813009F052C08981813038
:1030600071F47E0182E0E80EF11C8A810E9429053C
:10307000E701812F90E00097D9F52196E8CF8230C3
:1030800041F47E01E2E0EE0EF11C8A810E942904E7
:10309000EFCF833041F47E01F2E0EF0EF11C8A8124
:1030A0000E94B704E5CF843011F02196E2CF2A8147
:1030B000229690E080E0AE014F5F5F4F2053330BCC
:1030C0002A30310550F00097A1F2EFE9FFE0319787
:1030D000F1F700C000000197F6CF089FB001099FEB
:1030E000700D1124C901860F971F2981EA01E3CFD2
:1030F000EFE9FFE03197F1F700C000000197BBCF87
:10310000612F0E947A17B9CFCDB7DEB7E6E00C94F5
:1031100056240F931F93CF93DF93C42FD22FFC011C
:1031200085818823C9F0409343020E947D1C9093BF
:1031300042028093410280E28C0F883040F4C770D5
:1031400081E001C0880FCA95EAF70E943205DF913D
:10315000CF911F910F91089510914302141332C023
:1031600080914102909142020E94951C883C9105F9
:1031700048F5C0E2CD0F1D17B9F080E2810F88300D
:1031800040F4177081E001C0880F1A95EAF70E9499
:103190003905C83048F481E09D2F977001C0880F31
:1031A0009A95EAF70E943205802F0E942905C830BF
:1031B00070F6D77081E001C0880FDA95EAF70E94B7
:1031C0003905C5CF80E28C0F883008F6C77081E0E2
:1031D00001C0880FCA95EAF7F2CF0F93DB0188513F
:1031E0009C4787309105A0F5FC01EF5EFA4D0C94E9
:1031F000212406E221EE41EE6AE17CE7CD010E9446
:10320000891880E00F91089507E225EE45EE6BE105
:103210007CE7F4CF06E221EE40EE68E17CE7EECFFA
:1032200007E225EE44EE69E17CE7E8CF06E221EE15
:1032300042EE6CE17CE7E2CF07E225EE46EE6DE17F
:103240007CE7DCCF08E221E045EE6EE17CE7D6CFFB
:1032500015968C91882319F010924302D3CF81E008
:10326000D1CF1F93CF93DF9387372CE7920759F085
:10327000C1E088379C47E1F4FB01C581CC2371F1A3
:103280000E94741906C0FB01C581CC23B1F00E94D5
:1032900071190E94F6070E947719D82F0E9474199D
:1032A000C82F0E9471194D2F6C2F0E941E09C0E07B
:1032B0008C2FDF91CF911F9108950E9471190E9468
:1032C00002080E947719182F0E947419D82F0E94A3
:1032D0007119412F6D2F0E941E09EACF0E947419A7
:1032E000EECF80910C01089580910B01089580919B
:1032F0000A01089585E290E00E948F24843289F4C7
:1033000086E290E00E948F24833059F487E290E0B7
:103310000E948F2491E0843009F090E0892F817021
:10332000089580E0FCCFCF93C82F6FEF811164E246
:1033300085E290E00E94AD246FEFC11163E086E268
:1033400090E00E94AD246FEFC11164E087E290E04D
:103350000E94AD24CF910895089588E290E00E94E4
:103360008F24682F70E090E080E008950895CF9357
:10337000C62F0E94B6196C2F88E290E00E94AD24FF
:10338000CF91089580E00E94931960E070E0CB0136
:103390000E94B7190E948E120E94511381E00E9470
:1033A000931908950E94AC190E94AD190E94B61994
:1033B0000E947A19811102C00E94C21908950895CD
:1033C0009C01FB018581882351F0A90157574038A2
:1033D000510530F4822F0E94611380E0089581E04E
:1033E00008952FEFFC01208308950E94F11908959C
:1033F00080E00895B0E0A0E0E0E0FAE10C94382429
:10340000EC01C62E0E94F819811110C0E881E1502C
:10341000E331B8F4F0E0E85EFA4D0C94212419820F
:103420008CE08A836C2DCE010E94411DCDB7DEB7A2
:10343000E8E00C94542489818230C1F028F4813072
:1034400061F08FEF8883EECF833099F08430C9F735
:103450001A821B821C821D82E5CF0E94891C0E9459
:1034600027246A837B838C839D83DCCF0E94AD19E4
:10347000F6CF8A81082F10E07E019EE0D92ED80E6B
:103480000430110578F6802F0E94BB10F70193835A
:1034900084830F5F1F4FF2E0EF0EF11CD012F0CFCC
:1034A000C1CF8981823031F0853059F68A810E94FE
:1034B000DF19B8CF6A817B818C819D810E9427248E
:1034C0000E94B719AFCF4B816A8189810E94501247
:1034D0009827892798279D838C83A4CF2C813D81B1
:1034E0003227232732274B816A8189810E947212F9
:1034F00099CF0E948E1296CF6C2DCE010E94F519A5
:1035000091CF0E94021389838DCF0E9404139827C4
:10351000892798279A83898385CF6B8170E0898179
:103520009A81AE014C5F5F4F9827892798270E94A8
:10353000071378CF6B8170E089819A81AE014C5F6F
:103540005F4F9827892798270E942C136BCF0E94E2
:10355000511368CF0E943E12D6CF6B8170E08981F3
:103560009A81AE014C5F5F4F9827892798270E9468
:10357000AE1258CF6B8170E089819A81AE014C5FA9
:103580005F4F9827892798270E94D2124BCF90939C
:103590004902809348020895E0914802F09149025F
:1035A000309729F00190F081E02D0995089580E091
:1035B00008950E94CC1A0895E0914802F0914902C2
:1035C000309721F00280F381E02D09950895E09174
:1035D0004802F0914902309739F022E0DC012C9347
:1035E0000680F781E02D09950895A3E0B0E0EBEFA8
:1035F000FAE10C943E2420914602309147022817AC
:103600003907A1F09093470280934602E091480267
:10361000F0914902309751F023E029839B838A83FC
:103620000084F185E02DCE01019609952396E2E014
:103630000C945A24A3E0B0E0E0E2FBE10C943E24B9
:10364000209144023091450228173907A1F0909348
:10365000450280934402E0914802F091490230977C
:1036600051F024E029839B838A830084F185E02D37
:10367000CE01019609952396E2E00C945A244091DC
:103680000001509101019A012E5F3F4F485F5F4F4B
:1036900080E02417350709F40895F90191919F01FD
:1036A0009923B9F38F5FF5CF882371F02091000142
:1036B00030910101F9013296285F3F4F919198179F
:1036C00029F0E217F307D1F780E0089581E008952B
:1036D0009C01FC0132969FEF80E04191461751F02A
:1036E0009F3F19F4411101C0982F8F5F8630A9F7D1
:1036F0009F3F09F40895290F311D97FD3A95F9016F
:1037000062830895FC01329608962191261303C026
:10371000DF0111971C92E817F907B9F70895682F90
:1037200080910001909101010E94681B0895682F0B
:1037300080910001909101010E94821B0895E09107
:103740000001F0910101329686E0DF011D928A9519
:10375000E9F70895DC01FB0111969C911197818195
:10376000981322C012968C911297882319F0928197
:1037700089131AC013968C911397882319F093819B
:10378000891312C015968C911597882319F095818D
:1037900089130AC014969C91992321F081E0248119
:1037A000291303C080E001C081E08170089508956D
:1037B0000E94D71B0895811106C081E080934A02C0
:1037C0000E94D81B089582E0F9CF83E080934A02DB
:1037D0000E94D81B08950E94DB1B089581E080930E
:1037E0004A020E94D81B08950E94EE1B0895089576
:1037F00008950E94F81B0895089508950E94F71BEC
:103800000895CF930E94FC1B0E9486110E94FD1B0D
:10381000C0E08C2F0E94BB10892B31F4CF5FC430E5
:10382000C1F780E0CF91089581E0FCCF85B7806833
:1038300085BF85B7806885BF08951F921FB61F9208
:1038400011248F939F93AF93BF9380914B0281116B
:1038500013C08091680290916902A0916A02B091B0
:103860006B024196A11DB11D80936802909369027D
:10387000A0936A02B0936B02BF91AF919F918F9119
:103880001F901FBE1F90189580917002843031F1F7
:103890000E949D0310924B0288E190E020E40FB655
:1038A000F894A895809360000FBE2093600083B7C2
:1038B000817F846083BF83B7816083BF789488955C
:1038C00083B78E7F83BF0FB6F894A8958091600070
:1038D000886180936000109260000FBE08950E947E
:1038E0007E070E94A203089582E084BD93E095BD07
:1038F0009AEF97BD80936E0008952FB7F89480914A
:10390000680290916902A0916A02B0916B022FBF88
:1039100008952FB7F89460916802709169028091C0
:103920006A0290916B022FBF08959C014FB7F894E3
:103930008091680290916902A0916A02B0916B0235
:103940004FBF821B930B089578941F921FB61F924E
:1039500011248F939F93AF93BF93809168029091AE
:103960006902A0916A02B0916B020196A11DB11D7E
:103970008093680290936902A0936A02B0936B02ED
:10398000BF91AF919F918F911F901FBE1F9018956F
:1039900081E08093E00080E28093D8001092C9001B
:1039A0008FE19EE40197F1F700C0000087E090EB03
:1039B000DC018093790290937A02A0937B02B0930A
:1039C0007C0288E19CE00FB6F894A8958093600093
:1039D0000FBE90936000FFCF88E19CE00FB6F89493
:1039E000A895809360000FBE90936000FFCF8091F8
:1039F0005402089508959B01BA0190917002943089
:103A0000E9F48F708093E9009FEF8091E800915076
:103A100085FD06C085ED8A95F1F700009111F5CF7F
:103A20008091E80085FF0AC050E040E0C9010E9493
:103A3000371F8091E8008E778093E800089543E077
:103A400050E0BC0184E00E94FB1C089546E050E079
:103A5000BC0184E00E94FB1C0895CF93DF93EC012E
:103A600048E050E0BC0181E00E94FB1C88E0FE01C0
:103A7000ACE4B2E001900D928A95E1F7DF91CF912D
:103A80000895603231F440E250E0BC0182E00E94CF
:103A9000FB1C089580916F02811109C00E941621BC
:103AA0000E9473218091E20084608093E200089577
:103AB00010926F0208950E94EE1B089560916C02AF
:103AC00081E0611101C080E00E94E51B08959091A2
:103AD000700281E0943009F080E060916C020E94F5
:103AE000EB1B089542E061EC81E00E94922042E2EB
:103AF00061EC84E00E94922042E261EC82E00E944C
:103B0000922042E260EC83E00E9492209091700249
:103B100081E0943009F080E060916C020E94DB1B30
:103B2000089580917202833009F463C030F48130CB
:103B3000E1F1823009F4A0C008958A3009F48CC004
:103B40008B3009F471C0893009F052C08091710244
:103B5000813209F04DC080917502909176020097F4
:103B600019F0029709F044C08091E800877F8093A4
:103B7000E8008091E80082FF37C09091F3008091C7
:103B8000F200029731F48091F100813011F086301B
:103B900021F48091F100809354028091E8008B77AA
:103BA0008093E8000E94C62023C080917102813A70
:103BB000F9F48091E800877F8093E8008091750296
:103BC00090917602892B61F468E08CE492E070E0D9
:103BD0000E94D51F8091E8008B778093E8000895BC
:103BE00060E090E080E0F3CF809170028111C1CF5E
:103BF000089580917102813AD9F780917502909170
:103C00007602892BA9F78091E800877F8093E800EE
:103C10008091E80080FFFCCF809117018093F10034
:103C20008091E8008E77BCCF80917102813201F7DC
:103C30008091750290917602892BD1F68091E800EF
:103C4000877F8093E8000E94C62080917302809352
:103C500017010E947E07089580917102813241F61A
:103C60008091E800877F8093E8000E94C6208091C1
:103C7000740280935502089580917102813A09F08F
:103C8000B7CF8091E800877F8093E8008091E800BB
:103C900080FFFCCF80915502C1CF84B7877F84BF5E
:103CA0000FB6F894A89580916000886180936000B9
:103CB000109260000FBE80E890E00FB6F8948093F9
:103CC0006100909361000FBE0E94F41B08950E9452
:103CD00016210E947321E2EEF0E0808184608083EF
:103CE00078940E94F22308958DE091E00E94C71A13
:103CF000089580917002853031F480917002853092
:103D000019F00E946F1C08950E94441C80916E025D
:103D1000882399F30E94011C882379F30E94211FB4
:103D20000E947E07EACFA0E2B0E0E9E9FEE10C9450
:103D30003E2480917002843009F583E08093E9008D
:103D40008091E80082FF1AC08091E80090E085FF32
:103D500009C050E040E060E270E0CE0101960E94B0
:103D6000861F91E08091E8008B778093E80099238B
:103D700029F060E2CE0101960E94FA19A096E2E0D5
:103D80000C945A249A0140917702509178020E9433
:103D9000CA1E0895492F55274330510521F168F473
:103DA0004130510509F443C04230510509F444C083
:103DB00090E080E050E040E026C04132510551F1F2
:103DC00042325105A9F76330710590F7FB01EE0F00
:103DD000FF1FE356FE4F4081518166567E4FFB0127
:103DE000808190E010C099278130910581F0009783
:103DF00029F00297E9F6ECEDF2E002C0E8E0F3E02A
:103E0000849190E0AF01F901518340830895E2EF7E
:103E1000F2E0F6CF6330710558F6660F771FFB01AD
:103E2000ED55FE4F4081518189E090E0ECCF82E179
:103E300090E047E653E0E7CF8BE590E04CE053E0BD
:103E4000E2CF80E189BD82E189BD09B400FEFDCFEA
:103E50008091D8008F7D8093D8008091E0008260AF
:103E60008093E0008091E00081FDFCCF0895AF9247
:103E7000BF92CF92DF92FF920F931F93CF93DF9366
:103E80006C01EB018A010E94E520F82E811123C00C
:103E90000115110539F0F80180819181C81BD90BFA
:103EA000C80ED91EB12CA12C2097A9F08091E80052
:103EB00085FD22C08091E8008E778093E80001158F
:103EC0001105A1F0F80180819181A80EB91EB1827F
:103ED000A08285E0F82E8F2DDF91CF911F910F9159
:103EE000FF90DF90CF90BF90AF9008950E94E520A3
:103EF0008823D1F2F82EEFCFF60181916F018093E4
:103F0000F1002197FFEFAF1ABF0ACECFAF92BF9259
:103F1000CF92DF92FF920F931F93CF93DF936C01A9
:103F2000EB018A010E94E520F82E811123C00115C2
:103F3000110539F0F80180819181C81BD90BC80E99
:103F4000D91EB12CA12C2097A9F08091E80085FD05
:103F500022C08091E8008B778093E800011511055D
:103F6000A1F0F80180819181A80EB91EB182A082D2
:103F700085E0F82E8F2DDF91CF911F910F91FF904B
:103F8000DF90CF90BF90AF9008950E94E5208823E6
:103F9000D1F2F82EEFCF8091F100F60181936F01FD
:103FA0002197FFEFAF1ABF0ACECFFC0180917702B5
:103FB0009091780286179707A0F06115710529F492
:103FC0009091E8009E779093E80090E0611571056C
:103FD00051F4911108C08091E80082FF34C080E064
:103FE0000895BC01F2CF809170028823C1F1853021
:103FF000C1F18091E80083FD30C08091E80082FD2E
:10400000EACF8091E80080FFE1CF8091F30020911A
:10401000F200382F6115710519F02830310558F07C
:1040200091E02830310509F090E02091E8002E77EA
:104030002093E800CBCF81918093F100615071090A
:104040002F5F3F4FE7CF80917002882341F085308A
:1040500041F08091E80083FFBECF81E0089582E0C7
:10406000089583E00895FC01809177029091780291
:1040700086179707A0F06115710529F48091E80073
:104080008E778093E80090E06115710551F49111ED
:1040900008C08091E80082FF35C080E00895BC012F
:1040A000F2CF809170028823C9F18530C9F18091E7
:1040B000E80083FD31C08091E80082FDEACF809165
:1040C000E80080FFE1CF8091F3002091F200382FCB
:1040D0006115710519F02830310558F091E028304C
:1040E000310509F090E08091E8008E778093E80038
:1040F000CBCF84918093F1003196615071092F5F8D
:104100003F4FE6CF80917002882341F0853041F027
:104110008091E80083FFBDCF81E0089582E008959B
:1041200083E00895982F973028F08F708093E900EE
:1041300081E008959093E900242F762F50E098179E
:1041400031F07091EC002091ED005091F00021FDD4
:1041500002C09F5FE8CF3091EB003E7F3093EB00D1
:104160003091ED003D7F3093ED003091EB003160F8
:104170003093EB007093EC002093ED005093F0002F
:104180002091EE0027FDE5CF80E008958091710237
:1041900087FF13C08091E80082FF06C08091E8008D
:1041A0008B778093E80004C0809170028111F2CF78
:1041B0000895809170028823D9F38091E80080FFF0
:1041C000F8CF8091E8008E77ECCF2091E400309119
:1041D000E50095E6A9012091EC00822F817020FF77
:1041E00006C08091E80080FF06C080E0089520911D
:1041F000E80022FD1AC080917002882389F0853082
:1042000089F08091EB0085FD0FC02091E400309192
:10421000E50042175307F9F29150E1F684E0089562
:1042200082E0089583E0089581E008950E94852149
:104230000E948D21E0EEF0E0808181608083E8EDD6
:10424000F0E080818F77808319BCA7EDB0E08C917E
:104250008E7F8C9380818F7E808310926F02089571
:104260000F931F93CF93DF930E9485210E948D218E
:10427000C8EDD0E088818F778883888180688883C3
:1042800088818F7D888319BC1092700210926C0215
:1042900010926E0210926D0200EE10E0F801808123
:1042A0008B7F808388818160888342E060E080E04A
:1042B0000E949220E1EEF0E080818E7F8083E2EE2A
:1042C000F0E0808181608083808188608083F80154
:1042D00080818E7F8083888180618883DF91CF9108
:1042E0001F910F910895E8EDF0E080818F7E80832B
:1042F000E7EDF0E080818160808384E082BF81E02F
:1043000080936F020E9430210895E8EDF0E08081F3
:104310008E7F80831092E20008951092DA0010924E
:10432000E10008951F920F920FB60F9211242F9360
:104330003F934F935F936F937F938F939F93AF932D
:10434000BF93EF93FF938091E10082FF0BC08091B8
:10435000E20082FF07C08091E1008B7F8093E10043
:104360000E94F1238091DA0080FF19C08091D8006B
:1043700080FF15C08091DA008E7F8093DA008091F3
:10438000D90080FF96C080E189BD82E189BD09B472
:1043900000FEFDCF81E0809370020E944A1D809153
:1043A000E10080FF19C08091E20080FF15C080917C
:1043B000E2008E7F8093E2008091E2008061809332
:1043C000E2008091D80080628093D80019BC85E01B
:1043D000809370020E945E1D8091E10084FF2BC0DB
:1043E0008091E20084FF27C080E189BD82E189BD20
:1043F00089B5982F917080FFFBCF8091D8008F7D79
:104400008093D8008091E1008F7E8093E1008091BD
:10441000E2008F7E8093E2008091E20081608093D1
:10442000E20080916C02882309F449C084E0809303
:1044300070020E94671D8091E10083FF29C0809176
:10444000E20083FF25C08091E100877F8093E10037
:1044500082E08093700210926C028091E1008E7F66
:104460008093E1008091E2008E7F8093E200809152
:10447000E20080618093E20042E060E080E00E9420
:1044800092208091F00088608093F0000E945B1D74
:10449000FF91EF91BF91AF919F918F917F916F911C
:1044A0005F914F913F912F910F900FBE0F901F90F2
:1044B000189519BC109270020E94581D70CF8091FF
:1044C000E30087FD93E090937002B3CF1F920F92A9
:1044D0000FB60F9211242F933F934F935F936F93D7
:1044E0007F938F939F93AF93BF93CF93DF93EF937C
:1044F000FF93D091E900DF708091EC00C82FC1706C
:1045000080FDC0E81092E9008091F000877F8093E1
:10451000F00078940E94AA221092E9008091F000A5
:1045200088608093F000CD2BCF70C093E900FF919D
:10453000EF91DF91CF91BF91AF919F918F917F913B
:104540006F915F914F913F912F910F900FBE0F9000
:104550001F901895AAE2B0E0E0EBF2E20C943D2443
:1045600081E792E02091F100FC012193CF01F2E07C
:1045700089379F07B9F70E94911D8091E80083FF5A
:104580001EC180917102909172029A3008F017C199
:10459000E92FF0E0E55DFA4D0C942124803899F084
:1045A000823809F00CC1809175028F70873008F055
:1045B00006C18093E9008091EB0085FB882780F994
:1045C0001092E90006C080916D0290916E029111E7
:1045D00082609091E800977F9093E8008093F100CB
:1045E0001092F1008091E8008E77E5C0882309F4ED
:1045F000D3C0823009F0E3C0809173028111D6C02C
:10460000809175028F702FEF280F263008F0D7C0E9
:104610008093E9002091EB0020FFC8C0933031F473
:104620008091EB0080628093EB00C0C09091EB0022
:1046300090619093EB0021E030E001C0220F8A9559
:10464000EAF72093EA001092EA008091EB0088607C
:10465000EACF8111B4C0109173021F778091E300FB
:104660008078812B8093E3008091E800877F80939E
:10467000E8000E94C6208091E80080FFFCCF809176
:10468000E30080688093E30082E0111183E080936F
:10469000700295C08058823008F091C080917302FA
:1046A000909174028C3D23E09207A1F583E08A8308
:1046B0008AE289834FB7F894DE01139620E03EE04A
:1046C00051E2E32FF0E050935700E49120FF03C044
:1046D000E295EF703F5FEF708E2F90E0EA30C0F010
:1046E000C7968D939D932F5F243159F74FBF8091CB
:1046F000E800877F8093E8006AE270E0CE010196CF
:104700000E94D51F8091E8008B778093E80057C006
:10471000C096E7CF6091750270917602AE014F5F4F
:104720005F4F0E94C21EBC01892B09F448C09091C2
:10473000E800977F9093E80089819A810E94332056
:10474000E1CF8038E1F58091E800877F8093E80031
:1047500080916C028093F10045CF811130C090911F
:104760007302923060F58091E800877F8093E800C3
:1047700090936C020E94C62080916C02882311F0F5
:1047800084E005C08091E30087FDFACF81E080934B
:1047900070020E94721D13C080917302813079F4FF
:1047A00081E0933009F080E080936E021092E9007E
:1047B0008091E800877F8093E8000E94C620809166
:1047C000E80083FF0AC08091E800877F8093E800BB
:1047D0008091EB0080628093EB00AA96E3E00C945A
:1047E00059240895CF93809170028823A1F0C0913D
:1047F000E900CF709091EC00892F817090FD80E8E6
:10480000C82B1092E9008091E80083FD0E94AA2243
:10481000CF70C093E900CF91089597FB072E16F44F
:10482000009407D077FD09D00E94652407FC05D0CD
:104830003EF4909581959F4F0895709561957F4FB7
:104840000895EE0FFF1F0590F491E02D099469275C
:104850009627692778278727782708952F923F92F0
:104860004F925F926F927F928F929F92AF92BF9280
:10487000CF92DF92EF92FF920F931F93CF93DF932C
:10488000CDB7DEB7CA1BDB0B0FB6F894DEBF0FBE89
:10489000CDBF09942A88398848885F846E847D84D6
:1048A0008C849B84AA84B984C884DF80EE80FD80D8
:1048B0000C811B81AA81B981CE0FD11D0FB6F8944E
:1048C000DEBF0FBECDBFED010895AA1BBB1B51E19A
:1048D00007C0AA1FBB1FA617B70710F0A61BB70B70
:1048E000881F991F5A95A9F780959095BC01CD0115
:1048F0000895FB01DC0104C08D910190801921F421
:1049000041505040C8F7881B990B0895FB01DC010A
:1049100002C001900D9241505040D8F70895F99986
:10492000FECF92BD81BDF89A992780B50895A8E180
:10493000B0E042E050E00C94D324DC01A40FB51F9A
:104940004150504048F0CB01840F951F2E910E949A
:10495000AE2441505040D0F70895262FF999FECF4C
:1049600092BD81BDF89A019700B4021639F01FBAC2
:1049700020BD0FB6F894FA9AF99A0FBE08950396DF
:10498000272F0E94AE240E94AD24252F0E94AE2422
:10499000242F0C94AE240196272F0E94AE240C9451
:1049A000AD24DC01CB01FC01F999FECF06C0F2BDBC
:1049B000E1BDF89A319600B40D9241505040B8F7DD
:1049C0000895F894FFCF81058105D105D1053606FC
:1049D0005206B005B0055706BE06CD06CD066014DA
:1049E000D4146814321436146C143A1470147C14F1
:1049F0004614CD144A1480144E148414AC1452146A
:104A00008814B31458148E1496143E14741442145B
:104A100078145C149214A214BC14CB142C146414D7
:104A2000DB140A191019F918041916191C1922197E
:104A30000F1A1B1A511A631A6E1A791A7C1A7C1AE9
:104A40007C1A211A211A811A851A8D1A9A1AA71A04
:104A5000AA1AAD1ABA1ACE22F622DF23F622DF23D3
:0A4A600029234A23DF23A123AD23FD
:104A6A001302280850011E0A1401030201F71C2D23
:104A7A001DFA1C261D1F1D01E200E900EA00B5000F
:104A8A00B600B700CD008301CC008A0192019401DF
:104A9A002102230224022502260227022A02B30047
:104AAA00B4006F0070009F01CB019F02A0028182B7
:104ABA0083E200E900EA00B500B600B700CD008342
:104ACA0001CC008A019201940121022302240225C9
:104ADA0002260227022A02B300B4006F0070009F68
:104AEA0001CB019F02A002818283F0F1F4F5F6F76F
:104AFA006636353497963031326744227B1604790C
:0A4B0A00039B031E0337035703004B
:00000001FF
