:100000000C943F020C945C020C945C020C945C0215
:100010000C945C020C945C020C945C020C945C02E8
:100020000C945C020C945C020C942D180C94E9174F
:100030000C9438190C945C020C945C020C945C02D5
:100040000C945C020C945C020C945C020C945C02B8
:100050000C945C020C9414190C945C020C945C02D9
:100060000C945C020C945C020C945C020C945C0298
:100070000C945C020C945C020C945C020C945C0288
:100080000C945C020C945C020C945C020C945C0278
:100090000C945C020C945C020C945C020C945C0268
:1000A0000C945C020C945C020C945C020501090245
:1000B000A10185020901A1000509190129081500FE
:1000C0002501950875018102050109300931158165
:1000D000257F95027508810609381581257F9501D0
:1000E00075088106050C0A38021581257F95017572
:1000F000088106C0C005010980A101850319012AF4
:10010000B700150126B700950175108100C0050CD8
:100110000901A101850419012AA002150126A002E6
:10012000950175108100C00660FF0961A101096297
:10013000150026FF00952075088102096315002629
:10014000FF00952075089102C005010906A101056F
:100150000719E029E7150025019508750181029529
:1001600001750881010507190029FF150026FF0008
:100170009506750881000508190129051500250156
:10018000950575019102950175039101C00000006C
:10019000000000000000000000000000000000005F
:1001A000000000000000000000000000000000004F
:1001B000007E0F00D4FFFFFFC700000078000000A2
:1001C00000000000002A2B280000000000000000B2
:1001D000000000000000000029000000002C1E3478
:1001E00020212224342627252E362D3738271E1F7E
:1001F000202122232425263333362E37381F0405A9
:10020000060708090A0B0C0D0E0F10111213141516
:10021000161718191A1B1C1D2F3130232D350405F4
:10022000060708090A0B0C0D0E0F101112131415F6
:10023000161718191A1B1C1D2F3130354C2B0014A2
:10024000001A0008001500170000001C0018000C20
:100250000012001300407EE00004001600070009B1
:10026000000A0000000B000D000E000F00330034E8
:1002700000E1001D001B0006001900050000001130
:10028000001000360037003800E500E400E300E22B
:1002900000777C787C2A000000777C2C00787CE654
:1002A00000E700E40001001E001F002000210022E2
:1002B000000000230024002500260027002D000157
:1002C000001E021F0220022102220200002302243B
:1002D000022502260227022D020100350035022EDA
:1002E000002E020000000000002F0030002F02301E
:1002F00002010001000100010001000100010000F5
:100300000001000100010001000100010001006A7C
:10031000006B006C006D006E0000004A004E004B48
:10032000004D000000460001006F00700071007277
:1003300000730000005000510052004F00000045C3
:100340000001003A003B003C003D003E0000003F41
:100350000040004100420043004400010001000150
:1003600000010001004C0000000100280001000114
:1003700000010001000000000000000000007C00FF
:10038000000000000000000000000000000000006D
:10039000000000A60000000000000000000000AA0D
:1003A00000A90000000000000000000000000000A4
:1003B000000000000000000000A800000000000095
:1003C000000000000000000000000000000000002D
:1003D0000000000000000000000000000009025BB7
:1003E00000030100A0FA0904000001030101000953
:1003F00021110100012244000705810308000109C1
:100400000401000203000000092111010001222261
:1004100000070582032000010705030320000109EE
:100420000402000103000000092111010001227BE8
:1004300000070584032000011201000200000008EB
:10044000D80411E60001010200010C036F00350021
:10045000310067006F0000002003530061006C0052
:100460006900630079006C00690063002D00610081
:1004700063006900640033000000040309041124D0
:100480001FBECFEFDAE0DEBFCDBF11E0A0E0B1E0EC
:10049000E4E9FDE302C005900D92A836B107D9F753
:1004A00022E0A8E6B1E001C01D92AA32B207E1F74E
:1004B0000E945F190C94761E0C940000482F209126
:1004C00026029091ED0157E0291302C080E00895C3
:1004D00030E0529FF001539FF00D1124E251FE4F86
:1004E0008181681306C08081481303C08581811112
:1004F000EECF2F5F3F4F2770E7CFE8EDF0E0808130
:100500008E7F80831092E2001092DA001092E10058
:10051000A0EEB0E08C9181608C9380818F77808396
:1005200019BCA7EDB0E08C918E7F8C9380818F7E7B
:1005300080831092D80108952091E4003091E50065
:1005400095E6A9012091EC00822F817020FF06C062
:100550008091E80080FF06C080E008952091E800C7
:1005600022FD1AC08091E301882389F0853089F04B
:100570008091EB0085FD0FC02091E4003091E500F3
:1005800042175307F9F29150E1F684E0089582E0B2
:10059000089583E0089581E008958091E50187FF43
:1005A00013C08091E80082FF06C08091E8008B773D
:1005B0008093E80004C08091E3018111F2CF089597
:1005C0008091E3018823D9F38091E80080FFF8CF80
:1005D0008091E8008E77ECCF982F9093E900242F3C
:1005E000762F50E0891731F07091EC002091ED00EA
:1005F0005091F00021FD07C09F5F973071F7809305
:10060000E90081E008953091EB003E7F3093EB00EC
:100610003091ED003D7F3093ED003091EB00316083
:100620003093EB007093EC002093ED005093F000BA
:100630002091EE0027FDE0CF80E00895B0E0A0E03B
:10064000E4E2F3E00C94D61DC8EDD0E088818F7E03
:100650008883E7EDF0E080818160808384E082BF61
:1006600081E08093D80188818E7F888302EE10E03C
:10067000F80110821092DA0081EEC82ED12CF6011A
:10068000108288818F7788838881806888838881B9
:100690008F7D888319BC1092E3011092E4011092BF
:1006A000E2011092E10190EEE92EF12CF701808138
:1006B0008B7F808388818160888342E060E080E076
:1006C0000E94EC02F60180818E7F8083F801808198
:1006D00081608083808188608083F70180818E7F44
:1006E0008083888180618883CDB7DEB7E8E00C9491
:1006F000F21DFC018091EB019091EC0186179707A8
:10070000A0F06115710529F49091E8009E7790930F
:10071000E80090E06115710551F4911108C08091D5
:10072000E80082FF34C080E00895BC01F2CF8091E0
:10073000E3018823C1F18530C1F18091E80083FD98
:1007400030C08091E80082FDEACF8091E80080FF10
:10075000E1CF8091F3002091F200382F61157105EF
:1007600019F02830310558F091E02830310509F0B2
:1007700090E02091E8002E772093E800CBCF819184
:100780008093F100615071092F5F3F4FE7CF809157
:10079000E301882341F0853041F08091E80083FF38
:1007A000BECF81E0089582E0089583E00895089522
:1007B00087E797E7909301088093000888E19AE023
:1007C0000FB6F894A895809360000FBE90936000D8
:1007D000FFCF9C014FB7F8948091D4019091D5013F
:1007E000A091D601B091D7014FBF821B930B089502
:1007F0002FB7F8948091D4019091D501A091D601A2
:10080000B091D7012FBF089580910B0108959C01ED
:10081000FC0132969FEF80E04191461751F09F3FD7
:1008200019F4411101C0982F8F5F8630A9F79F3FBF
:1008300009F40895290F311D97FD3A95F901628356
:100840000895A3E0B0E0E7E2F4E00C94DC1D209111
:10085000D1013091D20128173907A1F09093D2012C
:100860008093D101E091CF01F091D001309751F008
:1008700024E029839B838A830084F185E02DCE01C7
:10088000019609952396E2E00C94F81DA3E0B0E0F0
:10089000ECE4F4E00C94DC1D2091CD013091CE010C
:1008A00028173907A1F09093CE018093CD01E091F4
:1008B000CF01F091D001309751F023E029839B8341
:1008C0008A830084F185E02DCE0101960995239657
:1008D000E2E00C94F81DE091CF01F091D001309747
:1008E00029F00190F081E02D0995089580E00895A8
:1008F0000E94F8039C019091C9018091CA01982B34
:1009000021F03093C6012093C5019091CB018091D5
:10091000CC01982B21F03093C4012093C301E091C6
:10092000CF01F091D001309749F082E08093C70168
:100930000680F781E02D87EC91E00995089580917C
:10094000C20180FD16C081FD16C082FD16C08091D7
:10095000C1018823A1F0883280F428E0829FC00181
:10096000112468E270E00E94AB1D862F672B39F0DE
:10097000089582E0089584E0089588E0089581E074
:1009800008958091C20180FD14C081FD14C082FDD4
:1009900016C08091C001882381F08E3180F420E55B
:1009A000829FC00111246EE170E00E94AB1D862F72
:1009B000089584E1089588E2089588E0089580E527
:1009C0000895282F35EB2303C001112497FF04C09D
:1009D00080589109892F089580589F4FFBCF80E060
:1009E0000895F894E82FE295EF70F0E031A1282FF8
:1009F0002F7081E090E001C0880F2A95EAF7982FC8
:100A00009095932391A392A1892B82A37894089522
:100A10009091AC0192FF10C041E0282F2471243046
:100A200009F040E031E0282F2871283009F030E04B
:100A3000431711F02CE0822793FF10C041E0282FCC
:100A40002471243109F040E031E0282F2871283149
:100A500009F030E0431711F02CE082273091AD010E
:100A600030FF10C051E0282F2171213009F050E0F3
:100A700041E0282F2871283009F040E0541711F088
:100A800029E0822731FF10C041E0282F2171213158
:100A900009F040E031E0282F2871283109F030E0DA
:100AA000431711F029E0822794FD877E089582384C
:100AB0009105B9F1B0F48133910509F47DC048F492
:100AC0008932910509F46DC08A32910509F47BC021
:100AD00008958533910509F45FC08933910509F1C3
:100AE0000895833E9105D9F138F4803E910529F1AE
:100AF000823E910579F10895863E9105D9F1873EB0
:100B0000910509F43EC0843E910541F52091AD0167
:100B100021FF24C08091AC0184FD19C087EE90E0D4
:100B200008952091AC01237009F05AC02091AD01C5
:100B300023FF14C089E290E008952091AC0120FDCC
:100B400038C03091AD0130FF09C024FF43C090E0B0
:100B500080E008952091AC0122FDF7CF0895209107
:100B6000AC0122FD3AC03091AD0130FD39C024FF07
:100B7000F5CFEDCF2091AC0123FFF0CF24FDE7CFDF
:100B8000CDCF2091AC0123FD2EC03091AD0131FFBE
:100B9000EECF84EE90E008952091AC0125FFDECFEA
:100BA000C9CF2091AC0125FD21C02091AD0123FFCB
:100BB000D5CF89E390E0D2CF2091AC0126FFCECFF4
:100BC0008AE290E008952091AC0126FFC7CF81E32F
:100BD00090E0089583EE90E0089582EE90E008950D
:100BE00080EE90E0089586EE90E0089585E390E031
:100BF00008951F93CF93DF930E945705EC01C11511
:100C000080E5D807F0F5C11580E4D80708F09CC04E
:100C1000C03ED10520F5CD3CD10508F082C0C83AD0
:100C2000D10578F4C53AD10508F073C0C130D105BB
:100C300019F1209709F1C430D105F0F4D0E0C0E0FB
:100C40001BC0C33CD105D0F7C85AD0E0CC0FDD1F84
:100C5000CF5EDE4F0990D881C02DD4640DC0C11580
:100C600080E2D80708F0D1C0C11581E0D80708F0AC
:100C70005AC0C83ED10510F7CE01DF91CF911F9128
:100C80000895C03682E5D80718F5C03482E5D80744
:100C900008F06BC0C03282E5D80708F05FC0C1150C
:100CA00082E5D80708F497C02C2F2695269580E278
:100CB000289F900111248C2F8370C1E0D0E002C0E6
:100CC000CC0FDD1F8A95E2F7C22BD32BDD68D4CF82
:100CD000C03A82E5D80760F4C03882E5D80708F446
:100CE00059C0CF71D0E0DC2FCC27C46FD06AC4CFFD
:100CF000C03C82E5D80708F462C0C03E82E5D80750
:100D000008F09CCFDC2FCC27CC27DF71C06FD06AD6
:100D1000B3CFC55AD0E0C25FDE4FC881D0E0D06407
:100D2000ABCFD065A9CF8D2F0E940805182FCE011B
:100D300099270E945705C12FD0E0DC2FCC27CC2764
:100D4000DF71C82BD92B98CFCE0199270E94570568
:100D5000CC27DF70C82BD92BD06A8ECFCF71D0E0D3
:100D6000DC2FCC27C16FD06A87CF2C2F26952695F4
:100D7000277080E2289F900111248C2F8370C1E09E
:100D8000D0E002C0CC0FDD1F8A95E2F7C22BD32B37
:100D9000DC6872CF2C2F26952695277080E2289F3D
:100DA000900111248C2F8370C1E0D0E002C0CC0FE1
:100DB000DD1F8A95E2F7C22BD32BDA685DCF8C2F2B
:100DC0008F710E940805C82FD0E0DC2FCC27CC27DC
:100DD000DF71D06251CF8C2F8F710E94080555E0D2
:100DE000D695C7955A95E1F7CF70D0E0DC2FCC2788
:100DF000282F30E084FF05C044E0220F331F4A95BE
:100E0000E1F7C22BD32BD06937CF8D2F8F710E9482
:100E10000805182FCE0199270E945705C12FD0E051
:100E2000DC2FCC27CC27DF71C82BD92BD2CF8095D4
:100E300090919C01982390939C01089580912602A3
:100E40009091ED01981301C008958F5F8770FACFDC
:100E5000292F943078F58D3068F590E03DE0239FA0
:100E6000800D911D1124682F677023E0969587955A
:100E70002A95E1F7FC01EE0FFF1FE80FF91FEB5871
:100E8000FE4F50E040E080E0219130E0062E02C0AD
:100E9000369527950A94E2F721703327042E01C076
:100EA000220F0A94EAF7822B4F5F5F4F43305105C0
:100EB00059F7089580E00895292F943098F58D30E2
:100EC00088F590E03DE0239F800D911D1124282F8F
:100ED000277041E001C0440F2A95EAF723E0969578
:100EE00087952A95E1F7FC01EE0FFF1FE80FF91F28
:100EF000EB58FE4F30E020E070E05191DF01119798
:100F0000CB01022E02C0969587950A94E2F7817074
:100F100081958527842385278C932F5F3F4F23302E
:100F2000310559F708958093AB0108959091AB0175
:100F300021E030E0F90101C0EE0F8A95EAF7D9010E
:100F400002C0AA0FBB1F6A95E2F7EA2B01C0220F6D
:100F50004A95EAF7892F8E23E81305C0292B822FA3
:100F60000E949307089520952923F9CF21E030E0CE
:100F700001C0220F8A95EAF720958091AB01822368
:100F80000E94930708959091910180958923809301
:100F90009101282F277069F4891759F09091AD01BC
:100FA00092FF07C08695869586950E94B607109297
:100FB0009101089521E030E001C0220F8A95EAF7FF
:100FC0008091AB01822B0E94930708958093AA0120
:100FD0000895662309F45DC08D3C41F40E94C1046C
:100FE00081958093CA010E94780408958E3C19F47B
:100FF0000E94C104F6CF8F3C31F40E94C104819558
:101000008093C901F0CF803D19F40E94C104F8CF4C
:10101000893D29F40E949F048093CB01E4CF8A3D4F
:1010200021F40E949F048195F7CF8B3D31F40E94FB
:101030009F0481958093CC01D6CF8C3D19F40E94FA
:101040009F04F8CF9FE2980F983070F4815D990B60
:1010500021E030E001C0220F8A95EAF78091C801B3
:10106000822B8093C801BFCF8D3D31F48091C201A6
:1010700081608093C201B7CF8E3D21F48091C2017F
:101080008260F7CF8F3D09F0AECF8091C2018460BE
:10109000F0CF4091C9018D3C59F48091CA0187FF7E
:1010A0000DC01092CA0141110BC01092C00108C0BE
:1010B0008E3C81F48091CA0118169CF3442381F080
:1010C0008091CB019091CC01892B09F08CCF1092AB
:1010D000C10189CF8F3C49F447FFF0CF1092C9017D
:1010E0008091CA018111ECCFE0CF803D19F4141634
:1010F000ACF3E4CF9091CB01893D29F41916F4F6B5
:101100001092CB01DBCF8A3D19F497FFD7CFF8CFF0
:101110009091CC018B3D29F497FFD0CF1092CC0158
:10112000CDCF8C3D19F41916CCF3C8CF9FE2980FA0
:10113000983090F4815D990B21E030E0B90102C054
:10114000660F771F8A95E2F7CB0180959091C801D1
:1011500089238093C801B2CF8D3D31F48091C201C3
:101160008E7F8093C201AACF8E3D21F48091C2016F
:101170008D7FF7CF8F3D09F0A1CF8091C2018B7F8A
:10118000F0CF0F931F93CF93DF938B01EA019091E0
:10119000E301943061F58093E9008FEF9091E800CE
:1011A000815095FD06C095ED9A95F1F700008111EB
:1011B000F5CF8091E80085FF1AC00E949C02811142
:1011C00011C08091E80085FD06C08091E8008E770F
:1011D0008093E800F2CFF80181918F018093F100B4
:1011E000219779F78091E8008E778093E800DF916E
:1011F000CF911F910F91089543E050E0BC0184E02E
:101200000E94C108089546E050E0BC0184E00E94BD
:10121000C1080895CF93DF93EC0148E050E0BC0192
:1012200081E00E94C10888E0FE01A9EDB1E00190D3
:101230000D928A95E1F7DF91CF910895CF93C82F52
:101240006FEF811165E284E290E00E94351EC111CA
:101250000DC0CFEF6C2F85E290E00E94351E6C2F01
:1012600086E290E00E94351ECF910895C2E0F2CF51
:10127000CF93DF93C0E0D3E060E0CE010E94351E43
:101280002196C11584E0D807B9F7DF91CF91089571
:101290001F93CF93DF93122F8730E0F46430D0F4A4
:1012A0004D30C0F4C42FD0E0CC0FDD1F9AE1699F10
:1012B000C00DD11D112498E6899FC00DD11D1124A8
:1012C000632FCE0188960E94351E612FCE0189962C
:1012D0000E94351EDF91CF911F910895B0E0A0E0EC
:1012E000E4E7F9E00C94D61D9DE3E92E92E0F92E97
:1012F000D12C8701C12C1CC04C2F83E021E030E0B1
:101300008D1540F0FE01EE0FFF1FE00FF11F8591DC
:1013100094919C016C2D8D2D0E9448092196CD3011
:10132000D10551F7C394065E1F4F84E0C81619F02B
:10133000D0E0C0E0E1CFD39488E6E80EF11C87E06E
:10134000D812D7CFCDB7DEB7E8E00C94F21D80E01D
:101350000E941E0960E087E290E00E94351E0E9414
:101360006E090E94380981E00E941E09089584E2F6
:1013700090E00E94171E853289F485E290E00E9479
:10138000171E823059F486E290E00E94171E91E009
:10139000823009F090E0892F8170089580E0FCCFC1
:1013A0000F931F93CF93DF93873030F5643020F590
:1013B0004D3010F5C42FD0E0CC0FDD1F2AE1629F25
:1013C000C00DD11D112438E6839FC00DD11D1124FD
:1013D000CE0188960E94171E082F10E0102F0027BC
:1013E000CE0189960E94171E9801282BC901DF9112
:1013F000CF911F910F91089590E080E0F8CF462F94
:10140000743040F46D3030F4873020F4672F0E9440
:10141000D009089590E080E00895CF92DF92FF9286
:101420000F931F93CF93DF936C010091AB018091D9
:10143000AA01082BC6E0D0E010E0FC2EC8010C2E5B
:1014400002C0959587950A94E2F780FD0CC021971C
:10145000A0F7F12C8F2DDF91CF911F910F91FF906D
:10146000DF90CF900895B6018C2F0E94FF090E9453
:10147000F905019761F3EECFCF93DF93EC010E9462
:101480000D0ABE010E94FF090E94F905DF91CF916C
:101490000895FC0124812223C1F0808191810E9462
:1014A0003C0A92959F70963091F058F4925F9F702D
:1014B000923058F4803F19F030F4883E30F481E0E7
:1014C00008959A5FF4CF843FD1F380E00895883E79
:1014D000B0F3813FD1F7F3CFA6E0B0E0E2E7FAE066
:1014E0000C94DB1D49835A8349815A819923A1F0C9
:1014F000222391F0CA010E940D0A182F682F8981BA
:101500009A810E945C0769817A81812F0E94FF097C
:101510002696E3E00C94F71DCA010E942807182FB5
:10152000F2CF9091AD0192FB222720F9281779F094
:1015300080FB92F99093AD016091AC017091AD0187
:1015400084E090E00E94531E82E00E94C307089549
:1015500020919C0180919301282B809192018823F6
:1015600081F0282B30E08CE691E0FC014191CF0125
:1015700041113F5FF1E082379F07B9F731111092B7
:10158000920120936A0148E050E064E971E08AE644
:1015900091E00E94691E892BA9F088E0EAE6F1E05B
:1015A000A4E9B1E001900D928A95E1F7E091CF01B5
:1015B000F091D001309731F00280F381E02D8AE67E
:1015C00091E009950895CF9310929C01C6E0ECE656
:1015D000F1E0DF018C2F1D928A95E9F790E080E021
:1015E0000E94460490E080E00E9421041092930142
:1015F0000E94A80AE7ECF1E0DF011D92CA95E9F725
:101600001092C0011092C1011092C2010E94780490
:10161000CF910895AAE2B0E0E0E1FBE00C94DB1D7D
:1016200085EE91E02091F100DC012D93CD01B1E038
:101630008D3E9B07B9F78091E601833009F472C0B3
:10164000B8F4813009F449C0823009F4B7C0809100
:10165000E80083FF97C28091E5019091E6019A30FE
:1016600008F090C2E92FF0E0E858F14E0C94BF1D4D
:101670008A3009F492C08B3009F471C0893039F78F
:101680008091E501813219F78091E9019091EA0199
:10169000009711F00297D9F68091E800877F809338
:1016A000E8008091E80082FF38C09091F3008091BB
:1016B000F200029731F48091F100813011F0863010
:1016C00021F48091F10080930B018091E8008B77E9
:1016D0008093E8000E94CD02BACF8091E501813A63
:1016E00009F0B5CF8091E800877F8093E800809172
:1016F000E9019091EA01892B61F468E089ED91E0BC
:1017000070E00E9479038091E8008B778093E80075
:101710009ECF60E090E080E0F3CF8091E301811103
:10172000C0CF95CF8091E501813A09F090CF8091AB
:10173000E9019091EA01892B09F089CF8091E800B5
:10174000877F8093E8008091E80080FFFCCF809144
:101750000C018093F1008091E8008E77B9CF8091E1
:10176000E501813209F073CF8091E9019091EA019E
:10177000892B09F06CCF8091E800877F8093E80087
:101780000E94CD0281E09091E701911101C080E0BB
:1017900080930C010E94E30A5ACF8091E5018132C7
:1017A00009F055CF8091E800877F8093E8000E9480
:1017B000CD028091E80180930A0149CF8091E50133
:1017C000813A09F044CF8091E800877F8093E80058
:1017D0008091E80080FFFCCF80910A01BACF803869
:1017E00099F0823809F0CEC18091E9018F7087307D
:1017F00008F0C8C18093E9008091EB0085FB882741
:1018000080F91092E90006C08091E1019091E20117
:10181000911182609091E800977F9093E800809307
:10182000F1001092F1008091E8008E77A7C1882323
:1018300009F495C1823009F0A5C18091E7018111B9
:1018400098C18091E9018F702FEF280F263008F0A2
:1018500099C18093E9002091EB0020FF8AC1933069
:1018600031F48091EB0080628093EB0082C1909113
:10187000EB0090619093EB0021E030E001C0220F7B
:101880008A95EAF72093EA001092EA008091EB0033
:101890008860EACF811176C11091E7011F778091AE
:1018A000E3008078812B8093E3008091E800877FBC
:1018B0008093E8000E94CD028091E80080FFFCCF79
:1018C0008091E30080688093E30082E0111183E05F
:1018D0008093E30157C18058823008F053C12091B2
:1018E000E7013091E8012C3DE3E03E07A1F583E0FC
:1018F0008A838AE289834FB7F894DE01139620E049
:101900003EE051E2E32FF0E050935700E49120FFD6
:1019100003C0E295EF703F5FEF708E2F90E0EA30EA
:10192000C0F0C7968D939D932F5F243159F74FBF19
:101930008091E800877F8093E8006AE270E0CE0142
:1019400001960E9479038091E8008B778093E800EC
:1019500019C1C096E7CF8091E9019091EA01432F28
:1019600055274330510509F44AC078F541305105F7
:1019700009F47AC08BE590E0EDEDF3E042305105DB
:1019800009F000C12091E800277F2093E800209112
:10199000EB013091EC018217930708F49C0140E0C1
:1019A0002115310509F065C0411163C08091E8003F
:1019B00082FDC9CF8091E301882329F2853019F295
:1019C0008091E80083FFF2CFBECF4132510509F488
:1019D0003CC04232510509F0D5C08330910508F072
:1019E000D1C0FC01EE0FFF1FE55AFE4F0190F081C0
:1019F000E02D885A9E4FDC018C9190E01AC033276D
:101A000021303105D1F02115310561F02230310549
:101A100009F0B8C0EAE4F4E0E4918E2F90E0EAE443
:101A2000F4E007C0EAE7F4E0E4918E2F90E0EAE703
:101A3000F4E0009709F4A6C0A5CFE8E5F4E0E4914E
:101A40008E2F90E0E8E5F4E0F4CF8330910508F0C4
:101A500099C0880F991FFC01EF59FE4F0190F0814A
:101A6000E02D89E090E08ECF82E190E0E8E3F4E0C1
:101A700089CF8091E301882309F465CF853009F48B
:101A800062CF8091E80083FD5ECF8091E80082FD07
:101A90008DCF8091E80080FF83CF9091F3008091FB
:101AA000F2002115310519F08830910550F041E020
:101AB000089709F040E08091E8008E778093E80075
:101AC0006FCF44914093F100319621503109019636
:101AD000E8CF803809F056C08091E800877F809376
:101AE000E8008091E4018093F1009DCE81114AC00D
:101AF0001091E701123008F045C08091E800877F1F
:101B00008093E8001093E4010E94CD02112311F0AC
:101B100084E005C08091E30087FDFACF81E08093E7
:101B2000E30142E061EC81E00E94EC0242E261EC00
:101B300084E00E94EC0242E261EC82E00E94EC024E
:101B400042E260EC83E00E94EC028091E301843089
:101B500021F081E080930D0115C082E0FBCF8091E0
:101B6000E701813079F481E0933009F080E08093DF
:101B7000E2011092E9008091E800877F8093E800FD
:101B80000E94CD028091E80083FF0AC08091E800A6
:101B9000877F8093E8008091EB0080628093EB0068
:101BA000AA96E3E00C94F71D0E94E30A2FEF84E36A
:101BB0009CE0215080409040E1F700C0000088E1A7
:101BC0009AE00FB6F894A895809360000FBE9093AA
:101BD0006000FFCF882321F00E9417070E94A80A07
:101BE0000895882339F090919C01982B90939C0143
:101BF0000E94A80A08958823D1F19CEF980F913A8A
:101C000078F4ECE6F1E09191891303C0DF011197BC
:101C10001C9291E0E237F907B1F70E94A80A0895F3
:101C200090E2980F983050F4877091E001C0990FBE
:101C30008A95EAF7892F0E941707EFCF9BE5980F47
:101C4000933028F490E080E00E944604089598E5DF
:101C5000980F9B3128F490E080E00E9421040895C1
:101C600093E3980F933118F460E00E94E907089518
:101C7000CF93C82F8823B1F08CEF8C0F813A00F5F9
:101C8000ECE6F1E082E791E0DF012D91C21761F00F
:101C90008A179B07D1F76C2F8AE691E00E94070410
:101CA0000E94A80ACF9108952191C21303C0DF01B9
:101CB00011971C928E179F07B9F70E94A80AEBCFC5
:101CC00080E28C0F883068F4C77021E030E001C0FA
:101CD000220FCA95EAF780919C01822B80939C0188
:101CE000DFCFEBE5EC0FE33040F4F0E0E25FFE4FD6
:101CF000808190E00E944604D5CFE8E5EC0FEB31FF
:101D000050F4F0E0EE0FFF1FEF5EFE4F80819181F7
:101D10000E942104C7CF83E38C0F833118F661E062
:101D20008C2F0E94E907BECFA8E0B0E0EAE9FEE010
:101D30000C94CE1D8E010F5F1F4F88E0F8011192A9
:101D40008A95E9F797E4E92E91E0F92E68012BE4F2
:101D5000422E21E0522E66246394712C48E5842E95
:101D600041E0942EF70181917F018F3F09F445C036
:101D7000F894E82FE295EF70F0E021A18F70A301B5
:101D800002C0440F551F8A95E2F7CA01922F982B83
:101D900091A392A18095892382A3789400C0EBE45B
:101DA000F1E021E030E0B12CA12C41914F3F09F44A
:101DB0004BC0A42FA295AF70B0E090968C9190E0AC
:101DC0004F7002C0959587954A95E2F780FD3CC01B
:101DD000C901A82AB92A220F331F8E169F0629F798
:101DE000F701319780818F3F11F00E94F10450EA92
:101DF0005A95F1F7F601B182A082F2E0CF0ED11C24
:101E00004E145F0409F0AECF48E050E0B80182EA1A
:101E100091E00E94691E892BE1F088E0F801A2EAB6
:101E2000B1E001900D928A95E1F781E08093A101E4
:101E30000E94F8039093A00180939F0110E0812FEE
:101E40002896E0E10C94EA1D90E080E0C2CF10E01B
:101E50001FC01091A101112389F380919F019091DE
:101E6000A0010E94E903059748F348E050E062EAC8
:101E700071E088EB91E00E94691E892B41F388E0B4
:101E8000E2EAF1E0A8EBB1E001900D928A95E1F76A
:101E90001092A101D4CF1F93CF93DF93182FEB01A2
:101EA0000E94380E209739F4812F0E94FB0DDF919C
:101EB000CF911F9108958FE99FE00197F1F700C03E
:101EC00000002197EFCF0F931F93CF93DF93C62F7F
:101ED000D42F022FFC0185818823A9F06093290269
:101EE0000E94F8039093280280932702C77081E034
:101EF00001C0880FCA95EAF70E94F10DDF91CF91DA
:101F00001F910F91089580912902681334C0809128
:101F10002702909128020E94E903843B910558F51D
:101F200010E21D0FCD17B9F080E28C0F883040F41D
:101F3000C77081E001C0880FCA95EAF70E94EA0DD8
:101F4000183048F481E09D2F977001C0880F9A9552
:101F5000EAF70E94F10D70E060E0802F0E944B0FC5
:101F6000183060F6D77081E001C0880FDA95EAF783
:101F70000E94EA0DC3CFC77081E001C0880FCA95E7
:101F8000EAF7F6CFA8E0B0E0E8ECFFE00C94CE1D55
:101F90008C01DC0114968C911497882309F4BDC040
:101FA00021E04C9111965C91119712966C911297C9
:101FB00013967C91139715969C910E946C0A7C0154
:101FC000F8018581882309F462C5970137572038C5
:101FD000310508F073C5FFE0FE1508F48EC08FEFE1
:101FE00093E00E94171E811188C0A12C63E0B62ED9
:101FF000E1104DC0FE01339686E0DF011D928A9507
:10200000E9F75AE0452E7501BFEFEB1AFB0AC5014F
:102010000E94171E89831A82882309F46EC08130BA
:1020200009F07FC06501E2E0CE0ED11CC7010E941D
:10203000171E8A83882309F460C09FEF980F93309E
:10204000A0F5F3E0AF0EB11CC6010E94171E8B83F2
:10205000882309F452C01C82DE0111967D01F7012C
:102060002081222381F2213009F09DC0918182815B
:10207000913009F058C0F2E0EF0EF11C70E060E022
:10208000893311F460E570E00E944B0F53C0A11436
:1020900024E0B20691F1C5010E94171E811101C012
:1020A000EA943FEFA31AB30AA3CF56018430A1F6F6
:1020B00042E0E42EF12C56012FEFA21AB20AC6011B
:1020C0000E94171EE1E0F0E0EC0FFD1FEE0DFF1D7A
:1020D0008083882391F08C3741F4E2E0F0E0EC0F4C
:1020E000FD1FEE0DFF1D1082B7CF3FEFE31AF30A7D
:1020F000650187E0E816F104F1F68091910187709F
:1021000061F0D80115968C91882339F08091AD014A
:1021100082FF03C082E00E94C3072896E0E10C948E
:10212000EA1D570199CF923049F422E0E20EF11CEA
:102130000E94380E9FEFE91AF90A91CF933031F4DB
:1021400032E0E30EF11C0E94FB0DF4CF943021F03D
:102150008FEFE81AF80AEECF92E0E90EF11C30E0BA
:1021600020E0B7016F5F7F4FD70111964C918053EC
:10217000990B8A30910560F021153105D9F2EFE90C
:10218000FFE03197F1F700C0000021503109F4CF92
:10219000429EF001439EF00D11249C012E0F3F1F23
:1021A000842F7B01DECFE22FF0E0E354FE4F54900A
:1021B000822F86958695869590E0FC01E355FE4F2B
:1021C00064902770712C022E02C0759467940A9453
:1021D000E2F7F1E06F227724FC01E356FE4F849092
:1021E000912C022E02C0959487940A94E2F731E074
:1021F00083229924FC01E357FE4FC490D12C02C0E6
:10220000D594C7942A95E2F781E0C822DD246114B1
:10221000710419F081EE0E94380E8114910419F0B6
:1022200086EE0E94380E70E060E0852D0E944B0F14
:102230008114910419F086EE0E94FB0D6114710463
:1022400019F081EE0E94FB0DC114D10409F472CF84
:1022500070E060E08CE218CF91E0909372011092F0
:102260002902970130572332310508F0F8C384E082
:1022700090E00E941F1E9093AD018093AC01F70186
:10228000E150F047E232F10508F074C0EE57F14E2C
:102290000C94BF1D10927201A7E7EA16ACE7FA068C
:1022A00009F427C1B8E7EB16BCE7FB0609F430C117
:1022B0009701205E32452032310508F02FC181118F
:1022C00042C1EE2DEF7181E090E07C0102C0EE0C86
:1022D000FF1CEA95E2F76E2D83E090E00E94351E28
:1022E0008E2D0E94E60709CF80917201882339F074
:1022F00080EE0E94FB0D89E20E94380EFECE81E343
:10230000FBCF26E241EE61EEC8010E94630FF5CEDD
:1023100027E245EE65EEF8CF26E241EE60EEF4CF1F
:1023200027E245EE64EEF0CF26E241EE62EEECCF1E
:1023300027E245EE66EEE8CF28E241E0EBCF8111DF
:102340008ECF26E1E2162CE7F20609F0A5CF8091A8
:1023500073018111CCC089E2ECE6F1E022E731E0C3
:102360009191891303C0DF0111971C922E173F072B
:10237000B9F78AC38091AC0181608093AC0195C0AC
:102380008091AD0188608093AD018FC08091AC01D8
:102390008260F3CF8091AC018460EFCF8091AC017B
:1023A0008860EBCF8091AD018160EDCF8091AD0170
:1023B0008260E9CF8091AC018061DFCF8091AC0178
:1023C0008062DBCF8091AC018064D7CF0E94E30AAA
:1023D0008091AC018068D1CF8091AC018C60CDCF71
:1023E0008091AD018360CFCF8091AC018E7FC5CF4E
:1023F0008091AD01877FC7CF8091AC018D7FBDCF2C
:102400008091AC018B7FB9CF8091AC01877FB5CF34
:102410008091AD018E7FB7CF8091AD018D7FB3CF1D
:102420008091AC018F7EA9CF8091AC018F7DA5CF2B
:102430008091AC018F7BA1CF0E94E30A8091AC0117
:102440008F779BCF8091AC01837F97CF8091AD0137
:102450008C7F99CF8091AC0182FB992790F921E084
:10246000922790FB82F990FB83F987CF8091AD0191
:10247000982F909591708E7F892B90FB81F983CF57
:102480009091AC01892F8F7B96FF806476CF0E945C
:10249000E30A9091AC01892F97FB87F980586DCFA3
:1024A00061E08EE090E00E94351E6091AC01709179
:1024B000AD0184E090E00E94531E0E94E30A1DCE0D
:1024C00060E0EFCF9091AC01892F8F7E94FF806107
:1024D00054CF9091AC01892F8E7F90FF81604DCFBA
:1024E0009091AD01892F877F93FF88604CCF85E362
:1024F00033CF882349F081E00E94DA0743E062E0AD
:1025000081E00E949607F9CD81E00E94B607F6CFE0
:10251000882311F082E0F0CF82E0F7CF882399F092
:10252000E3E0EE16ECE7FE0609F480C008F05FC0B9
:10253000E1142CE7F20609F46CC031E0E3163CE745
:10254000F30609F479C0F8018581E080F1808823E1
:1025500009F480C0C7010E940D0AD82E682FC70158
:102560000E945C07B7018D2D0E94FF090E94F905AA
:102570007C01882ED8011596AC90159716969C90E4
:1025800092943FE0932280919101877009F1DA2CB7
:10259000AA20F9F08F2D807F803469F080E28E0DC3
:1025A0008830B0F08F2D807E803229F4B1E0BE15E6
:1025B00078F4992069F08091AD0182FF09C082E032
:1025C0000E94C307809191018770DD24D39481110B
:1025D000D12CCF2CC2942FE0C222EBE0EC1508F4F2
:1025E000A8C0EC2DF0E0EC55F14E0C94BF1D8BE52E
:1025F000E8168CE7F80661F19CE5E9169CE7F90618
:10260000E9F0AAE5EA16ACE7FA0609F09CCF81E00A
:102610001CC00E94E30ABFEFE4E3FCE0B150E040DD
:10262000F040E1F700C000000E94D8036FEF7FEF99
:1026300090E080E00E94531E0E94D40D8091AD0175
:1026400082FB882780F991E089270E94910A7BCF3D
:1026500080E0FBCFC7010E942807D82E83CFFF2D33
:10266000FF70BF2E8F2D807F19F0B29490EFB922AA
:10267000AA20B9F0BB2069F080E28E0D883010F0FE
:10268000811009C080919C01B82AB0929C010E94DF
:10269000A80A8E2D4CC080919301B82AB092930164
:1026A000F6CF8E2D0E94FB0DBB2009F442C080E2C4
:1026B0008E0D883010F0811004C08B2D0E941707FA
:1026C00006C0B09480919301B822B09293010E9409
:1026D000A80A2FC02F2D2F70B22E8F2D807F803211
:1026E00019F0B29480EFB822882089F031E0831687
:1026F00009F481C0AA2009F48DC0992009F44EC0C4
:10270000F801868180FFC5CF8F70868347C0809196
:10271000AD0182FD3FC0AA20B9F1BB2039F0809104
:102720009C018B2980939C010E94A80A80E00E9452
:10273000380E2C2D2850330B2430310510F40E9414
:102740006B04DD20B1F08091910180FD12C0D801B1
:1027500015961C928695869586950E94DA07C80183
:102760000E94C20F809191018695869586950E9460
:10277000B60720E0F8014081518162817381848134
:1027800095810E946C0AC9CC80E00E94FB0DBB20A1
:1027900081F293CFAA20A1F0911004C08B2D0E944A
:1027A000F10DC7CF81E09812C4CF809192019B2D8B
:1027B0009823B91609F4BDCF8B2980939201B9CF24
:1027C0009110B7CF8B2D0E94EA0D909192018B2D25
:1027D000892329F08B2D80958923809392019091F4
:1027E00074018B2D892309F4A4CF8B2D8095892327
:1027F000809374019ECFAA2029F095E0991508F4E2
:1028000098CFCCCFA4E0A91508F493CF8B2D0E94CC
:10281000EA0D8FCF9920D1F3F9E38F1209C02FEF82
:1028200037EE83E0215030408040E1F700C00000E7
:102830008E2D0E94FB0D7DCF8F2D86958695837002
:1028400061F0813009F075CFC7019370A11002C00B
:1028500080E090E00E9421046CCFC7019370A1102A
:1028600002C080E090E00E94460463CF6A2D8E2D66
:102870000E94E9075ECF8F2D837091F5A11059CF8B
:102880004E2D429546954770440F440F8E2D8F7004
:10289000042E01C0880F0A94EAF72E2D2071E4FE61
:1028A00007C02FE030E001C0220F4A95EAF72095DB
:1028B0003F2D369536953370323069F050F44091A3
:1028C000AA01313029F0822B84230E94E60731CF00
:1028D000842B822BFACF282B8091AA018227F5CF57
:1028E0008695AA2011F08F2D8170882309F421CFBD
:1028F0004E2D429546954770440F440F8E2D8F7094
:10290000042E01C0880F0A94EAF72E2D2071E4FEF0
:1029100007C02FE030E001C0220F4A95EAF720956A
:102920003F2D369536953370323069F050F4409132
:10293000AB01313029F0822B84230E949307F9CE1A
:10294000842B822BFACF282B8091AB018227F5CFE5
:102950009F2D9F70F92EAA2029F0892F0E94DA0757
:102960008E2D1DCF8E2D0E94EA0D8F2D0E94B60751
:10297000E0CE8E2DA2EF8A16B1F1A81570F0B0EF5F
:102980008B16D1F0E1EF8E1691F0AA2009F457C012
:1029900091107FCE8F2D8F712AC0F3EF8F1651F1DA
:1029A00024EF8212F2CF9091AD0192FD2FC08F2DB6
:1029B0008F71AA20D9F21BC0AA2081F034E039150A
:1029C00008F4B7CE2F2D2F7181E090E001C0880F61
:1029D0002A95EAF79091AB018927AFCF85E0891559
:1029E00008F4A7CEEFCF8F2D8F71A110BFCF0E941B
:1029F000DA079FCE80E0AA2009F49FCF9F2D9F7118
:102A000081E001C0880F9A95EAF797CFAA2061F07C
:102A10008F2D8F7192FFEBCF98E0899F9001112449
:102A2000236020939101E3CF81E00E94C307A1E0DE
:102A3000A91508F07ECE82E00E94C3077ACE9920C5
:102A400059F0893309F0F4CEBFEFE7EEF3E0B1506F
:102A5000E040F040E1F7EACE8F2D8F7187CFF6E1AD
:102A6000EF16FCE7FF0609F017CC80919C018A7AEB
:102A700091E009F490E09093730169E2811165E3BC
:102A80008AE691E00E9407040E94A80A36CB30EE45
:102A9000E316F10409F4FECB90E4E9169EE7F9068B
:102AA000C1F489E20E94FB0D81E30E94FB0D80913D
:102AB0007201882309F421CB80EE1ECCA0EEEA1629
:102AC000F10409F4C9CBB0E4EB16BEE7FB0609F448
:102AD0000BCCF701E851FC47E730F10508F02FCCAB
:102AE000E055F14E0C94BF1DCF93DF938091900180
:102AF000807F09F04DC080918F01882309F448C080
:102B0000E09126025091ED01C0918B01D0918A0194
:102B100060918C0170918D0147E05E17C9F18E2F95
:102B200090E0E49FF0011124E251FE4F2481222322
:102B300091F1489FF001499FF00D1124DF01A2514E
:102B4000BE4F11962C9111972C1325C02C912D134B
:102B500022C015962C91159721111DC012962D910A
:102B60003C91261B370B243B3105A8F48091900142
:102B70008F70806180939001EC50FE4F80818F7048
:102B8000806180838AE891E00E94C20F0E941E0744
:102B9000DF91CF910895FC013196E770BECFA4E19B
:102BA000B0E0E5EDF5E10C94D21D8C0186E0F80172
:102BB000DE011F9601900D928A95E1F7D8011496D7
:102BC0008C9114971596EC909AE8A92E91E0B92E65
:102BD00090918E01911128C0882319F1EE20F1F017
:102BE000C8010E94490AF82E8823C1F087E0F80145
:102BF000D50101900D928A95E1F780918E01813087
:102C000031F480918A0190918B010E943C0A0E94CC
:102C100074158F2D6496ECE00C94EE1DC8010E9493
:102C2000C20FFF24F394F5CFF801D080C1808280D9
:102C30009380F0908F0120918C0130918D01A4013F
:102C4000421B530BFF2009F4EEC0443B510508F032
:102C5000AAC08823F1F290918B0180919001282FD6
:102C6000207F09F062C0C91215C090918A01D91263
:102C700011C0E11049C08F708061809390018AE893
:102C800091E00E94C20F80919001D80116968C931A
:102C9000F12CBFCFE11038C06C2D8D2D0E945E024B
:102CA0006C2D8D2D0E945E02E82E8111F1CFDF8602
:102CB000C88A8F8598890E943C0A292F22952F70F7
:102CC000243058F49F70223088F0992399F0F8014D
:102CD0009681907F79F4FE2C9CCF2A5F2F70223052
:102CE00068F0C8010E94C20FEF2CF5CF992311F0B4
:102CF000882389F3805E883070F3F3CF803F58F3E8
:102D0000815F833070F7E7CF80919001816080937D
:102D100090018AE891E00E94C20F87E0EAE8F1E0C2
:102D2000DF011D928A95E9F7B3CFC91213C09091C4
:102D30008A01D9120FC0E1100DC08683C8010E941C
:102D4000C20F87E0F801AAE8B1E001900D928A95E0
:102D5000E1F75FCFC8010E94490A882309F45ECFDA
:102D6000EE2009F45BCF80919001803288F02091B1
:102D70008A0130918B01398728879B868A869091BA
:102D80008E019C871D868E87CE0108960E94C20FF9
:102D900087E0F801AAE8B1E001900D928A95E1F789
:102DA0000E9474153ECF90919001292F207F39F415
:102DB0008AE891E00E94C20F87E0D501B2CF882354
:102DC00009F427CF80918B018C1110C080918A016A
:102DD000D8120CC0E1100AC09683C8010E94C20F2D
:102DE00087E0D5011D928A95E9F713CFC8010E94AB
:102DF000490A882309F412CFEE2009F40FCF8091FD
:102E00009001803228F220918A0130918B013A831F
:102E100029839C828B8290918E019D831E828F8359
:102E2000CE010196B3CF443B5105F0F4882309F459
:102E3000F8CEFE2CEE2009F4F1CE80918B018C119E
:102E400005C080918A01D81609F47BCFC8010E9481
:102E5000490A81119DCF80919001816080939001FA
:102E6000C8010E94C20FD5CE87E0F50111928A9564
:102E7000E9F7CFCEABE1B0E0E0E4F7E10C94DA1D86
:102E80004E8B5F8B688F798F8A8F9B8F192F911153
:102E9000109293011D8A86E0FE017696DE011F9650
:102EA00001900D928A95E1F70A8D002341F021E00F
:102EB0004F85588969897A89C8010E946C0A0B8BF1
:102EC0001C8B87E0FE013F96DE01189601900D9263
:102ED0008A95E1F7CE0108960E94CF1581112AC08C
:102EE00087E0FE013896DE01119601900D928A95D9
:102EF000E1F78C858823F1F02091ED0130E0C901E4
:102F00000196877099274091260248171906E9F023
:102F100097E0929FD001939FB00D1124A251BE4F14
:102F2000FE01319601900D929A95E1F78093ED01A3
:102F30000E941E0717E0809126029091ED018913EF
:102F400012C06B96E4E00C94F61D0E94E30A109206
:102F5000ED011092260287E0EAE8F1E0DF011D9220
:102F60008A95E9F7E7CF819FC001112482519E4FD6
:102F70000E94CF15882329F38091260290E00196C4
:102F80008770992780932602D6CFA6E0B0E0EBECBD
:102F9000F7E10C94DA1D0E94F8038C0180919D01E9
:102FA00090919E018017910781F019821A820E94E8
:102FB000F803682F49815A81792F80E090E00E94C0
:102FC0003A1710939E0100939D012696E4E00C941D
:102FD000F61D1F920F920FB60F9211242F933F935D
:102FE0004F935F936F937F938F939F93AF93BF9311
:102FF000CF93DF93EF93FF93D091E900DF7080913F
:10300000EC00C82FC17080FDC0E81092E9008091EB
:10301000F000877F8093F00078940E940A0B109252
:10302000E9008091F00088608093F000CD2BCF7094
:10303000C093E900FF91EF91DF91CF91BF91AF91E4
:103040009F918F917F916F915F914F913F912F91C0
:103050000F900FBE0F901F9018951F920F920FB6F2
:103060000F9211242F933F934F935F936F937F930E
:103070008F939F93AF93BF93EF93FF938091E10062
:1030800082FF09C08091E20082FF05C08091E100CB
:103090008B7F8093E1008091DA0080FF24C08091D3
:1030A000D80080FF20C08091DA008E7F8093DA0004
:1030B0008091D90080FFAAC080E189BD82E189BDED
:1030C00009B400FEFDCF81E08093E3018091D80137
:1030D000811109C00E947D020E941E038091E200BE
:1030E00084608093E2008091E10080FF1AC08091AB
:1030F000E20080FF16C08091E2008E7F8093E200A4
:103100008091E20080618093E2008091D80080622B
:103110008093D80019BC85E08093E30183E080931D
:103120000D018091E10084FF30C08091E20084FFB6
:103130002CC080E189BD82E189BD99B5892F81705C
:1031400090FFFBCF9091D8009F7D9093D8009091F5
:10315000E1009F7E9093E1009091E2009F7E90932A
:10316000E2009091E20091609093E2009091E4017E
:10317000992309F451C094E09093E3019091E30105
:10318000943009F482E080930D018091E10083FF87
:103190002CC08091E20083FF28C08091E100877FEE
:1031A0008093E10082E08093E3011092E40180913A
:1031B000E1008E7F8093E1008091E2008E7F80931A
:1031C000E2008091E20080618093E20042E060E0F2
:1031D00080E00E94EC028091F00088608093F00013
:1031E00081E080930D0180930C01FF91EF91BF91DD
:1031F000AF919F918F917F916F915F914F913F918F
:103200002F910F900FBE0F901F90189519BC109220
:10321000E3011092D80167CF9091E30097FD02C0BF
:10322000982FAACF93E0A8CF78941F921FB61F9231
:1032300011248F939F93AF93BF938091D40190916A
:10324000D501A091D601B091D7010196A11DB11D64
:103250008093D4019093D501A093D601B093D70168
:10326000BF91AF919F918F911F901FBE1F90189596
:103270001F921FB61F9211248F939F93AF93BF93FA
:103280008091D301811113C08091D4019091D50117
:10329000A091D601B091D7014196A11DB11D809397
:1032A000D4019093D501A093D601B093D701BF91DB
:1032B000AF919F918F911F901FBE1F901895CDB712
:1032C000DEB7A6970FB6F894DEBF0FBECDBF85B7A9
:1032D000806885BF85B7806885BF84B7877F84BFD6
:1032E0000FB6F894A8958091600088618093600083
:1032F000109260000FBE80E890E00FB6F8948093C3
:103300006100909361000FBE81E080930D018FEE0C
:1033100094E090936901809368010E947D020E946D
:103320001E038091E20084608093E2007894809193
:10333000E3018823A1F01091E9001F709091EC0047
:10334000892F817090FD80E8182B1092E900809100
:10335000E80083FD0E940A0B1F701093E90082E0D1
:1033600084BD93E095BD9AEF97BD80936E000E9457
:10337000B709811102C00E94A70980EF0E94F104E1
:1033800081EF0E94F10484EF0E94F10486E30E9421
:10339000F1040BE411E0D8018D918D018F3F11F004
:1033A0000E94F104B1E008351B07A9F788E0E8EBBB
:1033B000F1E0DF01282F1D922A95E9F7E2EAF1E01A
:1033C000DF011D928A95E9F790E080E00E941F1EC0
:1033D000853E9E4F21F40E94B709811163C065EEBE
:1033E0007EEF90E080E00E94531E60E082E090E07B
:1033F0000E94351E81E08093AA0161E083E090E0A5
:103400000E94351E60E074E184E090E00E94531E4B
:1034100060E086E090E00E94351E60E087E090E08A
:103420000E94351E40E050E0BA0188E090E00E9422
:10343000471E60E083E290E00E94351E60E08CE071
:1034400090E00E94351E60E08DE090E00E94351E05
:1034500019821A821B821C821D821E821F8218867C
:1034600048E050E067E170E0CE0101960E94251E21
:1034700040E050E0BA018FE190E00E94471E80E0FA
:103480000E941E090E94A70940E050E0BA018FE0A7
:1034900090E00E94471E40E050E0BA0183E190E0D6
:1034A0000E94471E82E090E00E94171E8093AE01AA
:1034B00084E090E00E941F1E9093AD018093AC01C8
:1034C0000E94940EEFEFF6E721E0E150F04020403B
:1034D000E1F700C000000E94940E8091B80180FFC7
:1034E00008C06FEF7FEF90E080E00E94531E0E94C3
:1034F000D80383E090E00E94171E0E94E60780E058
:1035000091E09093D0018093CF01E0EC6E2EE1E04A
:103510007E2E55245394222423948091E3018530F8
:1035200049F48091E301853009F463C00E94E30A05
:103530000E946B040E94940E6FEAA62E61E0B62EE4
:1035400078EB872E71E0972ED401F501219131910E
:103550008D919D9141E0E73BF40709F47FC0281766
:103560003907A1F3412CD4010D911D914D01F501B5
:10357000C190D1905F01C016D10659F1312CEE24D3
:10358000E394F12CC026D126C6018E219F21892BE0
:10359000B1F039A24AA20E94F8039CA38BA32DA2EA
:1035A00091E098012E213F21232B09F490E09EA366
:1035B00049A15AA16BA17CA18DA10E943A17339415
:1035C000EE0CFF1CFDE03F12DFCFF50132971183B7
:1035D0000083439424E04212C6CF8FB7F894409101
:1035E000D4015091D5016091D6017091D7018FBF60
:1035F0003BC08091E301843021F11092D30188E136
:1036000090E0A0E40FB6F894A895809360000FBEF8
:10361000A093600083B7817F846083BF83B781609C
:1036200083BF7894889583B78E7F83BF0FB6F89455
:10363000A89580916000886180936000109260007E
:103640000FBE0E94940EE8EBF1E081919191892BDD
:1036500009F04CC26E167F06C1F763CF28173907F1
:1036600009F080CF0E94C51786E0E7ECF1E0DE01AB
:10367000119601900D928A95E1F7D090C801F090D3
:10368000C9011091CA01E090CB010091CC011092C8
:10369000C9011092CA011092CB011092CC01812F66
:1036A0008F2909F445C08091C5019091C6010E94FF
:1036B000E9039C019091C001992309F447C2253187
:1036C0003105B0F19F3F19F09F5F9093C001FF203B
:1036D00059F00E94C1049FEF1F140CF491E0899FE0
:1036E000802D11248093C901112359F00E94C10437
:1036F00091E011160CF09FEF899F802D112480938B
:10370000CA018091C901882399F0C090CA01CC20D8
:1037100079F00E94E104882309F4B4C08093C901C0
:103720008C2D0E94E104882309F4AFC08093CA0164
:103730008E2D802B09F445C08091C3019091C40166
:103740000E94E9039C019091C101992309F4F9C1F8
:1037500021353105B0F19F3F19F09F5F9093C10172
:10376000EE2059F00E949F049FEF1E140CF491E08C
:10377000899F802D11248093CB01002359F00E9452
:103780009F0491E010160CF09FEF899F802D11246B
:103790008093CC018091CB01882399F0E090CC01FB
:1037A000EE2079F00E94E104882309F471C080932F
:1037B000CB018E2D0E94E104882309F46CC0809314
:1037C000CC018091C801D81217C08091C90188230B
:1037D00011F08F1111C02091CA01222311F0121390
:1037E0000BC09091CC01992311F0901305C030913A
:1037F000CB01332309F497C10E94780486E0FE01CF
:103800003196A7ECB1E001900D928A95E1F70E9404
:103810006B049091B701891769F08093B7018FB756
:10382000F8944091D4015091D5016091D6017091E6
:10383000D7018FBF8091E301843009F06ECE83E021
:103840008093E9008091E80082FF67CE8091E800D4
:1038500090E085FF05C00E949C028823F9F091E06A
:103860008091E8008B778093E800992309F455CE86
:10387000E981E150E33108F040C0F0E0E954F14E55
:103880000C94BF1D5092C9014BCF5092CA0150CF2A
:103890005092CB018ECF5092CC0193CF00E210E03A
:1038A000CE0101967C018091E80085FD0AC08091DF
:1038B000E8008B778093E8000E949C02882399F3AC
:1038C000CECF8091F100D7018D937D010150110978
:1038D00051F7C5CF1A828CE08B8340E250E0BE01E5
:1038E0006F5F7F4F82E00E94C10817CE8A818230CD
:1038F00009F41EC128F4813061F08FEF8983EDCF88
:103900008330C9F08430C9F71B821C821D821E825D
:10391000E4CF2FB7F8946091D4017091D5018091D4
:10392000D6019091D7012FBF0E94C51D6B837C8368
:103930008D839E83D2CF2B81822F90E0FE01319622
:10394000225F8430910548F6DC01AA0FBB1FA85402
:10395000BE4F3C9111964C9143833483019632962D
:103960002813EFCFBACF8A81823021F0853009F455
:10397000B4CFC3CF6B817C818D819E810E94C51D98
:1039800087E290E00E94351EA8CF4C816B818A812E
:103990000E94D0099827892798279E838D839DCFE1
:1039A0002D813E813227232732274C816B818A81EA
:1039B0000E94480992CF0E946E098FCFB0E1BA836E
:1039C0008CCF5A821B8289CF0A811B811027012745
:1039D0001027FE0131966F01EC80CF018E0D911DF5
:1039E0007C01C8019D5FEC14FD0409F476CF0F3F04
:1039F000110509F058F40E94171ED60114968C93F5
:103A00000F5F1F4FFFEFCF1ADF0AEBCFF6011482D3
:103A1000F7CF0A811B81102701271027CE010196BD
:103A20006C01EC80E00EF12EF11CC8019D5FE016E8
:103A3000F10609F452CF0F3F110509F028F4D60121
:103A400014966C910E94351EBFEFCB1ADB0A0F5FF4
:103A50001F4FEBCF0E94380940CF87E08A833DCFCC
:103A60000A811B81102701271027FE0131966F0163
:103A7000EC80CF018E0D911D7C01C8018896EC145D
:103A8000FD0409F42ACF083DA2E01A0750F40E9471
:103A9000171EF60184830F5F1F4FBFEFCB1ADB0A9F
:103AA000ECCFD60114961C92F6CF0A811B81102709
:103AB00001271027FE0131966F01EC80E00EF12EF8
:103AC000F11CC8018896E016F10609F406CF083DFE
:103AD000F2E01F0728F4D60114966C910E94351E5F
:103AE000BFEFCB1ADB0A0F5F1F4FEBCF8091E201D4
:103AF000882309F416CDB0E1B9BDE2E1E9BD09B40E
:103B000000FEFDCF8091D8008F7D8093D8008091FA
:103B1000E00082608093E0008091E00081FDFCCFB6
:103B20000E94E30AFECC822B892B09F467CE64CE77
:103B300087E290E00E94171E1B821C821D828E83EA
:103B4000CCCE2B30310508F008CE3BCE2B303105E2
:103B500008F0BACDEDCD97FB072E16F4009407D0F0
:103B600077FD09D00E94031E07FC05D03EF4909516
:103B700081959F4F0895709561957F4F0895EE0F41
:103B8000FF1F0590F491E02D099469279627692776
:103B900078278727782708952F923F924F925F9238
:103BA0006F927F928F929F92AF92BF92CF92DF924D
:103BB000EF92FF920F931F93CF93DF93CDB7DEB7B2
:103BC000CA1BDB0B0FB6F894DEBF0FBECDBF099446
:103BD0002A88398848885F846E847D848C849B849D
:103BE000AA84B984C884DF80EE80FD800C811B81AB
:103BF000AA81B981CE0FD11D0FB6F894DEBF0FBEDA
:103C0000CDBFED010895AA1BBB1B51E107C0AA1F40
:103C1000BB1FA617B70710F0A61BB70B881F991F6D
:103C20005A95A9F780959095BC01CD010895F99911
:103C3000FECF92BD81BDF89A992780B50895A8E17D
:103C4000B0E042E050E00C945B1EDC01A40FB51F15
:103C50004150504048F0CB01840F951F2E910E9497
:103C6000361E41505040D0F70895262FF999FECFC7
:103C700092BD81BDF89A019700B4021639F01FBABF
:103C800020BD0FB6F894FA9AF99A0FBE08950396DC
:103C9000272F0E94361E0E94351E252F0E94361E99
:103CA000242F0C94361E0196272F0E94361E0C944A
:103CB000351EDC01CB01FC01F999FECF06C0F2BD37
:103CC000E1BDF89A319600B40D9241505040B8F7DA
:103CD0000895FB01DC0104C08D910190801921F44D
:103CE00041505040C8F7881B990B0895F894FFCFB6
:103CF000EF0B170CC20D170CC20D4A0C6B0CC20D4A
:103D0000690D760DF4116912FC11C611CA11001269
:103D1000CE1104121012DA116212DE111412E21125
:103D200018124012E6111C124712EC1122122A122C
:103D3000D2110812D6110C12F0112612361250129E
:103D40006012C011F81170122F132F136A136A1327
:103D50001C143614991399133B14A814B914B914EC
:103D60008C11901181118811941198119C116A1C69
:103D7000761CB31CC51CD01CDB1C7D1C7D1C7D1C53
:103D80007D1C7D1CDE1CE11CE41C091D2A1D2D1D53
:043D9000301D551D70
:103D940004040A09D7030309FC0800000100818216
:103DA40083E200E900EA00B500B600B700CD008365
:103DB40001CC008A019201940121022302240225EC
:103DC40002260227022A02B300B4006F0070009F8B
:103DD40001CB019F02A002F0F1F4366667F7F6F515
:103DE400349192939594969744227B49012701AC90
:083DF40000EF0308042804009D
:00000001FF
