:100000000C9473020C9490020C9490020C94900245
:100010000C9490020C9490020C9490020C94900218
:100020000C9490020C9490020C9436180C94F217D5
:100030000C9441190C9490020C9490020C94900230
:100040000C9490020C9490020C9490020C949002E8
:100050000C9490020C941D190C9490020C94900234
:100060000C9490020C9490020C9490020C949002C8
:100070000C9490020C9490020C9490020C949002B8
:100080000C9490020C9490020C9490020C949002A8
:100090000C9490020C9490020C9490020C94900298
:1000A0000C9490020C9490020C94900205010902A9
:1000B000A10185020901A1000509190129081500FE
:1000C0002501950875018102050109300931158165
:1000D000257F95027508810609381581257F9501D0
:1000E00075088106050C0A38021581257F95017572
:1000F000088106C0C005010980A101850319012AF4
:10010000B700150126B700950175108100C0050CD8
:100110000901A101850419012AA002150126A002E6
:10012000950175108100C00660FF0961A101096297
:10013000150026FF00952075088102096315002629
:10014000FF00952075089102C005010906A101056F
:100150000719E029E7150025019508750181029529
:1001600001750881010507190029FF150026FF0008
:100170009506750881000508190129051500250156
:10018000950575019102950175039101C00000006C
:10019000000000000000000000000000000000005F
:1001A000000000000000000000000000000000004F
:1001B000007E0F00D4FFFFFFC700000078000000A2
:1001C00000000000002A2B280000000000000000B2
:1001D000000000000000000029000000002C1E3478
:1001E00020212224342627252E362D3738271E1F7E
:1001F000202122232425263333362E37381F0405A9
:10020000060708090A0B0C0D0E0F10111213141516
:10021000161718191A1B1C1D2F3130232D350405F4
:10022000060708090A0B0C0D0E0F101112131415F6
:10023000161718191A1B1C1D2F3130354C2B0014A2
:10024000001A000800150017002F021C0018000CEF
:1002500000120013004C00390004001600070009CA
:10026000000A0033000B000D000E000F00330028C1
:1002700000E1001D001B000600190005002D001103
:100280000010003600370052002152E000E300E287
:100290000090002C002C0000002C002C009100503D
:1002A0000051004F000100010001000100010001A8
:1002B0000001000100010001000100010001000136
:1002C0000001000100010001000100010001000126
:1002D0000001000100010001000100010001000116
:1002E0000001000100010001000100010001000106
:1002F00000010001000100010001000100010000F7
:1003000000010001000100010001000100010001E5
:1003100000010001000100010001000100010001D5
:1003200000010001000100010001000100010001C5
:1003300000010001000100010001000100010001B5
:1003400000010001000100010001000100010001A5
:100350000001000100010001000100010001000195
:100360000001000100010000000100010001000186
:100370000001000100010001000100010001000175
:100380000001000100010001000100010001000165
:100390000001000100010001000100010001000155
:1003A0000001000100010001000100010001000145
:1003B0000001000100010001000100010001000135
:1003C0000001000100010001000100010001000026
:1003D0000001000100010001000100010001000115
:1003E0000001000100010001000100010001000105
:1003F00000010001000100010001000100010001F5
:1004000000010001000100010001000100010001E4
:1004100000010001000100010001000100010001D4
:1004200000010001000100010001000100010001C4
:1004300000010001000100000001000100010001B5
:10044000000100010009025B00030100A0FA090499
:1004500000000103010100092111010001224400F3
:1004600007058103080001090401000203000000E0
:100470000921110100012222000705820320000149
:100480000705030320000109040200010300000026
:10049000092111010001227B0007058403200001CE
:1004A0001201000200000008D80411E60001010258
:1004B00000010C036F003500310067006F00000081
:1004C0002003530061006C006900630079006C0038
:1004D000690063002D00610063006900640033005F
:1004E00000000403090411241FBECFEFDAE0DEBFD1
:1004F000CDBF11E0A0E0B1E0E6EAFDE302C0059067
:100500000D92A836B107D9F722E0A8E6B1E001C004
:100510001D92A932B207E1F70E9468190C947F1E60
:100520000C940000482F209125029091EC0157E097
:10053000291302C080E0089530E0529FF001539FDC
:10054000F00D1124E351FE4F8181681306C08081B4
:10055000481303C085818111EECF2F5F3F4F277075
:10056000E7CFE8EDF0E080818E7F80831092E2009B
:100570001092DA001092E100A0EEB0E08C91816060
:100580008C9380818F77808319BCA7EDB0E08C912C
:100590008E7F8C9380818F7E80831092D701089507
:1005A0002091E4003091E50095E6A9012091EC004E
:1005B000822F817020FF06C08091E80080FF06C076
:1005C00080E008952091E80022FD1AC08091E201A8
:1005D000882389F0853089F08091EB0085FD0FC07C
:1005E0002091E4003091E50042175307F9F2915051
:1005F000E1F684E0089582E0089583E0089581E0C3
:1006000008958091E40187FF13C08091E80082FF84
:1006100006C08091E8008B778093E80004C0809149
:10062000E2018111F2CF08958091E2018823D9F38C
:100630008091E80080FFF8CF8091E8008E77ECCFC2
:10064000982F9093E900242F762F50E0891731F0EE
:100650007091EC002091ED005091F00021FD07C059
:100660009F5F973071F78093E90081E008953091A2
:10067000EB003E7F3093EB003091ED003D7F3093F7
:10068000ED003091EB0031603093EB007093EC00A3
:100690002093ED005093F0002091EE0027FDE0CF75
:1006A00080E00895B0E0A0E0E8E5F3E00C94DF1D01
:1006B000C8EDD0E088818F7E8883E7EDF0E080810F
:1006C0008160808384E082BF81E08093D70188814C
:1006D0008E7F888302EE10E0F80110821092DA001B
:1006E00081EEC82ED12CF601108288818F77888305
:1006F00088818068888388818F7D888319BC109267
:10070000E2011092E3011092E1011092E00190EEFB
:10071000E92EF12CF70180818B7F808388818160B5
:10072000888342E060E080E00E942003F60180813F
:100730008E7F8083F80180818160808380818860E2
:100740008083F70180818E7F8083888180618883A8
:10075000CDB7DEB7E8E00C94FB1DFC018091EA0107
:100760009091EB0186179707A0F06115710529F4A8
:100770009091E8009E779093E80090E061157105F4
:1007800051F4911108C08091E80082FF34C080E0EC
:100790000895BC01F2CF8091E2018823C1F1853038
:1007A000C1F18091E80083FD30C08091E80082FDB6
:1007B000EACF8091E80080FFE1CF8091F3002091A3
:1007C000F200382F6115710519F02830310558F005
:1007D00091E02830310509F090E02091E8002E7773
:1007E0002093E800CBCF81918093F1006150710993
:1007F0002F5F3F4FE7CF8091E201882341F08530A2
:1008000041F08091E80083FFBECF81E0089582E04F
:10081000089583E00895089587E797E79093010886
:100820008093000888E19AE00FB6F894A895809329
:1008300060000FBE90936000FFCF9C014FB7F8940B
:100840008091D3019091D401A091D501B091D601AE
:100850004FBF821B930B08952FB7F8948091D3015B
:100860009091D401A091D501B091D6012FBF0895E8
:1008700080910B0108959C01FC0132969FEF80E06E
:100880004191461751F09F3F19F4411101C0982F33
:100890008F5F8630A9F79F3F09F40895290F311D16
:1008A00097FD3A95F90162830895A3E0B0E0EBE586
:1008B000F4E00C94E51D2091D0013091D10128176E
:1008C0003907A1F09093D1018093D001E091CE013E
:1008D000F091CF01309751F024E029839B838A83E4
:1008E0000084F185E02DCE01019609952396E2E082
:1008F0000C94011EA3E0B0E0E0E8F4E00C94E51DE8
:100900002091CC013091CD0128173907A1F09093A7
:10091000CD018093CC01E091CE01F091CF013097D1
:1009200051F023E029839B838A830084F185E02DA5
:10093000CE01019609952396E2E00C94011EE09108
:10094000CE01F091CF01309729F00190F081E02D98
:100950000995089580E008950E942C049C019091CF
:10096000C8018091C901982B21F03093C5012093D3
:10097000C4019091CA018091CB01982B21F0309352
:10098000C3012093C201E091CE01F091CF013097D5
:1009900049F082E08093C6010680F781E02D86EC65
:1009A00091E0099508958091C10180FD16C081FDF7
:1009B00016C082FD16C08091C0018823A1F0883244
:1009C00080F428E0829FC001112468E270E00E9458
:1009D000B41D862F672B39F0089582E0089584E0D6
:1009E000089588E0089581E008958091C10180FD17
:1009F00014C081FD14C082FD16C08091BF01882300
:100A000081F08E3180F420E5829FC00111246EE1D7
:100A100070E00E94B41D862F089584E1089588E255
:100A2000089588E0089580E50895282F35EB230385
:100A3000C001112497FF04C080589109892F08959F
:100A400080589F4FFBCF80E00895F894E82FE295FF
:100A5000EF70F0E031A1282F2F7081E090E001C00D
:100A6000880F2A95EAF7982F9095932391A392A146
:100A7000892B82A3789408959091AB0192FF10C0C6
:100A800041E0282F2471243009F040E031E0282F84
:100A90002871283009F030E0431711F02CE082274C
:100AA00093FF10C041E0282F2471243109F040E069
:100AB00031E0282F2871283109F030E0431711F078
:100AC0002CE082273091AC0130FF10C051E0282F7C
:100AD0002171213009F050E041E0282F28712830A1
:100AE00009F040E0541711F029E0822731FF10C0CF
:100AF00041E0282F2171213109F040E031E0282F19
:100B00002871283109F030E0431711F029E08227DD
:100B100094FD877E089582389105B9F1B0F4813350
:100B2000910509F47DC048F48932910509F46DC03E
:100B30008A32910509F47BC008958533910509F443
:100B40005FC08933910509F10895833E9105D9F17C
:100B500038F4803E910529F1823E910579F108959E
:100B6000863E9105D9F1873E910509F43EC0843E49
:100B7000910541F52091AC0121FF24C08091AB018A
:100B800084FD19C087EE90E008952091AB01237099
:100B900009F05AC02091AC0123FF14C089E290E013
:100BA00008952091AB0120FD38C03091AC0130FF99
:100BB00009C024FF43C090E080E008952091AB017C
:100BC00022FDF7CF08952091AB0122FD3AC030916C
:100BD000AC0130FD39C024FFF5CFEDCF2091AB0142
:100BE00023FFF0CF24FDE7CFCDCF2091AB0123FD34
:100BF0002EC03091AC0131FFEECF84EE90E008952D
:100C00002091AB0125FFDECFC9CF2091AB0125FD9F
:100C100021C02091AC0123FFD5CF89E390E0D2CF52
:100C20002091AB0126FFCECF8AE290E0089520917B
:100C3000AB0126FFC7CF81E390E0089583EE90E0FB
:100C4000089582EE90E0089580EE90E0089586EE9B
:100C500090E0089585E390E008951F93CF93DF938C
:100C60000E948B05EC01C11580E5D807F0F5C11590
:100C700080E4D80708F09CC0C03ED10520F5CD3CEB
:100C8000D10508F082C0C83AD10578F4C53AD1053B
:100C900008F073C0C130D10519F1209709F1C430B3
:100CA000D105F0F4D0E0C0E01BC0C33CD105D0F7C3
:100CB000C85AD0E0CC0FDD1FCF5EDE4F0990D8813F
:100CC000C02DD4640DC0C11580E2D80708F0D1C092
:100CD000C11581E0D80708F05AC0C83ED10510F709
:100CE000CE01DF91CF911F910895C03682E5D807DC
:100CF00018F5C03482E5D80708F06BC0C03282E531
:100D0000D80708F05FC0C11582E5D80708F497C07E
:100D10002C2F2695269580E2289F900111248C2F58
:100D20008370C1E0D0E002C0CC0FDD1F8A95E2F7EE
:100D3000C22BD32BDD68D4CFC03A82E5D80760F44C
:100D4000C03882E5D80708F459C0CF71D0E0DC2F55
:100D5000CC27C46FD06AC4CFC03C82E5D80708F462
:100D600062C0C03E82E5D80708F09CCFDC2FCC27BC
:100D7000CC27DF71C06FD06AB3CFC55AD0E0C25F55
:100D8000DE4FC881D0E0D064ABCFD065A9CF8D2F26
:100D90000E943C05182FCE0199270E948B05C12F78
:100DA000D0E0DC2FCC27CC27DF71C82BD92B98CFF4
:100DB000CE0199270E948B05CC27DF70C82BD92B39
:100DC000D06A8ECFCF71D0E0DC2FCC27C16FD06A34
:100DD00087CF2C2F26952695277080E2289F90019B
:100DE00011248C2F8370C1E0D0E002C0CC0FDD1F36
:100DF0008A95E2F7C22BD32BDC6872CF2C2F269575
:100E00002695277080E2289F900111248C2F8370F3
:100E1000C1E0D0E002C0CC0FDD1F8A95E2F7C22B03
:100E2000D32BDA685DCF8C2F8F710E943C05C82FC1
:100E3000D0E0DC2FCC27CC27DF71D06251CF8C2FB4
:100E40008F710E943C0555E0D695C7955A95E1F7FC
:100E5000CF70D0E0DC2FCC27282F30E084FF05C0F6
:100E600044E0220F331F4A95E1F7C22BD32BD06900
:100E700037CF8D2F8F710E943C05182FCE019927F7
:100E80000E948B05C12FD0E0DC2FCC27CC27DF714F
:100E9000C82BD92BD2CF809590919B01982390930A
:100EA0009B010895809125029091EC01981301C057
:100EB00008958F5F8770FACF292F943078F58D30A1
:100EC00068F590E03DE0239F800D911D1124682F6F
:100ED000677023E0969587952A95E1F7FC01EE0F60
:100EE000FF1FE80FF91FEC58FE4F50E040E080E094
:100EF000219130E0062E02C0369527950A94E2F73C
:100F000021703327042E01C0220F0A94EAF7822BA6
:100F10004F5F5F4F4330510559F7089580E00895C2
:100F2000292F943098F58D3088F590E03DE0239F8F
:100F3000800D911D1124282F277041E001C0440F1E
:100F40002A95EAF723E0969587952A95E1F7FC0123
:100F5000EE0FFF1FE80FF91FEC58FE4F30E020E0C6
:100F600070E05191DF011197CB01022E02C09695DE
:100F700087950A94E2F781708195852784238527D8
:100F80008C932F5F3F4F2330310559F7089580939D
:100F9000AA0108959091AA0121E030E0F90101C071
:100FA000EE0F8A95EAF7D90102C0AA0FBB1F6A9516
:100FB000E2F7EA2B01C0220F4A95EAF7892F8E2328
:100FC000E81305C0292B822F0E94C707089520959A
:100FD0002923F9CF21E030E001C0220F8A95EAF7FA
:100FE00020958091AA0182230E94C70708959091BD
:100FF00090018095892380939001282F277069F4B0
:10100000891759F09091AC0192FF07C0869586959B
:1010100086950E94EA0710929001089521E030E041
:1010200001C0220F8A95EAF78091AA01822B0E94C3
:10103000C70708958093A9010895662309F45DC048
:101040008D3C41F40E94F50481958093C9010E9472
:10105000AC0408958E3C19F40E94F504F6CF8F3C41
:1010600031F40E94F50481958093C801F0CF803D52
:1010700019F40E94F504F8CF893D29F40E94D304A5
:101080008093CA01E4CF8A3D21F40E94D304819564
:10109000F7CF8B3D31F40E94D30481958093CB012F
:1010A000D6CF8C3D19F40E94D304F8CF9FE2980F5D
:1010B000983070F4815D990B21E030E001C0220F7F
:1010C0008A95EAF78091C701822B8093C701BFCF31
:1010D0008D3D31F48091C10181608093C101B7CF12
:1010E0008E3D21F48091C1018260F7CF8F3D09F0E0
:1010F000AECF8091C1018460F0CF4091C8018D3C9A
:1011000059F48091C90187FF0DC01092C9014111A6
:101110000BC01092BF0108C08E3C81F48091C901C0
:1011200018169CF3442381F08091CA019091CB0161
:10113000892B09F08CCF1092C00189CF8F3C49F4E4
:1011400047FFF0CF1092C8018091C9018111ECCF07
:10115000E0CF803D19F41416ACF3E4CF9091CA01AE
:10116000893D29F41916F4F61092CA01DBCF8A3DA5
:1011700019F497FFD7CFF8CF9091CB018B3D29F48D
:1011800097FFD0CF1092CB01CDCF8C3D19F419161B
:10119000CCF3C8CF9FE2980F983090F4815D990B03
:1011A00021E030E0B90102C0660F771F8A95E2F7AF
:1011B000CB0180959091C70189238093C701B2CF5D
:1011C0008D3D31F48091C1018E7F8093C101AACF02
:1011D0008E3D21F48091C1018D7FF7CF8F3D09F0C5
:1011E000A1CF8091C1018B7FF0CF0F931F93CF933D
:1011F000DF938B01EA019091E201943061F58093D5
:10120000E9008FEF9091E800815095FD06C095EDC3
:101210009A95F1F700008111F5CF8091E80085FFE4
:101220001AC00E94D002811111C08091E80085FD92
:1012300006C08091E8008E778093E800F2CFF80135
:1012400081918F018093F100219779F78091E800D7
:101250008E778093E800DF91CF911F910F910895D1
:1012600043E050E0BC0184E00E94F508089546E0A8
:1012700050E0BC0184E00E94F5080895CF93DF930D
:10128000EC0148E050E0BC0181E00E94F50888E0F4
:10129000FE01A8EDB1E001900D928A95E1F7DF9192
:1012A000CF910895CF93C82F6FEF811165E284E24B
:1012B00090E00E943E1EC1110DC0CFEF6C2F85E261
:1012C00090E00E943E1E6C2F86E290E00E943E1E3F
:1012D000CF910895C2E0F2CFCF93DF93C0E3D2E085
:1012E00060E0CE010E943E1E2196C11584E0D80721
:1012F000B9F7DF91CF9108951F93CF93DF93122F0A
:101300008530E0F46430D0F44D30C0F4C42FD0E028
:10131000CC0FDD1F9AE1699FC00DD11D112498E605
:10132000899FC00DD11D1124632FCE0188960E9484
:101330003E1E612FCE0189960E943E1EDF91CF9105
:101340001F910895AF92BF92CF92DF92EF92FF92DA
:101350001F93CF93DF938DE3C82E82E0D82ED0E089
:101360007601C0E014C0F50125913491412F6C2F16
:101370008D2F0E947C0982E0A80EB11C1F5F1D30DA
:1013800091F78AE1E80EF11CCF5FC43019F05701E4
:1013900010E0E9CFDF5F88E6C80ED11CD53001F739
:1013A000DF91CF911F91FF90EF90DF90CF90BF9092
:1013B000AF90089580E00E94520960E087E290E0DB
:1013C0000E943E1E0E94A2090E946C0981E00E94B8
:1013D0005209089584E290E00E94201E853289F42B
:1013E00085E290E00E94201E823059F486E290E06F
:1013F0000E94201E91E0823009F090E0892F8170D8
:10140000089580E0FCCF0F931F93CF93DF93853037
:1014100030F5643020F54D3010F5C42FD0E0CC0FFE
:10142000DD1F2AE1629FC00DD11D112438E6839F84
:10143000C00DD11D1124CE0188960E94201E082FB8
:1014400010E0102F0027CE0189960E94201E9801DF
:10145000282BC901DF91CF911F910F91089590E042
:1014600080E0F8CF462F743040F46D3030F4853092
:1014700020F4672F0E94030A089590E080E0089509
:10148000CF92DF92FF920F931F93CF93DF936C0164
:101490000091AA018091A901082BC4E0D0E010E0DE
:1014A000FC2EC8010C2E02C0959587950A94E2F790
:1014B00080FD0CC02197A0F7F12C8F2DDF91CF91EB
:1014C0001F910F91FF90DF90CF900895B6018C2F60
:1014D0000E94320A0E942D06019761F3EECFCF934E
:1014E000DF93EC010E94400ABE010E94320A0E9472
:1014F0002D06DF91CF910895FC0124812223C1F0B4
:10150000808191810E946F0A92959F70963091F030
:1015100058F4925F9F70923058F4803F19F030F485
:10152000883E30F481E008959A5FF4CF843FD1F390
:1015300080E00895883EB0F3813FD1F7F3CFA6E075
:10154000B0E0E5EAFAE00C94E41D49835A8349814E
:101550005A819923A1F0222391F0CA010E94400AE6
:10156000182F682F89819A810E94900769817A815A
:10157000812F0E94320A2696E3E00C94001ECA01D5
:101580000E945C07182FF2CF9091AC0192FB2227AA
:1015900020F9281779F080FB92F99093AC016091C3
:1015A000AB017091AC0184E090E00E945C1E82E08F
:1015B0000E94F707089520919B0180919201282BAA
:1015C00080919101882381F0282B30E08CE691E016
:1015D000FC014191CF0141113F5FF1E082379F074C
:1015E000B9F731111092910120936A0148E050E05F
:1015F00063E971E08AE691E00E94721E892BA9F0EE
:1016000088E0EAE6F1E0A3E9B1E001900D928A9565
:10161000E1F7E091CE01F091CF01309731F00280F7
:10162000F381E02D8AE691E009950895CF93109219
:101630009B01C6E0ECE6F1E0DF018C2F1D928A955C
:10164000E9F790E080E00E947A0490E080E00E9458
:101650005504109292010E94DB0AE6ECF1E0DF01F2
:101660001D92CA95E9F71092BF011092C001109225
:10167000C1010E94AC04CF910895AAE2B0E0E3E476
:10168000FBE00C94E41D84EE91E02091F100DC017C
:101690002D93CD01B1E08C3E9B07B9F78091E50118
:1016A000833009F472C0B8F4813009F449C0823043
:1016B00009F4B7C08091E80083FF97C28091E401EC
:1016C0009091E5019A3008F090C2E92FF0E0EF57D1
:1016D000F14E0C94C81D8A3009F492C08B3009F485
:1016E00071C0893039F78091E401813219F7809116
:1016F000E8019091E901009711F00297D9F68091E5
:10170000E800877F8093E8008091E80082FF38C07E
:101710009091F3008091F200029731F48091F100F2
:10172000813011F0863021F48091F10080930B011B
:101730008091E8008B778093E8000E940103BACF84
:101740008091E401813A09F0B5CF8091E800877F6C
:101750008093E8008091E8019091E901892B61F480
:1017600068E088ED91E070E00E94AD038091E800B0
:101770008B778093E8009ECF60E090E080E0F3CF2D
:101780008091E2018111C0CF95CF8091E401813A2F
:1017900009F090CF8091E8019091E901892B09F03F
:1017A00089CF8091E800877F8093E8008091E800EE
:1017B00080FFFCCF80910C018093F1008091E800C4
:1017C0008E77B9CF8091E401813209F073CF809197
:1017D000E8019091E901892B09F06CCF8091E80034
:1017E000877F8093E8000E94010381E09091E601E9
:1017F000911101C080E080930C010E94160B5ACF1A
:101800008091E401813209F055CF8091E800877F13
:101810008093E8000E9401038091E70180930A0110
:1018200049CF8091E401813A09F044CF8091E800EA
:10183000877F8093E8008091E80080FFFCCF809153
:101840000A01BACF803899F0823809F0CEC1809170
:10185000E8018F70873008F0C8C18093E90080915B
:10186000EB0085FB882780F91092E90006C0809183
:10187000E0019091E101911182609091E800977FE1
:101880009093E8008093F1001092F1008091E800BD
:101890008E77A7C1882309F495C1823009F0A5C1CC
:1018A0008091E601811198C18091E8018F702FEF3E
:1018B000280F263008F099C18093E9002091EB00B1
:1018C00020FF8AC1933031F48091EB0080628093D5
:1018D000EB0082C19091EB0090619093EB0021E0CE
:1018E00030E001C0220F8A95EAF72093EA001092B7
:1018F000EA008091EB008860EACF811176C11091F7
:10190000E6011F778091E3008078812B8093E300CC
:101910008091E800877F8093E8000E940103809116
:10192000E80080FFFCCF8091E30080688093E300B3
:1019300082E0111183E08093E20157C18058823028
:1019400008F053C12091E6013091E7012C3DE3E01E
:101950003E07A1F583E08A838AE289834FB7F89432
:10196000DE01139620E03EE051E2E32FF0E05093D9
:101970005700E49120FF03C0E295EF703F5FEF70E6
:101980008E2F90E0EA30C0F0C7968D939D932F5F25
:10199000243159F74FBF8091E800877F8093E8009A
:1019A0006AE270E0CE0101960E94AD038091E800EA
:1019B0008B778093E80019C1C096E7CF8091E8014A
:1019C0009091E901432F55274330510509F44AC04E
:1019D00078F54130510509F47AC08BE590E0E5E4F3
:1019E000F4E04230510509F000C12091E800277F62
:1019F0002093E8002091EA013091EB0182179307D0
:101A000008F49C0140E02115310509F065C0411141
:101A100063C08091E80082FDC9CF8091E2018823F4
:101A200029F2853019F28091E80083FFF2CFBECF12
:101A30004132510509F43CC04232510509F0D5C08C
:101A40008330910508F0D1C0FC01EE0FFF1FE55A6D
:101A5000FE4F0190F081E02D885A9E4FDC018C9161
:101A600090E01AC0332721303105D1F0211531051E
:101A700061F02230310509F0B8C0E2EBF4E0E49106
:101A80008E2F90E0E2EBF4E007C0E2EEF4E0E491A8
:101A90008E2F90E0E2EEF4E0009709F4A6C0A5CF07
:101AA000E0ECF4E0E4918E2F90E0E0ECF4E0F4CF91
:101AB0008330910508F099C0880F991FFC01EF59F8
:101AC000FE4F0190F081E02D89E090E08ECF82E121
:101AD00090E0E0EAF4E089CF8091E201882309F404
:101AE00065CF853009F462CF8091E80083FD5ECF39
:101AF0008091E80082FD8DCF8091E80080FF83CF48
:101B00009091F3008091F2002115310519F0883091
:101B1000910550F041E0089709F040E08091E8001D
:101B20008E778093E8006FCF44914093F100319617
:101B3000215031090196E8CF803809F056C08091D4
:101B4000E800877F8093E8008091E3018093F100B3
:101B50009DCE81114AC01091E601123008F045C0B7
:101B60008091E800877F8093E8001093E3010E9452
:101B70000103112311F084E005C08091E30087FD8B
:101B8000FACF81E08093E20142E061EC81E00E94C3
:101B9000200342E261EC84E00E94200342E261EC17
:101BA00082E00E94200342E260EC83E00E94200376
:101BB0008091E201843021F081E080930D0115C015
:101BC00082E0FBCF8091E601813079F481E09330AF
:101BD00009F080E08093E1011092E9008091E80033
:101BE000877F8093E8000E9401038091E80083FFD3
:101BF0000AC08091E800877F8093E8008091EB0025
:101C000080628093EB00AA96E3E00C94001E0E9491
:101C1000160B2FEF84E39CE0215080409040E1F7C9
:101C200000C0000088E19AE00FB6F894A895809370
:101C300060000FBE90936000FFCF882321F00E94C8
:101C40004B070E94DB0A0895882339F090919B018D
:101C5000982B90939B010E94DB0A08958823D1F171
:101C60009CEF980F913A78F4ECE6F1E091918913AA
:101C700003C0DF0111971C9291E0E237F907B1F739
:101C80000E94DB0A089590E2980F983050F4877014
:101C900091E001C0990F8A95EAF7892F0E944B07BE
:101CA000EFCF9BE5980F933028F490E080E00E94FE
:101CB0007A04089598E5980F9B3128F490E080E02D
:101CC0000E945504089593E3980F933118F460E04F
:101CD0000E941D080895CF93C82F8823B1F08CEF80
:101CE0008C0F813A00F5ECE6F1E082E791E0DF014C
:101CF0002D91C21761F08A179B07D1F76C2F8AE6E6
:101D000091E00E943B040E94DB0ACF91089521914B
:101D1000C21303C0DF0111971C928E179F07B9F7FA
:101D20000E94DB0AEBCF80E28C0F883068F4C7702A
:101D300021E030E001C0220FCA95EAF780919B01B3
:101D4000822B80939B01DFCFEBE5EC0FE33040F477
:101D5000F0E0E25FFE4F808190E00E947A04D5CFF0
:101D6000E8E5EC0FEB3150F4F0E0EE0FFF1FEF5E13
:101D7000FE4F808191810E945504C7CF83E38C0F71
:101D8000833118F661E08C2F0E941D08BECFA8E0B9
:101D9000B0E0EDECFEE00C94D71D8E010F5F1F4FFD
:101DA00088E0F80111928A95E9F797E4E92E91E02D
:101DB000F92E68012BE4422E21E0522E6624639412
:101DC000712C48E5842E41E0942EF70181917F012A
:101DD0008F3F09F445C0F894E82FE295EF70F0E0EA
:101DE00021A18F70A30102C0440F551F8A95E2F70D
:101DF000CA01922F982B91A392A18095892382A347
:101E0000789400C0EBE4F1E021E030E0B12CA12CAB
:101E100041914F3F09F44BC0A42FA295AF70B0E0A1
:101E200090968C9190E04F7002C0959587954A9559
:101E3000E2F780FD3CC0C901A82AB92A220F331F4E
:101E40008E169F0629F7F701319780818F3F11F099
:101E50000E94250550EA5A95F1F7F601B182A08259
:101E6000F2E0CF0ED11C4E145F0409F0AECF48E073
:101E700050E0B80181EA91E00E94721E892BE1F0E6
:101E800088E0F801A1EAB1E001900D928A95E1F7AE
:101E900081E08093A0010E942C0490939F01809385
:101EA0009E0110E0812F2896E0E10C94F31D90E054
:101EB00080E0C2CF10E01FC01091A001112389F370
:101EC00080919E0190919F010E941D04059748F307
:101ED00048E050E061EA71E087EB91E00E94721EF9
:101EE000892B41F388E0E1EAF1E0A7EBB1E0019052
:101EF0000D928A95E1F71092A001D4CF1F93CF9352
:101F0000DF93182FEB010E946B0E209739F4812F7D
:101F10000E942E0EDF91CF911F9108958FE99FE0CF
:101F20000197F1F700C000002197EFCF0F931F93A7
:101F3000CF93DF93C62FD42F022FFC0185818823F6
:101F4000A9F0609328020E942C04909327028093AA
:101F50002602C77081E001C0880FCA95EAF70E9487
:101F6000240EDF91CF911F910F9108958091280247
:101F7000681334C080912602909127020E941D04AC
:101F8000843B910558F510E21D0FCD17B9F080E2A2
:101F90008C0F883040F4C77081E001C0880FCA956B
:101FA000EAF70E941D0E183048F481E09D2F9770CB
:101FB00001C0880F9A95EAF70E94240E70E060E055
:101FC000802F0E947E0F183060F6D77081E001C02C
:101FD000880FDA95EAF70E941D0EC3CFC77081E023
:101FE00001C0880FCA95EAF7F6CFA8E0B0E0EBEFA2
:101FF000FFE00C94D71D8C01DC0114968C91149792
:10200000882309F4BEC021E04C9111965C91119790
:1020100012966C91129713967C91139715969C913A
:102020000E949F0A7C01F8018581882309F448C138
:10203000970137572038310508F02FC5FFE0FE150E
:1020400008F48FC08FEF93E00E94201E811189C099
:1020500060E3A62E62E0B62EE1104DC0FE0133967D
:1020600086E0DF011D928A95E9F75AE0452E750159
:10207000BFEFEB1AFB0AC5010E94201E89831A825A
:10208000882309F46EC0813009F07FC06501E2E069
:10209000CE0ED11CC7010E94201E8A83882309F41A
:1020A00060C09FEF980F9330A0F5F3E0AF0EB11C26
:1020B000C6010E94201E8B83882309F452C01C8213
:1020C000DE0111967D01F7012081222381F221306A
:1020D00009F09DC091818281913009F058C0F2E0F1
:1020E000EF0EF11C70E060E0893311F460E570E000
:1020F0000E947E0F53C0A11424E0B20691F1C501E5
:102100000E94201E811101C0EA943FEFA31AB30A76
:10211000A3CF56018430A1F642E0E42EF12C560103
:102120002FEFA21AB20AC6010E94201EE1E0F0E0E1
:10213000EC0FFD1FEE0DFF1D8083882391F08C377F
:1021400041F4E2E0F0E0EC0FFD1FEE0DFF1D108208
:10215000B7CF3FEFE31AF30A650187E0E816F10411
:10216000F1F680919001877061F0D80115968C91FD
:10217000882339F08091AC0182FF03C082E00E9485
:10218000F7072896E0E10C94F31D570199CF9230A0
:1021900049F422E0E20EF11C0E946B0E9FEFE91A57
:1021A000F90A91CF933031F432E0E30EF11C0E9432
:1021B0002E0EF4CF943021F08FEFE81AF80AEECF0C
:1021C00092E0E90EF11C30E020E0B7016F5F7F4F35
:1021D000D70111964C918053990B8A30910560F08C
:1021E00021153105D9F2EFE9FFE03197F1F700C091
:1021F000000021503109F4CF429EF001439EF00DC2
:1022000011249C012E0F3F1F842F7B01DECFE22F74
:10221000F0E0E354FE4F5490822F86958695869584
:1022200090E0FC01E355FE4F64902770712C022E64
:1022300002C0759467940A94E2F7F1E06F22772464
:10224000FC01E356FE4F8490912C022E02C095941F
:1022500087940A94E2F731E083229924FC01E35742
:10226000FE4FC490D12C02C0D594C7942A95E2F7B2
:1022700081E0C822DD246114710419F081EE0E940E
:102280006B0E8114910419F086EE0E946B0E70E0C3
:1022900060E0852D0E947E0F8114910419F086EE76
:1022A0000E942E0E6114710419F081EE0E942E0E10
:1022B000C114D10409F472CF70E060E08CE218CF51
:1022C000F701E851FC47E730F10508F0CEC3E557C8
:1022D000F14E0C94C81D26E241EE61EEC8010E9449
:1022E000960F3FCF27E245EE65EEF8CF26E241EEAE
:1022F00060EEF4CF27E245EE64EEF0CF26E241EE49
:1023000062EEECCF27E245EE66EEE8CF28E241E050
:10231000EBCF8091AB0181608093AB0195C0809140
:10232000AC0188608093AC018FC08091AB0182606A
:10233000F3CF8091AB018460EFCF8091AB018860D7
:10234000EBCF8091AC018160EDCF8091AC018260D8
:10235000E9CF8091AB018061DFCF8091AB018062DA
:10236000DBCF8091AB018064D7CF0E94160B8091A8
:10237000AB018068D1CF8091AB018C60CDCF8091D3
:10238000AC018360CFCF8091AB018E7FC5CF8091B0
:10239000AC01877FC7CF8091AB018D7FBDCF80918E
:1023A000AB018B7FB9CF8091AB01877FB5CF809197
:1023B000AC018E7FB7CF8091AC018D7FB3CF809180
:1023C000AB018F7EA9CF8091AB018F7DA5CF80918E
:1023D000AB018F7BA1CF0E94160B8091AB018F7751
:1023E0009BCF8091AB01837F97CF8091AC018C7F95
:1023F00099CF8091AB0182FB992790F921E0922738
:1024000090FB82F990FB83F987CF8091AC01982FE4
:10241000909591708E7F892B90FB81F983CF90915D
:10242000AB01892F8F7B96FF806476CF0E94160BBD
:102430009091AB01892F97FB87F980586DCF61E0B0
:102440008EE090E00E943E1E6091AB017091AC0165
:1024500084E090E00E945C1E0E94160B82CE60E039
:10246000EFCF9091AB01892F8F7E94FF806154CF85
:102470009091AB01892F8E7F90FF81604DCF90911D
:10248000AC01892F877F93FF88604CCF85E3F7C22B
:10249000A7E7EA16ACE7FA0601F1B8E7EB16BCE7E6
:1024A000FB0641F19701205E32452032310520F5CF
:1024B000811137C0EE2DEF7181E090E07C0102C008
:1024C000EE0CFF1CEA95E2F76E2D83E090E00E948F
:1024D0003E1E8E2D0E941A0844CE81E00E940E08F6
:1024E00043E062E081E00E94CA073BCE81E00E94A7
:1024F000EA07F6CF82E0F2CF882399F0E3E0EE1608
:10250000ECE7FE0609F480C008F05FC0E1142CE798
:10251000F20609F46CC031E0E3163CE7F30609F477
:1025200079C0F8018581E080F180882309F480C0BA
:10253000C7010E94400AD82E682FC7010E94900749
:10254000B7018D2D0E94320A0E942D067C01882E33
:10255000D8011596AC90159716969C9092943FE0F2
:10256000932280919001877009F1DA2CAA20F9F06A
:102570008F2D807F803469F080E28E0D8830B0F03E
:102580008F2D807E803229F4B1E0BE1578F4992039
:1025900069F08091AC0182FF09C082E00E94F707D8
:1025A000809190018770DD24D3948111D12CCF2CA0
:1025B000C2942FE0C222EBE0EC1508F4A8C0EC2D89
:1025C000F0E0EE56F14E0C94C81D8BE5E8168CE752
:1025D000F80661F19CE5E9169CE7F906E9F0AAE541
:1025E000EA16ACE7FA0609F09CCF81E01CC00E9415
:1025F000160BBFEFE4E3FCE0B150E040F040E1F740
:1026000000C000000E940C046FEF7FEF90E080E0BC
:102610000E945C1E0E94070E8091AC0182FB8827FD
:1026200080F991E089270E94C40A7BCF80E0FBCF2C
:10263000C7010E945C07D82E83CFFF2DFF70BF2EED
:102640008F2D807F19F0B29490EFB922AA20B9F0B3
:10265000BB2069F080E28E0D883010F0811009C037
:1026600080919B01B82AB0929B010E94DB0A8E2DBB
:102670004CC080919201B82AB0929201F6CF8E2D73
:102680000E942E0EBB2009F442C080E28E0D8830DD
:1026900010F0811004C08B2D0E944B0706C0B0942F
:1026A00080919201B822B09292010E94DB0A2FC061
:1026B0002F2D2F70B22E8F2D807F803219F0B29483
:1026C00080EFB822882089F031E0831609F481C0B8
:1026D000AA2009F48DC0992009F44EC0F801868122
:1026E00080FFC5CF8F70868347C08091AC0182FD8B
:1026F0003FC0AA20B9F1BB2039F080919B018B2902
:1027000080939B010E94DB0A80E00E946B0E2C2DBF
:102710002850330B2430310510F40E949F04DD2033
:10272000B1F08091900180FD12C0D80115961C92E5
:102730008695869586950E940E08C8010E94F50F21
:10274000809190018695869586950E94EA0720E003
:10275000F8014081518162817381848195810E9459
:102760009F0A0FCD80E00E942E0EBB2081F293CFF6
:10277000AA20A1F0911004C08B2D0E94240EC7CF77
:1027800081E09812C4CF809191019B2D9823B916B6
:1027900009F4BDCF8B2980939101B9CF9110B7CFA8
:1027A0008B2D0E941D0E909191018B2D892329F074
:1027B0008B2D8095892380939101909173018B2DAE
:1027C000892309F4A4CF8B2D8095892380937301ED
:1027D0009ECFAA2029F095E0991508F498CFCCCF88
:1027E000A4E0A91508F493CF8B2D0E941D0E8FCF66
:1027F0009920D1F3F9E38F1209C02FEF37EE83E070
:10280000215030408040E1F700C000008E2D0E9432
:102810002E0E7DCF8F2D86958695837061F0813049
:1028200009F075CFC7019370A11002C080E090E05D
:102830000E9455046CCFC7019370A11002C080E0C4
:1028400090E00E947A0463CF6A2D8E2D0E941D08AD
:102850005ECF8F2D837091F5A11059CF4E2D4295EB
:1028600046954770440F440F8E2D8F70042E01C083
:10287000880F0A94EAF72E2D2071E4FE07C02FE09E
:1028800030E001C0220F4A95EAF720953F2D36959A
:1028900036953370323069F050F44091A9013130EF
:1028A00029F0822B84230E941A0831CF842B822B9B
:1028B000FACF282B8091A9018227F5CF8695AA20EF
:1028C00011F08F2D8170882309F421CF4E2D429570
:1028D00046954770440F440F8E2D8F70042E01C013
:1028E000880F0A94EAF72E2D2071E4FE07C02FE02E
:1028F00030E001C0220F4A95EAF720953F2D36952A
:1029000036953370323069F050F44091AA0131307D
:1029100029F0822B84230E94C707F9CE842B822BB7
:10292000FACF282B8091AA018227F5CF9F2D9F7087
:10293000F92EAA2029F0892F0E940E088E2D1DCF76
:102940008E2D0E941D0E8F2D0E94EA07E0CE8E2D47
:10295000A2EF8A16B1F1A81570F0B0EF8B16D1F086
:10296000E1EF8E1691F0AA2009F457C091107FCEA6
:102970008F2D8F712AC0F3EF8F1651F124EF821241
:10298000F2CF9091AC0192FD2FC08F2D8F71AA20B4
:10299000D9F21BC0AA2081F034E0391508F4B7CE73
:1029A0002F2D2F7181E090E001C0880F2A95EAF762
:1029B0009091AA018927AFCF85E0891508F4A7CEA9
:1029C000EFCF8F2D8F71A110BFCF0E940E089FCE29
:1029D00080E0AA2009F49FCF9F2D9F7181E001C064
:1029E000880F9A95EAF797CFAA2061F08F2D8F7103
:1029F00092FFEBCF98E0899F9001112423602093F0
:102A00009001E3CF81E00E94F707A1E0A91508F04B
:102A10007ECE82E00E94F7077ACE992059F0893362
:102A200009F0F4CEBFEFE7EEF3E0B150E040F04044
:102A3000E1F7EACE8F2D8F7187CFF6E1EF16FCE735
:102A4000FF0609F025CD80919B018A7A91E009F477
:102A500090E09093720169E2811165E38AE691E06A
:102A60000E943B040E94DB0A7CCB26E1E2162CE7A5
:102A7000F206A9F580917201811108CD89E2ECE698
:102A8000F1E022E731E09191891303C0DF01119752
:102A90001C922E173F07B9F7E5CFF701E851FC4725
:102AA000E730F10508F413CC109228029701305753
:102AB0002332310508F0C1CF84E090E00E94281E47
:102AC0009093AC018093AB01F701E150F047E23203
:102AD000F10508F01ECCE256F14E0C94C81D37E704
:102AE000E3163CE7F30609F401CD98E7E9169CE705
:102AF000F90609F0D7CC82E0FACCCF93DF9380912E
:102B00008F01807F09F04DC080918E01882309F4E8
:102B100048C0E09125025091EC01C0918A01D0910A
:102B2000890160918B0170918C0147E05E17C9F1BA
:102B30008E2F90E0E49FF0011124E351FE4F248199
:102B4000222391F1489FF001499FF00D1124DF01EC
:102B5000A351BE4F11962C9111972C1325C02C9187
:102B60002D1322C015962C91159721111DC0129678
:102B70002D913C91261B370B243B3105A8F4809105
:102B80008F018F70806180938F01ED50FE4F8081A7
:102B90008F708061808389E891E00E94F50F0E9428
:102BA0005207DF91CF910895FC013196E770BECFB7
:102BB000A4E1B0E0EEEDF5E10C94DB1D8C0186E0C4
:102BC000F801DE011F9601900D928A95E1F7D80178
:102BD00014968C9114971596EC9099E8A92E91E093
:102BE000B92E90918D01911128C0882319F1EE2002
:102BF000F1F0C8010E947C0AF82E8823C1F087E01A
:102C0000F801D50101900D928A95E1F780918D012F
:102C1000813031F48091890190918A010E946F0A7C
:102C20000E947D158F2D6496ECE00C94F71DC80171
:102C30000E94F50FFF24F394F5CFF801D080C180F6
:102C400082809380F0908E0120918B0130918C01D5
:102C5000A401421B530BFF2009F4EEC0443B510575
:102C600008F0AAC08823F1F290918A0180918F0127
:102C7000282F207F09F062C0C91215C090918901E8
:102C8000D91211C0E11049C08F70806180938F010B
:102C900089E891E00E94F50F80918F01D801169686
:102CA0008C93F12CBFCFE11038C06C2D8D2D0E947C
:102CB00092026C2D8D2D0E949202E82E8111F1CF8F
:102CC000DF86C88A8F8598890E946F0A292F2295EE
:102CD0002F70243058F49F70223088F0992399F097
:102CE000F8019681907F79F4FE2C9CCF2A5F2F709B
:102CF000223068F0C8010E94F50FEF2CF5CF992320
:102D000011F0882389F3805E883070F3F3CF803F21
:102D100058F3815F833070F7E7CF80918F01816036
:102D200080938F0189E891E00E94F50F87E0E9E840
:102D3000F1E0DF011D928A95E9F7B3CFC91213C004
:102D400090918901D9120FC0E1100DC08683C8018E
:102D50000E94F50F87E0F801A9E8B1E001900D921B
:102D60008A95E1F75FCFC8010E947C0A882309F4A5
:102D70005ECFEE2009F45BCF80918F01803288F026
:102D80002091890130918A01398728879B868A861C
:102D900090918D019C871D868E87CE0108960E949A
:102DA000F50F87E0F801A9E8B1E001900D928A954E
:102DB000E1F70E947D153ECF90918F01292F207F52
:102DC00039F489E891E00E94F50F87E0D501B2CF90
:102DD000882309F427CF80918A018C1110C080913B
:102DE0008901D8120CC0E1100AC09683C8010E9464
:102DF000F50F87E0D5011D928A95E9F713CFC80139
:102E00000E947C0A882309F412CFEE2009F40FCF28
:102E100080918F01803228F22091890130918A01BE
:102E20003A8329839C828B8290918D019D831E829F
:102E30008F83CE010196B3CF443B5105F0F4882334
:102E400009F4F8CEFE2CEE2009F4F1CE80918A012F
:102E50008C1105C080918901D81609F47BCFC80177
:102E60000E947C0A81119DCF80918F0181608093A7
:102E70008F01C8010E94F50FD5CE87E0F5011192B0
:102E80008A95E9F7CFCEABE1B0E0E9E4F7E10C9445
:102E9000E31D4E8B5F8B688F798F8A8F9B8F192FE5
:102EA0009111109292011D8A86E0FE017696DE0154
:102EB0001F9601900D928A95E1F70A8D002341F04B
:102EC00021E04F85588969897A89C8010E949F0A43
:102ED0000B8B1C8B87E0FE013F96DE01189601905C
:102EE0000D928A95E1F7CE0108960E94D8158111BE
:102EF0002AC087E0FE013896DE01119601900D92FE
:102F00008A95E1F78C858823F1F02091EC0130E07F
:102F1000C901019687709927409125024817190623
:102F2000E9F097E0929FD001939FB00D1124A35137
:102F3000BE4FFE01319601900D929A95E1F7809374
:102F4000EC010E94520717E0809125029091EC015C
:102F5000891312C06B96E4E00C94FF1D0E94160BBF
:102F60001092EC011092250287E0E9E8F1E0DF0120
:102F70001D928A95E9F7E7CF819FC0011124835103
:102F80009E4F0E94D815882329F38091250290E056
:102F900001968770992780932502D6CFA6E0B0E0EE
:102FA000E4EDF7E10C94E31D0E942C048C01809168
:102FB0009C0190919D018017910781F019821A82DE
:102FC0000E942C04682F49815A81792F80E090E07B
:102FD0000E94431710939D0100939C012696E4E004
:102FE0000C94FF1D1F920F920FB60F9211242F9376
:102FF0003F934F935F936F937F938F939F93AF9381
:10300000BF93CF93DF93EF93FF93D091E900DF70ED
:103010008091EC00C82FC17080FDC0E81092E900DB
:103020008091F000877F8093F00078940E943D0BA0
:103030001092E9008091F00088608093F000CD2B21
:10304000CF70C093E900FF91EF91DF91CF91BF91D5
:10305000AF919F918F917F916F915F914F913F9130
:103060002F910F900FBE0F901F9018951F920F92E7
:103070000FB60F9211242F933F934F935F936F934B
:103080007F938F939F93AF93BF93EF93FF93809121
:10309000E10082FF09C08091E20082FF05C08091BB
:1030A000E1008B7F8093E1008091DA0080FF24C0F3
:1030B0008091D80080FF20C08091DA008E7F8093BD
:1030C000DA008091D90080FFAAC080E189BD82E149
:1030D00089BD09B400FEFDCF81E08093E2018091BB
:1030E000D701811109C00E94B1020E945203809150
:1030F000E20084608093E2008091E10080FF1AC0CA
:103100008091E20080FF16C08091E2008E7F809364
:10311000E2008091E20080618093E2008091D8001B
:1031200080628093D80019BC85E08093E20183E03F
:1031300080930D018091E10084FF30C08091E20016
:1031400084FF2CC080E189BD82E189BD99B5892FBA
:10315000817090FFFBCF9091D8009F7D9093D80015
:103160009091E1009F7E9093E1009091E2009F7E1C
:103170009093E2009091E20091609093E200909130
:10318000E301992309F451C094E09093E2019091F6
:10319000E201943009F482E080930D018091E10016
:1031A00083FF2CC08091E20083FF28C08091E10062
:1031B000877F8093E10082E08093E2011092E30137
:1031C0008091E1008E7F8093E1008091E2008E7F0C
:1031D0008093E2008091E20080618093E20042E00F
:1031E00060E080E00E9420038091F000886080937E
:1031F000F00081E080930D0180930C01FF91EF912D
:10320000BF91AF919F918F917F916F915F914F91FE
:103210003F912F910F900FBE0F901F90189519BCE2
:103220001092E2011092D70167CF9091E30097FDD1
:1032300002C0982FAACF93E0A8CF78941F921FB610
:103240001F9211248F939F93AF93BF938091D301CB
:103250009091D401A091D501B091D6010196A11D04
:10326000B11D8093D3019093D401A093D501B09365
:10327000D601BF91AF919F918F911F901FBE1F905C
:1032800018951F921FB61F9211248F939F93AF938F
:10329000BF938091D201811113C08091D30190918D
:1032A000D401A091D501B091D6014196A11DB11DC7
:1032B0008093D3019093D401A093D501B093D6010C
:1032C000BF91AF919F918F911F901FBE1F90189536
:1032D000CDB7DEB7A6970FB6F894DEBF0FBECDBF51
:1032E00085B7806885BF85B7806885BF84B7877FCD
:1032F00084BF0FB6F894A895809160008861809390
:103300006000109260000FBE80E890E00FB6F89465
:1033100080936100909361000FBE81E080930D0166
:1033200083E295E090936901809368010E94B10265
:103330000E9452038091E20084608093E2007894BE
:103340008091E2018823A1F01091E9001F70909113
:10335000EC00892F817090FD80E8182B1092E90015
:103360008091E80083FD0E943D0B1F701093E900DF
:1033700082E084BD93E095BD9AEF97BD80936E0087
:103380000E94EA09811102C00E94DA0980EF0E94BE
:10339000250581EF0E94250584EF0E94250586E31F
:1033A0000E9425050BE411E0D8018D918D018F3F1E
:1033B00011F00E942505B1E008351B07A9F788E048
:1033C000E7EBF1E0DF01282F1D922A95E9F7E1EA0A
:1033D000F1E0DF011D928A95E9F790E080E00E941C
:1033E000281E853E9E4F21F40E94EA09811163C088
:1033F00065EE7EEF90E080E00E945C1E60E082E07F
:1034000090E00E943E1E81E08093A90161E083E08C
:1034100090E00E943E1E60E074E184E090E00E9433
:103420005C1E60E086E090E00E943E1E60E087E067
:1034300090E00E943E1E40E050E0BA0188E090E03B
:103440000E94501E60E083E290E00E943E1E60E019
:103450008CE090E00E943E1E60E08DE090E00E94D3
:103460003E1E19821A821B821C821D821E821F82AE
:10347000188648E050E067E170E0CE0101960E94B6
:103480002E1E40E050E0BA018FE190E00E94501EF5
:1034900080E00E9452090E94DA0940E050E0BA013F
:1034A0008FE090E00E94501E40E050E0BA0183E1BE
:1034B00090E00E94501E82E090E00E94201E8093C7
:1034C000AD0184E090E00E94281E9093AC018093AF
:1034D000AB010E94C70EEFEFF6E721E0E150F040AC
:1034E0002040E1F700C000000E94C70E8091B701A4
:1034F00080FF08C06FEF7FEF90E080E00E945C1ECD
:103500000E940C0483E090E00E94201E0E941A0892
:1035100080E091E09093CF018093CE01EFEB6E2E8F
:10352000E1E07E2E55245394222423948091E201DD
:10353000853049F48091E201853009F463C00E942E
:10354000160B0E949F040E94C70E6EEAA62E61E031
:10355000B62E77EB872E71E0972ED401F5012191DD
:1035600031918D919D9141E0E63BF40709F47FC0D4
:1035700028173907A1F3412CD4010D911D914D015C
:10358000F501C190D1905F01C016D10659F1312CDF
:10359000EE24E394F12CC026D126C6018E219F2172
:1035A000892BB1F039A24AA20E942C049CA38BA3C0
:1035B0002DA291E098012E213F21232B09F490E0C8
:1035C0009EA349A15AA16BA17CA18DA10E94431782
:1035D0003394EE0CFF1CFDE03F12DFCFF501329774
:1035E00011830083439424E04212C6CF8FB7F8942E
:1035F0004091D3015091D4016091D5017091D601D1
:103600008FBF3BC08091E201843021F11092D20142
:1036100088E190E0A0E40FB6F894A895809360004C
:103620000FBEA093600083B7817F846083BF83B7A0
:10363000816083BF7894889583B78E7F83BF0FB6F0
:10364000F894A89580916000886180936000109242
:1036500060000FBE0E94C70EE7EBF1E081919191EF
:10366000892B09F04CC26E167F06C1F763CF28176D
:10367000390709F080CF0E94CE1786E0E6ECF1E032
:10368000DE01119601900D928A95E1F7D090C70165
:10369000F090C8011091C901E090CA010091CB01DE
:1036A0001092C8011092C9011092CA011092CB0168
:1036B000812F8F2909F445C08091C4019091C501E3
:1036C0000E941D049C019091BF01992309F447C2F7
:1036D00025313105B0F19F3F19F09F5F9093BF01F5
:1036E000FF2059F00E94F5049FEF1F140CF491E0A5
:1036F000899F802D11248093C801112359F00E94C5
:10370000F50491E011160CF09FEF899F802D112494
:103710008093C9018091C801882399F0C090C901A4
:10372000CC2079F00E941505882309F4B3C080935A
:10373000C8018C2D0E941505882309F4AEC0809322
:10374000C9018E2D802B09F445C08091C201909152
:10375000C3010E941D049C019091C001992309F4AA
:10376000F9C121353105B0F19F3F19F09F5F90936A
:10377000C001EE2059F00E94D3049FEF1E140CF4F8
:1037800091E0899F802D11248093CA01002359F074
:103790000E94D30491E010160CF09FEF899F802DBA
:1037A00011248093CB018091CA01882399F0E09085
:1037B000CB01EE2079F00E941505882309F470C032
:1037C0008093CA018E2D0E941505882309F46BC0D1
:1037D0008093CB018091C701D81217C08091C80196
:1037E000882311F08F1111C02091C901222311F0FB
:1037F00012130BC09091CB01992311F0901305C0C7
:103800003091CA01332309F497C10E94AC0486E0C9
:10381000FE013196A6ECB1E001900D928A95E1F798
:103820000E949F049091B601891769F08093B601B8
:103830008FB7F8944091D3015091D4016091D50194
:103840007091D6018FBF8091E201843009F06ECE75
:1038500083E08093E9008091E80082FF67CE809149
:10386000E80090E085FF05C00E94D0028823F1F0B7
:1038700091E08091E8008B778093E800992309F428
:1038800055CEE981E150E331C0F5F0E0E054F14E6E
:103890000C94C81D5092C8014CCF5092C90151CF11
:1038A0005092CA018FCF5092CB0194CF00E210E02A
:1038B000CE0101967C018091E80085FD0AC08091CF
:1038C000E8008B778093E8000E94D002882399F368
:1038D000CFCF8091F100D7018D937D010150110967
:1038E00051F7C6CF1A828CE08B8324C08A81823044
:1038F00009F427C128F4813061F08FEF89831AC061
:10390000833009F18430C9F71B821C821D821E821C
:1039100011C02FB7F8946091D3017091D4018091B8
:10392000D5019091D6012FBF0E94CE1D6B837C8361
:103930008D839E8340E250E0BE016F5F7F4F82E047
:103940000E94F508F3CD2B81822F90E0FE01319685
:10395000225F8430910570F7DC01AA0FBB1FA954C8
:10396000BE4F3C9111964C9143833483019632961D
:103970002813EFCFDFCF8A81823019F08530D1F262
:10398000BCCF6B817C818D819E810E94CE1D87E2A0
:1039900090E00E943E1ECECF4C816B818A810E94B6
:1039A000030A9827892798279E838D83C3CF2D816B
:1039B0003E813227232732274C816B818A810E94E6
:1039C0007C09B8CF0E94A209B5CFB0E1BA83B2CFCB
:1039D0005A8280ED89CF0A811B8110270127102789
:1039E000FE0131966F01EC80CF018E0D911D7C019F
:1039F000C801805D9D4FEC14FD0409F49BCF003D90
:103A0000A1E01A0750F40E94201EF60184830F5F84
:103A10001F4FBFEFCB1ADB0AEBCFD60114961C92D7
:103A2000F6CF0A811B81102701271027FE0131964E
:103A30006F01EC80E00EF12EF11CC801805D9D4FFE
:103A4000E016F10609F476CF003DF1E01F0728F4F7
:103A5000D60114966C910E943E1EBFEFCB1ADB0A72
:103A60000F5F1F4FEACF0E946C0964CF85E08A8305
:103A700061CF0A811B81102701271027FE01319693
:103A80006F01EC80CF018E0D911D7C01C8018896DD
:103A9000EC14FD0409F44ECF0830A2E01A0750F4EC
:103AA0000E94201EF60184830F5F1F4FBFEFCB1AC9
:103AB000DB0AECCFD60114961C92F6CF0A811B814B
:103AC000102701271027FE0131966F01EC80E00ED0
:103AD000F12EF11CC8018896E016F10609F42ACFF0
:103AE0000830F2E01F0728F4D60114966C910E946A
:103AF0003E1EBFEFCB1ADB0A0F5F1F4FEBCF80914B
:103B0000E101882309F416CDB0E1B9BDE2E1E9BDD8
:103B100009B400FEFDCF8091D8008F7D8093D8003E
:103B20008091E00082608093E0008091E00081FD60
:103B3000FCCF0E94160BFECC822B892B09F467CE9A
:103B400064CE87E290E00E94201E1B821C821D82B0
:103B50008E83F0CE2B30310508F008CE3BCE2B30D3
:103B6000310508F0BACDEDCD97FB072E16F4009481
:103B700007D077FD09D00E940C1E07FC05D03EF44B
:103B8000909581959F4F0895709561957F4F089509
:103B9000EE0FFF1F0590F491E02D099469279627F9
:103BA000692778278727782708952F923F924F9289
:103BB0005F926F927F928F929F92AF92BF92CF92BD
:103BC000DF92EF92FF920F931F93CF93DF93CDB7C6
:103BD000DEB7CA1BDB0B0FB6F894DEBF0FBECDBF3E
:103BE00009942A88398848885F846E847D848C840F
:103BF0009B84AA84B984C884DF80EE80FD800C8118
:103C00001B81AA81B981CE0FD11D0FB6F894DEBFFA
:103C10000FBECDBFED010895AA1BBB1B51E107C02C
:103C2000AA1FBB1FA617B70710F0A61BB70B881F4C
:103C3000991F5A95A9F780959095BC01CD010895DB
:103C4000F999FECF92BD81BDF89A992780B5089564
:103C5000A8E1B0E042E050E00C94641EDC01A40F47
:103C6000B51F4150504048F0CB01840F951F2E9155
:103C70000E943F1E41505040D0F70895262FF999D9
:103C8000FECF92BD81BDF89A019700B4021639F0BB
:103C90001FBA20BD0FB6F894FA9AF99A0FBE08958C
:103CA0000396272F0E943F1E0E943E1E252F0E9432
:103CB0003F1E242F0C943F1E0196272F0E943F1E6B
:103CC0000C943E1EDC01CB01FC01F999FECF06C02D
:103CD000F2BDE1BDF89A319600B40D9241505040CA
:103CE000B8F70895FB01DC0104C08D9101908019A3
:103CF00021F441505040C8F7881B990B0895F8945F
:103D0000FFCF220C4A0CF50D4A0CF50D7D0C9E0CD4
:103D1000F50D9C0DA90D76117A116B1172117E11A2
:103D2000821186111D131D13581358130A142414DD
:103D30008713871329149614A714A714C3113812D4
:103D4000CB1195119911CF119D11D311DF11A9112B
:103D50003112AD11E311B111E7110F12B511EB11D1
:103D60001612BB11F111F911A111D711A511DB1117
:103D7000BF11F51105121F122F128F11C7113F121B
:103D8000721C761CBB1CCC1CD71CE21C7D1C7D1C31
:103D90007D1C7D1C7D1CE51CE81CEB1C111D331DCE
:063DA000361D391D5E1DF9
:103DA60038043E090B0437093009000001008182FE
:103DB60083E200E900EA00B500B600B700CD008353
:103DC60001CC008A019201940121022302240225DA
:103DD60002260227022A02B300B4006F0070009F79
:103DE60001CB019F02A002F0F1F4366667F7F6F503
:103DF600349192939594969744227B49012701AC7E
:083E0600005704700490040051
:00000001FF
